:020000040800F2
:10000000301C00200501000851240008591E00087A
:10001000F72100088D140008693F00080000000067
:100020000000000000000000000000003D3000085B
:100030005119000800000000F52D00084F36000897
:100040001F0100081F0100081F0100081F01000810
:100050001F0100081F0100081F0100081F01000800
:100060001F0100081F0100081F0100081F010008F0
:100070001F0100081F0100081F0100081F010008E0
:100080001F0100081F0100081F0100081F010008D0
:100090001F0100081F0100081F0100081F010008C0
:1000A0001F010008093A00081F0100081D39000857
:1000B0001F010008553A00081F0100081F01000831
:1000C0001F0100081F0100081F0100081F01000890
:1000D0001F0100081F0100081F010008813E0008E1
:1000E000551900081F0100081F010008DFF810D093
:1000F00000F0F6FC0048004745480008AFF30080D8
:10010000301C00200648804706480047FEE7FEE70F
:10011000FEE7FEE7FEE7FEE7FEE7FEE7FEE7FEE7B7
:1001200055360008ED0000082DE9F05F0546002077
:1001300092469B4688460646814640241BE0284658
:1001400041464746224600F0C8FB53465A46C01A6D
:10015000914110D311461846224600F0AFFB2D1AEC
:1001600067EB01084F4622460120002100F0A6FB64
:1001700017EB00094E41201EA4F10104DFDC4846C4
:1001800031462A464346BDE8F09F00000649074A2B
:100190000868504343F23902104408604008704731
:1001A0000149086070470000240100206D4EC641DF
:1001B00038B5D0E90221491E01EB410102EBC10132
:1001C0004268C1EB011102EB81010268C1EB011130
:1001D00002EB8102D0E9043101EB410103EB810123
:1001E0003023A1F5527191FBF3F4174D6C4302EBF0
:1001F000C41291FBF3F403FB141100921A2902DBE1
:10020000124B1A4400920C2291FBF2F3104C634300
:10021000009C04EBC313009391FBF2F302FB131158
:100220000C4A08E0491E40F2A324535C6343009C3F
:1002300004EBC31300930029F4DC0146684600F088
:1002400075FB009838BD00003F0C0F008051010085
:1002500067C20300D058000840EA01039B0703D09F
:1002600009E008C9121F08C0042AFAD203E011F8F5
:10027000013B00F8013B521EF9D27047D2B201E0B7
:1002800000F8012B491EFBD270470022F6E710B59B
:1002900013460A4604461946FFF7F0FF204610BDF4
:1002A00010B5044604E00B7800F8013B03B1491C8B
:1002B000521EF8D2204610BD10B5002200E0521C9C
:1002C000835C8C5CA34201D1002BF8D1D8B2E1B29F
:1002D000401A10BDF0B480EA0102D40F4200B2EB24
:1002E000410F02D20246084611464A0042D0C30DD1
:1002F000DDB2C1F3C752AD1A202D35DAC1F31601B4
:1003000041F4000204B15242C5F1200602FA06F19E
:100310002A411044B3EBD05F23D0C4B1012DA0EB30
:10032000C35009DCF0BC4FF0004202EAC352DBB21A
:1003300000F5000000F049BB400000F1807000EBC8
:10034000C350A0F1807040EAD170490009E049082B
:1003500041EAC071A0EBC35000F50000400800EB7B
:10036000C350F0BC00F028BB6142012202EB410106
:10037000001BF6E7F0BC704781F00041AAE780F06F
:100380000040A7E780EA010210B502F000434000F8
:1003900022D04A001FD0010E01EB1261C0F35600BB
:1003A000C2F3560240F4000042F40002A0FB022017
:1003B00000047F39140400D0401C50EA124001D4DC
:1003C0004000491EC2B20C0604EBD010401C40088D
:1003D000802A02D003E0002010BD20F00100002997
:1003E00000DA0020184310BD30B480EA010202F0A8
:1003F000004530F0004221F0004013D090B1C30D11
:10040000D40DC2F31601C0F31600E41A41F4000142
:1004100040F400027D34914201D3641C00E04900A5
:10042000002C02DA30BC002070474FF4000000239B
:10043000914201D3891A034340084FEA4101F7D1A1
:1004400051B1914202D14FF0004105E002D24FF08C
:10045000010101E06FF0010103EBC450284430BCFE
:1004600000F0AABA2DE9FE4F804681EA0300C00FD2
:100470000C46009021F0004123F00045B8EB02004B
:10048000A94105D24046214690461C460B460246ED
:1004900023F00040104347D0270DC7F30A00C3F3F1
:1004A0000A510290401A019040286BDAC3F31300FE
:1004B00040F4801B0098924620B10023D2EB030A3F
:1004C00063EB0B0B01985946C0F14002504600F017
:1004D000F5F906460D4650465946019A00F00DFAC8
:1004E00010EB08006141002487EA115284EAE773A7
:1004F0001A4340D0009A62B3019A012A4FEA075288
:1005000015DC001B61EB02014FF0004202EA0752CA
:10051000CDE90042001C41F5801132462B4600F027
:1005200091FA03B0BDE8F08F40462146F9E7001B81
:1005300061EB0201001C41F5801300185B4120189B
:10054000A2F5001747EB030140EAD570B6196D41DB
:1005500011E06D084FEA360645EAC0754FEA0752CA
:10056000001B61EB0201001C41F5801149084FEAB4
:1005700030000019514132462B4603B0BDE8F04F20
:1005800000F051BA0098012240000023D0EB020293
:1005900063EBE073009821464FEAE074B8EB00008B
:1005A00061EB0401E9E783F000435BE781F0004180
:1005B00058E72DE9FE4F81EA030404F0004421F0DE
:1005C000004100944FF0000B23F0004350EA010477
:1005D0005ED052EA03045BD0C3F30A54C1F30A5558
:1005E0002C44A4F2F3340194A0FB0254C1F3130190
:1005F00041F48011C3F3130343F4801301FB02445D
:1006000000FB034E840A970A44EA815447EA835761
:10061000A4FB076802958D0A05FB07854FEA932C1A
:1006200004FB0C542705029D4FEA065847EA16378B
:10063000B5EB08056EEB070C870E920E47EA8117A3
:1006400042EA8312A7FB0201B6EB0B0164EB000444
:100650002B0D43EA0C335E1844EB1C50DA4651462E
:10066000E7FB0201C5F313044FEA0B3343EA1453CB
:100670004FEA0432019C43EA0603A4F10C040294FD
:10068000009CCDE900B400F0DDF903B0BDE8F08FC7
:1006900000200146F9E72DE9F04D81EA030404F05A
:1006A000004B21F0004514464FF0000A23F00041B2
:1006B00050EA050220D054EA01021DD0C5F30A57C2
:1006C0000246C5F31303C1F31300C1F30A5640F405
:1006D000801543F48013A7EB0608101BD64608F2DA
:1006E000FD3873EB050002D308F1010801E0921810
:1006F0005B41B8F1000F03DA00200146BDE8F08D40
:1007000000204FF48011064684460EE0171B73EB61
:10071000050705D3121B63EB050306434CEA010CE6
:1007200049084FEA300092185B4150EA0107EDD1C9
:1007300052EA030012D082EA040083EA050108436A
:1007400005D0101BAB4106D20122002306E0002297
:100750004FF0004302E06FF0010253101AEB060065
:100760004CEB085110EB0A0041EB0B01BDE8F04DDA
:1007700000F059B9C10F80EAE0700844CA07962317
:10078000002100F022B996230022114600F01DB985
:100790000EB540F2334102910021CDE900110A4625
:1007A0000B4600F04FF903B000BD20F00040C10D32
:1007B000C0F3160040F400007F2901DA00207047E2
:1007C000962903DCC1F19601C840704796398840EC
:1007D0007047C1F30A52C1F3130140F2FF3341F4F1
:1007E00080119A4202DA00200146704740F23343FA
:1007F0009A42A2F2334202DC524200F06EB800F09C
:100800005DB800F0004230F000400AD0C10D01F5A3
:100810006071C0F3160042EA0151C208400711435B
:10082000704700200146704730B5041E71F1000486
:1008300004DB4FF00044404264EB0101141E73F1ED
:10084000000405DB1C464FF00043524263EB0403F7
:10085000994208BF904230BD01F0004330B421F00E
:10086000004150EA010206D00A0DA2F56072C1F300
:100870001301002A02DC30BC00207047440F44EA18
:10088000C104C100E01830BC00EBC25000F094B8C5
:1008900030B50B46014600202022012409E021FA50
:1008A00002F59D4205D303FA02F5491B04FA02F54D
:1008B0002844151EA2F10102F1DC30BD202A04DB20
:1008C000203A00FA02F1002070479140C2F1200363
:1008D00020FA03F3194390407047202A04DB203AA2
:1008E00021FA02F00021704721FA02F3D040C2F150
:1008F00020029140084319467047202A06DBCB1797
:10090000203A41FA02F043EAE07306E041FA02F3CA
:10091000D040C2F1200291400843194670470000C0
:10092000014900F003B80000000C002010B5006879
:100930003C22B0FBF2F302FB1303B0FBF2F00B60BE
:10094000B0FBF2F302FB1303B0FBF2F018224B6092
:10095000B0FBF2F302FB1303B0FBF2F0021D8B605D
:100960000723B2FBF3F403FB1422800040F2B553DB
:1009700000F66C308A61B0FBF3F2B0FBF3F403FBDA
:100980001400443280084A61C8613B2802D39207B0
:1009900000D0401C0022074C13460A61E25C8242F0
:1009A00003D8801A5B1C0B61F8E7401CC86008463E
:1009B00010BD0000DC5800080029A8BF7047401C8B
:1009C000490008BF20F00100704710B4B0FA80FC65
:1009D00000FA0CF050EA010404BF10BC704749B1A2
:1009E000CCF1200421FA04F411FA0CF118BF012112
:1009F00021430843A3EB0C01CB1D4FEA00614FEAF2
:100A0000102042BF002010BC704700EBC3501044C0
:100A10000029A4BF10BC7047401C490008BF20F04B
:100A2000010010BC704710B5141E73F1000408DA01
:100A3000401C41F1000192185B411A4301D120F0A2
:100A4000010010BD2DE9F04D92469B4611B1B1FA5F
:100A500081F202E0B0FA80F220329046FFF72EFFDA
:100A600004460F4640EA0A0041EA0B0153465A4643
:100A7000084313D0114653EA010019D0C8F14002CF
:100A80005046FFF72AFF05460E4650465946424655
:100A9000FFF714FF084305D0012004E02046394643
:100AA000BDE8F08D0020054346EAE0762C4337434D
:100AB0000A986305E40AA0EB08000022FD0A44EA54
:100AC00047540A3002D500200146E9E70105101914
:100AD0006941DDE9084500196941BDE8F04DA2E72B
:100AE000064C074D06E0E06840F0010394E807007B
:100AF00098471034AC42F6D3FFF7FCFA3859000897
:100B000058590008002904D0816841F00101816032
:100B10007047816821F0010181607047002904D08D
:100B2000816841F4807181607047816821F480712F
:100B300081607047014600208968490700D501207F
:100B40007047014600208968090700D501207047D9
:100B500010B542680E4B1A400C790B6842EA042229
:100B60001343436082680B4B1A40D1E9024323438D
:100B70004C7942EA440213438360C26A22F4700251
:100B8000097C491EC9B242EA0151C16210BD000090
:100B9000FFFEF0FFFDF7F1FF70B5072609290AD91E
:100BA000C568A1F10A0404EB4404A640B543A34080
:100BB0001D43C56007E0056901EB4104A640B5434C
:100BC000A3401D4305611F23072A09D2446B521E0F
:100BD00002EB820293409C4391400C43446370BDFE
:100BE0000D2A09D2046BD21F02EB820293409C4370
:100BF00091400C43046370BDC46A0D3A02EB82025B
:100C000093409C4391400C43C46270BD816841F0A5
:100C1000080181607047002904D0816841F4A00177
:100C200081607047816821F4A0018160704781680C
:100C300041F004018160704710B502F0A3F90B493F
:100C40000B480A78C3789A420ED14A7803799A42BF
:100C50000AD189784279914206D18079002803D15E
:100C6000024901200C39487110BD0000E400002049
:100C7000CA0000202DE9F047074600F02FF904468E
:100C80000D461D4EDFF874A04FF00008B0794FF408
:100C90008049012817D1D6E90412611845EB0200FA
:100CA000C91B70EB08000ED300F018F9C6E9040167
:100CB00000224946504600F0DFFE86F80680708923
:100CC00008B1401E7081B079002813D1D6E9041014
:100CD000611A65EB0005C81B75EB08050AD300F027
:100CE000FDF8C6E9040101224946504600F0C4FE61
:100CF0000120B071BDE8F087D8000020000C014051
:100D000070B51A4C6078012826D100F05BF81848BD
:100D10000178012920D10025057001F019F90B286F
:100D200014D00D2804D00E2807D0112814D10AE0C1
:100D3000207888B1401E20700EE0207802280BD069
:100D4000401C207008E000F0AFF805E009490120E0
:100D50000870657001F022FC02F070FA02F0CAF926
:100D6000FFF76AFFBDE8704000F006B8D800002029
:100D70001C0000205400002010B50F4C60790128A1
:100D800018D12079012815D101F0E2F80C2805D0FE
:100D9000BDE810404FF4FA70FFF76CBF0749002020
:100DA0000870607120710122BDE810409103044871
:100DB00000F062BE10BD0000D80000201C00002022
:100DC000000C014010B586B001F0E8FB02F0DAF843
:100DD0002848817942790379C478CDE90243CDE985
:100DE000042181780088CDE9000123A30622022195
:100DF000002001F0C7FD254825A3817842780078BE
:100E0000CDE90121009008220A21002001F0BAFD5D
:100E10001E4C0C3C2079012808D021A308221A215D
:100E2000002001F0AFFD207838B10CE01DA30822AE
:100E30001A21002001F0A6FDF5E7092380220121F7
:100E4000002001F0B5FD2078012805D11023802273
:100E50000A21002001F0ACFD2078022805D11023E2
:100E600080221A21002001F0A3FD06B0BDE8104049
:100E700001F01ABFCA00002025642D25642D2564C9
:100E80002D25642D25642D2564000000E40000203C
:100E90002564202D202564203A20256400000000D0
:100EA0004F4646004F4E00000B490020487008781E
:100EB0000122002809D0012809D0022804D14A7053
:100EC000087930B1002008717047CA7070478A7085
:100ED00070470120F7E70000D800002001490868AA
:100EE00049687047A800002070B588B00121022031
:100EF00001F0A8FF0021022001F0A4FF012102203F
:100F000001F092FF1F4E0121304602F0BDFD472047
:100F1000ADF8140040F2E730ADF818000024ADF849
:100F2000164005A9304602F05DFF01A802F00EFF51
:100F30006020ADF80400ADF80C400125ADF8065076
:100F4000ADF80A4001A9304602F0BEFE012130464C
:100F500002F0C3FD01221146304602F01DFE1D20A5
:100F60008DF800008DF801408DF802508DF8035087
:100F7000684601F06FFA0121304602F0A2FD08B088
:100F800070BD0000000400402DE9F04106462948EC
:100F9000294D4FF07E5744780F2E22D134B1012CC9
:100FA0000AD0022C0ED0032C1BD111E03946286840
:100FB000FFF7E2F9286014E039466868FFF7DCF9CA
:100FC00068600EE03946A868FFF7D6F9A86008E027
:100FD000A889401E02B2AA816FF06300824200DA43
:100FE000A881102E21D134B1012C0AD0022C0ED0B0
:100FF000032C1AD111E039462868FFF76BF92860F5
:1010000013E039466868FFF765F968600DE0394616
:10101000A868FFF75FF9A86007E0A889401C00B244
:10102000A881642801DD6420A881BDE8F04100F0BA
:1010300019BA0000C0000020CC0700202DE9F041C3
:101040008AB00121042001F00BFF18258DF82750EC
:101050000720ADF8240003248DF8264009A9424852
:1010600000F0ACFC8DF823500125ADF820508DF830
:1010700022403E4E08A9304600F0A0FC10218DF819
:1010800023102103ADF820108DF8224008A9304626
:1010900000F094FC0121084601F0C6FE0121022067
:1010A00001F0C2FEAF07384602F080FDDFF8C080D5
:1010B000404602F07BFD0024ADF81A40ADF8164022
:1010C00044F61F60ADF818004726ADF814608DF89F
:1010D0001C4005A9384602F085FEADF8146040F2C8
:1010E000E730ADF81800ADF8164005A9404602F00B
:1010F00079FE0121384602F0F0FC0121404602F061
:10110000ECFC01A802F022FE6026ADF80460ADF808
:101110000C40ADF80650ADF80A4001A802F016FEEA
:10112000ADF80460ADF80C40ADF80650ADF80A40DB
:1011300001A9384602F040FD01A9384602F080FDC1
:1011400001A9384602F0C0FD01A9404602F0BCFDED
:101150000121384602F0B5FC0121404602F0B1FC05
:101160000AB0BDE8F081000000080140000C014019
:101170000004004070B52F48007800282BD12E4D78
:10118000B92140F6FF7628884843B0FBF6F0C0F15D
:10119000B900FFF7EFFA294C20606888B92148436D
:1011A000B0FBF6F0FFF7EFFA6060A888B92148437A
:1011B000B0FBF6F0C0F1B900FFF7DCFAA060E888F8
:1011C0006421A0F500604843C11700EB5150C012E4
:1011D000A08100F047F91A4C2078002829D019483E
:1011E0000178012921D10025057000F0B1FE0B38EE
:1011F00006281AD2DFE800F01319080D030300F0E7
:10120000A7FEFFF7C1FE10E0607870B1401E60706D
:101210000BE06078032808D2401C607005E0257060
:1012200009490120087001F0B9F9BDE8704000F0EB
:10123000C3B870BDF8000020C2000020CC07002019
:10124000C00000201C0000205400002003480021A2
:10125000016041608160818100F004B9CC07002009
:1012600010B50D4910F1FF4F01D3002008600B4A63
:10127000904201DD10460A600949FFF7B5F80949B7
:10128000FFF780F80849FFF725F8FFF78EFABDE869
:10129000104080B201F098BDCC0700200000394317
:1012A000000034430000FA440000FA4310B50D4931
:1012B00010F1FF4F01D3002088600B4A904201DDFE
:1012C00010468A600949FFF78FF80949FFF75AF875
:1012D0000849FEF7FFFFFFF768FABDE8104080B24B
:1012E00001F07CBDCC0700200000394300003443EE
:1012F0000000FA440000FA432DE9F0410446642C52
:1013000000DB64246FF06300844200DC0446154F68
:10131000154D4FF480514FF400584FF6FF76002CD6
:101320000FDB384600F0A6FB4146384600F0A0FB34
:10133000AC8104EB840006EA4000BDE8F04101F016
:1013400053BD384600F094FB4146384600F092FB0E
:10135000AC81604200EB800006EA4000BDE8F0414D
:1013600001F042BD000C0140CC07002010B50D4932
:1013700010F1FF4F01D3002048600B4A904201DD7D
:1013800010464A600949FFF72FF80949FEF7FAFFAE
:101390000849FEF79FFFFFF708FABDE8104080B24A
:1013A00001F017BDCC070020000039430000344392
:1013B0000000FA440000FA431CB501F0EFF81B4CA2
:1013C0002068FFF71EFACDE90001002118A30822CA
:1013D000084601F0D7FA6068FFF713FACDE900017B
:1013E00016A308221021002001F0CCFAA068FFF714
:1013F00008FACDE9000114A308222021002001F001
:10140000C1FAB4F90C00009012A308223021002088
:1014100001F0B8FA12481023802240780101002020
:1014200001F0C6FABDE81C4001F03EBCCC0700202C
:1014300020204261736520202025660053686F7567
:101440006C6465722025660020456C626F772020F1
:101450002025660046616E53706565642025640032
:10146000C000002010B5084C2068FFF7F9FE606846
:10147000FFF77CFFA068FFF719FFB4F90C00BDE887
:101480001040FFF739BF0000CC070020FEE7000046
:1014900070B588B00121052001F0E2FC48208DF8EC
:1014A0001F004FF48070ADF81C0007A9374800F00A
:1014B00085FA0121CC02204601F0E0FC0021204603
:1014C00001F0DCFC0121204601F0CAFC304E012174
:1014D000304602F0D9FA8F20ADF810004FF6FF70B9
:1014E000ADF814000024ADF812408DF81840ADF8A6
:1014F000164004A9304602F075FC0121304602F086
:10150000ECFA0021304602F02BFC0021304602F0BC
:1015100033FCADF804400920ADF80C000220ADF812
:101520000600ADF80A400125ADF8085001A9304683
:1015300002F0ECFA0121304602F0C3FA0122002148
:10154000304602F0ADFA01220321304602F024FBBE
:101550000321304602F0AFFA1B208DF800008DF811
:1015600001408DF802508DF80350684600F072FF7C
:1015700019208DF800008DF801408DF802508DF88B
:101580000350684600F066FF08B070BD00080140D7
:10159000002C01402DE9F04101F000F80024124F29
:1015A000F8782044C5B20A2D15D2104905EBC500C4
:1015B00001EB800304EB840081000E46082200202A
:1015C00001F0E0F93879854205D1314614234622ED
:1015D000002001F0EDF9641CE4B2032CE0D3BDE877
:1015E000F04101F061BB000088000020F4020020FF
:1015F00070B58AB040F269113348FEF746FE0B22FF
:1016000032A101A8FEF74CFE04A80B2231A1054629
:10161000FEF746FE07A80B2231A10646FEF740FE64
:10162000242201A92848FEF717FE2F4C2078401CE1
:1016300020700B222DA101A8FEF732FE0B222DA156
:101640002846FEF72DFE0B222DA13046FEF728FE80
:10165000242201A9A4F5A270FEF7FEFD2078401C0B
:1016600020700B2228A101A8FEF71AFE0B2228A148
:101670002846FEF715FE0B2228A13046FEF710FE85
:10168000242201A9A4F59070FEF7E6FD2078401C05
:1016900020700B2223A101A8FEF702FE0B2223A13A
:1016A0002846FEF7FDFD0B2223A13046FEF7F8FD8C
:1016B000242201A9A4F1FC00FEF7CEFD2078401CF5
:1016C00020700AB070BD0000F40200204D722E3967
:1016D0003137350034393836343439393500000083
:1016E00077717734323330005C0400204D722E4124
:1016F000410000003531363632313138000000000B
:1017000068646673696800004D722E42422E0000C4
:1017100031343631353136313536000046445346A2
:101720004D3500004D722E434300000034363134F5
:101730003536353100000000574546463432320018
:101740002DE9F041584CA078012801D100F088FC27
:101750006078012801D100F0AFFE207801286ED119
:1017600052480178012919D10026067000F0F0FBDB
:101770000B3801274E4D072810D2DFE800F0545AED
:1017800004101F464F002079002807D0401EC1B228
:101790002171E078814201D2C01EE0707EE095F8B0
:1017A00068112079491E814278DD401CC1B2217147
:1017B000E078C01C814271D3E0706FE095F8680159
:1017C000217988420ED810E0411E0E4601EBC1017E
:1017D00000EBC00005EB810105EB80002422FEF741
:1017E0003BFDF0B221798842EED895F86801401CA3
:1017F00085F868012079242100EBC00005EB80000A
:10180000FEF743FD00F0CAFE48E095F8680120713C
:10181000401C85F8680100F0C1FE3FE000F0BEFE0C
:10182000677026703AE000F0B9FE26702148077014
:1018300034E095F868112079814211D81CE031E03C
:1018400000F101010C4601EBC10100EBC00005EB0A
:10185000810105EB80004FF02402FEF7FDFCE0B2B1
:1018600095F868118142EBD895F86801401E85F81B
:10187000680100F093FE11E00ED100EBC00005EB13
:1018800080002421FEF701FD2079401E207195F88B
:101890006801401E85F8680100F080FEBDE8F04157
:1018A000FFF778BEBDE8F081880000201C00002012
:1018B000F40200205400002038B501240021022346
:1018C00080220846009400F06BFF022380223E2114
:1018D0000020009400F064FF00214023012208460C
:1018E000009400F05DFF4023012200217F2000943E
:1018F00000F056FFBDE8384001F0D6B9002904D009
:10190000016841F001010160704701684FF6FE7205
:1019100011400160704730B5026847F6F0739A4392
:101920000C6A8B682343D1E904452C4323438C691B
:101930002343CC6923434C6A23438C6A23431343D8
:101940000360CA6842600A6882604968C16030BD4D
:101950007047000070B54FF48065284600F01EF80F
:101960000A4C012804D1284600F012F8012020700A
:101970004FF40065284600F011F8012804D12846EC
:1019800000F006F80020207070BD0000F800002074
:10199000014908607047000014040140014600201E
:1019A000054A12680A40044B14331B680B4202D0EC
:1019B000002A00D001207047000401402DE9F041C9
:1019C0000022CC7804F00F03E40601D58C78234381
:1019D0000C784FF00F0714F0FF0F4FF0010C1CD0E4
:1019E00005680CFA02F40E882640A64211D1960032
:1019F00007FA06F825EA080503FA06F848EA050595
:101A0000CE78282E02D0482E02D002E0446100E0B9
:101A10000461521C082AE4D305600A88FF2A1ED9F3
:101A20004568002202F108060CFA06F40E882640EA
:101A3000A64210D1960007FA06F825EA080503FA2F
:101A400006F848EA0505CE78282E00D14461CE7804
:101A5000482E00D10461521C082AE3D34560BDE83A
:101A6000F0810246002092680A4200D001207047AF
:101A70004161704701617047002A01D001617047E0
:101A80004161704710B504460848C178002906D165
:101A90000121C170064802F024F8FEF781FBFEF731
:101AA00075FBB0FBF4F104FB110010BD54000020E5
:101AB000002C0140064806224178B1FBF2F1491C96
:101AC000C1708178012202EBD101017170470000E1
:101AD0007C000020F8B517480178012929D100269B
:101AE000067000F035FA0446134D092C12D86868C8
:101AF00000EB800004EB40006860002100900FA321
:101B00000822084600F03EFF00211023402208462C
:101B100001F0DEF80B2C05D0112C0AD1BDE8F840FD
:101B200000F0C2B90649012008702E706E606E7018
:101B30006E80F8BD1C0000207400002025640000A9
:101B400054000020F0B5ADF5557D2B4D28780128C7
:101B50004FD1A878012720B9FFF7AEFE01F006FCAF
:101B6000AF706878254C002640B9FFF7B7F9D4F874
:101B7000582380187141C5E902016F70FFF7AEF973
:101B8000D5E90232181A8A4122D26E7094F85C03A9
:101B900010B91A4801F004FD94F85C0330B1012833
:101BA0000FD002280DD0042812D10EE013494FF4B3
:101BB000547210316846FEF74FFB0FCC01F0F5FB75
:101BC00006E00E4801F04CFC02E00C4801F068FC15
:101BD00000F0BEF90B280CD1084801F0C3FB0848FF
:101BE0000770AE702E700DF5557DBDE8F04000F029
:101BF000D5BC0DF5557DF0BD980000206C0400208B
:101C000054000020F8B5744C2078012876D1734830
:101C10000178012972D10026067000F099F9704D03
:101C20000B38012305F1E607072818D2DFE800F09A
:101C3000BC9204182C405400A17800290FD008232E
:101C40000622607800F0B4FEA0780838A070FFF794
:101C500031FF08230622A178607800F0A9FEB5E0E4
:101C6000A1783829FBD208230622607800F0A0FE74
:101C7000A0780830A070FFF71DFF08230622A17886
:101C8000607800F095FEA1E060780128E7D908238C
:101C90000622A17800F08CFE6078801F6070FFF74C
:101CA00009FF08230622A178607800F081FE8DE00C
:101CB000607879280FD208230622A17800F078FEF8
:101CC0006078801D6070FFF7F5FE08230622A1787A
:101CD000607800F06DFE79E0FFF7ECFEE07800EB55
:101CE0008001207907EB4102165C012E6ED005EBD6
:101CF0004101095C012902D051B167E06AE000F0BE
:101D00004DFC002137A30822084600F03BFE5DE0B1
:101D1000135408230622A178607800F053FC22793E
:101D2000E1782F4800F099F8009032A30622A178BC
:101D3000607800F027FE08230622A178607800F082
:101D400037FEE088401C80B2E0809E283ED100F043
:101D500063FB3BE0E07800EB8003207907EB430274
:101D6000115C012932D0618981B302271754491EC1
:101D7000618105EB4301085C012802D12089401CE8
:101D8000208120890A2801D100F046FB0823062281
:101D9000A178607800F016FC009608230622A1784E
:101DA000607800F0FDFC11E02670134803700C48C9
:101DB000E621E630FEF769FAE68026810A20608196
:101DC00000F0ECFB072060700820A070BDE8F84030
:101DD00000F06ABFF8BD00007C0000201C0000205D
:101DE00028010020E681ADE5969CE4BDA0E8BE9305
:101DF000E4BA8600256400005400002010B50548B0
:101E00000078012805D100F007F8BDE81040FFF781
:101E100061BE10BD7400002010B5094C6078002828
:101E20000CD108A30822142100F0ACFD102380225D
:101E30001421002000F04CFF0120607010BD000054
:101E400074000020E8AFB7E78C9CE695B0E5AD974D
:101E50003A302D3130303000FEE7F0B54B1E01EB4B
:101E6000810503EB830300EB430300EB45059C185E
:101E70001544491C01EB810114F8016C15F8017C33
:101E800000EB410081183E4411F8017C9B5C805CB2
:101E90003B4433446278184410446A7849781044CB
:101EA0000844C0B2F0BD000070B50021102320220C
:101EB000084600F087FB102320222821002000F094
:101EC00081FB1B4C608850B91A4801F00AFE4FF4A0
:101ED0007A71B0FBF1F201FB1200401C6080618856
:101EE00060680025884209D913A34FF008024FF01B
:101EF00028014FF0000000F045FD11E009D210A3C9
:101F00004FF008024FF028014FF0000000F03AFDBA
:101F100006E00DA308222821002000F033FD658093
:101F2000102320222821002000F0D2FE656070BD21
:101F300074000020002C0140E5A4A7E4BA8600004C
:101F4000E5B08FE4BA860000E5AFB9E4BA860000D8
:101F500000200949A1F11802D27811F810309342FB
:101F600003D101EB400040787047401C80B212283A
:101F7000F3D30A20704700003000002038B5304D00
:101F800000240928A97928D8EA79904203D12A7A2D
:101F9000521C2A7201E0E8712C722A4A02EB80007E
:101FA0002A7A02F00302845C274D6C54002127A397
:101FB0000822084600F0E6FC26A30822142100208F
:101FC000009500F0DFFC24A308222821372000948C
:101FD00000F0D8FC00F068FE2EE0112802D00C289A
:101FE00005D029E0491CA9712C72EC7124E0144839
:101FF0001A4A6979007900EBC00002EB800021B138
:10200000012907D002290BD00FE00B220E49FEF761
:1020100047F90AE00C300B220B49FEF741F904E0C6
:1020200018300B220849FEF73BF9AC7106480460F2
:10203000446084602C72EC71BDE8384000F034BE1E
:1020400088000020D84900085D040020496E7075A2
:10205000743A00002573000025630000F40200209C
:1020600070B50F4DA878012819D10E4E307801288F
:1020700015D1FFF76DFFFFF781FF00243470FFF7E4
:1020800067FF0B280BD100F089FAAC700120687053
:10209000AC7105480460446084602C72EC7170BDC2
:1020A000880000201C0000205D0400202DE9F04184
:1020B00005461B4CDFF86C80002660784FF4005713
:1020C000002813D1FEF70AFFD4E902325B197241EE
:1020D000181A8A410AD201206070FEF7FFFEC4E997
:1020E0000201002239464046FFF7C6FC607801280D
:1020F00014D1FEF7F3FED4E902325B197241181ACB
:102100008A410BD26670FEF7E9FEC4E90201394646
:102110004046BDE8F0410122FFF7AEBCBDE8F081CA
:10212000B00000200010014008B508A3009008226C
:102130000021402000F026FC102320220021402016
:1021400000F0C6FDBDE8084000F028BA2564000094
:1021500038B50121102000F083FE14208DF8030013
:102160004FF40054ADF8004002208DF80200054DF8
:1021700069462846FFF722FC002221462846FFF741
:102180007BFC38BD0010014070B5134C207801284D
:102190001DD112480178012916D100250570FFF7DD
:1021A000D7FEA0700B2802D00C2808D106E02570BD
:1021B0000B490120087000F0F1F900E0A580064904
:1021C000A078091D00F00EF8A088FFF7ADFFA088E9
:1021D000BDE87040FFF76ABFB00000201C0000207F
:1021E00054000020092805D80A8802EB820200EB7F
:1021F000420008807047FEE7FEB500F0CFF90024EA
:102200001D4F78782044C5B2072D14D21A480822F1
:10221000001D50F8253004EB840081000E4600209C
:1022200000F0B0FBB878854205D131461423462230
:10223000002000F0BDFB641CE4B2032CE1D30F4C82
:102240000FA3A178E0782288CDE900210290062230
:102250000021462000F096FB6179A0792279CDE932
:102260000021029009A3062208214C2000F08AFBDD
:10227000BDE8FE4000F018BD54000020CA00002058
:1022800025642D25642D25640000000025643A2571
:10229000643A25640000000070B53C4D28780128A0
:1022A00001D1FFF7A9FF3A48017801291FD1297808
:1022B00001291CD100240470FFF74AFE0D280DD01F
:1022C0000E2818D0112812D1A978012007290ED282
:1022D000DFE801F020272E373E4D5400A87838B1B2
:1022E000401EA870A8786978884200D2687070BDD6
:1022F0000620A870F6E7A878401CC0B2A87007288E
:1023000000D3AC706978A878C91C8842EFD3801ECE
:10231000687070BD2C701F490870BDE8704000F0F7
:102320003DB92C701C490870BDE8704000F036B90A
:102330002C701A49087000F031F9BDE8704000F0C7
:1023400059B82C7016490870BDE8704000F026B9E5
:102350002C701449087000F021F9002112A3082202
:10236000084600F00FFBBDE8704000F09DBC2C70EB
:1023700010490870BDE8704000F010B92C700E498B
:102380000870BDE8704000F009B90000540000205A
:102390001C00002088000020980000207C00002005
:1023A00074000020B0000020466C69636B65723ACF
:1023B00000000000D9000020C00000202DE9F041FD
:1023C0000A240B4E01271520FFF75CFB451C082053
:1023D000FFF758FB401C05EB850106EB41010A5C49
:1023E00012B90F54641EA4B2002CECD1BDE8F081E8
:1023F0002801002010B500223F231146104600F0AE
:102400000FF97F223F230021104600F009F9BDE8B3
:10241000104000F049BC000010B500F0BFF807A361
:1024200008221421002000F0ADFA082360221421B4
:10243000BDE81040002000F04BBC0000E5BE88E97C
:102440008197E686BEE4BDA0E8B5A2E4BA860000A6
:102450007047000070B50F23C27801260178002A6A
:102460001ED0144A126802F4E062C2F5E062120A59
:10247000C2F10404D3404578A54082781A402A432B
:10248000120101F1E02181F80024007800F01F0121
:102490008E404009800000F1E020C0F8006170BD6E
:1024A00001F01F0086404809800000F1E020C0F8DC
:1024B000806170BD0CED00E0F8B52F4C607801280C
:1024C00059D100F06BF820792C4D00EBC00005EBE2
:1024D0008000002100902AA30822084600F052FA4A
:1024E000207929A300EBC00005EB80000C300090A0
:1024F00008221421002000F045FA207924A300EBE3
:10250000C00005EB80001830009008222821002030
:1025100000F038FA6079142300EB800081008022FB
:10252000002000F045FA1C48017801291FD1002540
:102530000570FFF70DFD01260B2816D00D2804D0DD
:102540000E2807D0112812D10AE0607978B1401E18
:1025500060710CE06079022809D0401C607106E0CF
:1025600000F01CF8A670657001E065702670BDE88B
:10257000F84000F099BBF8BD88000020F40200206C
:102580004E616D653A25730051513A257300000084
:1025900057583A25730000001C00002010B5002198
:1025A000074C0022002004EBC1131A54401CC0B297
:1025B0008028FAD3491CC9B20829F3D310BD000002
:1025C000FE0700202DE9F041CF1823E004468618CD
:1025D0001CE07F2C18D8002916DB3F2914DCCB1710
:1025E00001EB5373DD104FEAC51C0C4D23F00703BC
:1025F0006544A1EB030815F804C0012303FA08F3AE
:102600002CEA030C05F804C0641C24B2A642E0DCEA
:10261000491C09B28F42D9DCBDE8F081FE070020D9
:102620002DE9F04F07460C4616461D464FF00008B0
:10263000C146AC420FD1B74209DD3846374606469F
:1026400005E02146384600F091F87F1C3FB2B742C2
:10265000F7DDBDE8F08FB7420ED1AC4209DD204670
:102660002C46054605E02146384600F07FF8641CFC
:1026700024B2AC42F7DDECE705DD384637460646C6
:1026800020462C460546AC4205DD604204B2684255
:1026900005B24FF00108281BF11B884207DD3846C0
:1026A0002746044630462E4605464FF00109F11BE9
:1026B000281B42000FFA82FA421A52000FFA82FBDC
:1026C000C1EB400005B2B8F1000F08D0B9F1000F1E
:1026D00005D0784201B2204600F048F843E0B8F156
:1026E000000F05D0604201B2384600F03FF83AE0F2
:1026F000B9F1000F04D03946204600F037F832E037
:102700002146384600F032F82DE07F1C3FB2002D04
:1027100003DA05EB0A0005B204E0641C24B205EB01
:102720000B0005B2B8F1000F08D0B9F1000F05D0C9
:10273000784201B2204600F019F814E0B8F1000F19
:1027400005D0604201B2384600F010F80BE0B9F154
:10275000000F04D03946204600F008F803E0214677
:10276000384600F003F8B742CFDB72E710B57F2898
:1027700012D8002910DB3F290EDCCA1701EB527278
:10278000D310DC01054B22F0070223448A1A1C5C9B
:10279000012191400C431C5410BD0000FE07002095
:1027A0002DE9F04381460798884608EB030609EBBC
:1027B0000207002801D04D462DE04D46701E04B2A0
:1027C00009E041462846FFF7D1FF21462846FFF79A
:1027D000CDFF6D1C2DB2AF42F3DC44467F1E3DB2EF
:1027E00009E021464846FFF7C1FF28462146FFF78A
:1027F000BDFF641C24B2A642F3DCBDE8F08344466E
:1028000005E021462846FFF7B1FF641C24B2A6422A
:10281000F7DC6D1C2DB2AF42F1DCEEE738B50021DC
:102820004FF47A720020401C9042FCD3491C914224
:10283000F8D30121082000F013FB14208DF80300C9
:1028400003208DF802004FF48070ADF80000094CB1
:1028500069462046FFF7B2F86115ADF800106946E9
:102860002046FFF7ABF8012000F066FA012000F0E7
:102870006BFA38BD000C014070B505460024802677
:1028800026FA04F0284000D0012000F05DFA012073
:1028900000F052FA002000F04FFA641CE4B2082C59
:1028A000EED3012000F048FABDE87040002000F0AF
:1028B00043BA10B5012000F047FA012000F03CFABD
:1028C000002000F041FABDE81040002000F034BACA
:1028D00010B5002000F038FA012000F02DFABDE814
:1028E0001040012000F030BA10B5FFF797FFAE207E
:1028F00000F032FAD52000F02FFA802000F02CFAF8
:10290000A82000F029FA3F2000F026FAD32000F09A
:1029100023FA002000F020FA402000F01DFAA12048
:1029200000F01AFAC82000F017FADA2000F014FAC2
:10293000122000F011FA812000F00EFACF2000F0F2
:102940000BFAD92000F008FAF12000F005FADB209C
:1029500000F002FA302000F0FFF9A42000F0FCF9AA
:10296000A62000F0F9F98D2000F0F6F9142000F00F
:10297000F3F9AF2000F0F0F9FFF710FEBDE81040CA
:1029800000F092B90FB470B5C0B005460E461446BB
:1029900048AA6846479901F0E9FA23466A46314653
:1029A000284600F0BDF840B070BC5DF814FB000094
:1029B0002DE9F041CF1823E0044686181CE07F2C57
:1029C00018D8002916DB3F2914DCCB1701EB537311
:1029D000DD104FEAC51C0C4D23F007036544A1EB45
:1029E000030815F804C0012303FA08F38CEA030C6A
:1029F00005F804C0641C24B2A642E0DC491C09B2FC
:102A00008F42D9DCBDE8F081FE07002010B50C46EE
:102A100040F0B00000F0A0F9102040EA141000F0DF
:102A20009BF904F00F00BDE8104000F095B90000DC
:102A300008B5203A082B0CD0062B09D1094B02EB24
:102A4000420203EB420200920823062200F00EF835
:102A500008BD054B03EB021200921023082200F080
:102A600005F808BDF04F0008004A00082DE9FF4FA7
:102A70000F46DDF8349090461D4600242B46424612
:102A800039460098FFF79EFD6D1EE81705EB507064
:102A90000121DFF888C001EBE00A3BE0002035E0CF
:102AA00000990D187F2D2FD8F91707EB5171CA1017
:102AB00016B221F007017B1A002F03DA761E36B218
:102AC00008331BB2311907290DD804FB08FB09EBA9
:102AD000000E0CEBC1121BF80EB0565D0BFA03FB97
:102AE00046EA0B065655491C07290DD804FB08F683
:102AF00009EB000B0CEBC11116F80B604A5DC3F13A
:102B00000803DE4032434A55401CC0B24045C7D39B
:102B1000641CE4B2A245C1DCBDE8FF8FFE070020C3
:102B20002DE9FF4F83B080461446994600250026C4
:102B3000AA46ADE0010609D4012029466D1C615C5E
:102B4000ADB28DF804108DF805A055E00621B1EB6B
:102B5000501F10D10220691C625D89B28DF80420DB
:102B6000625C002A76D04A1C615C95B28DF8051033
:102B70008DF806A040E00E21B1EB101F18D1032004
:102B8000691C625D89B28DF80420625C002A61D004
:102B90004A1C615C92B28DF80510A15C00297BD0C3
:102BA000511C8DB2A15C8DF806108DF807A023E0B2
:102BB0001E21B1EBD00F23D10420691C625D89B2C4
:102BC0008DF80420625C002A66D04A1C615C92B2D7
:102BD0008DF80510A15C00295ED0511CA25C89B261
:102BE0008DF80620625C002A56D04A1C615C95B2C2
:102BF0008DF807108DF808A0012804D0002716E0F2
:102C00006D1CADB244E008EB06009DF8042000B254
:102C10004B460499FFF70CFF06EB090086B237E03C
:102C2000584601A9FDF748FB68B17F1CBFB207EB0E
:102C3000870000EB47111A480844834619A1FDF7A5
:102C40003BFB0028ECD1B9F1080F04D0B9F1060F15
:102C50001ED113E020E007EB870000EB471110487E
:102C600010230844401D009008EB060000B21A46ED
:102C70000499FFF7FBFE1036B6B209E008EB060038
:102C800000B206233F220499FFF7D2FEB61DB6B26A
:102C9000605D00287FF44EAF07B0BDE8F08F000004
:102CA0002A5200080000000070B50024074D0021E2
:102CB0002046FFF7ABFE05EBC410802100F05DF865
:102CC000641CE4B2082CF2D370BD0000FE070020A3
:102CD0002DE9F04105461746C81701EB5070C010AA
:102CE00004B2C818401EC21700EB5270012202EB5A
:102CF000E00006B2002903DA641E24B2761E36B262
:102D0000DFF8308011E07F2D0DD8002C0BDB072C75
:102D100009DCE9B2E0B2FFF779FE08EBC410284401
:102D2000394600F02AF8641C24B2B442EBDBBDE85B
:102D3000F0810000FE07002002464FF48071014838
:102D4000FEF79ABE000C014002464FF400710148A4
:102D5000FEF792BE000C014010B50446FFF7A9FD36
:102D60007820FFF789FD0020FFF786FD2046FFF75A
:102D700083FDBDE81040FFF7ABBD70B505460E46BC
:102D8000FFF797FD7820FFF777FD4020FFF774FDF0
:102D9000002404E0285DFFF76FFD641CE4B2B44238
:102DA000F8D3BDE87040FFF793BD00F07BBC000096
:102DB00004488168C268491C42F100028160C26017
:102DC000704700000001002001464FF0804000F0F5
:102DD000DBBF01464FF0804000F0D8BF01464FF006
:102DE000804000F0D5BF00000146014800F0D0BF90
:102DF0000004004070470000034A516821F440413C
:102E0000014351607047000000100240054A00294C
:102E100003D0516901435161704751698143516148
:102E20007047000000100240054A002903D0D16914
:102E30000143D1617047D1698143D161704700007E
:102E400000100240054A002903D0116901431161B5
:102E50007047116981431161704700000010024002
:102E6000054A002903D09169014391617047916936
:102E7000814391617047000000100240054A00291B
:102E800003D0D1680143D1607047D1688143D160DC
:102E9000704700000010024010B5264A516801F04A
:102EA0000C01254B002927D0042927D0082927D039
:102EB0000360516801F0F0010909204B5C5C016876
:102EC000E1404160546804F4E064240A1C5D21FA86
:102ED00004F48460546804F46054E40A1B5DD9402F
:102EE000C160526802F44042920B144B1B1F9A5C63
:102EF000B1FBF2F1016110BD0360DAE70360D8E7CE
:102F0000516801F47011536803F48033022404EB18
:102F1000914133B153689B0307D5094B5943016075
:102F2000C7E7074B59430160C3E7034B59430160AF
:102F3000BFE700000010024000127A0014010020D8
:102F400000093D000248018841F0100101807047EE
:102F5000042800400248018821F0100101807047D8
:102F600004280040064908880B1D1A8809888842F1
:102F700003D0188840EA0140704742EA0040704799
:102F80001828004000B58DB0FFF7ECFF00F5E140D8
:102F90000C900CA8FDF7C4FC01462C2201A8FDF7FB
:102FA0005BF90699084801F26C7101800599491C8A
:102FB00081700499C170039901710299417101995D
:102FC00081710DB000BD0000CA00002000B50246AE
:102FD000FFF7B8FF0449100C0880081D02805DF857
:102FE00004EBFFF7B7BF00001828004003B58BB013
:102FF000BDF82C00A0F26C7005909DF82E00401ECC
:1030000004909DF8300002909DF82F0003909DF8E9
:10301000310001909DF8320000906846FDF7C8F835
:10302000FFF7D4FF00F002F80DB000BD02480188A0
:103030008906FCD57047000004280040704700F066
:1030400001B800000CB500220192009227480168E7
:1030500041F4803101604FF4A063016801F4003154
:1030600000910199491C0191009911B90199994266
:10307000F3D10168890302D50121009100E000929B
:103080000099012930D11A490A6842F010020A60F9
:103090000A6822F007020A600A6842F002020A6027
:1030A0004168416041684160416841F4806141602C
:1030B000416821F47C114160416841F4E8114160AC
:1030C000016841F08071016001688901FCD54168A7
:1030D00021F003014160416841F002014160416813
:1030E000C1F381010229FAD10CBD00000010024099
:1030F000002002402DE9FE434B4DA878012871D1F4
:103100004A4F002605F10C043878012821D1FEF73A
:103110001FFF09281DD83E70FEF71AFFE97921B17B
:10312000012909D0022914D10DE0217801EB810198
:1031300000EB410020700CE0617801EB810100EBB5
:103140004100607005E0A17801EB810100EB4100D6
:10315000A07038784FF0010801280ED1FEF7F8FE74
:1031600011280AD13E70E879401CC0B2E8710428E9
:1031700003D1AE7085F80180EE713878012808D14E
:10318000FEF7E6FE0B2804D13E70AE7085F8018094
:10319000EE713878012810D1FEF7DAFE0C280CD138
:1031A0003E70E87920B1012804D0022805D103E05F
:1031B000267002E0667000E0A670FFF7EFF9617814
:1031C000A0782278CDE900210290002118A30822DE
:1031D0000846FFF7D7FBE87928B101280CD0022870
:1031E0001BD112E01DE02078009013A308221021CB
:1031F0000020FFF7C7FB10E0607800900EA30822C4
:1032000010210020FFF7BEFB07E0A07800900AA382
:10321000082210210020FFF7B5FBBDE8FE43FFF7B1
:1032200043BDBDE8FE830000D80000201C00002044
:103230002564202564203A20256400002DE9F04112
:1032400086B03F4DE878012877D13E4F00263E4CAE
:10325000387801280FD1FEF77BFE09280BD83E7085
:10326000FEF776FE297A54F8212002EB820200EB69
:10327000420044F8210038784FF00108012828D195
:10328000FEF766FE112824D13E70287A401CC0B299
:10329000287206281DD12A482188183001802179FA
:1032A0008170217AC170217B08390171217C4171C3
:1032B000217D8171A8690490E9690591FFF796FE67
:1032C00018212148FCF7E1FF3E702E72EE7085F860
:1032D0000180FEF73DFE0B2808D118211A48FCF7A3
:1032E000D4FF2E723E70EE7085F80180FFF756F91C
:1032F000D4E90213D4E90402CDE90213CDE90402B2
:10330000D4E90001CDE90001002110A306220846FE
:10331000FFF738FB287A082211A354F82000009008
:1033200011460020FFF72EFB06B02823BDE8F04130
:10333000802200210846FFF7CBBC06B0BDE8F08133
:10334000D80000201C000020DC07002025642D256B
:10335000642D25642D25642D25642D256400000031
:10336000256400004FF45871FCF78FBF10B5084872
:103370004FF4FA71C0F85813002180F85C1303224F
:10338000114600F007F8BDE81040014800F0A8B869
:103390006C0400200023A0F84C33A0F84E33012326
:1033A000A0F850330180428070470FB4F8B53C2339
:1033B0007E2202210120FFF705F9BDF866430227AE
:1033C0000126D2251AE006A931F8240001EB840178
:1033D000498800EB400001EB410107EB410106EB9E
:1033E0004000062309B200B21A460096FFF7D8F94A
:1033F000641CB4FBF5F005FB1044641CBDF86403C9
:10340000401CB0FBF5F105FB1100401CA042DAD1D5
:10341000BDF86A23BDF86C03002100EB400007EB08
:103420004000009101B202EB420006EB400006238F
:1034300000B21A46FFF7B4F9F8BC5DF814EBFFF7D9
:1034400033BC00F24E30D2220188491CB1FBF2F3AA
:1034500002FB1311491C01804188491E41807047BD
:1034600010B504463C237E2202210120FFF7AAF872
:1034700006A308221E210220FFF784FA052184F802
:103480005C13BDE81040FFF70FBC0000E681ADE51E
:10349000969CE4BDA0E4BDA0E8BE93E4BA8600001B
:1034A00010B504463C237E2202210120FFF78AF852
:1034B00006A308221E210220FFF764FA052184F8E2
:1034C0005C13BDE81040FFF7EFBB0000E5BE88E9E4
:1034D0008197E686BEE4BDA0E8B5A2E4BA86000006
:1034E0002DE9F041044601250026002120E01520A9
:1034F000FEF7C8FA86B20A20FEF7C4FA81B2B4F821
:103500004E03B4F84C23D223521CB2FBF3F703FB57
:103510001722521C82420BD034F82020B24206D12E
:1035200004EB80004088884201D1012500E000259D
:10353000002DDCD1A4F85263A4F85413BDE8F08147
:1035400070B5B0F84C5330F8253000EB85014C884D
:10355000152B01D20A2C04D3012180F85C13012021
:1035600070BDB0F84E13D22213E030F821609E42B5
:1035700009D100EB81067688A64204D1022180F8A9
:103580005C13012070BD491CB1FBF2F602FB161161
:10359000491C8D42E9D1002180F85C13002070BDE8
:1035A00070B50446B4F84C0334F8205004EB8000A6
:1035B0004688FEF7CDFC0D2806D00E2807D00F2830
:1035C00008D010280BD108E0761EB6B207E0761CB2
:1035D000B6B204E06D1EADB201E06D1CADB2324674
:1035E0002946204600F01AF8B4F85203A84207D141
:1035F000B4F85403B04203D12046FFF771FF02E054
:103600002046FFF71EFF2046FFF79AFFB4F850034D
:103610000A2802D1042084F85C0370BD30B5B0F8EC
:103620004C33D2245B1CB3FBF4F504FB15335B1C59
:10363000A0F84C3320F82310B0F84C1300EB8101B4
:103640004A80B0F85013491CA0F8501330BDFFF762
:10365000AFBB000010B50F48016841F001010160E7
:1036600041680D4A1140416001680C4A11400160F7
:10367000016821F480210160416821F4FE0141606C
:103680004FF41F018160FFF7DAFC05494FF000603D
:10369000086010BD001002400000FFF8FFFFF6FEBA
:1036A00008ED00E030B585B014216846FCF7EDFD6B
:1036B0004FF0E025286920F0010028611B4C002113
:1036C000A160E1606846FFF7E7FB286940F002006F
:1036D000286117490020087001984FF47A71B0FBF7
:1036E000F1F0B0F1807F05D3C008296921F0040111
:1036F000296103E0296941F004012961401E6861E4
:10370000286940F001002861686920F07F40401C72
:10371000FDF73EF802460B4600200649FCF7BBFFCA
:10372000FDF79AF8206005B030BD000000010020D0
:103730001FED00E000408F4070B5048C24F00104C0
:103740000484058B048C25F0F3054FF6FF7606EA1A
:10375000031313432B43104A90420ED00F4A90425A
:103760000BD0B0F1804F08D00D4A904205D00D4AE1
:10377000904202D00C4A904205D124F002020A4342
:1037800042F0010104E024F00A020A4342F0010180
:103790000383018470BD0000002C0140003401400F
:1037A0000004004000080040000C0040F0B5048C0C
:1037B00024F010040484068B048C4FF6FF7505EA90
:1037C000011726F4734605EA0333334305EA022260
:1037D0001A43104B98420ED00F4B98420BD0B0F1C9
:1037E000804F08D00D4B984205D00D4B984202D027
:1037F0000C4B984205D124F02001394341F01001CF
:1038000004E024F0A0030B4343F010010283018481
:10381000F0BD0000002C01400034014000040040D5
:1038200000080040000C0040F0B5048C24F48074C3
:103830000484858B048C4FF6FF7707EA012625F078
:10384000F30507EA031313432B43104A90420ED0AB
:103850000F4A90420BD0B0F1804F08D00D4A9042F1
:1038600005D00D4A904202D00C4A904205D124F472
:103870000071314341F4807104E024F420620A4372
:1038800042F4807183830184F0BD0000002C01406C
:10389000003401400004004000080040000C0040DB
:1038A000F0B5048C24F480540484868B048C4FF689
:1038B000FF7505EA013726F4734605EA0222324312
:1038C00005EA03331343104A90420ED00F4A904248
:1038D0000BD0B0F1804F08D00D4A904205D00D4A70
:1038E000904202D00C4A904205D124F40051394351
:1038F00041F4805104E024F402420A4342F480512E
:1039000083830184F0BD0000002C0140003401409D
:103910000004004000080040000C004070B5374E25
:103920000221304600F0E6F8012866D10221304637
:1039300000F0C4F8324C00256570304600F0CFF836
:10394000E0802189884202D9411A618104E04FF662
:10395000FF72511A014461812081A078401CC0B2DD
:10396000A070012202280AD1618940F2CF73A1F52B
:10397000B8517139994201D2227000E06581022864
:1039800016D92078012813D120694100216160896E
:10399000A0F2C313F92B0BD3A0F22130B0F5F97FBD
:1039A00003D841F00100206102E025702561A57077
:1039B000A17822290AD120696061000AE070022002
:1039C000207022710F4B1888401C1880282914D1B0
:1039D0002078022811D12220A070608940F2DB51AA
:1039E000A0F588509538884207D2A089401CA08154
:1039F00020696061000AE070227170BD002C0140F6
:103A000018000020E200002010B50F4C01212046D4
:103A100000F070F8012815D10121204600F04EF881
:103A2000A1150A48FEF71DF801280BD1084948786E
:103A3000401CC0B24870022804D3002008610870FE
:103A40008870888110BD0000002C014000080140F2
:103A50001800002010B50A4C0121204600F043F860
:103A600000280BD00121204600F025F80548016808
:103A70004268491C42F100020160426010BD000032
:103A800000040040A8000020002904D0018841F073
:103A9000800101807047018821F08001018070471A
:103AA00010B501238B40048C9C430484038C8A4012
:103AB0001343038410BDC94301827047C943018287
:103AC0007047002904D0018841F00101018070474E
:103AD000018821F001010180704781827047808E4A
:103AE0007047808C704702460020128A0A4200D03C
:103AF0000120704702460020138A0B4092890A4039
:103B0000002B02D0002A00D00120704770B5054676
:103B10000C461D48854209D01C48854206D0B5F1A7
:103B2000804F03D01A48854200D01A482088618807
:103B3000A288238960B1042813D008281AD0284607
:103B4000FFF7AEFEE1882846BDE8704000F03EB9C0
:103B50002846FFF7F1FDE1882846BDE8704000F0F7
:103B600019B92846FFF722FEE1882846BDE87040D3
:103B700000F018B92846FFF757FEE1882846BDE84F
:103B8000704000F01BB90000002C014000340140DF
:103B90000004004000080040002A03D082890A4344
:103BA0008281704782898A4382817047018921F02E
:103BB000070101817047000030B5028C22F001023C
:103BC0000284028C8388048B24F0700424F00305A3
:103BD0000C882C4322F002020D8915434A882A439F
:103BE000124DA8420BD0124DA84208D0114DA84248
:103BF00005D0114DA84202D0104DA8420FD122F09D
:103C000008054A892A4322F004058A882A4323F4B6
:103C1000807323F400738D891D43CB892B438380EC
:103C20000483C9888186028430BD0000002C0140D5
:103C30000034014000400140004401400048014080
:103C400070B5028C22F010020284028C8388048BEF
:103C500024F4E04424F440760D884FF6FF7404EA1F
:103C60000525354322F020020E8904EA0616164384
:103C70004A8804EA02123243114EB04202D0114E79
:103C8000B04217D122F080024E8904EA061616438C
:103C900026F040068A8804EA0212324323F4806345
:103CA00023F400638E8904EA86061E43CB8904EA66
:103CB0008303334383800583C9880187028470BDF1
:103CC000002C01400034014070B5028C22F4807257
:103CD0000284028C8388848B24F0700424F0030413
:103CE0000D88254322F400720E894FF6FF7404EA12
:103CF000062616434A8804EA02223243114EB04295
:103D000002D0114EB04217D122F400664A8904EA6B
:103D10000222324322F480668A8804EA0222324375
:103D200023F4805323F400538E8904EA06161E43BD
:103D3000CB8904EA0313334383808583C988818751
:103D4000028470BD002C014000340140002101803C
:103D500041808180C180018141818181C181704721
:103D6000002904D0818841F08001818070478188DA
:103D700021F0800181807047028822F44072028025
:103D800002880A4302807047818670470187704726
:103D900081877047028B22F00C020283028B0A4358
:103DA00002837047028B22F440620283028B4FF63B
:103DB000FF7303EA01210A4302837047828B22F0DA
:103DC0000C028283828B0A4382837047828B22F4A7
:103DD00040628283828B4FF6FF7303EA01210A431C
:103DE0008283704730B502881B4C1C4DA0420DD019
:103DF000A8420BD0B0F1804F08D0194B984205D0A3
:103E0000184B984202D0184B984203D122F070030D
:103E10004A881A43154B984206D0154B984203D056
:103E200022F44073CA881A4302808A8882850A88ED
:103E30000285A0420AD0A84208D00E4A904205D07E
:103E40000D4A904202D00D4A904201D1097A018672
:103E50000121818230BD0000002C0140003401406E
:103E60000004004000080040000C0040001000402A
:103E7000001400400040014000440140004801405F
:103E800010B5084C40F22551204600F00DF80128ED
:103E900007D1204600F064F8C0B2BDE8104000F041
:103EA00023B810BD0048004070B5002440F66A12E7
:103EB000C1F3421301F01F05012606FA05F2012B9A
:103EC0000CD0022B0DD0838A1340090A8E40008843
:103ED00030400BB100B10124204670BD83891340EE
:103EE000F3E7038A1340F0E730B51B4C00210125AE
:103EF0002378621C002B10D0012B11D1637A9854C7
:103F0000607A401CC0B26072144A05280DD008289F
:103F100006D1E078082815D017E0882801D0617212
:103F200030BD88546572257030BDE078052802D117
:103F30006379662B03D00528F6D1217030BD15704A
:103F4000217030BD237A662B03D00828F9D1217067
:103F500030BD1570217030BDF4070020F90000203D
:103F60008088C0F308007047FEE7000037B51446AC
:103F70000846064B6A46214600F0DCF804466946CE
:103F8000002000F05AFC20463EBD00003B480008DF
:103F900002E008C8121F08C1002AFAD17047704712
:103FA000002001E001C1121F002AFBD17047000070
:103FB0002DE9FF5F82B00021DDE90430020DDDF85C
:103FC00040B0034318D044F61050A2F2FF324243EF
:103FD0001514119801281FD0A5EB0B00401C5FEAB7
:103FE000000A4FF000064E4FDFF83891B0465046B9
:103FF00015D5CAF1000413E0119801244AA3012841
:1040000001D16FEA0B010298119AC0E90031C0E9B1
:10401000024206B0BDE8F09FCBF10000DFE70446A6
:104020000021404A491842EB0450CDE9001012E04B
:10403000E00707D032463B4640464946FCF7B9FA0E
:104040008046894632463B4610461946FCF7B1FA8F
:1040500006460F466410002CEAD1DDE90401DDE9D3
:104060000023BAF1000F06DAFCF7A3FA42464B46EA
:10407000FCF79FFA05E0FCF70EFB42464B46FCF7C7
:104080000AFB04460E460022284BFCF7CDFB03D862
:104090004FF0FF30014607E00022254B2046314615
:1040A000FCF7E0F9FCF795FB102409E0002C0ADB93
:1040B0000A220023FCF738F8039B30321A55641E9D
:1040C00050EA0102F2D1641C039AC4F111031444B2
:1040D000119A012A03D0012208430DD10AE00843B6
:1040E00004D000204FF0110B119072E7A3EB0B05E9
:1040F0006D1E0DE05B4504DD4FF0000205F101058A
:1041000004E003DA4FF00002A5F10105002AECD02B
:1041100002981199C0E90231C0E9004579E7000031
:10412000000014400000F03F300000000000F043A9
:104130000000E03F2DE9FF4F95B09A4688460646BD
:104140000025EEE1252877D100242746F94A0121F0
:10415000039400E0044316F8013F203B01FA03F00A
:104160001042F7D130782A2811D06FF02F03307821
:10417000A0F13002092A16D8039A44F0020402EB97
:10418000820203EB42021044761C0390EFE758F8DA
:10419000042B0392002A03DA504244F400540390A3
:1041A00044F00204761C30782E2816D116F8010F40
:1041B00044F004042A280DD06FF02F023078A0F1CB
:1041C0003003092B09D807EB870302EB4303C71819
:1041D000761CF3E758F8047B761C30786C280FD0F7
:1041E00006DC4C2817D068280DD06A2814D104E0CA
:1041F000742810D07A280FD10DE044F400140AE09E
:1042000044F4801401E044F440147278824202D1F4
:1042100004F58014761C761C307866280BD013DCED
:10422000582877D009DC002875D04528F6D04628D4
:10423000F4D047281AD193E118E0632835D06428D8
:1042400079D0652812D18BE1702873D008DC6728FB
:10425000F1D069286FD06E280DD06F2806D1ACE060
:1042600073282CD0752874D0782853D052461799CB
:1042700090476D1C54E1C4F30250022809D0032872
:104280000DD0D8F8001004280DD00D6008F10408F6
:1042900046E1D8F80010EA17C1E90052F6E7D8F86D
:1042A00000100D80F2E70D70F0E718F8041B8DF890
:1042B000001000208DF80100EB46012003E058F8C3
:1042C00004BB4FF0FF3061074FF0000102D40DE056
:1042D00009F101018946B9420FDA8145F8DB1BF883
:1042E00009100029F4D108E009F101018946814251
:1042F000FADB1BF809100029F6D103985346A0EB0E
:10430000090721463846179A00F080FA284400EB46
:10431000090507E044E008E10DE01BF8010B5246F7
:1043200017999047B9F10109F7D25346214638460B
:10433000179AF2E039E00A21C4F302524FF0000B61
:104340000091022A06D058F8040BC117032A09D09D
:104350000AE023E008F1070020F00702F2E802017A
:10436000904605E000B2C117042A01D140B2C1173E
:10437000002906DA0A460021404261EB02012D22A3
:1043800002E0220504D52B228DF80420012203E04F
:10439000E20701D02022F7E7914657E00A2100E02A
:1043A00010214FF0000B00910BE010214FF0000B9B
:1043B00044F004040827009103E008204FF0000BAC
:1043C0000090C4F30252022A05D058F8040B0021D1
:1043D000032A08D008E008F1070020F00702F2E8FD
:1043E0000201904603E080B2042A00D1C0B24FF02F
:1043F000000922072AD53278702A07D0DDF800C0DC
:104400008CF0100C5CEA0B0C05D00EE040228DF80D
:104410000420012208E050EA010306D030238DF881
:1044200004308DF8052002229146009B83F008039A
:1044300053EA0B030AD150EA010201D1620705D504
:1044400030228DF804204FF001097F1E3278582A5F
:1044500004D039A20C920CAA02920BE03BA2F9E71D
:104460005B46009AFBF760FE0C9B9B5C029A521E17
:104470000292137050EA0102F2D1029804A9081ABC
:1044800000F1200B600702D524F4803400E00127FE
:104490005F4502DDA7EB0B0000E0002000EB0B0105
:1044A000009003984944401A0390E00306D4534611
:1044B0002146179A039800F0A9F90544002706E061
:1044C00001A85246C05D179990476D1C7F1C4F454F
:1044D000F6DBE0030CD553462146179A039800F00B
:1044E00095F9054404E030205246179990476D1C19
:1044F0000099481E00900029F5DC08E00298029916
:1045000052460078491C0291179990476D1CBBF1E7
:104510000001ABF1010BF1DC5BE100F065F9054452
:10452000761C307800287FF40DAE19B02846BDE81F
:10453000F08F00000928010030313233343536372E
:1045400038396162636465660000000030313233DF
:10455000343536373839414243444546000000007F
:10456000600700D4062708F1070020F00700F0E8F4
:104570000223804603F0004C5FEA0C0001D097A0B4
:1045800009E0200501D596A005E0E00701D095A03F
:1045900001E0AFF24C001390307823F0004365281F
:1045A0000CD006DC452809D046281DD047287FD1ED
:1045B0003BE0662818D067287AD136E00021112F19
:1045C00001DB112000E0781CCDE9000104A90CA852
:1045D000FFF7EEFCDDE90D010C9A4FF0000B07F13F
:1045E0000109109200914EE04FF000400097CDE994
:1045F000011004A90CA8FFF7DBFCDDE90D020C9B00
:104600000F994FF0000B91461093009211B9791C4D
:1046100000EB0109B7EB090003D4C0F1FF3B07F140
:104620000109A9EB0700019042E0012F00DA012700
:104630000021112F01DD112000E03846CDE90001F5
:1046400004A90CA8FFF7B4FCDDE90D010C9A009158
:104650004FF0000BB946109221070FD4009A4A453B
:1046600003DA914601E0A9F10109B9F1010F05DD75
:10467000109AA9F10101515C3029F4D0B84202DA54
:1046800010F1040F03DA0121CDE9011010E0002838
:1046900003DC8344A9EB000102E0411C494500DD35
:1046A0008946A0EB0B00401C01904FF000400290A7
:1046B000200705D40198484502DB4FF0FF300190F8
:1046C00000208DF84B0002980DF14B07B0F1004F20
:1046D00025D002200C902B200D90029800280CDA97
:1046E000404202902D200D9007E00A210298FCF72D
:1046F000CFF83031029007F8011D0C99481E0C903C
:104700000029F2DC02980028EFD1791E0D9808707C
:10471000307800F0200040F0450007F8020D11A8A5
:10472000C01BC01D02901398007800B1012000EB5F
:104730000901019801EBE071029801440398401AC5
:10474000401E0390E00306D453462146179A03986F
:1047500000F05CF805441398007818B15246179998
:1047600090476D1CE00323D553462146179A0398C2
:1047700000F04CF805441BE0BBF1000F07DB00988C
:10478000584504DD1098179910F80B0001E01799AF
:1047900030205246904701980BF1010B401E05F165
:1047A0000105019004D12E205246179990476D1CA7
:1047B000B9F10001A9F10109DEDC05E017F8010BF0
:1047C0005246179990476D1C0299481E0290002985
:1047D000F4DC53462146179A03989EE62D0000000C
:1047E0002B000000200000002DE9F04104460025C8
:1047F0001E461746880404D405E039462020B047F9
:104800006D1C641EF9D52846BDE8F0812DE9F04104
:10481000044600251E469046C80301D5302700E017
:104820002027880404D505E041463846B0476D1C72
:10483000641EF9D52846BDE8F0810A68531C0B6058
:1048400010707047FEF750F8FEF7AFFAFCF720FE45
:10485000FDF7B4FDFCF7CCFEFDF77AFC00F030F874
:10486000FCF7ECFBFCF7F2FCFCF73EFB134CFCF70F
:1048700035FBC4E90201FDF70FFDFDF7BFFAFDF7B7
:10488000C1F9FCF75DFFFDF75DF9FCF773FCFCF780
:1048900037FAFDF779FCFCF721FBC4E90001D4E904
:1048A0000223821AD4E9045061EB0301AD1A0B46CE
:1048B0008841DCD2C4E90423D9E7000000000020CD
:1048C00070B592B001210420FEF7CAFA0121480216
:1048D000FEF7C6FA01210846FEF798FA4FF40040A9
:1048E000FEF78AFA00248DF847407820ADF844009E
:1048F00003208DF8460011A93348FDF75FF8334EC9
:104900000523012203213046FCF746F90523022244
:1049100004213046FCF740F90523032219463046AE
:10492000FCF73AF90523042206213046FCF734F956
:104930000C940F944FF460200E9001218DF83510E7
:104940008DF8341004258DF840500CA93046FCF742
:10495000FFF81E484C3001908015079005941C48C4
:10496000029028020890802006900394049520204D
:1049700009900B94C0010A90164C01A92046FCF73F
:10498000CAFF01212046FCF7B9FF01213046FCF7A0
:10499000C5F801213046FCF7B5F83046FCF736F98A
:1049A0003046FCF7CEF80128FAD03046FCF73FF944
:1049B0003046FCF7BFF80128FAD001213046FCF759
:1049C0002AF912B070BD0000000801400024014027
:1049D000C200002008000240302D303031414243F7
:1049E0003244454633474849344A4B4C354D4E4F87
:1049F00036505152375354553856575839595A2E04
:104A000000000000000000000000000000000000A6
:104A1000000000F80000000000000033300000003B
:104A200000160E00160E000000000000000000003E
:104A300040C07840C0784000043F04043F040400B4
:104A4000007088FC08300000001820FF211E0000C4
:104A5000F008F000E018000000211C031E211E00D9
:104A600000F00888700000001E212324192721105F
:104A7000000000160E000000000000000000000012
:104A8000000000E0180402000000000718204000A9
:104A900000020418E0000000004020180700000099
:104AA000404080F0804040000202010F01020200FD
:104AB000000000F0000000000101011F01010100E1
:104AC000000000000000000000B0700000000000C6
:104AD00000000000000000000001010101010101CF
:104AE0000000000000000000003030000000000066
:104AF000000000008060180400601806010000003B
:104B000000E010080810E000000F102020100F0037
:104B1000001010F8000000000020203F20200000BE
:104B20000070080808887000003028242221300016
:104B300000300888884830000018202020110E001E
:104B40000000C02010F8000000070424243F2400C7
:104B500000F80888880808000019212020110E009C
:104B600000E0108888180000000F112020110E00AE
:104B700000380808C83808000000003F00000000A6
:104B80000070880808887000001C222121221C0067
:104B900000E010080810E0000000312222110F0090
:104BA000000000C0C0000000000000303000000025
:104BB000000000C0C0000000000080B070000000D5
:104BC00000008040201008000001020408102000AE
:104BD00040404040404040000404040404040400F9
:104BE000000810204080000000201008040201008E
:104BF000007048080808F00000000030360100008E
:104C0000C030C828E810E0000718272423140B0040
:104C10000000C038E0000000203C230202273820BA
:104C200008F8888888700000203F202020110E009E
:104C3000C030080808083800071820202010080095
:104C400008F808080810E000203F202020100F007E
:104C500008F88888E8081000203F2020232018004A
:104C600008F88888E8081000203F200003000000B2
:104C7000C03008080838000007182020221E020053
:104C800008F808000008F808203F210101213F2012
:104C9000000808F8080800000020203F202000003D
:104CA00000000808F8080800C08080807F0000002D
:104CB00008F888C028180800203F20012638200066
:104CC00008F8080000000000203F202020203000CD
:104CD00008F8F800F8F80800203F003F003F2000E7
:104CE00008F830C00008F808203F200007183F00EF
:104CF000E01008080810E0000F10202020100F001E
:104D000008F808080808F000203F21010101000010
:104D1000E01008080810E0000F18242438504F0055
:104D200008F8888888887000203F2000030C302015
:104D300000708808080838000038202121221C0053
:104D4000180808F8080818000000203F200000009C
:104D500008F808000008F808001F202020201F0085
:104D60000878880000C83808000007380E010000E5
:104D7000F80800F80008F800033C0700073C0300AF
:104D8000081868808068180820302C03032C302015
:104D90000838C800C83808000000203F2000000084
:104DA00010080808C83808002038262120201800DC
:104DB000000000FE020202000000007F40404000B0
:104DC000000C30C000000000000000010638C000E8
:104DD00000020202FE000000004040407F00000090
:104DE000002010080408102000000000000000004F
:104DF00000000000000000008080808080808080B3
:104E00000002040800000000000000000000000094
:104E100000008080808000000019242222223F2090
:104E200008F8008080000000003F112020110E00D3
:104E30000000008080800000000E11202020110062
:104E4000000000808088F800000E112020103F2014
:104E50000000808080800000001F22222222130098
:104E6000008080F0888888180020203F20200000E3
:104E70000000808080808000006B94949493600098
:104E800008F8008080800000203F210000203F20A3
:104E900000809898000000000020203F20200000A3
:104EA000000000809898000000C08080807F000093
:104EB00008F8000080808000203F24022D30200070
:104EC000000808F8000000000020203F202000001B
:104ED0008080808080808000203F20003F20003F35
:104EE000008080008080000000203F2100203F20C3
:104EF0000000808080800000001F202020201F00F4
:104F0000808000808000000080FFA12020110E0022
:104F10000000008080808000000E112020A0FF8013
:104F2000808080008080800020203F2120000100C0
:104F30000000808080808000003324242424190015
:104F4000008080E0808000000000001F2020000022
:104F50008080000000808000001F202020103F2063
:104F6000808080000080808000010E3008060100F3
:104F700080800080008080800F300C030C300F0098
:104F800000808000808080000020312E0E312000C3
:104F9000808080000080808080818E7018060100F3
:104FA00000808080808080000021302C2221300011
:104FB00000000000807C020200000000003F404032
:104FC00000000000FF00000000000000FF000000E3
:104FD0000002027C800000000040403F0000000012
:104FE00000804040800000800000000000010100BF
:104FF0000000000000000000002F0000000007007B
:10500000070000147F147F1400242A7F2A12002333
:105010001308646200364955225000000007000062
:1050200000001C224100000041221C000014083E28
:1050300008140008083E0808000000A060000008EE
:105040000808080800006060000000201008040242
:10505000003E5149453E0000427F40000042615100
:105060004946002141454B31001814127F1000279A
:1050700045454539003C4A4949300001710905035D
:1050800000364949493600064949291E000036368E
:1050900000000000563600000008142241000014F1
:1050A00014141414000041221408000201510906CE
:1050B000003E4955592E007C1211127C007F49494F
:1050C0004936003E41414122007F4141221C007F80
:1050D00049494941007F09090901003E4149497A8E
:1050E000007F0808087F0000417F41000020404108
:1050F0003F01007F08142241007F40404040007F74
:10510000020C027F007F0408107F003E4141413EB7
:10511000007F09090906003E4151215E007F0919FF
:1051200029460046494949310001017F0101003FFC
:105130004040403F001F2040201F003F4038403F7C
:1051400000631408146300070870080700615149E0
:10515000454300007F414100000204081020000088
:1051600041417F00000402010204004040404040F1
:10517000000001020400002054545478007F484489
:10518000443800384444442000384444487F0038C0
:105190005454541800087E0901020018A4A4A47CE9
:1051A000007F080404780000447D400000408084B3
:1051B0007D00007F102844000000417F4000007CFB
:1051C00004180478007C0804047800384444443807
:1051D00000FC242424180018242418FC007C080453
:1051E000040800485454542000043F444020003C2C
:1051F0004040207C001C2040201C003C4030403CB3
:10520000004428102844001CA0A0A07C0044645442
:105210004C440000087F41000000007F00000000B7
:10522000417F0800000804081008EFBC8C00000053
:10523000000000000000000000000000000000006E
:10524000005838000000000000000000000000E3EB
:10525000808200000000000000000000000000004C
:1052600000000000000018242418000000000000C6
:1052700000000000E9809A00004042CC0000E222D9
:105280002A2AF22A2622E0000080403F4080FF893F
:105290008989BF89A9C9BF8000E8AEAF000040403E
:1052A00042CC008282FE828202FE000000000000EA
:1052B000007F201000FF0000000F3040F800E5BD27
:1052C0009500008080829292929292929292FE80B9
:1052D000808000404022241048807F040818242247
:1052E000404000E8B4AA0000202010102824222901
:1052F000B2642810102020000080809F4141211DB1
:105300000121215F40800000E59083000000FC0443
:1053100004FC20104C4B484848C8080800000F0403
:10532000040F0030484442424140407000E89B87EF
:10533000000000F808FF08F82018C808090E88289F
:1053400018002063211F111930003F4442414040A2
:105350007800E689AB0000101010FF1090048484E0
:1053600084848484FC00000444827F010020202087
:10537000202020207F0000E99BB7000020180AAA07
:10538000AAAA0AFE0AAAAAAA0A2818000000FE92DF
:10539000929292FE92929292FE000000E78C9C0004
:1053A0000040221408F402445454547F545454448A
:1053B00000084482413F0000FF15151555957F00F8
:1053C00000E695B0000090523410FF103452807007
:1053D0008F0808F80800829A566322528E00804097
:1053E000330C33408000E5AD970000100C042424FA
:1053F000242526A464240404140C000202020202E0
:1054000042827F0202020202020200E9A38E000031
:105410000000FE021222C202C23202FE00000000A0
:1054200080601F0020100C030C30000F3040F8008B
:10543000E6898700000000FC242424252624242457
:1054400024243C000040300F211549817F002115A4
:1054500049817F0000E8B08300004042CC0000FE9C
:10546000829292FE929282FE000000003F10887F9E
:10547000001E1212125E807F0000E9809F00004033
:105480004042CC0004F49494FF9494F4040000008F
:1054900040201F20484442415F414244484000E8C8
:1054A000AFB700004042CC0000445454547F5454E1
:1054B0005444400000007F201000FF15151555953D
:1054C0007F000000E9949900004030EF24644848D0
:1054D0007F4848487F4848400001017F211100FF74
:1054E0004949494949FF000000E4BA86000000022A
:1054F0000202020202E222120A060200000000007A
:1055000000000040807F0000000000000000E8AFC5
:10551000B700004042CC0000445454547F545454CB
:1055200044400000007F201000FF15151555957FA1
:10553000000000E9878D0000101014D4545454FC6E
:10554000525252D312101000404050575555557FBB
:105550005555555750404000E696B0000040445421
:1055600065C664544400FC4444C442400020124ACE
:10557000827F020A92601F0000FF000000E8BE93D5
:10558000000088681FC80810C85452D1129408D06F
:105590001000091909FF0500FF1292FF005F807FCC
:1055A0000000E585A50000000000000001E21CE00D
:1055B00000000000000000804020100C03000000EC
:1055C000030C3040808000E5AFB900000008488837
:1055D00008C83800901010FF101010000020100CA8
:1055E000030418000043807F00000000E6ADA30024
:1055F00000000202C2020202FE8282828282020055
:10560000004040407F4040407F404040404040405C
:1056100000E7A1AE00000484E45C44C42010E82745
:1056200024E4342CE00002017F10103F80601F0949
:10563000093F49897F00E698AF00000000007F49DC
:105640004949494949497F000000008141211D2104
:105650004181FF8989898989818100E5A4A70000AA
:1056600020202020202020FF20202020202020007B
:1056700080804020100C0300030C1020408080002C
:10568000E5B08F0000000000E0000000FF00000017
:105690002040800000080403000040807F000000DC
:1056A0000000010E00E5BE880000001088C4330031
:1056B000FE9292929292FE000000020100FF000012
:1056C000FF4020030C1422414000E9819700004074
:1056D0004042CC2020AEAAAABFAAAAAE2020000039
:1056E00040201F204067504846485067404000E631
:1056F00086BE0000E000FF1020FC04D454D404FF58
:10570000846506000100FF0008473001314558421A
:10571000610A3700E681AD000020202424A47F2404
:1057200024247FA424242020000404221940807F04
:10573000000830040932040400E5969C00000002D1
:10574000EAAAAAAAAAAFAAAAAAAAEA020000020280
:10575000FA4A4B4A4A4A4A4A4B4AFA020200E4BD14
:10576000A00000008060F8074020180F08C8080853
:10577000281800010000FF00100C0340807F00018A
:10578000061800E8BE93000088681FC80810C854B7
:1057900052D1129408D01000091909FF0500FF1218
:1057A00092FF005F807F0000E8B5A200000202EED9
:1057B000AAAAAAAAABAAAAAAAAEA020200807EAA58
:1057C000FE00BE423A42BE807E127EE000E5AE9A06
:1057D0000000100C4444444445C64444444444142A
:1057E0000C008040201E2040407F444444444440FC
:1057F0004000E697B6000000FC848484FC00101092
:10580000101010FF101000003F1010103F0000019A
:105810000640807F000000E599A8000080809E92ED
:1058200092929EE0809EB2D2929E80000808F494EC
:105830009292F10001F2929494F80800E69CBA006A
:10584000001010D0FF901000FE020202FE000000C7
:1058500000040300FF0083601F0000003F40407809
:1058600000E6A2B000001010D0FF900010D010D0C1
:1058700010FF10921400040300FF0041310F01BF1C
:1058800041273847F000E8878200002010FF555577
:1058900055F70052565AF35A561200000000FE2ADD
:1058A0002A2A2A2A2AAAFE0000000000000000007E
:1058B000FF0101013109090909897101010101FF94
:1058C000FF8080808080809681808080808080FFC3
:1058D0001F1C1F1E1F1E1F1F1E1F1E1F1F1D1F1EE2
:1058E0001F1E1F1F1E1F1E1F36E69CBAE6A2B0E831
:1058F0008782000031E8B4AAE59083E89B87000026
:1059000030E9809AE8AEAFE5BD95000033E78C9CA6
:10591000E695B0E5AD970000344C4544E8B083E926
:10592000809F000035E5AE9AE697B6E599A800009D
:1059300032E689ABE99BB700585900080000002007
:1059400028010000903F0008805A0008280100202C
:10595000081B0000A03F000800000000000000003D
:105960000000000000000000000000000000000037
:105970000000000000000000000000000000000027
:1059800000000000000000009800A2016202E20393
:1059900022040205C206E007A8089009000A680B65
:1059A000B00C180D4A0E100F5A10381101000000EB
:1059B00000590008F4580008305900080C59000834
:1059C0001859000824590008E85800080000000091
:1059D00000000000000708000000000000000A00AE
:1059E00000000000000000000000000000000000B7
:1059F00000000000000000000000000000000000A7
:105A00000000000000000000000000000000000096
:105A10000000000000000000000000000000000086
:105A20000000000000000000000000000000000076
:105A30000000000000000100000003000000000062
:105A40000000000000000000000000000000000056
:105A50000000000000000000000000000000000046
:105A60000000000000000000020406080000000022
:105A700001020304010203040607080900000000F4
:04000005080000ED02
:00000001FF
