:020000040800F2
:10000000781E002005010008213200083123000875
:10001000592E0008FD150008FF53000800000000DD
:10002000000000000000000000000000794100080E
:10003000851C000800000000253E00086F480008ED
:100040001F0100081F0100081F0100081F01000810
:100050001F0100081F0100081F0100081F01000800
:100060001F0100081F0100081F0100081F010008F0
:100070001F0100081F0100081F0100081F010008E0
:100080001F0100081F0100081F0100081F010008D0
:100090001F0100081F0100081F0100081F010008C0
:1000A0001F010008414B00081F010008194B000800
:1000B0001F0100088D4B00081F0100081F010008E8
:1000C0001F0100081F0100081F0100081F01000890
:1000D0001F0100081F0100081F010008A5520008A9
:1000E0001F0100081F0100081F010008DFF810D0E1
:1000F00000F0F0FC00480047DD5C0008AFF3008032
:10010000781E00200648804706480047FEE7FEE7C5
:10011000FEE7FEE7FEE7FEE7FEE7FEE7FEE7FEE7B7
:1001200071480008ED0000080649074A0868504376
:1001300043F23902104408604008704701490860E2
:1001400070470000B80000206D4EC64138B5D0E9B8
:100150000221491E01EB410102EBC1014268C1EBE2
:10016000011102EB81010268C1EB011102EB810276
:10017000D0E9043101EB410103EB81013023A1F50A
:10018000527191FBF3F4174D6C4302EBC41291FBD7
:10019000F3F403FB141100921A2902DB124B1A44E8
:1001A00000920C2291FBF2F3104C6343009C04EB91
:1001B000C313009391FBF2F302FB13110C4A08E006
:1001C000491E40F2A324535C6343009C04EBC31319
:1001D00000930029F4DC0146684600F089FB009892
:1001E00038BD00003F0C0F008051010067C20300C2
:1001F0009170000840EA01039B0703D009E008C999
:10020000121F08C0042AFAD203E011F8013B00F8DB
:10021000013B521EF9D27047D2B201E000F8012B27
:10022000491EFBD270470022F6E710B513460A4676
:1002300004461946FFF7F0FF204610BD10B5002216
:1002400000E0521C835C8C5CA34201D1002BF8D1EE
:10025000D8B2E1B2401A10BDF0B480EA0102D40F66
:100260004200B2EB410F02D20246084611464A0054
:1002700042D0C30DDDB2C1F3C752AD1A202D35DA1D
:10028000C1F3160141F4000204B15242C5F1200647
:1002900002FA06F12A411044B3EBD05F23D0C4B177
:1002A000012DA0EBC35009DCF0BC4FF0004202EA84
:1002B000C352DBB200F5000000F069BB400000F162
:1002C000807000EBC350A0F1807040EAD17049000B
:1002D00009E0490841EAC071A0EBC35000F50000F5
:1002E000400800EBC350F0BC00F048BB6142012263
:1002F00002EB4101001BF6E7F0BC704781F00041C2
:10030000AAE780F00040A7E780EA010210B502F0FA
:100310000043400022D04A001FD0010E01EB1261C1
:10032000C0F35600C2F3560240F4000042F400024B
:10033000A0FB022000047F39140400D0401C50EAC6
:10034000124001D44000491EC2B20C0604EBD0108A
:10035000401C4008802A02D003E0002010BD20F09D
:100360000100002900DA0020184310BD30B480EAF3
:10037000010202F0004530F0004221F0004013D0AD
:1003800090B1C30DD40DC2F31601C0F31600E41AE8
:1003900041F4000140F400027D34914201D3641C19
:1003A00000E04900002C02DA30BC002070474FF416
:1003B00000000023914201D3891A034340084FEA09
:1003C0004101F7D151B1914202D14FF0004105E016
:1003D00002D24FF0010101E06FF0010103EBC450C4
:1003E000284430BC00F0CABA2DE9FE4F804681EAAD
:1003F0000300C00F0C46009021F0004123F000459F
:10040000B8EB0200A94105D24046214690461C4661
:100410000B46024623F00040104347D0270DC7F398
:100420000A00C3F30A510290401A019040286BDA87
:10043000C3F3130040F4801B0098924620B10023C0
:10044000D2EB030A63EB0B0B01985946C0F1400253
:10045000504600F016FA06460D4650465946019A97
:1004600000F02EFA10EB08006141002487EA1152D7
:1004700084EAE7731A4340D0009A62B3019A012AD2
:100480004FEA075215DC001B61EB02014FF00042FE
:1004900002EA0752CDE90042001C41F580113246C4
:1004A0002B4600F0B1FA03B0BDE8F08F404621467C
:1004B000F9E7001B61EB0201001C41F580130018F5
:1004C0005B412018A2F5001747EB030140EAD57005
:1004D000B6196D4111E06D084FEA360645EAC07560
:1004E0004FEA0752001B61EB0201001C41F580112D
:1004F00049084FEA30000019514132462B4603B0FB
:10050000BDE8F04F00F071BA0098012240000023CE
:10051000D0EB020263EBE073009821464FEAE074EF
:10052000B8EB000061EB0401E9E783F000435BE70F
:1005300081F0004158E72DE9FE4F81EA030404F001
:10054000004421F0004100944FF0000B23F00043E1
:1005500050EA01045ED052EA03045BD0C3F30A54AC
:10056000C1F30A552C44A4F2F3340194A0FB0254C5
:10057000C1F3130141F48011C3F3130343F4801357
:1005800001FB024400FB034E840A970A44EA8154AB
:1005900047EA8357A4FB076802958D0A05FB078588
:1005A0004FEA932C04FB0C542705029D4FEA065892
:1005B00047EA1637B5EB08056EEB070C870E920E6F
:1005C00047EA811742EA8312A7FB0201B6EB0B014F
:1005D00064EB00042B0D43EA0C335E1844EB1C5013
:1005E000DA465146E7FB0201C5F313044FEA0B3329
:1005F00043EA14534FEA0432019C43EA0603A4F190
:100600000C040294009CCDE900B400F0FDF903B0A5
:10061000BDE8F08F00200146F9E72DE9F04D81EAB1
:10062000030404F0004B21F0004514464FF0000A8B
:1006300023F0004150EA050220D054EA01021DD007
:10064000C5F30A570246C5F31303C1F31300C1F300
:100650000A5640F4801543F48013A7EB0608101BDC
:10066000D64608F2FD3873EB050002D308F1010805
:1006700001E092185B41B8F1000F03DA0020014657
:10068000BDE8F08D00204FF48011064684460EE050
:10069000171B73EB050705D3121B63EB050306431A
:1006A0004CEA010C49084FEA300092185B4150EACD
:1006B0000107EDD152EA030012D082EA040083EA76
:1006C0000501084305D0101BAB4106D201220023CF
:1006D00006E000224FF0004302E06FF001025310E9
:1006E0001AEB06004CEB085110EB0A0041EB0B0132
:1006F000BDE8F04D00F079B9C10F80EAE070084420
:10070000CA079623002100F042B996230022114621
:1007100000F03DB920F00040C10DC0F3160040F4D8
:1007200000007F2901DA00207047962903DCC1F11F
:100730009601C840704796398840704700F00042E3
:1007400030F000400AD0C10D01F56071C0F3160011
:1007500042EA0151C2084007114370470020014698
:100760007047000030B5041E71F1000404DB4FF047
:100770000044404264EB0101141E73F1000405DBE8
:100780001C464FF00043524263EB0403994208BFFA
:10079000904230BD01F0004330B421F0004150EAF6
:1007A000010206D00A0DA2F56072C1F31301002AFE
:1007B00002DC30BC00207047440F44EAC104C10091
:1007C000E01830BC00EBC25000F0D8B8002801DBC4
:1007D000C0F10040002901DBC1F1004181427047B6
:1007E000002801DBC0F10040002901DBC1F100411C
:1007F0008842704730B50B46014600202022012474
:1008000009E021FA02F59D4205D303FA02F5491BDE
:1008100004FA02F52844151EA2F10102F1DC30BDF4
:100820002DE9F05F0546002092469B468846064625
:10083000814640241BE0284641464746224600F0B8
:100840002FF853465A46C01A914110D31146184604
:10085000224600F016F82D1A67EB01084F46224693
:100860000120002100F00DF817EB00094E41201E79
:10087000A4F10104DFDC484631462A464346BDE880
:10088000F09F202A04DB203A00FA02F10020704792
:100890009140C2F1200320FA03F3194390407047BE
:1008A000202A04DB203A21FA02F00021704721FAC5
:1008B00002F3D040C2F1200291400843194670472C
:1008C000202A06DBCB17203A41FA02F043EAE07314
:1008D00006E041FA02F3D040C2F120029140084301
:1008E00019467047014900F003B800004C0E002083
:1008F00010B500683C22B0FBF2F302FB1303B0FB1F
:10090000F2F00B60B0FBF2F302FB1303B0FBF2F06A
:1009100018224B60B0FBF2F302FB1303B0FBF2F0C2
:10092000021D8B600723B2FBF3F403FB142280004B
:1009300040F2B55300F66C308A61B0FBF3F2B0FBC5
:10094000F3F403FB1400443280084A61C8613B2879
:1009500002D3920700D0401C0022074C13460A61C4
:10096000E25C824203D8801A5B1C0B61F8E7401CF2
:10097000C860084610BD00009D7000080029A8BF8F
:100980007047401C490008BF20F00100704710B4B8
:10099000B0FA80FC00FA0CF050EA010404BF10BC6D
:1009A000704749B1CCF1200421FA04F411FA0CF19A
:1009B00018BF012121430843A3EB0C01CB1D4FEAD3
:1009C00000614FEA102042BF002010BC704700EBCE
:1009D000C35010440029A4BF10BC7047401C4900FC
:1009E00008BF20F0010010BC704710B5141E73F151
:1009F000000408DA401C41F1000192185B411A43DF
:100A000001D120F0010010BD2DE9F04D92469B462A
:100A100011B1B1FA81F202E0B0FA80F220329046D0
:100A2000FFF72FFF04460F4640EA0A0041EA0B0198
:100A300053465A46084313D0114653EA010019D0D1
:100A4000C8F140025046FFF72BFF05460E465046C0
:100A500059464246FFF715FF084305D0012004E040
:100A600020463946BDE8F08D0020054346EAE07691
:100A70002C4337430A986305E40AA0EB08000022E0
:100A8000FD0A44EA47540A3002D500200146E9E74E
:100A9000010510196941DDE9084500196941BDE802
:100AA000F04DA2E7C1F30A52C1F3130140F2FF3344
:100AB00041F480119A4202DA00200146704740F268
:100AC00033439A42A2F2334202DC5242FFF7E8BEBD
:100AD000FFF7D7BE064C074D06E0E06840F0010383
:100AE00094E8070098471034AC42F6D3FFF702FBB6
:100AF000FC7000081C71000821B1826842F00102FC
:100B0000826003E0826822F001028260704721B1B6
:100B1000826842F48072826003E0826822F480720C
:100B200082607047014600208A6802F004020AB120
:100B3000012000E000207047014600208A6802F092
:100B400008020AB1012000E00020704730B50246DB
:100B50000020002350680F4C20400D790C6844EAB7
:100B600005242043506090680B4C2040D1E902548A
:100B70002C434D7944EA450420439060D06A20F428
:100B800070000C7C641EE4B2234340EA0350D06240
:100B900030BD0000FFFEF0FFFDF7F1FF2DE9F05F33
:100BA00005460C46A54224DD2046FFF7AEFD8246F1
:100BB0002049FFF7A6FB80462046FFF79DFD8246B1
:100BC0002846FFF7A2FD83465146FFF797FB814673
:100BD0004146FFF7CBFB07461749FFF795FB064653
:100BE00016493046FFF7FCFD00D8134E3046BDE8ED
:100BF000F09F2046FFF780FD81462046FFF785FDE8
:100C000082462846FFF781FD83465146FFF776FB73
:100C100080464946FFF7AAFB07460749FFF774FBE2
:100C2000064607493046FFF7D1FD00D8054E30464D
:100C3000DDE7000000F07F450000B4420000AE4256
:100C40000000AEC20000B4C22DE9F05F05460C46BC
:100C5000A54224DD2046FFF758FD82462049FFF7D4
:100C600050FB80462046FFF747FD82462846FFF7A7
:100C70004CFD83465146FFF741FB81464146FFF755
:100C800075FB07461749FFF73FFB064616493046F6
:100C9000FFF7A6FD00D8134E3046BDE8F09F204672
:100CA000FFF72AFD81462046FFF72FFD82462846A2
:100CB000FFF72BFD83465146FFF720FB8046494650
:100CC000FFF754FB07460749FFF71EFB0646074997
:100CD0003046FFF77BFD00D8054E3046DDE70000CB
:100CE00000F07F450000C8420000C2420000C2C2BE
:100CF0000000C8C2F0B504460D4600200021092DB1
:100D000011DDE068A5F10A0606EB4607072606FA9C
:100D100007F18843A5F10A0606EB460603FA06F139
:100D20000843E0600CE0206905EB4507072606FA5A
:100D300007F1884305EB450603FA06F108432061F5
:100D4000072A0FDA606B561E06EB86071F2606FA87
:100D500007F18843561E06EB860605FA06F108439E
:100D6000606322E00D2A0FDA206BD61F06EB8607A0
:100D70001F2606FA07F18843D61F06EB860605FAFA
:100D800006F10843206310E0E06AA2F10D0606EBCD
:100D900086071F2606FA07F18843A2F10D0606EB27
:100DA000860605FA06F10843E062F0BD816841F06D
:100DB00008018160704721B1826842F4A00282601C
:100DC00003E0826822F4A00282607047816841F0EB
:100DD000040181607047000038B5684601F00AFBE5
:100DE000012815D19DF800000C2811D11848C088A1
:100DF00002280DD100231A461946164800F076FC49
:100E0000AFF22B0005F0DAF800201149C88038BD98
:100E10000F4C03F0D5F81048C0782188884215D1CE
:100E20000D4800796188884210D10B484079A1882B
:100E300088420BD1E088012808D10220E0804FF4DD
:100E4000FA731A460221034800F050FC00BFDEE7A7
:100E50004003002020030020AE00002008B500F071
:100E60006FF9684601F0C6FA401C00B908BD9DF84C
:100E700000000B2821D00D2804D00E280FD01128F7
:100E80002CD126E01748007D18B9022015490875B5
:100E900004E01448007D401E124908751EE0114808
:100EA000007D022803D100200E49087504E00D489A
:100EB000007D401C0B49087510E0AFF25F0005F0A3
:100EC0007DF84FF47A7305223221074803F056F972
:100ED00004E00449087D04F071FF00BF00BF00BFBB
:100EE000C4E7000040030020B52E000810B503F051
:100EF00007F91948194908604FF48040888000209C
:100F00008871084600F07CFB03F05AF81448154934
:100F10000A680260496841604FF47A730622FA2138
:100F2000114803F02BF90E480088104908810C483D
:100F300081780E4841810A48C1780C48818108486F
:100F400001790A48C181064841790848018204486C
:100F500081790648418210BD000C01402003002029
:100F60004E000020AE0000205D1600084003002067
:100F70001CB5614C02F020FA208860A308220021F1
:100F80000090084602F099FB60885EA308221021B9
:100F90000090002002F091FBA0885CA30822202191
:100FA0000090002002F089FBE08828B959A30822AC
:100FB0003021002002F081FBE088012802D0E08887
:100FC000022805D156A308223021002002F075FB2B
:100FD00056480078010110238022002002F086FB91
:100FE00001A801F007FA401C00B91CBD9DF80400DF
:100FF0000B38072864D2DFE800F01F2A041163636E
:1010000030004A48007818B903204849087004E0C5
:1010100046480078401E4549087069E0434800781A
:10102000032803D100204149087004E03F480078BC
:10103000401C3E4908705BE03D4804F0BFFF4FF4A0
:101040007A73052232213B4803F098F850E00020E3
:101050003649097824F811004AE03448007803281A
:1010600000D045E03148007834F8100060B9012024
:101070002E49097824F811004FF4FA730622FA2158
:101080002D4803F07BF81AE02848007834F8100067
:10109000012805D02548007834F8100002280ED128
:1010A0004FF4FA731A460021244800F01FFB22482F
:1010B00004F084FF00201D49097824F8110017E08E
:1010C0009DF80400092804DD18480078032800D0A2
:1010D0000EE01648007834F8100000EB80009DF810
:1010E000041001EB40001149097824F8110000BFF9
:1010F00000BF00BF79E70000400300206461793A37
:1011000025640000686F75723A2564006D696E3A57
:1011100025640000416C61726D204F46460000005E
:10112000416C61726D204F4E00000000570000209E
:10113000710F00085D0E0008D90D00082003002083
:1011400000B587B002F038F902F03AFF1A4880790A
:1011500019494979184A1279174BDB78CDE90232DF
:10116000CDE90410144880781349098813A3062296
:10117000CDE900100021084602F09FFA14A30822CE
:101180001021002002F099FA14A308222021002047
:1011900002F093FA14A308223021002002F08DFA05
:1011A0001348007D000100F110011023802200206F
:1011B00002F09CFA07B000BDAE00002025642D258A
:1011C000642D25642D25642D25642D2564000000E3
:1011D0005365742054696D650000000053657420E8
:1011E000416C61726D00000042757A7A696E670029
:1011F000400300202DE9F047064606F1200406F1E1
:101200001005304602F05EFFF0894FF40061FFF7F1
:10121000C5FC07463749FFF777F82060708940F230
:10122000BC71FFF7BBFC07464FF07E51FFF76CF82F
:101230006060B0894FF40061FFF7B0FC07464FF0E3
:101240007E51FFF761F8A06030894FF40061FFF72D
:10125000FBFC07464FF07E51FFF756F8E060296827
:101260002068FFF74BF88146FFF768FA21F000414C
:10127000074600224FF08043FFF774FA01D220683E
:10128000286069686068FFF739F88146FFF756FA09
:1012900021F00041074600224FF08043FFF762FA39
:1012A00001D260686860A968A068FFF727F88146E6
:1012B000FFF744FA21F00041074600224FF0804337
:1012C000FFF750FA01D2A068A860E968E068FFF76C
:1012D00015F88146FFF732FA21F000410746002257
:1012E0004FF08043FFF73EFA01D2E068E860BDE8C6
:1012F000F0870000000080BF2DE9F05F06460C4635
:10130000154629462046FEF7F9FF82460D4930462C
:10131000FEF7A2FF83465146FEF7F6FF81460A49D3
:10132000FFF724F880462146FEF7EBFF07464FF013
:101330007C513846FEF790FF8046FFF7EBF980B20C
:10134000BDE8F09F0000B442000034430149086842
:1013500049687047700000201FB50121022002F08B
:101360008FFD0021022002F08BFD0121022002F0FE
:1013700077FD0121164803F02DFC4720ADF804004D
:1013800040F2E730ADF808000020ADF8060001A9F2
:101390000F4803F015FE01210D4803F048FC01221F
:1013A00011460B4803F0BCFC1D208DF80000002006
:1013B0008DF8010001208DF802008DF803006846C9
:1013C00001F030FF0121024803F025FC1FBD0000A1
:1013D0000004004010B504F01FFD10BD2DE9F041E0
:1013E00007460C4615461E4622493846FFF7EEF9D9
:1013F00001D2204807E020493846FFF7F1F901D231
:101400001D4800E038461D4908601A492046FFF78C
:10141000DDF901D2174807E017492046FFF7E0F948
:1014200001D2154800E02046144948601149284679
:10143000FFF7CCF901D20F4807E00F492846FFF724
:10144000CFF901D20C4800E028460C4988600C49CD
:101450003046FFF7BBF901D2094807E00949304699
:10146000FFF7BEF901D2074800E030460349C860E3
:10147000BDE8F0810000B4C20000B442E0020020E8
:101480000000C8C20000C8422DE9F05F4249086868
:10149000FFF754F90646414A414BFFF74CF8044622
:1014A0000D4640490868FFF749F906463E4A3F4B5A
:1014B000FFF741F8804622462B46FEF795FF82460D
:1014C000FFF768F93749086033494868FFF736F98C
:1014D0000646374A374BFFF72EF804460D4631498A
:1014E0004868FFF72BF906464FF06632324BFFF79C
:1014F00022F8824622462B46FEF776FF8046FFF70B
:1015000049F92849486024498868FFF717F90646D1
:10151000274A284BFFF70FF804460D4621498868F3
:10152000FFF70CF906464FF06632234BFFF703F83E
:10153000804622462B46FEF757FF8246FFF72AF9E0
:10154000184988601449C868FFF7F8F80646184A31
:101550001A4BFEF7F0FF04460D461249C868FFF724
:10156000EDF80646124A164BFEF7E5FF8046224686
:101570002B46FEF739FF8246FFF70CF90949C86090
:1015800001F016FD074CE368A2686168206802F06C
:10159000C5FEBDE8F09F0000E0020020B81E85EB0C
:1015A00051B89E3FD00200200AD7A3703D0AEF3FFA
:1015B0009A9999999999A93F6666EE3F9999C93F79
:1015C0009999E93F08B50146002000900348009032
:1015D0000098084400900098008808BD006C004006
:1015E00008B500220092044A0092009A0244009238
:1015F000009A116008BD0000006C004000BFFEE7CB
:1016000038B504460121082002F04AFC10208DF86C
:101610000300A088ADF8000002208DF802006946A2
:10162000206800F05DFB0020A060E06000212161E7
:101630006161204600F056F9002009E0064951F8A2
:10164000201019B9044941F8204003E0411CC8B2F8
:101650000428F3DB00BF38BD0C0A002070B500255C
:101660003CE0204850F8254004B935E0207E0228AF
:1016700000D031E0607EB8B101282BD1D4E904312B
:10168000A0681A1841F10001174803684068D21A8F
:10169000814108D2144801684068C4E9041000215F
:1016A000204600F01FF915E0D4E90431E0681B186A
:1016B00041F100010C4A10685268181A914108D291
:1016C000094801684068C4E904100121204600F07F
:1016D00009F900BF00BF00BF681CC5B2042DC0DB04
:1016E00070BD00000C0A0020780000202DE9F041B8
:1016F00005460E46174698462C460CB9BDE8F081C3
:101700005EB1012E02D0022E14D10DE00120207610
:101710000121204600F0E6F80CE0002020760021B0
:10172000204600F0DFF805E002202076A760C4F82C
:101730000C8000BF00BF00BFE0E700001CB5584CA4
:1017400001F03AFE57A308220021084601F0B5FF38
:10175000E08A58A3082210210090002001F0ADFF7C
:10176000208B58A3082220210090002001F0A5FF23
:1017700058480078000100F1100110238022002059
:1017800001F0B4FF01A800F035FE401C00B91CBDFB
:101790009DF804000B281FD00C2828D00D2802D05B
:1017A0000E2830D10BE04B48007810B90120494990
:1017B000087048480078401E4649087040E0454897
:1017C0000078012802D10020424908704148007881
:1017D000401C4049087033E03F4804F0EFFB4FF4F1
:1017E0007A73052232213D4802F0C8FC28E03948CE
:1017F000007808B90020E08236480078012801D13D
:10180000002020831CE09DF80400092800DD17E07B
:101810003048007838B9E08A00EB80009DF8041069
:1018200001EB4000E0822B480078012807D1208B93
:1018300000EB80009DF8041001EB4000208300BF06
:1018400000BFE08AC82809DB208BC82806DB238B71
:10185000E28A02212248FFF749FF1FE0E08AC828F8
:1018600009DA208BC82806DB238BE28A00211C487A
:10187000FFF73CFF12E0E08AC82809DB208BC8286C
:1018800006DA238BE28A01211548FFF72FFF05E0D6
:1018900000231A4619461248FFF728FF00BF76E7D3
:1018A0004003002042757A7A65722D436F6E666937
:1018B0006700000042757A7A65725F4F4E3A256480
:1018C0000000000042757A7A65725F4F46463A25FD
:1018D00064000000580000203D1700085D0E00085D
:1018E0002003002070B504460D46A07998B1012868
:1018F00022D1012D07D1A1880122206800F084FAAD
:101900000120607606E0A1880022206800F07CFAC1
:101910000020607610E0012D07D1A1880022206808
:1019200000F072FA0120607606E0A18801222068AA
:1019300000F06AFA0020607600BF70BD70B501F05B
:101940003BFD00241FE0114800782044C5B20A2D59
:1019500017DA05EBC5020E4800EB820304EB8400A6
:1019600081000822002001F0A8FE0A480078854284
:1019700007D104EB8400810014234622002001F0EB
:10198000B5FE601CC4B2032CDDDB70BD5D00002021
:10199000CB0600205E00002038B58548007801287D
:1019A00001D100F04FFD83480078012801D101F0FA
:1019B0007BFC684600F01EFD401C00B938BD9DF858
:1019C00000000B38072817D2DFE800F00A090405E9
:1019D0000607080010E00FE00EE00DE00CE00BE061
:1019E0004FF47A7305223221734802F0C7FBAFF23D
:1019F000570004F0E3FA00BF00BF9DF800000B3869
:101A0000072819D2DFE800F07F85041933677600D4
:101A10006A48007800280FDD68480078401E674952
:101A200008700846007866490978884204DA6448F4
:101A30000078C01E62490870B5E0624890F86B01FA
:101A4000401E5E490978884210DD5C480078401CE1
:101A50005A4908700846017859480078C01C8142EC
:101A600004DB57480078C01C554908709BE0554876
:101A700090F86B0151490978884217DD514890F878
:101A80006B410FE0621E02EBC2034E4AD21C02EB16
:101A9000830104EBC40302EB83002422FEF7AAFBBC
:101AA000601EC4B2454800788442EBDC454890F89B
:101AB0006B01401C434981F86B014049097801EBF7
:101AC000C1024049C91C01EB82002421FEF7ABFB97
:101AD00001F072FC67E03B4890F86B0137490870F1
:101AE000384890F86B01401C364981F86B0101F0D1
:101AF00063FC58E001F060FC01202E4908700020D2
:101B0000314908704FE001F057FC00202E49087061
:101B100049E02C4890F86B0128490978884221DD7A
:101B2000264804780FE0621C02EBC203254AD21C4F
:101B300002EB830104EBC40302EB83002422FEF7D3
:101B400059FB601CC4B21F4890F86B01A042EADC4C
:101B50001C4890F86B01401E1A4981F86B0101F096
:101B60002BFC20E0174890F86B0114490978884253
:101B700016D11249097801EBC1021249C91C01EBC7
:101B800082002421FEF74FFB0C480078401E0B49D1
:101B900008700C4890F86B01401E0A4981F86B01EF
:101BA00001F00AFC00BF00BFFFF7C8FE00BF05E759
:101BB0005C0000205B000020B52E00085E000020C5
:101BC0005D000020C80600205A00002008B5012052
:101BD0000223802200210090084601F071FC0120C0
:101BE000022380223E210090002001F069FC0120A8
:101BF0004023024600210090084601F061FC0120CC
:101C000040230246002100907F2001F059FC08BDCE
:101C1000064840780549097808440721B0FBF1F2ED
:101C200001FB120001498870704700000800002085
:101C300021B1026842F00102026004E002684FF63E
:101C4000FE731A400260704710B50022026847F622
:101C5000F0739A430C6A8B6823430C6923434C69E5
:101C600023438C692343CC6923434C6A23438C6A06
:101C700023431A430260CB6843600B6883604B6860
:101C8000C36010BD704700002DE9F05F06460C46AA
:101C900015463046FEF752FD21F000410746FEF79B
:101CA00079FD814629462046FEF728FB83464946B2
:101CB000FEF72AFB80460949FEF758FB07462946EE
:101CC000FEF7CAFA82464FF07C515046FEF7C4FA3E
:101CD0000746FEF71FFD80B2BDE8F09F0000C84236
:101CE0002DE9F041024600250026002000230024B3
:101CF000002791F803C00CF00F0591F803C00CF019
:101D0000100CBCF1000F03D091F802C04CEA05059D
:101D100091F800C0BCF1000F31D0146800202BE016
:101D20004FF0010C0CFA00F3B1F800C00CEA030606
:101D30009E4220D183004FF00F0C0CFA03F7BC43F6
:101D400005FA03FC4CEA040491F803C0BCF1280F27
:101D500006D14FF0010C0CFA00FCC2F814C00AE0E6
:101D600091F803C0BCF1480F05D14FF0010C0CFAFB
:101D700000FCC2F810C0401C0828D1D31460B1F890
:101D800000C0BCF1FF0F34DD546800202EE000F1EC
:101D9000080C4FF0010808FA0CF3B1F800C00CEA87
:101DA00003069E4221D183004FF00F0C0CFA03F77B
:101DB000BC4305FA03FC4CEA040491F803C0BCF1EF
:101DC000280F05D100F1080C08FA0CF8C2F81480AD
:101DD00091F803C0BCF1480F07D100F1080C4FF097
:101DE000010808FA0CF8C2F81080401C0828CED36D
:101DF0005460BDE8F0810246002093680B400BB1AF
:101E0000012000E0002070470AB1016100E041615B
:101E10007047000070B50446064802F00DFF054605
:101E2000FEF78CF9FEF780F9B0FBF4F104FB11002A
:101E300070BD00000004004008480078062190FBB7
:101E4000F1F0401C0649087006490878C11700EBFC
:101E50005171C910491C044A117070476500002077
:101E600067000020660000206800002000B5ADF586
:101E7000557D4FF4967004F089F82E48007830B9FB
:101E8000FFF7A4FE02F06EFB01202A490870D4A8D7
:101E900000F0B0FA012825D19DF850030B38062830
:101EA0001FD2DFE800F00C1E0304050600BF00BFD0
:101EB00000BF9DF85003204981F85D0311E01E48E2
:101EC00002F048FB00201B490870AFF25F0004F0ED
:101ED00075F84FF47A7305223221184802F04EF952
:101EE00000BF00BF144890F85C0306281ED2DFE84C
:101EF00000F00313121B171C0F4802F057FC4FF49D
:101F000054720D4910316846FEF774F90A480FC83B
:101F100002F047FB0AE000BF074802F0A5FB05E01E
:101F2000054802F0BDFB01E000BF00BF00BF0DF59A
:101F3000557D00BD5900002068030020B52E000823
:101F400010B50848007A60B901F036FA0120054959
:101F500008724FF47A70FFF75DFF0249086000F0E5
:101F6000BFF910BD5C0300201CB5AC480078012807
:101F70007ED101A800F03EFA401C00B91CBD9DF8BE
:101F800004000B38072820D2DFE800F0EFDF042040
:101F90003C587600A2480078002816DD0823062267
:101FA0009F4801789F48007801F0A0FB9C4800788A
:101FB00008389B490870FFF73FFF0823062298481E
:101FC00001789848007801F091FB21E1944800786D
:101FD000382816DA082306229148017891480078BB
:101FE00001F084FB8E48007808308D490870FFF7B7
:101FF00023FF082306228A4801788A48007801F0E6
:1020000075FB05E187480078012816DD08230622C4
:10201000834801788348007801F068FB81480078A4
:10202000801F80490870FFF707FF082306227C48BD
:1020300001787C48007801F059FBE9E079480078A4
:10204000792818DA0823062275480178754800783F
:1020500001F04CFB73480078801D72490870FFF74F
:10206000EBFE082306226E4801786E48007800E0F7
:10207000D2E001F03BFBCBE0FFF7DEFE6A480078E0
:1020800000EB8000694901EB400069490978405C38
:10209000012800D1BCE06448007800EB800065496D
:1020A00001EB400062490978405C012808D101F049
:1020B00083F961A308220021084601F0FEFAA7E097
:1020C0005948007800EB80005A4901EB400058491C
:1020D0000978405CB8BB01215348007800EB8000D0
:1020E000524A02EB4000524A1278815408230622D9
:1020F0004B4801784B48007801F072F94C4802785F
:10210000494801784B4800F015F904464EA30622D1
:102110004348009401784348007801F0CEFA082340
:1021200006223F4801783F48007801F0DFFA47482F
:102130000088401C45490880084600889E2801D137
:1021400000F0DEFE64E0FFE762E03748007800EB75
:102150008000364901EB400035490978405C012890
:1021600002D03B48008808B952E039E002202E49ED
:10217000097801EB81012D4A02EB41012C4A1278CA
:10218000885433480088401E31490880264800782A
:1021900000EB8000274901EB400025490978405CAD
:1021A000012804D12B480088401C2A49088029486E
:1021B00000880A2801D100F0A3FE0823062218484F
:1021C00001781848007801F00BF900200823062256
:1021D0000090134801781348007801F071F917E076
:1021E00000200E490870E6211048FEF71CF8002078
:1021F00016490880174908800A201549088001F00F
:10220000DBF807200749087008200549087000BF5F
:1022100000BF01F04FFC00BF00BFAFE6640000202C
:1022200066000020650000206700002026090020CD
:102230006800002040080020E681ADE5969CE4BDE2
:10224000A0E8BE93E4BA8600256400006A0000207E
:102250006E0000206C00002008B5FFF771FE684694
:1022600000F0C8F8401C00B908BD9DF800000B281C
:1022700008D00C2816D0112818D11749486802F048
:1022800033F923E0AFF22F0003F098FE4FF47A7396
:1022900005226421114801F071FF00200E490872E7
:1022A000486013E000200C4948600FE09DF80000F2
:1022B000092800DD0AE00848406800EB80009DF82E
:1022C000001001EB40000449486000BF00BF00F06F
:1022D00007F800BFC8E700005C030020B52E000827
:1022E00008B5102380222021002001F079F84FF456
:1022F0007A7008A3082200210090084601F0DDF959
:102300000948406809A3082220210090002001F01C
:10231000D4F908BDE8AFB7E78C9CE695B0E5AD977A
:10232000302D2564000000005C03002025640000BF
:1023300000BFFEE730B50346481E00EB800003EB0C
:102340004004501E245C01EB810003EB4005501E4D
:10235000285C0444481C00EB800003EB4005501E41
:10236000285C0444481E00EB800003EB4000805CC6
:102370000444481C00EB800003EB4000805C0444F4
:10238000481E00EB800003EB4005501C285C044411
:1023900001EB810003EB4005501C285C0444481C01
:1023A00000EB800003EB4005501C285C2044C0B2C9
:1023B00030BD000010B504460020A0740C4802F0A7
:1023C00038FCA081A089E189884204DDA089E189E7
:1023D000401A608106E0A089E1894FF6FF72511A28
:1023E00008446081A089E081207A401C207210BDE1
:1023F000002C0140024612B94FF0FF3070470F48E1
:102400008079012816D100200C49887100210FE045
:102410000A4840790A4B13F81130984206D108480F
:1024200000EB4100407810700120E7E7481C81B2C2
:102430001229EDD34FF0FF30E0E700002C0A002016
:102440008800002008B56846FFF7D4FF401C00B99B
:1024500008BD9DF800000B2812D100200949087022
:102460000120094908700020084908700848002127
:1024700001604160816000200649087006490870CB
:1024800000BFE5E75C0000205B000020600000204A
:1024900034080020620000206100002010B501F027
:1024A000F9FB00200EE00D4931F810100C4A22F81B
:1024B00010100A4931F810200949083121F810207C
:1024C000411C88B20428EEDB002005490861002188
:1024D000034841618161C16110BD0000800000209E
:1024E000A002002038B504460121102001F0D8FCDC
:1024F00014208DF80300A088ADF8000002208DF8AC
:10250000020069462068FFF7EBFB0020A060E06056
:10251000002121616161204600F081F8002009E07E
:10252000064951F8201019B9044941F8204003E048
:10253000411CC8B20428F3DB00BF38BD1C0A0020D0
:1025400070B500253DE0204850F8254004B936E03C
:10255000207E022800D032E0607E10B101282CD10C
:1025600015E0D4E9031360695A1840F100001749D7
:102570000B6849689A1A814108D314490868496868
:10258000C4E904010121204600F049F815E0D4E92E
:102590000431A0681A1841F100010C480368406832
:1025A0009A1A884108D3094801684068C4E90410B0
:1025B0000021204600F033F800BF00BF00BF681CB8
:1025C000C5B2042DBFDB70BD1C0A002078000020BE
:1025D0002DE9F04105460E46174698462C460CB9A3
:1025E000BDE8F08126B1012E09D0022E14D10DE0F4
:1025F000002020760021204600F011F80CE0012098
:1026000020760121204600F00AF805E0022020761D
:10261000A760C4F80C8000BF00BF00BFE0E770B542
:1026200004460D46A07998B1012822D1012D07D189
:10263000A18801222068FFF7E7FB0120607606E011
:10264000A18800222068FFF7DFFB0020607610E001
:10265000012D07D1A18800222068FFF7D5FB0120BA
:10266000607606E0A18801222068FFF7CDFB0020FC
:10267000607600BF70BD000008B5494800780028AA
:1026800026D000F099FE47A308220021084601F059
:1026900014F846A308221021002001F00EF847A3E9
:1026A00008222021002001F008F848A30822302148
:1026B000002001F002F848480078000100F1100104
:1026C00010238022002001F011F800203449087006
:1026D0006846FFF78FFE401C00B908BD9DF800005A
:1026E0000B2806D00D281BD00E2826D011282FD15C
:1026F0000EE001202A490870AFF2830003F05EFC6F
:102700004FF47A7305223221344801F037FD1FE07F
:102710000120234908703048007803F019FB17E0C6
:102720002D48007818B902202B49087004E02A4887
:102730000078401E284908700AE027480078401CAD
:10274000032190FBF1F201FB12002349087000BF46
:1027500000BF00F031FE13A308220021084600F05C
:10276000ACFF12A308221021002000F0A6FF13A343
:1027700008222021002000F0A0FF14A3082230210D
:10278000002000F09AFF14480078000100F11001C9
:1027900010238022002000F0A9FF00BF9DE7000069
:1027A0004D0000204C45445F534554005365742D43
:1027B00053544D33322D4C45440000005365742D65
:1027C00045535033322D4C45440000005365742D61
:1027D00043414D2D4C4544004C000020B52E0008CF
:1027E0001CB587480078002844D000F0E5FD85A39B
:1027F00008220021084600F060FF8548408985A333
:10280000082210210090002000F057FF80488089A6
:1028100084A3082220210090002000F04EFF85486C
:10282000007820B1012809D0022815D10DE082A33B
:1028300008223021002000F040FF0DE082A3082292
:102840003021002000F039FF06E082A30822302169
:10285000002000F032FF00BF00BF81480078000177
:1028600000F1100110238022002000F03FFF002023
:102870006349087001A8FFF7BDFD401C00B91CBDED
:102880009DF804000B38072854D2DFE800F0041448
:10289000222353532E0000F08FFD01205849087069
:1028A000704803F08BFB4FF47A73052264216E4865
:1028B00001F064FCE3E76A48007810B9002054494D
:1028C000488167480078012802D10020504988815A
:1028D00051E000BF62480078401C032190FBF1F2F8
:1028E00001FB12005E49087045E05D48007802284F
:1028F00000D040E04F480078401C032190FBF1F2EB
:1029000001FB12004B4908700846007820B10128ED
:1029100006D002280CD107E000203D49887307E06B
:1029200001203B49887303E002203949887300BFC6
:1029300000BF20E09DF804000A2800DB1BE04848A7
:10294000007848B93248408900EB80009DF80410B7
:1029500001EB40002E49488141480078012809D107
:102960002B48808900EB80009DF8041001EB4000AB
:102970002749888100BF00BF00F01EFD21A3082267
:102980000021084600F099FE2148408921A3082231
:1029900010210090002000F090FE1D48808921A3A6
:1029A000082220210090002000F087FE21480078B6
:1029B00020B1012809D0022815D10DE01EA308225C
:1029C0003021002000F079FE0DE01FA30822302105
:1029D000002000F072FE06E01EA308223021002035
:1029E00000F06BFE00BF00BF1D480078000100F141
:1029F000100110238022002000F078FE00BF3EE787
:102A00004A00002043414D4C45445F53455400006B
:102A1000F002002042726967685F74696D653A254B
:102A2000640000004461726B5F74696D653A2564EF
:102A3000000000004B000020436F6C6F75723A5726
:102A40006869746500000000436F6C6F75723A42EC
:102A50006C756500436F6C6F75723A526564000067
:102A600049000020E1270008792600081CB55748D6
:102A70000078002826D000F09FFC55A308220021F2
:102A8000084600F01AFE5648008956A30822102175
:102A90000090002000F011FE5148C08855A3082284
:102AA00020210090002000F008FE56480078000128
:102AB00000F1100110238022002000F017FE0020FA
:102AC0004249087001A8FFF795FC401C00B91CBDE5
:102AD0009DF804000B2806D00C2814D00D2820D017
:102AE0000E282AD11EE000F067FC0120374908704B
:102AF000454803F063FA4FF47A7305226421434892
:102B000001F03CFBE3E73F48007810B9002034496E
:102B100008813C480078012802D100203049C88053
:102B20002CE000BF37490978481C00EBD0714910F0
:102B3000A0EB4101334A117020E09DF804000A28FF
:102B400000DB1BE02F48007848B92548008900EBDE
:102B500080009DF8041001EB4000214908812948BC
:102B60000078012809D11E48C08800EB80009DF83C
:102B7000041001EB40001A49C88000BF00BF00F0FC
:102B80001BFC13A308220021084600F096FD144800
:102B9000008914A3082210210090002000F08DFD70
:102BA0000F48C08813A3082220210090002000F0C5
:102BB00084FD14480078000100F1100110238022E8
:102BC000002000F093FD00BF81E7000048000020D6
:102BD00045535033324C45445F5345540000000088
:102BE000F002002042726967685F74696D653A257A
:102BF000640000004461726B5F74696D653A25641E
:102C000000000000470000206D2A00087926000817
:102C10001CB56F480078002826D000F0CDFB6DA3CE
:102C200008220021084600F048FD6E4880886EA307
:102C3000082210210090002000F03FFD69484088E4
:102C40006DA3082220210090002000F036FD6E4880
:102C50000078000100F1100110238022002000F014
:102C600045FD00205A49087001A8FFF7C3FB401C2E
:102C700000B91CBD9DF804000B2806D00C2814D008
:102C80000D2820D00E282AD11EE000F095FB01204F
:102C90004F4908705D4803F091F94FF47A730522AB
:102CA00064215B4801F06AFAE3E75748007810B9FD
:102CB00000204C49888054480078012802D1002027
:102CC000484948802CE000BF4F490978481C00EB78
:102CD000D0714910A0EB41014B4A117020E09DF8E2
:102CE00004000A2800DB1BE04748007848B93D484B
:102CF000808800EB80009DF8041001EB400039490A
:102D0000888041480078012809D13648408800EB86
:102D100080009DF8041001EB40003249488000BF5C
:102D200000BF30484388828802213A48FFF750FCB0
:102D30002C488088322809DC2A484088322805DD62
:102D400000231A4619463348FFF742FC254880887D
:102D5000322809DB23484088322805DA00231A4646
:102D600001212C48FFF734FC1E488088322809DCFA
:102D70001C484088322805DC00231A4601212548DA
:102D8000FFF726FC00F018FB12A3082200210846DA
:102D900000F093FC1348808813A3082210210090B0
:102DA000002000F08AFC0F48408813A3082220214D
:102DB0000090002000F081FC13480078000100F131
:102DC000100110238022002000F090FC00BF50E78B
:102DD0004600002053544D33324C45445F53455414
:102DE00000000000F002002042726967685F7469A9
:102DF0006D653A25640000004461726B5F74696D13
:102E0000653A25640000000045000020112C0008F0
:102E1000792600080003002010B50C480C49086012
:102E200040148880002088710846FFF75BFB4FF450
:102E3000FA735A0002210648FFF7CAFB4FF47A736F
:102E400005226421034801F099F910BD00100140EA
:102E5000000300204125000800BFFEE770B500F028
:102E6000ABFA00241FE01148007820440721B0FB92
:102E7000F1F201FB12050E4850F8353004EB8400E6
:102E800081000822002000F018FC08484078A04289
:102E900007D104EB8400810014234622002000F0B7
:102EA00025FC601CC4B2032CDDDB70BD08000020D3
:102EB0000C00002008B51148007808B1FFF7CEFFDC
:102EC0006846FFF797FA401C00B908BD9DF800005E
:102ED0000D2804D00E2805D0112809D105E000F0F6
:102EE000C1FE05E000F0A6FE02E002F001F900BF1D
:102EF00000BFFFF7B3FF00BFE7E70000440000207A
:102F000010B500F059FA06A308221421002000F0A1
:102F1000D4FB082360221421002000F0DFFD10BD47
:102F2000E5BE88E98197E686BEE4BDA0E8B5A2E4E7
:102F3000BA86000010B5044634B1012C11D0022C21
:102F40001BD0032C30D124E000224FF480511748CD
:102F5000FEF75AFF00224FF400511448FEF754FFC9
:102F600022E0012211031148FEF74EFF00224FF428
:102F700000510E48FEF748FF16E000224FF4805142
:102F80000A48FEF741FF012251030848FEF73CFFC3
:102F90000AE0012211030548FEF736FF0122510322
:102FA0000248FEF731FF00BF00BF10BD000C01401A
:102FB00010B50C48C4680C492046FDF711FC03D23B
:102FC0000120FFF7B7FF0BE008492046FDF7FEFBA5
:102FD00003D20220FFF7AEFF02E00020FFF7AAFFB6
:102FE00010BD0000D00200200000A0400000A0C0E2
:102FF00010B504462046FFF7DDF9E07920B101283D
:1030000006D002280CD107E0204600F0B9F807E00E
:10301000204600F0C9F803E0204600F0ECF800BFBD
:1030200000BF10BD70B504462068000E20712068F6
:10303000C0F307452088000A60712678207968402F
:10304000FF280AD160797040FF2806D1207920B985
:103050000120A0710220E07102E0204600F001F89A
:1030600070BD002101600172C171018270470000D2
:1030700000B589B00121052000F012FF48208DF82D
:1030800023004FF48070ADF8200008A93A48FEF7FD
:1030900027FE0121C80200F013FF00214FF4006059
:1030A00000F00EFF0121C80200F0FAFE01213348B2
:1030B00001F090FD8F20ADF814004FF6FF70ADF8D1
:1030C00018000020ADF816008DF81C00ADF81A00AD
:1030D00005A92A4801F074FF0121284801F0A7FD45
:1030E0000021264801F024FF0021244801F02CFF94
:1030F0000020ADF808000920ADF810000220ADF85E
:103100000A000020ADF80E000120ADF80C0002A965
:103110001A4801F0AFFD0121184801F07CFD0122A1
:103120000021164801F062FD01220321134801F03D
:10313000F7FD0321114801F068FD1B208DF8040004
:1031400000208DF8050001208DF806008DF807009D
:1031500001A800F067F819208DF8040000208DF810
:10316000050001208DF806008DF8070001A800F089
:1031700059F809B000BD000000080140002C0140D2
:1031800070B50446267A6589022E0CD141F2707022
:10319000854205DDB5F5FA5F02DA0120E07102E053
:1031A0002046FFF75EFF70BD70B50446267A65893C
:1031B000022E1FDD206840002060B5F5E17F05DDAF
:1031C000B5F52F7F02DA206820600EE0B5F5487F64
:1031D00008DD40F21450854204DA206840F0010016
:1031E000206002E02046FFF73CFF222E02D120465D
:1031F000FFF718FF70BD017A282910D141890122FB
:1032000082712222027241F29412914206DD41F251
:103210007072914202DA028A521C028200BF704729
:103220007047000070B5002100230F22C47804B35A
:10323000154C246804F4E064C4F5E064210AC1F18B
:103240000403CA40447804FA03F18478144021430B
:1032500009010E4C0678A155047804F01F050124DD
:10326000AC4005786D11AD0005F1E025C5F80041D1
:1032700009E0047804F01F050124AC40044D0678F1
:10328000761145F8264070BD0CED00E000E400E04A
:1032900080E100E002490143024A116070470000EA
:1032A0000000FA050CED00E01CB500F085F836488A
:1032B000007800EBC001354800EB810034A3082200
:1032C00000210090084600F0F8F92F48007800EB44
:1032D000C0012E4800EB81000C302FA308221421DE
:1032E0000090002000F0E9F92748007800EBC001C9
:1032F000264800EB8100183029A3082228210090DD
:10330000002000F0DAF92848007800EB8000810006
:1033100014238022002000F0E9F901A8FFF76AF8E1
:10332000401C00B91CBD9DF804000B2822D00D28BC
:1033300004D00E280BD0112823D112E01A480078AF
:1033400020B119480078401E1749087019E0164846
:103350000078022804D014480078401C12490870F4
:103360000FE000F029F801201049087000201049F2
:10337000087006E000200E49087001200D49087011
:1033800000BF00BF00BFCDE75E000020CB060020DD
:103390004E616D653A25730051513A257300000066
:1033A00057583A25730000005F0000205C000020A1
:1033B0005B0000205A00002000200CE0002106E005
:1033C0000022064B03EBC0135A544A1CD1B2802989
:1033D000F6DB421CD0B20828F0DB70474A0A002016
:1033E0002DE9F04304460D4616461F46284638E0B0
:1033F000224631E0002A2DDB7F2A2BDC002829DB46
:103400003F2827DC4FEAE07C00EB5C7C4FEAEC0CC9
:10341000DFF8588008EBCC1C1CF802C003464FEACA
:10342000E07800EB58784FEAE808A0EBC8094FF0C5
:10343000010808FA09F82CEA080C01464FEAE0787E
:1034400000EB58784FEAE808DFF8209009EBC8183D
:1034500008F802C0511C0AB2A1199142CADC411CF1
:1034600008B2E9198142C3DCBDE8F0834A0A0020B2
:1034700070B50346002B20DB7F2B1EDC00291CDBF4
:103480003F291ADCCC1701EB5474E4100B4D05EB0B
:10349000C414E45C0A46CD1701EB5575ED10A1EBA1
:1034A000C5060125B5402C430846CD1701EB5575DF
:1034B000ED10024E06EBC515EC5470BD4A0A002013
:1034C0002DE9F04705460E4617469846DDF820A040
:1034D000BAF1000F24D12C460CE031462046FFF70C
:1034E000C7FF06EB0800401E01B22046FFF7C0FFF1
:1034F000601C04B2E819A042EFDC34460BE0214620
:103500002846FFF7B5FFE919491E08B22146FFF723
:10351000AFFF601C04B206EB0800A042EFDC14E031
:103520002C460FE0B14607E049462046FFF7A0FFD2
:1035300009F101000FFA80F906EB08004845F3DCB9
:10354000601C04B2E819A042ECDCBDE8F087000082
:1035500038B5002406E0002500E06D1CB5F57A7F43
:10356000FBD3641CB4F57A7FF5D30121082000F069
:1035700097FC14208DF8030003208DF802004FF40F
:103580008070ADF8000069460848FEF7A9FB4FF4CB
:103590000070ADF8000069460448FEF7A1FB012069
:1035A00000F008FB012000F011FB38BD000C0140C9
:1035B00070B50546002411E080212141294009B160
:1035C000012100E00021084600F000FB012000F08E
:1035D000F1FA002000F0EEFA601CC4B2082CEBDB1C
:1035E000012000F0E7FA002000F0E4FA70BD10B509
:1035F000012000F0EBFA012000F0DCFA002000F0DE
:10360000E5FA002000F0D6FA10BD10B5002000F059
:10361000DDFA012000F0CEFA012000F0D7FA10BD4B
:1036200010B5FFF795FFAE2000F0DCFAD52000F0D2
:10363000D9FA802000F0D6FAA82000F0D3FA3F2073
:1036400000F0D0FAD32000F0CDFA002000F0CAFA42
:10365000402000F0C7FAA12000F0C4FAC82000F012
:10366000C1FADA2000F0BEFA122000F0BBFA812085
:1036700000F0B8FACF2000F0B5FAD92000F0B2FA85
:10368000F12000F0AFFADB2000F0ACFA302000F0BF
:10369000A9FAA42000F0A6FAA62000F0A3FA8D2033
:1036A00000F0A0FA142000F09DFAAF2000F09AFA82
:1036B000FFF782FE00F0FEF910BD0FB470B5C2B086
:1036C00005460E4614464AA8019002A8019A499957
:1036D00001F098FE00200190234602AA31462846B8
:1036E00000F006F942B070BC5DF814FB2DE9F04320
:1036F00004460D4616461F46284638E0224631E06D
:10370000002A2DDB7F2A2BDC002829DB3F2827DC41
:103710004FEAE07C00EB5C7C4FEAEC0CDFF8588071
:1037200008EBCC1C1CF802C003464FEAE07800EB23
:1037300058784FEAE808A0EBC8094FF0010808FAEA
:1037400009F88CEA080C01464FEAE07800EB58785B
:103750004FEAE808DFF8209009EBC81808F802C023
:10376000511C0AB2A1199142CADC411C08B2E919E4
:103770008142C3DCBDE8F0834A0A002070B50546EB
:103780000C4645F0B00000F02DFA102141EA14106B
:1037900000F028FA04F00F0000F024FA70BD0000D9
:1037A000F8B506460F4614461D46082D0CD1A4F167
:1037B00020000E4901EB001010230822394600902A
:1037C000304600F017F80FE0062D0DD1A4F12000CF
:1037D00000EB4000064901EB400008230622394671
:1037E0000090304600F006F8F8BD00005460000874
:1037F000446600082DE9FF4F80460E469146DDF8ED
:1038000034B0002500244A4631464046039BFFF76A
:10381000E7FD00BF5EE0002558E008EB050000284A
:1038200052DB08EB05007F284EDC3046F11706EB33
:103830005171C9100FB2F11706EB5171C910A6EB07
:10384000C10A002E05DA781E07B20AF108000FFA45
:1038500080FA3819002817DB3819072814DC3819C2
:10386000224901EBC01008EB0501405C04FB095143
:103870001BF8011001FA0AF1084339191B4A02EB3F
:10388000C11108EB050288543819401C00281BDBC5
:103890003819401C072817DC3819401C134901EB64
:1038A000C01008EB0501405C04FB09511BF8011036
:1038B000CAF10802114108433919491C0B4A02EBAD
:1038C000C11108EB05028854681CC5B24D45A4DB44
:1038D000601CC4B20399481EC11700EB517101224C
:1038E00002EBE101A14296DCBDE8FF8F4A0A00200D
:1038F0002DE9FE4F07468A46144698460025AB46FA
:103900000026CBE0605D00F0800058B94FF0010B5D
:103910002846691C8DB2205C8DF8040000208DF8CB
:1039200005006BE0605D00F0E000C02814D14FF0AE
:10393000020B2846691C8DB2205C8DF80400605D86
:1039400000B9AFE02846691C8DB2205C8DF80500F7
:1039500000208DF8060051E0605D00F0F000E028E6
:103960001DD14FF0030B2846691C8DB2205C8DF8E9
:103970000400605D00B995E02846691C8DB2205CAA
:103980008DF80500605D00B98CE02846691C8DB299
:10399000205C8DF8060000208DF807002EE0605DA9
:1039A00000F0F800F02826D14FF0040B2846691CDF
:1039B0008DB2205C8DF80400605D00B972E028468D
:1039C000691C8DB2205C8DF80500605D00B969E06E
:1039D0002846691C8DB2205C8DF80600605D00B938
:1039E00060E02846691C8DB2205C8DF8070000203D
:1039F0008DF8080002E0681C85B24FE0BBF1010FB2
:103A00000BD19DF80420B91908B243465146FFF77F
:103A1000C7FE06EB080086B23FE04FF000090EE05B
:103A200009EB890101EB4911204A881801A9FCF72B
:103A300005FC00B90EE009F101001FFA80F909EB5D
:103A4000890101EB4911194A881819A1FCF7F6FB05
:103A50000028E5D100BFB8F1080F12D109EB8900A9
:103A600000EB491011490844401DB919009008B2F3
:103A700010231A465146FFF7BDFE06F1100086B22C
:103A80000BE0B8F1060F08D1B91908B206233F229E
:103A90005146FFF785FEB01D86B200BF605D00286D
:103AA0007FF430AF00BFBDE8FE8F00007E680008E5
:103AB0000000000010B500240BE000212046FFF7B5
:103AC0005DFE054901EBC410802100F09BF8601CED
:103AD000C4B2082CF1DB10BD4A0A00202DE9F047E2
:103AE00006460D46174698462846E91705EB5171DC
:103AF000C9100FFA81F905EB0801481EC11700EB48
:103B00005171C910491C0FFA81FA002D07DAA9F189
:103B100001000FFA80F9AAF101000FFA80FA4C4671
:103B200014E0002E10DB7F2E0EDC002C0CDB072CAB
:103B30000ADCF1B2E0B2FFF721FE064901EBC41145
:103B40008819394600F05EF8601C04B25445E8DB81
:103B5000BDE8F0874A0A002070B5144805780021B6
:103B60002846FFF70BFEFFF742FD7820FFF720FD08
:103B70004020FFF71DFD002407E00D4901EBC511B2
:103B8000085DFFF715FD601CC4B2802CF5DBFFF764
:103B90003CFD06480078401C04490870084600783F
:103BA000082801DB0020087070BD0000B60000206E
:103BB0004A0A002010B5044622464FF4807102489C
:103BC000FEF722F910BD0000000C014010B50446BC
:103BD00022464FF400710248FEF716F910BD0000AE
:103BE000000C014010B50446FFF701FD7820FFF7F7
:103BF000DFFC0020FFF7DCFC2046FFF7D9FCFFF7D5
:103C000004FD10BD70B505460E46FFF7F0FC7820A8
:103C1000FFF7CEFC4020FFF7CBFC002404E0285D3A
:103C2000FFF7C6FC601CC4B2B442F8DBFFF7EDFC42
:103C300070BD00000A484078022805DA084840783C
:103C4000401C0749487009E0054800780830072102
:103C5000B0FBF1F201FB120001490870704700004F
:103C6000080000200A484078002805DD0848407810
:103C7000401E0749487009E005480078801D07216B
:103C8000B0FBF1F201FB120001490870704700001F
:103C90000800002000B591B00121042000F000F9D7
:103CA0000121480200F0FCF80121084600F0C8F8A4
:103CB0004FF4004000F0B8F800208DF84300782061
:103CC000ADF8400003208DF8420010A93648FEF7F9
:103CD00007F80523012203213448FDF70BF80523DB
:103CE000022204213148FDF705F805230322194675
:103CF0002E48FCF7FFFF0523042206212B48FCF782
:103D0000F9FF00200B900E904FF460200D900120E1
:103D10008DF831008DF8300004208DF83C000BA99F
:103D20002248FCF713FF21484C3000908015069084
:103D3000002004901E4801904FF48060079080207E
:103D4000059000200290042003902020089000207D
:103D50000A904FF48050099069461648FDF774FFA9
:103D600001211448FDF764FF01211048FCF7CFFE44
:103D700001210E48FCF7C0FE0C48FDF717F800BF04
:103D80000A48FCF7D9FE0128FAD00848FDF71EF8CA
:103D900000BF0648FCF7C6FE0128FAD001210348FF
:103DA000FDF709F811B000BD0008014000240140F2
:103DB000800000200800024010B50548FDF71AFAFF
:103DC000034CE369A26961692069FDF707FB10BD37
:103DD000A002002010B5044621464FF0804001F0BB
:103DE000BCF810BD10B5044621464FF0804001F0EC
:103DF000B6F810BD10B5044621464FF0804001F0E2
:103E0000B0F810BD10B504462146024801F0A9F8EB
:103E100010BD000000040040014908627047000026
:103E200000000E427047000001460020034A50681F
:103E300020F44040084350607047000000100240EA
:103E400029B1064A52690243044B5A6104E0034A0D
:103E500052698243014B5A617047000000100240D2
:103E600029B1064AD2690243044BDA6104E0034AED
:103E7000D2698243014BDA617047000000100240B2
:103E800029B1064A12690243044B1A6104E0034A4D
:103E900012698243014B1A61704700000010024012
:103EA00029B1064A92690243044B9A6104E0034A2D
:103EB00092698243014B9A617047000000100240F2
:103EC00029B1064AD2680243044BDA6004E0034A8F
:103ED000D2688243014BDA60704700000010024054
:103EE00010B501460022002300204A11012A02D108
:103EF000094C236806E0022A02D1074C236A01E03C
:103F0000054C636A01F01F02012494401C400CB16F
:103F1000012000E0002010BD0010024000210B4AEB
:103F200011700A4A203A82F82010012802D0042891
:103F300008D103E00121054A117004E00521034A7C
:103F4000117000E000BF00BF704700002010024069
:103F500001490860704700003C0442420249096A76
:103F60000143014A11627047001002400348008873
:103F700040F010000149088070470000042800400C
:103F8000034800884FF6EF710840014908807047E8
:103F90000428004000210022002308480188001D59
:103FA0000388001F0288914204D0001D008840EA67
:103FB0000240704743EA0140FBE700001828004038
:103FC00010B58CB0FFF7E6FF00F5E1400B900BA8B1
:103FD000FCF788FC04462C2221466846FCF70AF9C7
:103FE000059800F26C70074908800498401C88709E
:103FF0000398C870029808710198487100988871F8
:104000000CB010BDAE00002000B50246FFF7AEFFB9
:10401000100C03490880091D0A80FFF7B1FF00BD9D
:104020001828004000B50246FFF7A0FFC2F3034086
:1040300003490880091D0A80FFF7A2FF00BD0000A8
:104040000828004013B58CB0BDF83000A0F26C70A9
:1040500006909DF83200401E05909DF83400083807
:1040600003909DF8330004909DF8350002909DF870
:104070003600019001A8FCF769F804462046FFF7D6
:10408000C3FF00F003F80EB010BD000000BF0348EE
:10409000008800F020000028F9D070470428004074
:1040A000074800884FF6F77108400549088000BFAF
:1040B0000348008800F008000028F9D0704700008D
:1040C0000428004030B50146002014E00B4C34F8C1
:1040D000102001F1080424F8102031F81040A31A30
:1040E0001C1E01DB254600E065421E2D01DD21F886
:1040F0001020421C90B20428E8DB30BD8000002074
:1041000010B501210807FFF7ABFE0121C806FFF734
:10411000A7FE0120FFF780FE0420FDF753FA0128D7
:1041200022D00120FFF7FAFE00BF4120FFF7D8FEA2
:104130000128FAD10002FFF711FF0120FFF708FF65
:10414000FFF7AEFFFFF7A2FF47F6FF70FFF76AFF2A
:10415000FFF79CFF0748FFF757FFFFF797FF012185
:104160000420FDF73DFA03E0FFF79AFFFFF78EFF0B
:1041700010BD0000358FF768704700002DE9F04151
:1041800005460E4617469846214800880A2803DB54
:104190004FF0FF30BDE8F081002435E004EB44002F
:1041A0001C4901EB0010006860BB04EB440001EB0C
:1041B0000010056004EB440001EB0010866004EB86
:1041C000440001EB0010C0F81880FDF7BFF804EBC5
:1041D0004402104B03EB0212C2E9040104EB440059
:1041E000194601EB00100784002004EB44011A4635
:1041F00002EB0111087106480088401C0449088040
:104200000120C7E7601C84B20A2CC7DB0020C1E78D
:1042100000000020C000002010B5FDF79DF8002030
:1042200014E0002100EB40020A4B03EB0212116084
:10423000022100EB400203EB02121171002100EB9E
:10424000400203EB0212D161411C88B20A28E8DB6C
:1042500010BD0000C000002039E000F003FF00F0B6
:104260003BF88146B9F1000F00DA30E009EB490074
:10427000174901EB0014FDF769F805460E46A169E0
:104280004F1946F10008134804600120207120688E
:10429000804700200F490860FDF758F805460E4694
:1042A000781B78EB060006D203202071FDF74EF84C
:1042B000C4E904010AE002202071C4E90456D4E9EB
:1042C0000A20521C40F10000C4E90A2000BFC4E7E4
:1042D000C00000200400002010B54FF0FF32110C88
:1042E000002015E000EB40030B4C04EB03131B799B
:1042F00063B900EB400304EB03131B8C8B4205DA1C
:1043000000EB400304EB0313198C0246431C98B2E4
:104310000A28E7DB104610BDC00000202DE9F05F41
:1043200007460C4615461E4629493846FCF74EFA04
:1043300000D203E027493846FCF752FA24492046C8
:10434000FCF744FA00D203E022492046FCF748FA81
:104350001F492846FCF73AFA00D203E01D492846D7
:10436000FCF73EFA1C493046FCF730FA00D203E075
:104370001A493046FCF734FA194A1A493846FCF70C
:10438000BBFF8046184A19492046FCF7B5FF814615
:10439000154A17492846FCF7AFFF8246154A1649C9
:1043A0003046FDF771FC83464046FFF713FD484653
:1043B000FFF718FD5046FFF71DFD5846FFF722FD99
:1043C0000E48076044608560C660BDE8F09F00004D
:1043D0000000B4C20000B4420000C8C20000C842DD
:1043E00000401C4500001644002019450000FA4317
:1043F0000000C8430000964300007A44D002002029
:1044000010B500F001F810BD0CB50020019000902F
:104410003348006840F480303149086000BF3048BC
:10442000006800F4003000900198401C0190009852
:1044300018B90198B0F5A06FF1D12948006800F4CF
:10444000003010B10120009001E0002000900098A1
:10445000012843D12348006840F01000214908603A
:104460000846006820F0070008600846006840F031
:10447000020008601A4840681949486008464068C8
:1044800048600846406840F48060486008464068DC
:1044900020F47C1048600846406840F4E81048600A
:1044A0000846006840F08070086000BF0C48006853
:1044B00000F000700028F9D00948406820F003009F
:1044C000074948600846406840F00200486000BF65
:1044D0000348406800F00C000828F9D10CBD00002A
:1044E000001002400020024010B504461023802234
:1044F00019460020FEF774FF0F480068A04205D25D
:104500000EA3082210210020FFF7D7F80A48006800
:10451000A04205D90BA3082210210020FFF7CDF8F7
:1045200005480068A04205D108A3082210210020F8
:10453000FFF7C3F810BD00005C030020E5A4A7E46A
:10454000BA860000E5B08FE4BA860000E5AFB9E4B2
:10455000BA86000010B504464FF458712046FBF7A8
:1045600062FE10BD10B54FF4FA700749C1F8580348
:10457000002081F85C0303221146034800F006F88E
:10458000014800F0A9F810BD680300200023A0F83E
:104590004C33A0F84E330123A0F850330180428001
:1045A00070470FB42DE9F8433C237E2202210120FD
:1045B000FEF716FFBDF86E431FE008A830F8247020
:1045C00000EB8400B0F80280012008EB48020223CF
:1045D00003EB420211B207EB470200EB42020090EC
:1045E00010B206231A46FEF76BFF601CD22190FB27
:1045F000F1F201FB1200401C84B2BDF86C03401CB8
:10460000D22190FBF1F201FB1200401CA042D4D158
:10461000BDF87253BDF87463002006EB4602022316
:1046200003EB420211B205EB4502012303EB420208
:10463000009010B206231A46FEF742FFBDE8F803C9
:104640005DF814FBB0F84E13491CD22291FBF2F333
:1046500002FB1311491CA0F84E13B0F85013491E69
:10466000A0F850137047000010B504463C237E228A
:1046700002210120FEF7B4FE04A308221E2102201D
:10468000FFF71BF8052084F85C0310BDE681ADE55B
:10469000969CE4BDA0E4BDA0E8BE93E4BA86000009
:1046A00010B504463C237E2202210120FEF798FE2D
:1046B00004A308221E210220FEF7FFFF052084F834
:1046C0005C0310BDE5BE88E98197E686BEE4BDA027
:1046D000E8B5A2E4BA8600002DE9F04104460127BE
:1046E0000025002623E01520FDF794FB85B20A2063
:1046F000FDF790FB86B2B4F84E030CE034F82010BE
:10470000A94206D104EB80014988B14201D10127B9
:104710000CE000270AE0B4F84C13491CD22291FBAC
:10472000F2F302FB1311491C8142E7D100BF002FB5
:10473000D9D1A4F852534FF455700653BDE8F08117
:1047400070B50146B1F84C0331F82030B1F84C0394
:1047500001EB80004488152B01DA0A2C03DB0120D1
:1047600081F85C0370BDB1F84E2315E031F82200EA
:10477000984209D101EB82004088A04204D1022076
:1047800081F85C030120EDE7501CD22590FBF5F683
:1047900005FB1600401C82B2B1F84C039042E5D1F3
:1047A000002081F85C0300BFDCE7000070B5044620
:1047B000B4F84C0334F82050B4F84C0304EB8000F8
:1047C00046881C4890F85D030D2806D00E2807D0B7
:1047D0000F2808D010280CD108E0701E86B208E01F
:1047E000701C86B205E0681E85B202E0681C85B2C6
:1047F00000BF00BF32462946204600F01DF8B4F83D
:104800005203A84208D14FF45570005BB04203D167
:104810002046FFF761FF02E02046FFF713FF204626
:10482000FFF78EFFB4F850030A2802D1042084F861
:104830005C0370BD6803002030B5B0F84C335B1CDE
:10484000D22493FBF4F504FB15335B1CA0F84C3326
:10485000B0F84C3320F82310B0F84C3300EB83034E
:104860005A80B0F850335B1CA0F8503330BD70470D
:1048700010B51548006840F001001349086008466B
:1048800040681249084010494860084600681049CD
:1048900008400D4908600846006820F48020086040
:1048A0000846406820F4FE0048604FF41F0088600E
:1048B000FFF7A6FD4FF00060064908604FF4A060C6
:1048C000FEF7E8FC10BD0000001002400000FFF8F9
:1048D000FFFFF6FE08ED00E0F0B50C46154600229D
:1048E0000021068C4FF6FE773E400684028B018C39
:1048F0004FF60C7632407E1C06EA03162E433243F6
:10490000104EB0420ED0104EB0420BD0B0F1804FDE
:1049100008D00E4EB04205D00D4EB04202D00D4E22
:10492000B04206D14FF6FD76314044F001063143E6
:1049300005E04FF6F576314044F00106314302833D
:104940000184F0BD002C014000340140000400400F
:1049500000080040000C0040F0B50C46154600224F
:1049600000210026078C4FF6EF7C07EA0C0707842E
:10497000028B018C4FF6FF7707EA041640F6FF47DB
:104980003A404FF6FF7707EA03373A434FF6FF778F
:1049900007EA05273A43114FB8420ED0104FB842EC
:1049A0000BD0B0F1804F08D00E4FB84205D00E4F5B
:1049B000B84202D00D4FB84206D14FF6DF773940EA
:1049C00046F01007394305E04FF65F77394044F071
:1049D0001007394302830184F0BD0000002C014020
:1049E000003401400004004000080040000C00407A
:1049F000F0B50C461546002200210026078C4FF624
:104A0000FF6C07EA0C070784828B018C4FF6FF7757
:104A100007EA04264FF60C773A404FF6FF7707EA8D
:104A200003172F433A43114FB8420ED0104FB842EC
:104A30000BD0B0F1804F08D00E4FB84205D00E4FCA
:104A4000B84202D00D4FB84206D14FF6FF57394059
:104A500046F48077394305E04FF2FF57394044F47C
:104A60008077394382830184F0BD0000002C01402F
:104A7000003401400004004000080040000C0040E9
:104A8000F0B50C461546002200210026078C4EF694
:104A9000FF7C07EA0C070784828B018C4FF6FF77B7
:104AA00007EA043640F6FF473A404FF6FF7707EA39
:104AB00005273A434FF6FF7707EA03373A43114F8A
:104AC000B8420ED0104FB8420BD0B0F1804F08D092
:104AD0000E4FB84205D00E4FB84202D00D4FB8422B
:104AE00006D14DF6FF77394046F48057394305E04B
:104AF00047F6FF57394044F4805739438283018495
:104B0000F0BD0000002C01400034014000040040D2
:104B100000080040000C004010B50221064800F0DB
:104B200097F8012806D10221034800F071F80348E4
:104B3000FEF75EFA10BD0000002C01402C0A002098
:104B400010B501210E4800F083F8012816D101218B
:104B50000B4800F05DF84FF480710A48FDF74BF9FF
:104B600001280BD10848807C401C074988740846FE
:104B7000807C022802DB0846FEF773FA10BD0000B5
:104B8000002C0140000801402C0A002010B5012132
:104B90000D4800F054F8A8B101210B4800F035F899
:104BA0000A48036840685A1C40F1000007490A603F
:104BB0004860074803684068591C40F10000044AF7
:104BC0001160506010BD0000000400407000002023
:104BD0007800002021B1028842F08002028004E0C7
:104BE00002884FF67F731A400280704730B5002369
:104BF00001248C40A3B2048C9C430484048C02FAEC
:104C000001F5ADB22C43048430BDCA430282704723
:104C1000CA430282704721B1028842F00102028039
:104C200004E002884FF6FE731A40028070478182CA
:104C300070470146888E70470146888C704702464F
:104C40000020138A0B400BB1012000E000207047C8
:104C500030B50246002000230024158A05EA01032E
:104C6000958905EA010413B10CB1012000E0002090
:104C700030BD000070B505460C46244885420ED074
:104C8000234885420BD0B5F1804F08D0214885429A
:104C900005D02148854202D02048854200D100E05D
:104CA00000BF208850B92389A28861882846FFF771
:104CB00013FEE188284600F056F925E020880428F4
:104CC0000AD12389A28861882846FFF745FEE1883A
:104CD000284600F051F917E0208808280AD12389D6
:104CE000A28861882846FFF783FEE188284600F005
:104CF00050F909E02389A28861882846FFF7C0FEA1
:104D0000E188284600F04EF970BD0000002C0140FB
:104D1000003401400004004000080040000C004046
:104D20001AB183890B43838102E083898B4383819A
:104D3000704701894FF6F8721140018170470000F9
:104D400070B5002400220023058C4FF6FE76354016
:104D50000584028C8388048B4FF68F752C40B51E1A
:104D60002C400D882C43751E2A400D892A434D88FE
:104D70002A43144DA8420BD0134DA84208D0134D1E
:104D8000A84205D0124DA84202D0124DA84213D11C
:104D90004FF6F7752A404D892A434FF6FB752A4096
:104DA0008D882A434FF6FF652B404FF6FF552B4069
:104DB0008D892B43CD892B4383800483CD888586C1
:104DC000028470BD002C01400034014000400140CD
:104DD000004401400048014070B500240022002337
:104DE000058C4FF6EF7635400584028C8388048B62
:104DF00048F6FF752C404FF6FF452C400D884FF6C6
:104E0000FF7606EA05252C434FF6DF752A400D890B
:104E100006EA05152A434D8806EA05152A43154D6D
:104E2000A84202D0144DA8421DD14FF67F752A40EA
:104E30004D894FF6FF7606EA05152A434FF6BF75F2
:104E40002A408D8806EA05152A434FF6FF352B4088
:104E50004FF2FF752B408D8906EA85052B43CD89DE
:104E600006EA85052B4383800483CD880587028469
:104E700070BD0000002C01400034014070B50024DA
:104E800000220023058C4FF6FF6635400584028C16
:104E90008388848B4FF68F752C404FF6FC752C4021
:104EA0000D882C434FF6FF552A400D894FF6FF76AB
:104EB00006EA05252A434D8806EA05252A43154DAD
:104EC000A84202D0144DA8421DD14FF2FF752A40CE
:104ED0004D894FF6FF7606EA05252A434FF6FF3542
:104EE0002A408D8806EA05252A434EF6FF752B4099
:104EF0004DF6FF752B408D8906EA05152B43CD89AC
:104F000006EA05152B4383808483CD888587028438
:104F100070BD0000002C01400034014000210180E0
:104F200041808180C180018141818181C18170473F
:104F300021B1828842F08002828004E082884FF6AC
:104F40007F731A408280704702884FF6FF431A40F1
:104F5000028002880A430280704781867047018779
:104F6000704781877047028B4FF6F3731A400283B4
:104F7000028B0A4302837047028B4FF2FF331A40C1
:104F80000283028B4FF6FF7303EA01231A43028365
:104F90007047828B4FF6F3731A408283828B0A43E9
:104FA00082837047828B4FF2FF331A408283828B59
:104FB0004FF6FF7303EA01231A4382837047000010
:104FC000002202881D4B98420ED01D4B98420BD0F8
:104FD000B0F1804F08D01B4B984205D01A4B984235
:104FE00002D01A4B984204D14FF68F731A404B8867
:104FF0001A43174B984207D0164B984204D04FF6ED
:10500000FF431A40CB881A4302808B8883850B8824
:1050100003850A4B98420BD0094B984208D00E4B9F
:10502000984205D00D4B984202D00D4B984201D1C9
:105030000B7A03860123838270470000002C014015
:10504000003401400004004000080040000C004013
:1050500000100040001400400040014000440140A6
:10506000004801402DE9F047FCF770F904460D4671
:10507000002037E000EB4007DFF870C00CEB0717AB
:105080003F6807B92CE000EB4007DFF860C00CEB8D
:105090000717D7E9041200EB40070CEB0717FB6971
:1050A00000EB40070CEB0717BE68B4EB010865EB9B
:1050B000020703EB060CB8EB0C0C77F100070ED3DC
:1050C000002700EB400CDFF8248008EB0C1C8CF868
:1050D000047000EB400C08EB0C1CCCF81C7000BFFB
:1050E000411C88B20A28C5DBBDE8F087C00000205B
:1050F00010B5FCF78DFD08488078084901EBC00029
:105100004468074800F05AFF4FF47A7305223221B1
:105110002046FFF733F810BD080000200C000020E7
:10512000B52E000810B588B04B4C07A8FDF762F902
:10513000401C08B908B010BD9DF81C000B380728AA
:1051400048D2DFE800F01F2A4747041130004348E7
:10515000007818B905204149087004E03F480078FC
:10516000401E3E49087048E03C480078052803D1BD
:1051700000203A49087004E038480078401C37495C
:1051800008703AE0364800F019FF4FF47A730522B0
:1051900032213448FEF7F2FF2FE000202F49097832
:1051A00024F8110029E020882F490880A078887011
:1051B0002079C870A0790871207A4871A07A887126
:1051C0000846016805914068014606900598FEF77B
:1051D00039FF12E09DF81C00092800DD0DE01F4892
:1051E000007834F810009DF81C100A2202FB001011
:1051F0001A49097824F8110000BF00BFFEF7DCF857
:105200001AA3082200210846FEF757FA1BA308221A
:1052100010210020FEF751FA60892189E288A388D5
:10522000CDE90232CDE904106088218817A3062257
:10523000CDE9001020210020FEF73FFA0748007852
:1052400034F8100016A30822302100900020FEF749
:1052500034FA00BF6EE7000048030020560000202B
:10526000255100085D0E00084E000020E69BB4E6C4
:1052700094B9E5AE8CE5868D4F4B0000E5B7A6E509
:105280008FB3E994AEE98089E68BA90025642D25CA
:10529000642D25642D25642D25642D2564000000D2
:1052A0002564000010B540F22551074800F00EF8C3
:1052B000012807D1044800F09DF8C4B2204600F050
:1052C0002FF800BF10BD00000048004070B5024636
:1052D000002400230025002040F66A16B14200D1C8
:1052E00000BFC1F3421501F01F03012606FA03F3C4
:1052F000012D02D19689334006E0022D02D1168A93
:10530000334001E0968A33400C12012606FA04F479
:105310001688344013B10CB1012000E0002070BDAC
:105320003249097811B101295DD114E088280ED1E4
:1053300000212E4A517211464A7A491C8854491E4E
:10534000497A491C294A51720121117002E0002159
:10535000264A517247E025494A7A491C8854491E19
:10536000497A491C214A51721146497A052902D0CD
:10537000082936D11AE01D49C97805290AD11B49E7
:105380004979662906D10121194A11700021174A6D
:1053900011700AE01549C978052906D11349497ADF
:1053A000052902D10021114A11701AE00F49C9786C
:1053B00008290AD10D49097A662906D101210C4A2A
:1053C00011700021094A11700AE00849C9780829BA
:1053D00006D10649497A082902D10021034A1170F1
:1053E00000BF00BF00BF00BF70470000400A0020A0
:1053F000AC00002001468888C0F30800704700BF59
:10540000FEE7000037B514460846064B6A462146BB
:1054100000F0DCF804466946002000F05AFC204603
:105420003EBD0000D35C000802E008C8121F08C19E
:10543000002AFAD170477047002001E001C1121F15
:10544000002AFBD1704700002DE9FF5F82B00021E8
:10545000DDE90430020DDDF840B0034318D044F616
:105460001050A2F2FF3242431514119801281FD0A8
:10547000A5EB0B00401C5FEA000A4FF000064E4F00
:10548000DFF83891B046504615D5CAF1000413E054
:10549000119801244AA3012801D16FEA0B01029857
:1054A000119AC0E90031C0E9024206B0BDE8F09FA0
:1054B000CBF10000DFE704460021404A491842EBE7
:1054C0000450CDE9001012E0E00707D032463B4619
:1054D00040464946FBF72FF88046894632463B4610
:1054E00010461946FBF727F806460F466410002CB5
:1054F000EAD1DDE90401DDE90023BAF1000F06DAA3
:10550000FBF719F842464B46FBF715F805E0FBF7A9
:1055100084F842464B46FBF780F804460E460022CC
:10552000284BFBF71FF903D84FF0FF30014607E087
:105530000022254B20463146FAF756FFFBF7B2FA18
:10554000102409E0002C0ADB0A220023FBF768F98B
:10555000039B30321A55641E50EA0102F2D1641CDA
:10556000039AC4F111031444119A012A03D00122B1
:1055700008430DD10AE0084304D000204FF0110B7E
:10558000119072E7A3EB0B056D1E0DE05B4504DD8A
:105590004FF0000205F1010504E003DA4FF00002CC
:1055A000A5F10105002AECD002981199C0E9023159
:1055B000C0E9004579E70000000014400000F03F1A
:1055C000300000000000F0430000E03F2DE9FF4FF5
:1055D00095B09A46884606460025EEE1252877D103
:1055E00000242746F94A0121039400E0044316F8F9
:1055F000013F203B01FA03F01042F7D130782A280E
:1056000011D06FF02F033078A0F13002092A16D89C
:10561000039A44F0020402EB820203EB42021044BC
:10562000761C0390EFE758F8042B0392002A03DA64
:10563000504244F40054039044F00204761C307845
:105640002E2816D116F8010F44F004042A280DD094
:105650006FF02F023078A0F13003092B09D807EB47
:10566000870302EB4303C718761CF3E758F8047B63
:10567000761C30786C280FD006DC4C2817D06828B0
:105680000DD06A2814D104E0742810D07A280FD1E4
:105690000DE044F400140AE044F4801401E044F402
:1056A00040147278824202D104F58014761C761C74
:1056B000307866280BD013DC582877D009DC002816
:1056C00075D04528F6D04628F4D047281AD193E162
:1056D00018E0632835D0642879D0652812D18BE191
:1056E000702873D008DC6728F1D069286FD06E2845
:1056F0000DD06F2806D1ACE073282CD0752874D05B
:10570000782853D05246179990476D1C54E1C4F342
:105710000250022809D003280DD0D8F80010042820
:105720000DD00D6008F1040846E1D8F80010EA1722
:10573000C1E90052F6E7D8F800100D80F2E70D70CD
:10574000F0E718F8041B8DF8001000208DF8010018
:10575000EB46012003E058F804BB4FF0FF3061072F
:105760004FF0000102D40DE009F101018946B94270
:105770000FDA8145F8DB1BF809100029F4D108E0A5
:1057800009F1010189468142FADB1BF80910002961
:10579000F6D103985346A0EB090721463846179ADD
:1057A00000F080FA284400EB090507E044E008E136
:1057B0000DE01BF8010B524617999047B9F101090A
:1057C000F7D2534621463846179AF2E039E00A21CB
:1057D000C4F302524FF0000B0091022A06D058F891
:1057E000040BC117032A09D00AE023E008F10700DF
:1057F00020F00702F2E80201904605E000B2C1176E
:10580000042A01D140B2C117002906DA0A46002154
:10581000404261EB02012D2202E0220504D52B2239
:105820008DF80420012203E0E20701D02022F7E7EF
:10583000914657E00A2100E010214FF0000B009143
:105840000BE010214FF0000B44F0040408270091F6
:1058500003E008204FF0000B0090C4F30252022A2C
:1058600005D058F8040B0021032A08D008E008F1FD
:10587000070020F00702F2E80201904603E080B240
:10588000042A00D1C0B24FF0000922072AD532788D
:10589000702A07D0DDF800C08CF0100C5CEA0B0C0D
:1058A00005D00EE040228DF80420012208E050EAE5
:1058B000010306D030238DF804308DF80520022234
:1058C0009146009B83F0080353EA0B030AD150EA88
:1058D000010201D1620705D530228DF804204FF076
:1058E00001097F1E3278582A04D039A20C920CAAE2
:1058F00002920BE03BA2F9E75B46009AFAF790FFB1
:105900000C9B9B5C029A521E0292137050EA010299
:10591000F2D1029804A9081A00F1200B600702D501
:1059200024F4803400E001275F4502DDA7EB0B0083
:1059300000E0002000EB0B01009003984944401A5E
:105940000390E00306D453462146179A039800F0CB
:10595000A9F90544002706E001A85246C05D179941
:1059600090476D1C7F1C4F45F6DBE0030CD553467A
:105970002146179A039800F095F9054404E0302079
:105980005246179990476D1C0099481E00900029B7
:10599000F5DC08E00298029952460078491C029111
:1059A000179990476D1CBBF10001ABF1010BF1DCC5
:1059B0005BE100F065F90544761C307800287FF43F
:1059C0000DAE19B02846BDE8F08F0000092801008F
:1059D0003031323334353637383961626364656665
:1059E0000000000030313233343536373839414227
:1059F0004344454600000000600700D4062708F134
:105A0000070020F00700F0E80223804603F0004C76
:105A10005FEA0C0001D097A009E0200501D596A00F
:105A200005E0E00701D095A001E0AFF24C00139033
:105A3000307823F0004365280CD006DC452809D0D7
:105A400046281DD047287FD13BE0662818D067281C
:105A50007AD136E00021112F01DB112000E0781C03
:105A6000CDE9000104A90CA8FFF7EEFCDDE90D016A
:105A70000C9A4FF0000B07F10109109200914EE0D3
:105A80004FF000400097CDE9011004A90CA8FFF7E2
:105A9000DBFCDDE90D020C9B0F994FF0000B9146EA
:105AA0001093009211B9791C00EB0109B7EB0900C2
:105AB00003D4C0F1FF3B07F10109A9EB07000190F6
:105AC00042E0012F00DA01270021112F01DD112012
:105AD00000E03846CDE9000104A90CA8FFF7B4FCAA
