:020000040800F2
:10000000F81D0020050100087D330008CD210008FF
:10001000012F0008291300082B57000800000000DA
:100020000000000000000000000000008144000803
:10003000B51A00080000000069410008774B00086D
:100040001F0100081F0100081F0100081F01000810
:100050001F0100081F0100081F0100081F01000800
:100060001F0100081F0100081F0100081F010008F0
:100070001F0100081F0100081F0100081F010008E0
:100080001F0100081F0100081F0100081F010008D0
:100090001F0100081F0100081F0100081F010008C0
:1000A0001F010008494E00081F010008214E0008EA
:1000B0001F010008954E00081F0100081F010008DD
:1000C0001F0100081F0100081F0100081F01000890
:1000D0001F0100081F0100081F010008D15500087A
:1000E0001F0100081F0100081F010008DFF810D0E1
:1000F00000F0EEFC0048004709600008AFF3008004
:10010000F81D00200648804706480047FEE7FEE746
:10011000FEE7FEE7FEE7FEE7FEE7FEE7FEE7FEE7B7
:10012000794B0008ED0000080649074A086850436B
:1001300043F23902104408604008704701490860E2
:1001400070470000B80000206D4EC64138B5D0E9B8
:100150000221491E01EB410102EBC1014268C1EBE2
:10016000011102EB81010268C1EB011102EB810276
:10017000D0E9043101EB410103EB81013023A1F50A
:10018000527191FBF3F4174D6C4302EBC41291FBD7
:10019000F3F403FB141100921A2902DB124B1A44E8
:1001A00000920C2291FBF2F3104C6343009C04EB91
:1001B000C313009391FBF2F302FB13110C4A08E006
:1001C000491E40F2A324535C6343009C04EBC31319
:1001D00000930029F4DC0146684600F087FB009894
:1001E00038BD00003F0C0F008051010067C20300C2
:1001F000A675000840EA01039B0703D009E008C97F
:10020000121F08C0042AFAD203E011F8013B00F8DB
:10021000013B521EF9D27047D2B201E000F8012B27
:10022000491EFBD270470022F6E710B513460A4676
:1002300004461946FFF7F0FF204610BD10B50446EE
:1002400004E00B7800F8013B03B1491C521EF8D2C0
:10025000204610BD10B5002200E0521C835C8C5C6F
:10026000A34201D1002BF8D1D8B2E1B2401A10BD9F
:10027000F0B480EA0102D40F4200B2EB410F02D287
:100280000246084611464A0042D0C30DDDB2C1F312
:10029000C752AD1A202D35DAC1F3160141F4000220
:1002A00004B15242C5F1200602FA06F12A41104477
:1002B000B3EBD05F23D0C4B1012DA0EBC35009DC58
:1002C000F0BC4FF0004202EAC352DBB200F500007E
:1002D00000F05BBB400000F1807000EBC350A0F168
:1002E000807040EAD170490009E0490841EAC071D4
:1002F000A0EBC35000F50000400800EBC350F0BC79
:1003000000F03ABB6142012202EB4101001BF6E71B
:10031000F0BC704781F00041AAE780F00040A7E7F9
:1003200080EA010210B502F00043400022D04A00EA
:100330001FD0010E01EB1261C0F35600C2F356024A
:1003400040F4000042F40002A0FB022000047F39C8
:10035000140400D0401C50EA124001D44000491E51
:10036000C2B20C0604EBD010401C4008802A02D018
:1003700003E0002010BD20F00100002900DA002079
:10038000184310BD30B480EA010202F0004530F09D
:10039000004221F0004013D090B1C30DD40DC2F340
:1003A0001601C0F31600E41A41F4000140F4000203
:1003B0007D34914201D3641C00E04900002C02DA34
:1003C00030BC002070474FF400000023914201D35D
:1003D000891A034340084FEA4101F7D151B19142D4
:1003E00002D14FF0004105E002D24FF0010101E0DF
:1003F0006FF0010103EBC450284430BC00F0BCBADC
:100400002DE9FE4F804681EA0300C00F0C460090A4
:1004100021F0004123F00045B8EB0200A94105D2CC
:100420004046214690461C460B46024623F00040BB
:10043000104347D0270DC7F30A00C3F30A510290B7
:10044000401A019040286BDAC3F3130040F4801B7C
:100450000098924620B10023D2EB030A63EB0B0B0A
:1004600001985946C0F14002504600F008FA06468D
:100470000D4650465946019A00F020FA10EB08004C
:100480006141002487EA115284EAE7731A4340D09D
:10049000009A62B3019A012A4FEA075215DC001B49
:1004A00061EB02014FF0004202EA0752CDE900423F
:1004B000001C41F5801132462B4600F0A3FA03B030
:1004C000BDE8F08F40462146F9E7001B61EB0201D1
:1004D000001C41F5801300185B412018A2F500179D
:1004E00047EB030140EAD570B6196D4111E06D0884
:1004F0004FEA360645EAC0754FEA0752001B61EB2A
:100500000201001C41F5801149084FEA3000001932
:10051000514132462B4603B0BDE8F04F00F063BABC
:100520000098012240000023D0EB020263EBE0734D
:10053000009821464FEAE074B8EB000061EB04013B
:10054000E9E783F000435BE781F0004158E72DE9DC
:10055000FE4F81EA030404F0004421F000410094BE
:100560004FF0000B23F0004350EA01045ED052EA42
:1005700003045BD0C3F30A54C1F30A552C44A4F21C
:10058000F3340194A0FB0254C1F3130141F4801130
:10059000C3F3130343F4801301FB024400FB034E37
:1005A000840A970A44EA815447EA8357A4FB076800
:1005B00002958D0A05FB07854FEA932C04FB0C542A
:1005C0002705029D4FEA065847EA1637B5EB08059E
:1005D0006EEB070C870E920E47EA811742EA8312F0
:1005E000A7FB0201B6EB0B0164EB00042B0D43EA01
:1005F0000C335E1844EB1C50DA465146E7FB02010F
:10060000C5F313044FEA0B3343EA14534FEA0432A1
:10061000019C43EA0603A4F10C040294009CCDE97A
:1006200000B400F0EFF903B0BDE8F08F0020014600
:10063000F9E72DE9F04D81EA030404F0004B21F0C5
:10064000004514464FF0000A23F0004150EA05022D
:1006500020D054EA01021DD0C5F30A570246C5F363
:100660001303C1F31300C1F30A5640F4801543F499
:100670008013A7EB0608101BD64608F2FD3873EB73
:10068000050002D308F1010801E092185B41B8F1BE
:10069000000F03DA00200146BDE8F08D00204FF482
:1006A0008011064684460EE0171B73EB050705D341
:1006B000121B63EB050306434CEA010C49084FEAA1
:1006C000300092185B4150EA0107EDD152EA030075
:1006D00012D082EA040083EA0501084305D0101B0A
:1006E000AB4106D20122002306E000224FF0004376
:1006F00002E06FF0010253101AEB06004CEB0851B8
:1007000010EB0A0041EB0B01BDE8F04D00F06BB9B6
:1007100020F00040C10DC0F3160040F400007F2916
:1007200001DA00207047962903DCC1F19601C84028
:10073000704796398840704700F0004230F0004022
:100740000AD0C10D01F56071C0F3160042EA0151F3
:10075000C20840071143704700200146704700005F
:1007600030B5041E71F1000404DB4FF00044404238
:1007700064EB0101141E73F1000405DB1C464FF00D
:100780000043524263EB0403994208BF904230BDDC
:1007900001F0004330B421F0004150EA010206D0DC
:1007A0000A0DA2F56072C1F31301002A02DC30BC0D
:1007B00000207047440F44EAC104C100E01830BC77
:1007C00000EBC25000F0D8B8002801DBC0F10040B7
:1007D000002901DBC1F1004181427047002801DBA3
:1007E000C0F10040002901DBC1F10041884270479F
:1007F00030B50B46014600202022012409E021FAF1
:1008000002F59D4205D303FA02F5491B04FA02F5ED
:100810002844151EA2F10102F1DC30BD2DE9F05F84
:100820000546002092469B4688460646814640245F
:100830001BE0284641464746224600F02FF8534623
:100840005A46C01A914110D311461846224600F06C
:1008500016F82D1A67EB01084F46224601200021A9
:1008600000F00DF817EB00094E41201EA4F1010421
:10087000DFDC484631462A464346BDE8F09F202A41
:1008800004DB203A00FA02F1002070479140C2F1E7
:10089000200320FA03F3194390407047202A04DB19
:1008A000203A21FA02F00021704721FA02F3D040E9
:1008B000C2F120029140084319467047202A06DB06
:1008C000CB17203A41FA02F043EAE07306E041FA1E
:1008D00002F3D040C2F1200291400843194670470C
:1008E000014900F003B80000CC0D002010B50068ED
:1008F0003C22B0FBF2F302FB1303B0FBF2F00B60FF
:10090000B0FBF2F302FB1303B0FBF2F018224B60D2
:10091000B0FBF2F302FB1303B0FBF2F0021D8B609D
:100920000723B2FBF3F403FB1422800040F2B5531B
:1009300000F66C308A61B0FBF3F2B0FBF3F403FB1A
:100940001400443280084A61C8613B2802D39207F0
:1009500000D0401C0022074C13460A61E25C824230
:1009600003D8801A5B1C0B61F8E7401CC86008467E
:1009700010BD0000B27500080029A8BF7047401CD8
:10098000490008BF20F00100704710B4B0FA80FCA5
:1009900000FA0CF050EA010404BF10BC704749B1E2
:1009A000CCF1200421FA04F411FA0CF118BF012152
:1009B00021430843A3EB0C01CB1D4FEA00614FEA32
:1009C000102042BF002010BC704700EBC350104401
:1009D0000029A4BF10BC7047401C490008BF20F08C
:1009E000010010BC704710B5141E73F1000408DA42
:1009F000401C41F1000192185B411A4301D120F0E3
:100A0000010010BD2DE9F04D92469B4611B1B1FA9F
:100A100081F202E0B0FA80F220329046FFF72FFF19
:100A200004460F4640EA0A0041EA0B0153465A4683
:100A3000084313D0114653EA010019D0C8F140020F
:100A40005046FFF72BFF05460E4650465946424694
:100A5000FFF715FF084305D0012004E02046394682
:100A6000BDE8F08D0020054346EAE0762C4337438D
:100A70000A986305E40AA0EB08000022FD0A44EA94
:100A800047540A3002D500200146E9E70105101954
:100A90006941DDE9084500196941BDE8F04DA2E76B
:100AA000C1F30A52C1F3130140F2FF3341F4801144
:100AB0009A4202DA00200146704740F233439A42DC
:100AC000A2F2334202DC5242FFF7E8BEFFF7D7BE84
:100AD000064C074D06E0E06840F0010394E807008B
:100AE00098471034AC42F6D3FFF704FB5076000869
:100AF0007076000821B1826842F00102826003E052
:100B0000826822F001028260704721B1826842F45B
:100B10008072826003E0826822F480728260704793
:100B2000014600208A6802F004020AB1012000E0B8
:100B300000207047014600208A6802F008020AB1CE
:100B4000012000E00020704730B50246002000235D
:100B500050680F4C20400D790C6844EA052420436E
:100B6000506090680B4C2040D1E902542C434D79E1
:100B700044EA450420439060D06A20F470000C7C65
:100B8000641EE4B2234340EA0350D06230BD00004B
:100B9000FFFEF0FFFDF7F1FFF0B504460D46002023
:100BA0000021092D11DDE068A5F10A0606EB4607D4
:100BB000072606FA07F18843A5F10A0606EB460662
:100BC00003FA06F10843E0600CE0206905EB4507F5
:100BD000072606FA07F1884305EB450603FA06F1F6
:100BE00008432061072A0FDA606B561E06EB860762
:100BF0001F2606FA07F18843561E06EB860605FAFD
:100C000006F10843606322E00D2A0FDA206BD61F3D
:100C100006EB86071F2606FA07F18843D61F06EB68
:100C2000860605FA06F10843206310E0E06AA2F1A7
:100C30000D0606EB86071F2606FA07F18843A2F188
:100C40000D0606EB860605FA06F10843E062F0BDE4
:100C5000816841F008018160704721B1826842F4E7
:100C6000A002826003E0826822F4A00282607047E2
:100C7000816841F0040181607047000038B5684622
:100C800001F03CFB012815D19DF800000C2811D182
:100C90001848C08802280DD100231A461946164864
:100CA00000F0BAFBAFF22B0005F00EFB002011495B
:100CB000C88038BD0F4C03F025FB1048C078218850
:100CC000884215D10D4800796188884210D10B48BF
:100CD0004079A18888420BD1E088012808D1022000
:100CE000E0804FF4FA731A460221034800F094FBA7
:100CF00000BFDEE74003002020030020AE000020FC
:100D000008B500F06FF9684601F0F8FA401C00B928
:100D100008BD9DF800000B2821D00D2804D00E2816
:100D20000FD011282CD126E01748007D18B90220D9
:100D30001549087504E01448007D401E12490875E5
:100D40001EE01148007D022803D100200E490875DD
:100D500004E00D48007D401C0B49087510E0AFF21F
:100D60005F0005F0B1FA4FF47A730522322107488B
:100D700003F088FB04E00449087D05F0A5F900BFF5
:100D800000BF00BFC4E7000040030020CD2F0008D3
:100D900010B503F039FB1948194908604FF4804039
:100DA000888000208871084600F0C0FA03F0AAFA93
:100DB000144815490A680260496841604FF47A7323
:100DC00006223C21114803F05DFB0E4800881049C3
:100DD00008810C4881780E4841810A48C1780C4846
:100DE0008181084801790A48C1810648417908484B
:100DF0000182044881790648418210BD000C0140FF
:100E0000200300204E000020AE00002089130008BF
:100E1000400300201CB5614C02F092FB208860A3C7
:100E2000082200210090084602F0C7FD60885EA3FA
:100E3000082210210090002002F0BFFDA0885CA3D2
:100E4000082220210090002002F0B7FDE08828B998
:100E500059A308223021002002F0AFFDE0880128CC
:100E600002D0E088022805D156A3082230210020B4
:100E700002F0A3FD564800780101102380220020D3
:100E800002F0B4FD01A801F039FA401C00B91CBD04
:100E90009DF804000B38072864D2DFE800F01F2A11
:100EA0000411636330004A48007818B903204849A8
:100EB000087004E046480078401E4549087069E023
:100EC00043480078032803D100204149087004E01A
:100ED0003F480078401C3E4908705BE03D4805F003
:100EE000F3F94FF47A73052232213B4803F0CAFA32
:100EF00050E000203649097824F811004AE03448CF
:100F00000078032800D045E03148007834F810001C
:100F100060B901202E49097824F811004FF4FA73C2
:100F20000622FA212D4803F0ADFA1AE0284800788D
:100F300034F81000012805D02548007834F8100056
:100F400002280ED14FF4FA731A460021244800F00B
:100F500063FA224805F0B8F900201D49097824F801
:100F6000110017E09DF80400092804DD18480078F6
:100F7000032800D00EE01648007834F8100000EB8B
:100F800080009DF8041001EB40001149097824F815
:100F9000110000BF00BF00BF79E700004003002040
:100FA0006461793A25640000686F75723A256400BF
:100FB0006D696E3A25640000416C61726D204F4688
:100FC00046000000416C61726D204F4E0000000031
:100FD00057000020150E0008010D00087D0C0008C8
:100FE0002003002000B587B002F0AAFA03F08AF9C6
:100FF0001A48807919494979184A1279174BDB78D0
:10100000CDE90232CDE904101448807813490988EB
:1010100013A30622CDE900100021084602F0CDFC02
:1010200014A308221021002002F0C7FC14A30822F8
:101030002021002002F0C1FC14A30822302100204E
:1010400002F0BBFC1348007D000100F110011023E9
:101050008022002002F0CAFC07B000BDAE000020D4
:1010600025642D25642D25642D25642D25642D25CD
:10107000640000005365742054696D650000000031
:1010800053657420416C61726D00000042757A7A7C
:10109000696E6700400300202DE9F05F06460C46AC
:1010A000154629462046FFF735F982460D49304658
:1010B000FFF7DEF883465146FFF732F981460A49C9
:1010C000FFF760F980462146FFF727F907464FF002
:1010D0007C513846FFF7CCF88046FFF719FB80B209
:1010E000BDE8F09F0000B4420000344301490868A5
:1010F00049687047700000201FB50121022003F0ED
:1011000061F80021022003F05DF80121022003F0C4
:1011100049F80121164803F0E1FE4720ADF804002C
:1011200040F2E730ADF808000020ADF8060001A954
:101130000F4804F0C9F801210D4803F0FCFE01221C
:1011400011460B4803F070FF1D208DF800000020B1
:101150008DF8010001208DF802008DF8030068462B
:1011600002F00EF90121024803F0D9FE1FBD000074
:101170000004004010B500F017F801F0E3F900207A
:101180000749087048708870C87000F0AFF84FF4D5
:101190007A7305223221034803F074F910BD000070
:1011A0005C000020B111000810B504F0BBFF10BDB9
:1011B0002DE9F05F42490868FFF7BEFA0646414A4A
:1011C000414BFFF7C4F904460D4640490868FFF754
:1011D000B3FA06463E4A3F4BFFF7B9F9804622462E
:1011E0002B46FFF70DF98246FFF7D2FA3749086020
:1011F00033494868FFF7A0FA0646374A374BFFF7EE
:10120000A6F904460D4631494868FFF795FA0646A7
:101210004FF06632324BFFF79AF9824622462B4650
:10122000FFF7EEF88046FFF7B3FA284948602449F3
:101230008868FFF781FA0646274A284BFFF787F9A7
:1012400004460D4621498868FFF776FA06464FF0B6
:101250006632234BFFF77BF9804622462B46FFF789
:10126000CFF88246FFF794FA184988601449C86895
:10127000FFF762FA0646184A1A4BFFF768F9044668
:101280000D461249C868FFF757FA0646124A164B30
:10129000FFF75DF9804622462B46FFF7B1F88246FC
:1012A000FFF776FA0949C86001F030FF074CE368A0
:1012B000A2686168206803F0B5F9BDE8F09F0000FE
:1012C000E0020020B81E85EB51B89E3FD0020020FE
:1012D0000AD7A3703D0AEF3F9A9999999999A93F26
:1012E0006666EE3F9999C93F9999E93F70470000BA
:1012F00008B501460020009003480090009808447B
:1013000000900098008808BD006C004008B50022DD
:101310000092044A0092009A02440092009A1160DE
:1013200008BD0000006C004000BFFEE738B5044671
:101330000121082002F056FF10208DF80300A0883C
:10134000ADF8000002208DF802006946206800F028
:10135000DFFB0020A060E060002121616161204688
:1013600000F056F9002009E0064951F8201019B99B
:10137000044941F8204003E0411CC8B20428F3DBD3
:1013800000BF38BD8C09002070B500253CE0204826
:1013900050F8254004B935E0207E022800D031E025
:1013A000607EB8B101282BD1D4E90431A0681A18A5
:1013B00041F10001174803684068D21A814108D200
:1013C000144801684068C4E904100021204600F078
:1013D0001FF915E0D4E90431E0681B1841F1000160
:1013E0000C4A10685268181A914108D209480168DD
:1013F0004068C4E904100121204600F009F900BF4B
:1014000000BF00BF681CC5B2042DC0DB70BD00006A
:101410008C090020780000202DE9F04105460E4699
:10142000174698462C460CB9BDE8F0815EB1012EF6
:1014300002D0022E14D10DE0012020760121204699
:1014400000F0E6F80CE0002020760021204600F0B5
:10145000DFF805E002202076A760C4F80C8000BF0A
:1014600000BF00BFE0E700001CB5584C02F068F870
:1014700057A308220021084602F09FFAE08A58A3E9
:10148000082210210090002002F097FA208B58A328
:10149000082220210090002002F08FFA584800789E
:1014A000000100F1100110238022002002F09EFABA
:1014B00001A800F023FF401C00B91CBD9DF80400EA
:1014C0000B281FD00C2828D00D2802D00E2830D190
:1014D0000BE04B48007810B9012049490870484892
:1014E0000078401E4649087040E0454800780128D1
:1014F00002D100204249087041480078401C404910
:10150000087033E03F4804F0DFFE4FF47A730522A1
:1015100032213D4802F0B6FF28E03948007808B98A
:101520000020E08236480078012801D10020208385
:101530001CE09DF80400092800DD17E03048007821
:1015400038B9E08A00EB80009DF8041001EB400000
:10155000E0822B480078012807D1208B00EB800027
:101560009DF8041001EB4000208300BF00BFE08A1B
:10157000C82809DB208BC82806DB238BE28A0221DE
:101580002248FFF749FF1FE0E08AC82809DA208BCC
:10159000C82806DB238BE28A00211C48FFF73CFFAA
:1015A00012E0E08AC82809DB208BC82806DA238BE2
:1015B000E28A01211548FFF72FFF05E000231A46B4
:1015C00019461248FFF728FF00BF76E740030020C6
:1015D00042757A7A65722D436F6E66696700000006
:1015E00042757A7A65725F4F4E3A256400000000BA
:1015F00042757A7A65725F4F46463A25640000006C
:101600005800002069140008010D00082003002084
:1016100070B504460D46A07998B1012822D1012D5C
:1016200007D1A1880122206800F006FB0120607626
:1016300006E0A1880022206800F0FEFA0020607613
:1016400010E0012D07D1A1880022206800F0F4FAF3
:101650000120607606E0A1880122206800F0ECFA03
:101660000020607600BF70BD10B5254890F8DB0003
:1016700000B910BD00F0E2F92148817890F8DB0054
:10168000401E814212D11E49897801EBC1021C49DA
:10169000C91C01EB82002421FEF7C5FD184890F813
:1016A000DB00401E164981F8DB0026E014488178F3
:1016B00090F8DB00401E81421FDA114884780FE069
:1016C000621C02EBC2030E4AD21C02EB830104EB44
:1016D000C40302EB83002422FEF78CFD601CC4B21D
:1016E000074890F8DB00401EA042E9DC044890F86F
:1016F000DB00401E024981F8DB0000BFB9E70000B3
:101700005A03002070B501F01BFF002429E01648A1
:101710000078801D2044062190FBF1F201FB1200AD
:10172000C5B2114890F8DB00A84218DD05EBC502F0
:101730000D48C01C00EB820304EB840081000822EA
:10174000002002F03AF908484078A04207D104EBA3
:101750008400810014234622002002F047F9601C17
:10176000C4B2032CD3DB70BD5A03002000B589B08E
:10177000EE215648FEF757FD0B2255A16846FEF7AD
:101780005DFD0B2254A103A8FEF758FD0B2255A1C5
:1017900006A8FEF753FD242269464C48C01CFEF7FC
:1017A00029FD4A4890F8DB00401C484981F8DB00DD
:1017B0000B224EA16846FEF741FD0B224DA103A866
:1017C000FEF73CFD0B224EA106A8FEF737FD2422B2
:1017D00069463E482730FEF70DFD3C4890F8DB0097
:1017E000401C3A4981F8DB000B2247A16846FEF70E
:1017F00025FD0B2246A103A8FEF720FD0B2247A1E1
:1018000006A8FEF71BFD2422694630484B30FEF740
:10181000F1FC2E4890F8DB00401C2C4981F8DB00DD
:101820000B2240A16846FEF709FD0B223FA103A849
:10183000FEF704FD0B2240A106A8FEF7FFFC2422C0
:10184000694622486F30FEF7D5FC204890F8DB004F
:10185000401C1E4981F8DB000B2239A16846FEF7C7
:10186000EDFC0B2231A103A8FEF7E8FC0B2232A10C
:1018700006A8FEF7E3FC2422694614489330FEF7DD
:10188000B9FC124890F8DB00401C104981F8DB00DD
:101890000B222DA16846FEF7D1FC0B2223A103A841
:1018A000FEF7CCFC0B2224A106A8FEF7C7FC2422DD
:1018B00069460648B730FEF79DFC044890F8DB0007
:1018C000401C024981F8DB0009B000BD5A0300202A
:1018D0004D722E3931373500343938363434393990
:1018E0003500000077717734323330004D722E416D
:1018F0004100000035313636323131380000000009
:1019000068646673696800004D722E42422E0000C2
:1019100031343631353136313536000046445346A0
:101920004D3500004D722E444400000034363134F1
:101930003536353100000000574546463432320016
:101940004D722E45450000004D722E4646000000A7
:1019500008B5FFF7D7FE684600F0D0FC401C00B980
:1019600008BD9DF800000B3807282ED2DFE800F0F4
:10197000211004070A0D130002F024FB25E002F0F9
:10198000F1FA22E000F064FC1FE003F0EFFC1CE041
:10199000FFF76AFE19E000F051F84FF47A73052260
:1019A00032210B4802F06EFDAFF25B0004F08CFCBC
:1019B0000BE04FF47A7305223221064802F062FDF3
:1019C000AFF2730004F080FC00BF00BF00BFC7E7A8
:1019D00005340008CD2F000808B50120022380221D
:1019E00000210090084601F0EBFE01200223802236
:1019F0003E210090002001F0E3FE0120402302463A
:101A000000210090084601F0DBFE01204023024641
:101A1000002100907F2001F0D3FE08BD06484078E9
:101A20000549097808440721B0FBF1F201FB1200D7
:101A300001498870704700000800002007480078BE
:101A4000064949780844054991F8DB1090FBF1F20A
:101A500001FB120001498870704700005A03002002
:101A600021B1026842F00102026004E002684FF610
:101A7000FE731A400260704710B50022026847F6F4
:101A8000F0739A430C6A8B6823430C6923434C69B7
:101A900023438C692343CC6923434C6A23438C6AD8
:101AA00023431A430260CB6843600B6883604B6832
:101AB000C36010BD704700002DE9F05F06460C467C
:101AC00015463046FEF738FE21F000410746FEF786
:101AD0005FFE814629462046FEF71CFC83464946A8
:101AE000FEF71EFC80460949FEF74CFC07462946D6
:101AF000FEF7BEFB82464FF07C515046FEF7B8FB26
:101B00000746FEF705FE80B2BDE8F09F0000C84220
:101B10002DE9F04102460025002600200023002484
:101B2000002791F803C00CF00F0591F803C00CF0EA
:101B3000100CBCF1000F03D091F802C04CEA05056F
:101B400091F800C0BCF1000F31D0146800202BE0E8
:101B50004FF0010C0CFA00F3B1F800C00CEA0306D8
:101B60009E4220D183004FF00F0C0CFA03F7BC43C8
:101B700005FA03FC4CEA040491F803C0BCF1280FF9
:101B800006D14FF0010C0CFA00FCC2F814C00AE0B8
:101B900091F803C0BCF1480F05D14FF0010C0CFACD
:101BA00000FCC2F810C0401C0828D1D31460B1F862
:101BB00000C0BCF1FF0F34DD546800202EE000F1BE
:101BC000080C4FF0010808FA0CF3B1F800C00CEA59
:101BD00003069E4221D183004FF00F0C0CFA03F74D
:101BE000BC4305FA03FC4CEA040491F803C0BCF1C1
:101BF000280F05D100F1080C08FA0CF8C2F814807F
:101C000091F803C0BCF1480F07D100F1080C4FF068
:101C1000010808FA0CF8C2F81080401C0828CED33E
:101C20005460BDE8F0810246002093680B400BB180
:101C3000012000E0002070470AB1016100E041612D
:101C40007047000070B50446064803F079F9054670
:101C5000FEF774FAFEF768FAB0FBF4F104FB11002A
:101C600070BD0000000400400A4890F8CC01062135
:101C700090FBF1F0401C074981F8CE0191F8CD01AD
:101C8000C11700EB5171C910491C024A82F8CF11EB
:101C900070470000A807002000B5ADF5557D4FF452
:101CA000967004F0F9FA2E48007830B9FFF794FEE8
:101CB00002F0DCFD01202A490870D4A800F01EFBC8
:101CC000012825D19DF850030B3806281FD2DFE8E4
:101CD00000F00C1E0304050600BF00BF00BF9DF806
:101CE0005003204981F85D0311E01E4802F0B6FD63
:101CF00000201B490870AFF25F0004F0E5FA4FF4D2
:101D00007A7305223221184802F0BCFB00BF00BFE5
:101D1000144890F85C0306281ED2DFE800F0031395
:101D2000121B171C0F4802F0C5FE4FF454720D49E8
:101D300010316846FEF75EFA0A480FC802F0B5FD9A
:101D40000AE000BF074802F013FE05E0054802F074
:101D50002BFE01E000BF00BF00BF0DF5557D00BDAB
:101D60005900002048040020CD2F000810B5084875
:101D7000007A60B901F0E4FB0120054908724FF4D4
:101D80007A70FFF75FFF0249086000F0F7F910BDB5
:101D9000800900201CB5CF48007880B901F0D0FB45
:101DA0003F2300221146104601F026FC3F237F22EC
:101DB0000021104601F020FC0120C649087001A84E
:101DC00000F09CFA401C00B91CBD9DF804000B38C3
:101DD000072825D2DFE800F0FCFB042546678800D1
:101DE000BD4890F8CD0100281ADDBB4A92F8CD110C
:101DF00092F8CC010823062201F0F8FDB64890F8CD
:101E0000CD010838B44981F8CD01FFF72DFFB24A62
:101E100092F8CD1192F8CC010823062201F0E6FDDC
:101E200054E1AD4890F8CD0138281ADAAA4A92F860
:101E3000CD1192F8CC010823062201F0D7FDA64867
:101E400090F8CD010830A44981F8CD01FFF70CFFCF
:101E5000A14A92F8CD1192F8CC010823062201F094
:101E6000C5FD33E19C4890F8CC0101281ADD9A4A5F
:101E700092F8CD1192F8CC010823062201F0B6FDAC
:101E8000954890F8CC01801F934981F8CC01FFF769
:101E9000EBFE914A92F8CD1192F8CC01082306226C
:101EA00001F0A4FD12E18C4890F8CC0179281ADAEF
:101EB000894A92F8CD1192F8CC010823062201F04C
:101EC00095FD854890F8CC01801D834981F8CC01AF
:101ED000FFF7CAFE804A92F8CD1192F8CC01082390
:101EE000062201F083FDF1E0FFF7BEFE7A4890F88C
:101EF000CE0100EB80017848E63000EB41007649E6
:101F000091F8CF11405C012800D1DFE0724890F8D1
:101F1000CE0100EB8000704901EB400091F8CF1139
:101F2000405C012808D101F00BFB6CA308220021C2
:101F3000084601F042FDC9E0674890F8CE0100EB89
:101F40008000654901EB400091F8CF11405CE8BB8F
:101F50000121614890F8CE0100EB80025E48E63036
:101F600000EB42005C4A92F8CF2181545A4A92F821
:101F7000CD1192F8CC010823062201F0F5FA56485B
:101F800090F8CF2190F8CE1100F022F90446524A81
:101F9000009492F8CD1192F8CC0154A3062201F0DE
:101FA0000CFD4D4A92F8CD1192F8CC01082306227F
:101FB00001F01CFD4848B0F8D001401C4649A1F88A
:101FC000D0010846B0F8D0019E2802E005E005E007
:101FD0005CE001D101F042F800BF77E03E4890F8A4
:101FE000CE0100EB80013C48E63000EB41003A496D
:101FF00091F8CF11405C012803D03748B0F8D401E4
:1020000000B963E00221344890F8CE0100EB800271
:102010003148E63000EB42002F4A92F8CF2181543C
:102020002D48B0F8D401401E2B49A1F8D401084630
:1020300090F8CE0100EB800001EB400091F8CF1149
:10204000405C012806D12448B0F8D201401C224946
:10205000A1F8D2012048B0F8D2010A2801D100F03D
:10206000FDFF1D4A92F8CD1192F8CC0108230622FB
:1020700001F07AFA0020184A009092F8CD1192F8F7
:10208000CC010823062201F09BFB1FE0AFF2FB20EE
:1020900004F01AF9002305223221154802F0F2F962
:1020A000E6210D48E630FEF7BEF800200949087029
:1020B0000949A1F8D001A1F8D2010A20A1F8D40160
:1020C000072081F8CC01082081F8CD0100BF00BFB6
:1020D0007AE600005A000020A8070020E681ADE55E
:1020E000969CE4BDA0E8BE93E4BA86002564000097
:1020F000CD2F000808B5FFF739FE684600F0FEF85E
:10210000401C00B908BD9DF800000B2808D00C2821
:1021100016D0112818D11749486802F069FB23E04E
:10212000AFF22F0004F0D0F84FF47A730522642147
:10213000114802F0A7F900200E490872486013E028
:1021400000200C4948600FE09DF80000092800DDE0
:102150000AE00848406800EB80009DF8001001EBA1
:1021600040000449486000BF00BF00F007F800BF0E
:10217000C8E7000080090020CD2F000808B5102313
:1021800080222021002001F0EFF94FF47A7008A39B
:10219000082200210090084601F00FFC0948406821
:1021A00009A3082220210090002001F006FC08BDB0
:1021B000E8AFB7E78C9CE695B0E5AD97302D256488
:1021C00000000000800900202564000000BFFEE739
:1021D00030B50346481E00EB800003EB4004501E60
:1021E000245C01EB810003EB4005501E285C044495
:1021F000481C00EB800003EB4005501E285C0444A3
:10220000481E00EB800003EB4000805C0444481C47
:1022100000EB800003EB4000805C0444481E00EBB0
:10222000800003EB4005501C285C044401EB810056
:1022300003EB4005501C285C0444481C00EB800064
:1022400003EB4005501C285C2044C0B230BD0000A8
:1022500010B5194890F8DB00062800D110BD1648CB
:1022600090F8DB400FE0621E02EBC203124AD21C60
:1022700002EB830104EBC40302EB83002422FDF78D
:10228000B9FF601EC4B20C488078A042EBDB0A485C
:1022900090F8DB00401C084981F8DB00897801EBED
:1022A000C1020549C91C01EB82002421FDF7BBFFD7
:1022B00001F046F900BFD1E75A03002010B50446EB
:1022C0000020A0740C4802F038FEA081A089E189AA
:1022D000884204DDA089E189401A608106E0A08976
:1022E000E1894FF6FF72511A08446081A089E081AC
:1022F000207A401C207210BD002C0140024612B909
:102300004FF0FF3070470F488079012816D1002028
:102310000C49887100210FE00A4840790A4B13F8F4
:102320001130984206D1084800EB41004078107007
:102330000120E7E7481C81B21229EDD34FF0FF30AE
:10234000E0E70000AC090020880000201CB501F087
:10235000F7F874A308220021084601F02EFB734809
:1023600073A3082214210090002001F026FB6F487F
:10237000DE3890F8EA10DE30405C6EA30822282197
:102380000090372001F019FB01A8FFF7B7FF401CB0
:1023900000B91CBD9DF804000B2868D00C2810D093
:1023A00011287DD16148DE3890F8EA00401C5F4971
:1023B000DE3981F8EA00002081F8EC0081F8EB00BA
:1023C000ACE05A48DE3890F8DD0068B95749DE398C
:1023D000897801EBC1025549DB3901EB82000B2200
:1023E000DB31FDF72BFF2AE05048DE3890F8DD00A6
:1023F00001280FD14D49DE39897801EBC1024B49E3
:10240000DB3901EB820101F10C000B224749FDF79A
:1024100015FF14E04548DE3890F8DD0002280ED1A3
:102420004249DE39897801EBC1024049DB3901EBD1
:10243000820101F118000B223C49FDF7FFFE3B48E9
:10244000DE3890F8EA00401C3849DE3981F8EA00AD
:1024500001F1660000218167C167C0F8801000208B
:102460003249DE3981F8EC0081F8EB0056E0324861
:1024700003F02AFF4FF47A73052232212F4802F02D
:1024800001F800202949DE3981F8EA0001F16600EF
:1024900000218167C167C0F880100020234900E057
:1024A00005E0DE3981F8EC0081F8EB0036E09DF8BC
:1024B0000400092800DD31E01C48DE3890F8EB000C
:1024C0009DF80410884209D11848DE3890F8EC00D5
:1024D000401C1649DE3981F8EC0008E09DF8040044
:1024E0001249DE3981F8EB00002081F8EC000F4939
:1024F000DE3991F8EC00C11700EB91718910A0EB67
:1025000081010F4A9DF8043002EB8302545C0748B6
:10251000DE3890F8EA10DE30445400BF00BF00BF40
:1025200037E70000496E7075743A000038040020E7
:1025300025730000256300004D23000805340008C2
:102540006063000810B501F055FD00200EE00D4954
:1025500031F810100C4A22F810100A4931F81020F6
:102560000949083121F81020411C88B20428EEDB0B
:102570000020054908610021034841618161C16172
:1025800010BD000080000020A002002038B50446E5
:102590000121102001F026FE14208DF80300A088F0
:1025A000ADF8000002208DF8020069462068FFF7B0
:1025B000AFFA0020A060E060002121616161204647
:1025C00000F081F8002009E0064951F8201019B9FF
:1025D000044941F8204003E0411CC8B20428F3DB61
:1025E00000BF38BD9C09002070B500253DE02048A3
:1025F00050F8254004B936E0207E022800D032E0B1
:10260000607E10B101282CD115E0D4E90313606974
:102610005A1840F1000017490B6849689A1A81411D
:1026200008D3144908684968C4E904010121204617
:1026300000F049F815E0D4E90431A0681A1841F116
:1026400000010C48036840689A1A884108D3094879
:1026500001684068C4E904100021204600F033F806
:1026600000BF00BF00BF681CC5B2042DBFDB70BD3A
:102670009C090020780000202DE9F04105460E4617
:10268000174698462C460CB9BDE8F08126B1012EBC
:1026900009D0022E14D10DE0002020760021204622
:1026A00000F011F80CE0012020760121204600F016
:1026B0000AF805E002202076A760C4F80C8000BF6D
:1026C00000BF00BFE0E770B504460D46A07998B1A1
:1026D000012822D1012D07D1A18801222068FFF70E
:1026E000ABFA0120607606E0A18800222068FFF79F
:1026F000A3FA0020607610E0012D07D1A188002206
:102700002068FFF799FA0120607606E0A18801228F
:102710002068FFF791FA0020607600BF70BD0000CE
:1027200008B549480078002826D000F009FF47A3E3
:1027300008220021084601F040F946A30822102192
:10274000002001F03AF947A308222021002001F0DF
:1027500034F948A308223021002001F02EF948481E
:102760000078000100F1100110238022002001F008
:102770003DF90020344908706846FFF7BFFD401C52
:1027800000B908BD9DF800000B2806D00D281BD00D
:102790000E2826D011282FD10EE001202A490870DA
:1027A000AFF2830003F090FD4FF47A7305223221DB
:1027B000344801F067FE1FE00120234908703048CB
:1027C000007803F04BFC17E02D48007818B9022080
:1027D0002B49087004E02A480078401E28490870F8
:1027E0000AE027480078401C032190FBF1F201FB2E
:1027F00012002349087000BF00BF00F0A1FE13A320
:1028000008220021084601F0D8F812A3082210215E
:10281000002001F0D2F813A308222021002001F0AB
:10282000CCF814A308223021002001F0C6F8144887
:102830000078000100F1100110238022002001F037
:10284000D5F800BF9DE700004D0000204C45445FD7
:10285000534554005365742D53544D33322D4C451C
:10286000440000005365742D45535033322D4C45C0
:10287000440000005365742D43414D2D4C454400E8
:102880004C000020CD2F00081CB587480078002898
:1028900044D000F055FE85A308220021084601F02F
:1028A0008CF88548408985A30822102100900020DB
:1028B00001F083F88048808984A3082220210090B9
:1028C000002001F07AF88548007820B1012809D06D
:1028D000022815D10DE082A308223021002001F04A
:1028E0006CF80DE082A308223021002001F065F889
:1028F00006E082A308223021002001F05EF800BF2C
:1029000000BF81480078000100F1100110238022EF
:10291000002001F06BF800206349087001A8FFF760
:10292000EDFC401C00B91CBD9DF804000B380728C5
:1029300054D2DFE800F00414222353532E0000F099
:10294000FFFD012058490870704803F0BDFC4FF4AA
:102950007A73052264216E4801F094FDE3E76A482A
:10296000007810B900205449488167480078012850
:1029700002D100205049888151E000BF62480078B0
:10298000401C032190FBF1F201FB12005E4908702C
:1029900045E05D480078022800D040E04F480078CC
:1029A000401C032190FBF1F201FB12004B4908701F
:1029B0000846007820B1012806D002280CD107E093
:1029C00000203D49887307E001203B49887303E0FC
:1029D00002203949887300BF00BF20E09DF8040041
:1029E0000A2800DB1BE04848007848B93248408993
:1029F00000EB80009DF8041001EB40002E49488157
:102A000041480078012809D12B48808900EB8000DB
:102A10009DF8041001EB40002749888100BF00BFEA
:102A200000F08EFD21A308220021084600F0C5FF1A
:102A30002148408921A3082210210090002000F0A5
:102A4000BCFF1D48808921A308222021009000207E
:102A500000F0B3FF2148007820B1012809D00228F6
:102A600015D10DE01EA308223021002000F0A5FFA3
:102A70000DE01FA308223021002000F09EFF06E099
:102A80001EA308223021002000F097FF00BF00BFE6
:102A90001D480078000100F1100110238022002061
:102AA00000F0A4FF00BF3EE74A00002043414D4C28
:102AB00045445F5345540000F002002042726967AC
:102AC000685F74696D653A25640000004461726B4B
:102AD0005F74696D653A2564000000004B000020BA
:102AE000436F6C6F75723A57686974650000000037
:102AF000436F6C6F75723A426C756500436F6C6F13
:102B000075723A5265640000490000208928000867
:102B1000212700081CB557480078002826D000F06F
:102B20000FFD55A308220021084600F046FF564835
:102B3000008956A3082210210090002000F03DFFDC
:102B40005148C08855A3082220210090002000F0A1
:102B500034FF56480078000100F110011023802254
:102B6000002000F043FF00204249087001A8FFF751
:102B7000C5FB401C00B91CBD9DF804000B2806D005
:102B80000C2814D00D2820D00E282AD11EE000F0E9
:102B9000D7FC012037490870454803F095FB4FF4F6
:102BA0007A7305226421434801F06CFCE3E73F4857
:102BB000007810B90020344908813C480078012889
:102BC00002D100203049C8802CE000BF3749097885
:102BD000481C00EBD0714910A0EB4101334A117041
:102BE00020E09DF804000A2800DB1BE02F48007855
:102BF00048B92548008900EB80009DF8041001EBDE
:102C000040002149088129480078012809D11E483F
:102C1000C08800EB80009DF8041001EB40001A49C9
:102C2000C88000BF00BF00F08BFC13A30822002166
:102C3000084600F0C2FE1448008914A3082210219F
:102C40000090002000F0B9FE0F48C08813A30822AE
:102C500020210090002000F0B0FE14480078000110
:102C600000F1100110238022002000F0BFFE00BF01
:102C700081E700004800002045535033324C454462
:102C80005F53455400000000F00200204272696763
:102C9000685F74696D653A25640000004461726B79
:102CA0005F74696D653A25640000000047000020EC
:102CB000152B0008212700081CB56F480078002854
:102CC00026D000F03DFC6DA308220021084600F04C
:102CD00074FE6E4880886EA30822102100900020A8
:102CE00000F06BFE694840886DA308222021009007
:102CF000002000F062FE6E480078000100F1100133
:102D000010238022002000F071FE00205A49087034
:102D100001A8FFF7F3FA401C00B91CBD9DF80400A0
:102D20000B2806D00C2814D00D2820D00E282AD12C
:102D30001EE000F005FC01204F4908705D4803F0DB
:102D4000C3FA4FF47A73052264215B4801F09AFBC1
:102D5000E3E75748007810B900204C498880544870
:102D60000078012802D10020484948802CE000BFAB
:102D70004F490978481C00EBD0714910A0EB410184
:102D80004B4A117020E09DF804000A2800DB1BE08C
:102D90004748007848B93D48808800EB80009DF89E
:102DA000041001EB4000394988804148007801282F
:102DB00009D13648408800EB80009DF8041001EBF3
:102DC00040003249488000BF00BF304843888288B5
:102DD00002213A48FFF750FC2C488088322809DC51
:102DE0002A484088322805DD00231A461946334810
:102DF000FFF742FC25488088322809DB23484088B9
:102E0000322805DA00231A4601212C48FFF734FC4A
:102E10001E488088322809DC1C484088322805DC9E
:102E200000231A4601212548FFF726FC00F088FB05
:102E300012A308220021084600F0BFFD1348808835
:102E400013A3082210210090002000F0B6FD0F48C7
:102E5000408813A3082220210090002000F0ADFD3F
:102E600013480078000100F1100110238022002097
:102E700000F0BCFD00BF50E74600002053544D3326
:102E8000324C45445F53455400000000F0020020DE
:102E900042726967685F74696D653A256400000075
:102EA0004461726B5F74696D653A256400000000CF
:102EB00045000020B92C000821270008000300204D
:102EC00010B50C480C4908604014888000208871B7
:102ED0000846FFF75BFB4FF4FA735A0002210648DD
:102EE000FFF7CAFB4FF47A7305226421034801F00F
:102EF000C9FA10BD0010014000030020E9250008B8
:102F000000BFFEE73EB500F01BFB00241FE0244895
:102F1000007820440721B0FBF1F201FB12052148A3
:102F200050F8353004EB840081000822002000F0C6
:102F300044FD1B484078A04207D104EB8400810087
:102F400014233F22002000F051FD601CC4B2032C6A
:102F5000DDDB01F0D7F91448008814A30822002112
:102F600000903F2000F029FD0F48C0780E49897875
:102F700010A30822CDE9001010213F2000F01DFD14
:102F8000094881794079084A12790DA3CDE90020DA
:102F90000291082220213F2000F00FFD3EBD0000DD
:102FA000080000200C000020AE0000202564E5B9D8
:102FB000B40000002564E69C882564E697A500001F
:102FC00025643A25643A25640000000008B51148DC
:102FD000007808B1FFF796FF6846FFF78FF9401CAD
:102FE00000B908BD9DF800000D2804D00E2805D0BA
:102FF000112809D105E000F0CDFF05E000F09AFFAF
:1030000002E002F00BFA00BF00BFFFF77BFF00BF3A
:10301000E7E700004400002070B50A2418E01520FE
:10302000FEF710FE451C0820FEF70CFE461C05EBC3
:103030008500094901EB4000805D40B9012005EBA6
:103040008501054A02EB41018855601E84B200BF2C
:10305000002CE4D170BD0000A807002010B500F0DE
:103060006FFA06A308221421002000F0A6FC082312
:1030700060221421002000F0B1FE10BDE5BE88E9F9
:103080008197E686BEE4BDA0E8B5A2E4BA8600005A
:1030900010B5044634B1012C11D0022C1BD0032CE6
:1030A00030D124E000224FF480511748FEF7C4FDD0
:1030B00000224FF400511448FEF7BEFD22E0012229
:1030C00011031148FEF7B8FD00224FF400510E48DD
:1030D000FEF7B2FD16E000224FF480510A48FEF7D9
:1030E000ABFD012251030848FEF7A6FD0AE00122CC
:1030F00011030548FEF7A0FD012251030248FEF727
:103100009BFD00BF00BF10BD000C014010B50C4876
:10311000C4680C492046FDF761FB03D20120FFF78C
:10312000B7FF0BE008492046FDF74EFB03D2022013
:10313000FFF7AEFF02E00020FFF7AAFF10BD00007E
:10314000D00200200000A0400000A0C010B504463E
:103150002046FFF7B3F8E07920B1012806D0022815
:103160000CD107E0204600F0B9F807E0204600F057
:10317000C9F803E0204600F0ECF800BF00BF10BD26
:1031800070B504462068000E20712068C0F3074522
:103190002088000A6071267820796840FF280AD1CB
:1031A00060797040FF2806D1207920B90120A071F4
:1031B0000220E07102E0204600F001F870BD00211D
:1031C00001600172C17101827047000000B589B0D1
:1031D0000121052001F006F848208DF823004FF466
:1031E0008070ADF8200008A93A48FEF791FC012153
:1031F000C80201F007F800214FF4006001F002F866
:103200000121C80200F0EEFF0121334801F066FE03
:103210008F20ADF814004FF6FF70ADF818000020B5
:10322000ADF816008DF81C00ADF81A0005A92A4863
:1032300002F04AF80121284801F07DFE00212648CD
:1032400001F0FAFF0021244802F002F80020ADF856
:1032500008000920ADF810000220ADF80A00002097
:10326000ADF80E000120ADF80C0002A91A4801F0DB
:1032700085FE0121184801F052FE01220021164866
:1032800001F038FE01220321134801F0CDFE032195
:10329000114801F03EFE1B208DF8040000208DF83F
:1032A000050001208DF806008DF8070001A800F048
:1032B00067F819208DF8040000208DF80500012022
:1032C0008DF806008DF8070001A800F059F809B044
:1032D00000BD000000080140002C014070B504460C
:1032E000267A6589022E0CD141F27070854205DD87
:1032F000B5F5FA5F02DA0120E07102E02046FFF73F
:103300005EFF70BD70B50446267A6589022E1FDD0A
:10331000206840002060B5F5E17F05DDB5F52F7F21
:1033200002DA206820600EE0B5F5487F08DD40F243
:103330001450854204DA206840F00100206002E069
:103340002046FFF73CFF222E02D12046FFF718FF50
:1033500070BD017A282910D141890122827122226F
:10336000027241F29412914206DD41F27072914272
:1033700002DA028A521C028200BF704770470000C6
:1033800070B5002100230F22C47804B3154C2468C3
:1033900004F4E064C4F5E064210AC1F10403CA4006
:1033A000447804FA03F184781440214309010E4C57
:1033B0000678A155047804F01F050124AC40057877
:1033C0006D11AD0005F1E025C5F8004109E0047874
:1033D00004F01F050124AC40044D0678761145F831
:1033E000264070BD0CED00E000E400E080E100E06C
:1033F00002490143024A1160704700000000FA05CB
:103400000CED00E01CB500F09BF84348807800EB21
:10341000C0014148C01C00EB810040A308220021EC
:103420000090084600F0C9FA3B48807800EBC001E4
:103430003948C01C00EB81000C303AA3082214214B
:103440000090002000F0B9FA3348807800EBC0010A
:103450003148C01C00EB8100183034A30822282119
:103460000090002000F0A9FA2B4890F8DC0000EB57
:103470008000810014238022002000F0B7FA01A808
:10348000FEF73CFF401C00B91CBD9DF804000B2852
:1034900034D00D2804D00E2813D0112839D122E0C1
:1034A0001D4890F8DC0020B902201B4981F8DC009F
:1034B00006E0194890F8DC00401E174981F8DC004E
:1034C00027E0154890F8DC00022804D100201249BA
:1034D00081F8DC0006E0104890F8DC00401C0E4942
:1034E00081F8DC0015E0134802F0EEFE4FF47A7329
:1034F00005223221104800F0C5FF0AE00D4802F015
:10350000E3FE4FF47A73052232210C4800F0BAFF33
:1035100000BF00BF00BFB7E75A0300204E616D65D2
:103520003A257300515120203A2573005758202026
:103530003A257300053400084D230008511900088E
:1035400000200CE0002106E00022064B03EBC01334
:103550005A544A1CD1B28029F6DB421CD0B208284A
:10356000F0DB7047CA0900202DE9F04304460D4600
:1035700016461F46284638E0224631E0002A2DDB59
:103580007F2A2BDC002829DB3F2827DC4FEAE07C60
:1035900000EB5C7C4FEAEC0CDFF8588008EBCC1CAD
:1035A0001CF802C003464FEAE07800EB58784FEA77
:1035B000E808A0EBC8094FF0010808FA09F82CEA5E
:1035C000080C01464FEAE07800EB58784FEAE8082B
:1035D000DFF8209009EBC81808F802C0511C0AB2A5
:1035E000A1199142CADC411C08B2E9198142C3DC2D
:1035F000BDE8F083CA0900202DE9FF4F86B0069E82
:10360000079CDDF82080DDF82490002001900090D8
:103610004C450FD1464502DDB2464646D0463546BA
:1036200005E02146284600F0A3F8681C05B2454590
:10363000F7DD99E046450FD14C4502DDA2464C46E8
:10364000D146274605E03946304600F091F8781C0F
:1036500007B24F45F7DD87E0464505DDB2464646F1
:10366000D046A2464C46D1464C4507DD604204B2E6
:10367000C9F100000FFA80F901200190A9EB0400C4
:10368000A8EB0601884207DDB24626465446C246EC
:10369000C846D14601200090A8EB060000B2059074
:1036A000A9EB04000FFA80FB4FEA4B0000B2039035
:1036B0000598ABEB0000400000B202900598C0EB0B
:1036C0004B0000B2049035462746019838B1009867
:1036D00028B1684201B2384600F04AF812E0019879
:1036E00028B1784201B2284600F042F80AE000987A
:1036F00020B12946384600F03BF803E03946284619
:1037000000F036F82EE0681C05B20498002805DAAF
:10371000DDE90310084400B2049006E0781C07B20B
:1037200002990498084400B20490019838B10098B6
:1037300028B1684201B2384600F01AF812E0019848
:1037400028B1784201B2284600F012F80AE0009849
:1037500020B12946384600F00BF803E039462846E8
:1037600000F006F84545CEDB0AB0BDE8F08F00005A
:1037700070B50346002B20DB7F2B1EDC00291CDBF1
:103780003F291ADCCC1701EB5474E4100B4D05EB08
:10379000C414E45C0A46CD1701EB5575ED10A1EB9E
:1037A000C5060125B5402C430846CD1701EB5575DC
:1037B000ED10024E06EBC515EC5470BDCA09002091
:1037C0002DE9F04705460E4617469846DDF820A03D
:1037D000BAF1000F24D12C460CE031462046FFF709
:1037E000C7FF06EB0800401E01B22046FFF7C0FFEE
:1037F000601C04B2E819A042EFDC34460BE021461D
:103800002846FFF7B5FFE919491E08B22146FFF720
:10381000AFFF601C04B206EB0800A042EFDC14E02E
:103820002C460FE0B14607E049462046FFF7A0FFCF
:1038300009F101000FFA80F906EB08004845F3DCB6
:10384000601C04B2E819A042ECDCBDE8F08700007F
:1038500038B5002406E0002500E06D1CB5F57A7F40
:10386000FBD3641CB4F57A7FF5D30121082000F066
:10387000B9FC14208DF8030003208DF802004FF4EA
:103880008070ADF8000069460848FEF741F94FF432
:103890000070ADF8000069460448FEF739F90120D0
:1038A00000F008FB012000F011FB38BD000C0140C6
:1038B00070B50546002411E080212141294009B15D
:1038C000012100E00021084600F000FB012000F08B
:1038D000F1FA002000F0EEFA601CC4B2082CEBDB19
:1038E000012000F0E7FA002000F0E4FA70BD10B506
:1038F000012000F0EBFA012000F0DCFA002000F0DB
:10390000E5FA002000F0D6FA10BD10B5002000F056
:10391000DDFA012000F0CEFA012000F0D7FA10BD48
:1039200010B5FFF795FFAE2000F0DCFAD52000F0CF
:10393000D9FA802000F0D6FAA82000F0D3FA3F2070
:1039400000F0D0FAD32000F0CDFA002000F0CAFA3F
:10395000402000F0C7FAA12000F0C4FAC82000F00F
:10396000C1FADA2000F0BEFA122000F0BBFA812082
:1039700000F0B8FACF2000F0B5FAD92000F0B2FA82
:10398000F12000F0AFFADB2000F0ACFA302000F0BC
:10399000A9FAA42000F0A6FAA62000F0A3FA8D2030
:1039A00000F0A0FA142000F09DFAAF2000F09AFA7F
:1039B000FFF7C6FD00F0FEF910BD0FB470B5C2B040
:1039C00005460E4614464AA8019002A8019A499954
:1039D00001F0AEFE00200190234602AA314628469F
:1039E00000F006F942B070BC5DF814FB2DE9F0431D
:1039F00004460D4616461F46284638E0224631E06A
:103A0000002A2DDB7F2A2BDC002829DB3F2827DC3E
:103A10004FEAE07C00EB5C7C4FEAEC0CDFF858806E
:103A200008EBCC1C1CF802C003464FEAE07800EB20
:103A300058784FEAE808A0EBC8094FF0010808FAE7
:103A400009F88CEA080C01464FEAE07800EB587858
:103A50004FEAE808DFF8209009EBC81808F802C020
:103A6000511C0AB2A1199142CADC411C08B2E919E1
:103A70008142C3DCBDE8F083CA09002070B5054669
:103A80000C4645F0B00000F02DFA102141EA141068
:103A900000F028FA04F00F0000F024FA70BD0000D6
:103AA000F8B506460F4614461D46082D0CD1A4F164
:103AB00020000E4901EB0010102308223946009027
:103AC000304600F017F80FE0062D0DD1A4F12000CC
:103AD00000EB4000064901EB40000823062239466E
:103AE0000090304600F006F8F8BD0000886300083A
:103AF000786900082DE9FF4F80460E469146DDF8B3
:103B000034B0002500244A4631464046039BFFF767
:103B10002BFD00BF5EE0002558E008EB0500002803
:103B200052DB08EB05007F284EDC3046F11706EB30
:103B30005171C9100FB2F11706EB5171C910A6EB04
:103B4000C10A002E05DA781E07B20AF108000FFA42
:103B500080FA3819002817DB3819072814DC3819BF
:103B6000224901EBC01008EB0501405C04FB095140
:103B70001BF8011001FA0AF1084339191B4A02EB3C
:103B8000C11108EB050288543819401C00281BDBC2
:103B90003819401C072817DC3819401C134901EB61
:103BA000C01008EB0501405C04FB09511BF8011033
:103BB000CAF10802114108433919491C0B4A02EBAA
:103BC000C11108EB05028854681CC5B24D45A4DB41
:103BD000601CC4B20399481EC11700EB5171012249
:103BE00002EBE101A14296DCBDE8FF8FCA0900208B
:103BF0002DE9FE4F07468A46144698460025AB46F7
:103C00000026CBE0605D00F0800058B94FF0010B5A
:103C10002846691C8DB2205C8DF8040000208DF8C8
:103C200005006BE0605D00F0E000C02814D14FF0AB
:103C3000020B2846691C8DB2205C8DF80400605D83
:103C400000B9AFE02846691C8DB2205C8DF80500F4
:103C500000208DF8060051E0605D00F0F000E028E3
:103C60001DD14FF0030B2846691C8DB2205C8DF8E6
:103C70000400605D00B995E02846691C8DB2205CA7
:103C80008DF80500605D00B98CE02846691C8DB296
:103C9000205C8DF8060000208DF807002EE0605DA6
:103CA00000F0F800F02826D14FF0040B2846691CDC
:103CB0008DB2205C8DF80400605D00B972E028468A
:103CC000691C8DB2205C8DF80500605D00B969E06B
:103CD0002846691C8DB2205C8DF80600605D00B935
:103CE00060E02846691C8DB2205C8DF8070000203A
:103CF0008DF8080002E0681C85B24FE0BBF1010FAF
:103D00000BD19DF80420B91908B243465146FFF77C
:103D1000C7FE06EB080086B23FE04FF000090EE058
:103D200009EB890101EB4911204A881801A9FCF728
:103D300091FA00B90EE009F101001FFA80F909EBD0
:103D4000890101EB4911194A881819A1FCF782FA77
:103D50000028E5D100BFB8F1080F12D109EB8900A6
:103D600000EB491011490844401DB919009008B2F0
:103D700010231A465146FFF7BDFE06F1100086B229
:103D80000BE0B8F1060F08D1B91908B206233F229B
:103D90005146FFF785FEB01D86B200BF605D00286A
:103DA0007FF430AF00BFBDE8FE8F0000B26B0008AB
:103DB0000000000010B500240BE000212046FFF7B2
:103DC0005DFE054901EBC410802100F09BF8601CEA
:103DD000C4B2082CF1DB10BDCA0900202DE9F04760
:103DE00006460D46174698462846E91705EB5171D9
:103DF000C9100FFA81F905EB0801481EC11700EB45
:103E00005171C910491C0FFA81FA002D07DAA9F186
:103E100001000FFA80F9AAF101000FFA80FA4C466E
:103E200014E0002E10DB7F2E0EDC002C0CDB072CA8
:103E30000ADCF1B2E0B2FFF721FE064901EBC41142
:103E40008819394600F05EF8601C04B25445E8DB7E
:103E5000BDE8F087CA09002070B514480578002134
:103E60002846FFF70BFEFFF742FD7820FFF720FD05
:103E70004020FFF71DFD002407E00D4901EBC511AF
:103E8000085DFFF715FD601CC4B2802CF5DBFFF761
:103E90003CFD06480078401C04490870084600783C
:103EA000082801DB0020087070BD0000B60000206B
:103EB000CA09002010B5044622464FF4807102481A
:103EC000FDF7BAFE10BD0000000C014010B504461D
:103ED00022464FF400710248FDF7AEFE10BD00000F
:103EE000000C014010B50446FFF701FD7820FFF7F4
:103EF000DFFC0020FFF7DCFC2046FFF7D9FCFFF7D2
:103F000004FD10BD70B505460E46FFF7F0FC7820A5
:103F1000FFF7CEFC4020FFF7CBFC002404E0285D37
:103F2000FFF7C6FC601CC4B2B442F8DBFFF7EDFC3F
:103F300070BD00000A484078022805DA0848407839
:103F4000401C0749487009E00548007808300721FF
:103F5000B0FBF1F201FB120001490870704700004C
:103F6000080000200A484078022805DA084840780E
:103F7000401C0749487009E005480078C01D06212B
:103F800090FBF1F201FB120001490870704700003C
:103F90005A0300200A484078002805DD0848407888
:103FA000401E0749487009E005480078801D072138
:103FB000B0FBF1F201FB12000149087070470000EC
:103FC000080000200A484078002805DD08484078AD
:103FD000401E0749487009E005480078401D062149
:103FE00090FBF1F201FB12000149087070470000DC
:103FF0005A03002000B591B00121042000F0F2F82E
:104000000121480200F0EEF80121084600F0BAF85C
:104010004FF4004000F0AAF800208DF8430078200B
:10402000ADF8400003208DF8420010A93648FDF796
:104030006FFD0523012203213448FCF7ADFD052364
:10404000022204213148FCF7A7FD0523032219466B
:104050002E48FCF7A1FD0523042206212B48FCF77E
:104060009BFD00200B900E904FF460200D900120DE
:104070008DF831008DF8300004208DF83C000BA93C
:104080002248FCF761FD21484C30009080150690D5
:10409000002004901E4801904FF48060079080201B
:1040A000059000200290042003902020089000201A
:1040B0000A904FF48050099069461648FDF7DCFCE1
:1040C00001211448FDF7CCFC01211048FCF71DFD2F
:1040D00001210E48FCF70EFD0C48FCF7B9FD00BFAE
:1040E0000A48FCF727FD0128FAD00848FCF7C0FD74
:1040F00000BF0648FCF714FD0128FAD0012103484F
:10410000FCF7ABFD11B000BD0008014000240140E8
:10411000800000200800024010B5044621464FF000
:10412000804001F09EF810BD10B5044621464FF0C6
:10413000804001F098F810BD10B5044621464FF0BC
:10414000804001F092F810BD10B5044621460248A7
:1041500001F08BF810BD0000000400400149086226
:104160007047000000000E4270470000014600202A
:10417000034A506820F440400843506070470000F4
:104180000010024029B1064A52690243044B5A61A9
:1041900004E0034A52698243014B5A6170470000B0
:1041A0000010024029B1064AD2690243044BDA6189
:1041B00004E0034AD2698243014BDA617047000090
:1041C0000010024029B1064A12690243044B1A61E9
:1041D00004E0034A12698243014B1A6170470000F0
:1041E0000010024029B1064A92690243044B9A61C9
:1041F00004E0034A92698243014B9A6170470000D0
:104200000010024029B1064AD2680243044BDA602A
:1042100004E0034AD2688243014BDA607047000031
:104220000010024010B501460022002300204A1170
:10423000012A02D1094C236806E0022A02D1074C68
:10424000236A01E0054C636A01F01F0201249440D7
:104250001C400CB1012000E0002010BD0010024005
:1042600000210B4A11700A4A203A82F820100128D6
:1042700002D0042808D103E00121054A117004E0AE
:104280000521034A117000E000BF00BF7047000025
:104290002010024001490860704700003C0442427F
:1042A0000249096A0143014A116270470010024045
:1042B0000348008840F01000014908807047000062
:1042C00004280040034800884FF6EF710840014978
:1042D000088070470428004000210022002308487D
:1042E0000188001D0388001F0288914204D0001D30
:1042F000008840EA0240704743EA0140FBE70000C3
:104300001828004010B58CB0FFF7E6FF00F5E1403B
:104310000B900BA8FCF7E4FA04462C2221466846D1
:10432000FBF768FF059800F26C7007490880049855
:10433000401C88700398C8700298087101984871F1
:10434000009888710CB010BDAE00002000B5024688
:10435000FFF7AEFF100C03490880091D0A80FFF724
:10436000B1FF00BD1828004000B50246FFF7A0FFCE
:10437000C2F3034003490880091D0A80FFF7A2FF2A
:1043800000BD00000828004013B58CB0BDF8300017
:10439000A0F26C7006909DF83200401E05909DF8CA
:1043A0003400083803909DF8330004909DF83500E0
:1043B00002909DF83600019001A8FBF7C7FE044665
:1043C0002046FFF7C3FF00F003F80EB010BD000059
:1043D00000BF0348008800F020000028F9D0704793
:1043E00004280040074800884FF6F7710840054947
:1043F000088000BF0348008800F008000028F9D0BA
:10440000704700000428004010B501210807FFF79D
:10441000C9FE0121C806FFF7C5FE0120FFF79EFE79
:104420000420FCF765FF012822D00120FFF718FFC8
:1044300000BF4120FFF7F6FE0128FAD10002FFF786
:104440002FFF0120FFF726FFFFF7CCFFFFF7C0FF8C
:1044500047F6FF70FFF788FFFFF7BAFF0748FFF73F
:1044600075FFFFF7B5FF01210420FCF74FFF03E0C4
:10447000FFF7B8FFFFF7ACFF10BD0000358FF768FE
:10448000704700002DE9F04105460E461746984654
:10449000214800880A2803DB4FF0FF30BDE8F08197
:1044A000002435E004EB44001C4901EB00100068D7
:1044B00060BB04EB440001EB0010056004EB44001A
:1044C00001EB0010866004EB440001EB0010C0F823
:1044D0001880FCF70BFE04EB4402104B03EB0212B6
:1044E000C2E9040104EB4400194601EB0010078403
:1044F000002004EB44011A4602EB01110871064842
:104500000088401C044908800120C7E7601C84B271
:104510000A2CC7DB0020C1E700000020C0000020FB
:1045200010B5FCF7E9FD002014E0002100EB40028B
:104530000A4B03EB02121160022100EB400203EB75
:1045400002121171002100EB400203EB0212D16153
:10455000411C88B20A28E8DB10BD0000C000002022
:1045600039E000F015FF00F03BF88146B9F1000F8B
:1045700000DA30E009EB4900174901EB0014FCF7C1
:10458000B5FD05460E46A1694F1946F100081348CE
:104590000460012020712068804700200F490860D6
:1045A000FCF7A4FD05460E46781B78EB060006D204
:1045B00003202071FCF79AFDC4E904010AE00220FF
:1045C0002071C4E90456D4E90A20521C40F10000CD
:1045D000C4E90A2000BFC4E7C00000200400002096
:1045E00010B54FF0FF32110C002015E000EB400336
:1045F0000B4C04EB03131B7963B900EB400304EB92
:1046000003131B8C8B4205DA00EB400304EB03130E
:10461000198C0246431C98B20A28E7DB104610BDED
:10462000C00000202DE9F05F07460C4615461E46E7
:1046300029493846FCF7C8F800D203E02749384634
:10464000FCF7CCF824492046FCF7BEF800D203E082
:1046500022492046FCF7C2F81F492846FCF7B4F867
:1046600000D203E01D492846FCF7B8F81C49304643
:10467000FCF7AAF800D203E01A493046FCF7AEF87E
:10468000194A1A493846FCF707FD8046184A194965
:104690002046FCF701FD8146154A17492846FCF7DC
:1046A000FBFC8246154A16493046FDF705FA83465B
:1046B0004046FFF731FD4846FFF736FD5046FFF70D
:1046C0003BFD5846FFF740FD0E480760446085609B
:1046D000C660BDE8F09F00000000B4C20000B44214
:1046E0000000C8C20000C84200401C45000016443B
:1046F000002019450000FA430000C843000096431B
:1047000000007A44D002002010B500F001F810BD7E
:104710000CB50020019000903348006840F48030D0
:104720003149086000BF3048006800F40030009054
:104730000198401C0190009818B90198B0F5A06F3D
:10474000F1D12948006800F4003010B10120009038
:1047500001E0002000900098012843D12348006820
:1047600040F01000214908600846006820F007006A
:1047700008600846006840F0020008601A48406877
:10478000194948600846406848600846406840F457
:10479000806048600846406820F47C104860084605
:1047A000406840F4E81048600846006840F08070B7
:1047B000086000BF0C48006800F000700028F9D0C5
:1047C0000948406820F003000749486008464068EF
:1047D00040F00200486000BF0348406800F00C0051
:1047E0000828F9D10CBD0000001002400020024052
:1047F00010B504461023802219460020FEF7B4FEAF
:104800000F480068A04205D20EA308221021002004
:10481000FFF7D3F80A480068A04205D90BA3082285
:1048200010210020FFF7C9F805480068A04205D113
:1048300008A3082210210020FFF7BFF810BD0000D8
:1048400080090020E5A4A7E4BA860000E5B08FE463
:10485000BA860000E5AFB9E4BA86000010B5044698
:104860004FF458712046FBF7DEFC10BD10B54FF435
:10487000FA700749C1F85803002081F85C0303224D
:104880001146034800F006F8014800F0A9F810BDF1
:10489000480400200023A0F84C33A0F84E33012335
:1048A000A0F850330180428070470FB42DE9F843DF
:1048B0003C237E2202210120FEF756FEBDF86E4306
:1048C0001FE008A830F8247000EB8400B0F80280E4
:1048D000012008EB4802022303EB420211B207EB6E
:1048E000470200EB4202009010B206231A46FEF780
:1048F00067FF601CD22190FBF1F201FB1200401C0B
:1049000084B2BDF86C03401CD22190FBF1F201FB94
:104910001200401CA042D4D1BDF87253BDF874639C
:10492000002006EB4602022303EB420211B205EB24
:104930004502012303EB4202009010B206231A46FF
:10494000FEF73EFFBDE8F8035DF814FBB0F84E1328
:10495000491CD22291FBF2F302FB1311491CA0F86F
:104960004E13B0F85013491EA0F8501370470000C2
:1049700010B504463C237E2202210120FEF7F4FDFF
:1049800004A308221E210220FFF717F8052084F84F
:104990005C0310BDE681ADE5969CE4BDA0E4BDA03E
:1049A000E8BE93E4BA86000010B504463C237E229C
:1049B00002210120FEF7D8FD04A308221E210220B7
:1049C000FEF7FBFF052084F85C0310BDE5BE88E917
:1049D0008197E686BEE4BDA0E8B5A2E4BA860000F1
:1049E0002DE9F041044601270025002623E015208B
:1049F000FDF728F985B20A20FDF724F986B2B4F84C
:104A00004E030CE034F82010A94206D104EB8001DB
:104A10004988B14201D101270CE000270AE0B4F82F
:104A20004C13491CD22291FBF2F302FB1311491CD7
:104A30008142E7D100BF002FD9D1A4F852534FF4DF
:104A400055700653BDE8F08170B50146B1F84C03CE
:104A500031F82030B1F84C0301EB80004488152B6D
:104A600001DA0A2C03DB012081F85C0370BDB1F888
:104A70004E2315E031F82200984209D101EB820063
:104A80004088A04204D1022081F85C030120EDE7B8
:104A9000501CD22590FBF5F605FB1600401C82B297
:104AA000B1F84C039042E5D1002081F85C0300BFCF
:104AB000DCE7000070B50446B4F84C0334F820502D
:104AC000B4F84C0304EB800046881C4890F85D0362
:104AD0000D2806D00E2807D00F2808D010280CD19A
:104AE00008E0701E86B208E0701C86B205E0681E01
:104AF00085B202E0681C85B200BF00BF324629467D
:104B0000204600F01DF8B4F85203A84208D14FF433
:104B10005570005BB04203D12046FFF761FF02E011
:104B20002046FFF713FF2046FFF78EFFB4F850032F
:104B30000A2802D1042084F85C0370BD48040020D8
:104B400030B5B0F84C335B1CD22493FBF4F504FB76
:104B500015335B1CA0F84C33B0F84C3320F823100D
:104B6000B0F84C3300EB83035A80B0F850335B1C31
:104B7000A0F8503330BD704710B51548006840F0BC
:104B8000010013490860084640681249084010496E
:104B9000486008460068104908400D49086008460A
:104BA000006820F4802008600846406820F4FE0079
:104BB00048604FF41F008860FFF7A6FD4FF00060CB
:104BC000064908604FF4A060FEF712FC10BD00001B
:104BD000001002400000FFF8FFFFF6FE08ED00E0C5
:104BE000F0B50C46154600220021068C4FF6FE77E4
:104BF0003E400684028B018C4FF60C7632407E1CC0
:104C000006EA03162E433243104EB0420ED0104E29
:104C1000B0420BD0B0F1804F08D00E4EB04205D05C
:104C20000D4EB04202D00D4EB04206D14FF6FD7689
:104C3000314044F00106314305E04FF6F57631404E
:104C400044F00106314302830184F0BD002C014091
:104C5000003401400004004000080040000C004007
:104C6000F0B50C461546002200210026078C4FF6B1
:104C7000EF7C07EA0C070784028B018C4FF6FF7765
:104C800007EA041640F6FF473A404FF6FF7707EA77
:104C900003373A434FF6FF7707EA05273A43114FA8
:104CA000B8420ED0104FB8420BD0B0F1804F08D0B0
:104CB0000E4FB84205D00E4FB84202D00D4FB84249
:104CC00006D14FF6DF77394046F01007394305E04B
:104CD0004FF65F77394044F010073943028301846F
:104CE000F0BD0000002C01400034014000040040F1
:104CF00000080040000C0040F0B50C4615460022AC
:104D000000210026078C4FF6FF6C07EA0C0707848A
:104D1000828B018C4FF6FF7707EA04264FF60C775B
:104D20003A404FF6FF7707EA03172F433A43114FF4
:104D3000B8420ED0104FB8420BD0B0F1804F08D01F
:104D40000E4FB84205D00E4FB84202D00D4FB842B8
:104D500006D14FF6FF57394046F48077394305E0D6
:104D60004FF2FF57394044F48077394382830184FE
:104D7000F0BD0000002C0140003401400004004060
:104D800000080040000C0040F0B50C46154600221B
:104D900000210026078C4EF6FF7C07EA0C070784EB
:104DA000828B018C4FF6FF7707EA043640F6FF4707
:104DB0003A404FF6FF7707EA05273A434FF6FF7769
:104DC00007EA03373A43114FB8420ED0104FB842AA
:104DD0000BD0B0F1804F08D00E4FB84205D00E4F27
:104DE000B84202D00D4FB84206D14DF6FF77394098
:104DF00046F48057394305E047F6FF57394044F4FD
:104E00008057394382830184F0BD0000002C0140AB
:104E1000003401400004004000080040000C004045
:104E200010B50221064800F097F8012806D10221AA
:104E3000034800F071F80348FEF788F910BD000040
:104E4000002C0140AC09002010B501210E4800F0F3
:104E500083F8012816D101210B4800F05DF84FF4CA
:104E600080710A48FCF7DFFE01280BD10848807CDE
:104E7000401C074988740846807C022802DB0846EB
:104E8000FEF79DF910BD0000002C01400008014014
:104E9000AC09002010B501210D4800F054F8A8B16C
:104EA00001210B4800F035F80A48036840685A1C95
:104EB00040F1000007490A604860074803684068FD
:104EC000591C40F10000044A1160506010BD000000
:104ED00000040040700000207800002021B102880A
:104EE00042F08002028004E002884FF67F731A408D
:104EF0000280704730B5002301248C40A3B2048C9B
:104F00009C430484048C02FA01F5ADB22C43048462
:104F100030BDCA4302827047CA430282704721B142
:104F2000028842F00102028004E002884FF6FE731C
:104F30001A4002807047818270470146888E704710
:104F40000146888C704702460020138A0B400BB143
:104F5000012000E00020704730B502460020002309
:104F60000024158A05EA0103958905EA010413B1B5
:104F70000CB1012000E0002030BD000070B50546F6
:104F80000C46244885420ED0234885420BD0B5F10B
:104F9000804F08D02148854205D02148854202D063
:104FA0002048854200D100E000BF208850B9238905
:104FB000A28861882846FFF713FEE188284600F0A2
:104FC00056F925E0208804280AD12389A28861881F
:104FD0002846FFF745FEE188284600F051F917E022
:104FE000208808280AD12389A28861882846FFF7EB
:104FF00083FEE188284600F050F909E02389A28861
:1050000061882846FFF7C0FEE188284600F04EF987
:1050100070BD0000002C014000340140000400403D
:1050200000080040000C00401AB183890B438381C3
:1050300002E083898B438381704701894FF6F872C0
:10504000114001817047000070B500240022002348
:10505000058C4FF6FE7635400584028C8388048BE0
:105060004FF68F752C40B51E2C400D882C43751EB5
:105070002A400D892A434D882A43144DA8420BD05B
:10508000134DA84208D0134DA84205D0124DA84296
:1050900002D0124DA84213D14FF6F7752A404D8920
:1050A0002A434FF6FB752A408D882A434FF6FF6549
:1050B0002B404FF6FF552B408D892B43CD892B4339
:1050C00083800483CD888586028470BD002C0140D6
:1050D00000340140004001400044014000480140CC
:1050E00070B5002400220023058C4FF6EF76354082
:1050F0000584028C8388048B48F6FF752C404FF69C
:10510000FF452C400D884FF6FF7606EA05252C4317
:105110004FF6DF752A400D8906EA05152A434D88AA
:1051200006EA05152A43154DA84202D0144DA8429F
:105130001DD14FF67F752A404D894FF6FF7606EA5E
:1051400005152A434FF6BF752A408D8806EA0515D6
:105150002A434FF6FF352B404FF2FF752B408D89C8
:1051600006EA85052B43CD8906EA85052B43838016
:105170000483CD880587028470BD0000002C0140A7
:105180000034014070B5002400220023058C4FF646
:10519000FF6635400584028C8388848B4FF68F75BB
:1051A0002C404FF6FC752C400D882C434FF6FF55D4
:1051B0002A400D894FF6FF7606EA05252A434D88D9
:1051C00006EA05252A43154DA84202D0144DA842EF
:1051D0001DD14FF2FF752A404D894FF6FF7606EA42
:1051E00005252A434FF6FF352A408D8806EA052516
:1051F0002A434EF6FF752B404DF6FF752B408D89E7
:1052000006EA05152B43CD8906EA05152B43838055
:105210008483CD888587028470BD0000002C014006
:10522000003401400021018041808180C1800181E2
:1052300041818181C181704721B1828842F0800221
:10524000828004E082884FF67F731A408280704724
:1052500002884FF6FF431A40028002880A43028008
:105260007047818670470187704781877047028B3E
:105270004FF6F3731A400283028B0A43028370478E
:10528000028B4FF2FF331A400283028B4FF6FF73FB
:1052900003EA01231A4302837047828B4FF6F373AC
:1052A0001A408283828B0A4382837047828B4FF23B
:1052B000FF331A408283828B4FF6FF7303EA012388
:1052C0001A43828370470000002202881D4B9842D7
:1052D0000ED01D4B98420BD0B0F1804F08D01B4B25
:1052E000984205D01A4B984202D01A4B984204D1EA
:1052F0004FF68F731A404B881A43174B984207D0CA
:10530000164B984204D04FF6FF431A40CB881A43FD
:1053100002808B8883850B8803850A4B98420BD0CB
:10532000094B984208D00E4B984205D00D4B98423D
:1053300002D00D4B984201D10B7A03860123838260
:1053400070470000002C0140003401400004004080
:1053500000080040000C0040001000400014004015
:10536000004001400044014000480140074890F8D7
:10537000DB00062800D17047044890F8DB00401C91
:10538000024981F8DB0000BFF5E700005A03002066
:105390002DE9F047FBF7AAFE04460D46002037E052
:1053A00000EB4007DFF870C00CEB07173F6807B948
:1053B0002CE000EB4007DFF860C00CEB0717D7E9E3
:1053C000041200EB40070CEB0717FB6900EB4007EA
:1053D0000CEB0717BE68B4EB010865EB020703EBA3
:1053E000060CB8EB0C0C77F100070ED3002700EB8E
:1053F000400CDFF8248008EB0C1C8CF8047000EBE8
:10540000400C08EB0C1CCCF81C7000BF411C88B28F
:105410000A28C5DBBDE8F087C000002010B5FCF706
:10542000FDFA08488078084901EBC0004468074845
:1054300000F04AFF4FF47A73052232212046FFF72D
:1054400021F810BD080000200C000020CD2F00081E
:1054500010B588B04B4C07A8FCF750FF401C08B9AA
:1054600008B010BD9DF81C000B38072848D2DFE8B3
:1054700000F01F2A4747041130004348007818B94C
:1054800005204149087004E03F480078401E3E492D
:10549000087048E03C480078052803D100203A49CC
:1054A000087004E038480078401C374908703AE03A
:1054B000364800F009FF4FF47A7305223221344850
:1054C000FEF7E0FF2FE000202F49097824F81100B3
:1054D00029E020882F490880A07888702079C8703A
:1054E000A0790871207A4871A07A8871084601680D
:1054F00005914068014606900598FEF745FF12E0C9
:105500009DF81C00092800DD0DE01F48007834F8E4
:1055100010009DF81C100A2202FB00101A4909789D
:1055200024F8110000BF00BFFEF70AF81AA30822F2
:1055300000210846FEF741FA1BA308221021002093
:10554000FEF73BFA60892189E288A388CDE902321F
:10555000CDE904106088218817A30622CDE9001048
:1055600020210020FEF729FA0748007834F81000BF
:1055700016A30822302100900020FEF71EFA00BF7B
:105580006EE7000048030020560000205154000838
:10559000010D00084E000020E69BB4E694B9E5AE8C
:1055A0008CE5868D4F4B0000E5B7A6E58FB3E994F7
:1055B000AEE98089E68BA90025642D25642D25643C
:1055C0002D25642D25642D25640000002564000030
:1055D00010B540F22551074800F00EF8012807D118
:1055E000044800F09DF8C4B2204600F02FF800BF38
:1055F00010BD00000048004070B5024600240023A2
:105600000025002040F66A16B14200D100BFC1F368
:10561000421501F01F03012606FA03F3012D02D102
:105620009689334006E0022D02D1168A334001E00C
:10563000968A33400C12012606FA04F41688344088
:1056400013B10CB1012000E0002070BD324909788F
:1056500011B101295DD114E088280ED100212E4A14
:10566000517211464A7A491C8854491E497A491C8C
:10567000294A51720121117002E00021264A51721B
:1056800047E025494A7A491C8854491E497A491CF1
:10569000214A51721146497A052902D0082936D18A
:1056A0001AE01D49C97805290AD11B49497966299B
:1056B00006D10121194A11700021174A11700AE020
:1056C0001549C978052906D11349497A052902D116
:1056D0000021114A11701AE00F49C97808290AD12E
:1056E0000D49097A662906D101210C4A1170002161
:1056F000094A11700AE00849C978082906D1064903
:10570000497A082902D10021034A117000BF00BF65
:1057100000BF00BF70470000C0090020AC0000209F
:1057200001468888C0F30800704700BFFEE700000C
:1057300037B514460846064B6A46214600F0DCF8A9
:1057400004466946002000F05AFC20463EBD000099
:10575000FF5F000802E008C8121F08C1002AFAD142
:1057600070477047002001E001C1121F002AFBD1E1
:10577000704700002DE9FF5F82B00021DDE90430B1
:10578000020DDDF840B0034318D044F61050A2F2E9
:10579000FF3242431514119801281FD0A5EB0B00CE
:1057A000401C5FEA000A4FF000064E4FDFF83891C8
:1057B000B046504615D5CAF1000413E011980124F3
:1057C0004AA3012801D16FEA0B010298119AC0E99E
:1057D0000031C0E9024206B0BDE8F09FCBF1000005
:1057E000DFE704460021404A491842EB0450CDE966
:1057F000001012E0E00707D032463B4640464946DB
:10580000FAF7A5FE8046894632463B4610461946C1
:10581000FAF79DFE06460F466410002CEAD1DDE93A
:105820000401DDE90023BAF1000F06DAFAF78FFE72
:1058300042464B46FAF78BFE05E0FAF7FAFE42467F
:105840004B46FAF7F6FE04460E460022284BFAF7BE
:1058500087FF03D84FF0FF30014607E00022254BB9
:1058600020463146FAF7CCFDFBF71AF9102409E07F
:10587000002C0ADB0A220023FAF7D0FF039B303208
:105880001A55641E50EA0102F2D1641C039AC4F155
:1058900011031444119A012A03D0012208430DD1A7
:1058A0000AE0084304D000204FF0110B119072E77A
:1058B000A3EB0B056D1E0DE05B4504DD4FF0000210
:1058C00005F1010504E003DA4FF00002A5F101053E
:1058D000002AECD002981199C0E90231C0E90045D4
:1058E00079E70000000014400000F03F30000000A5
:1058F0000000F0430000E03F2DE9FF4F95B09A46CD
:10590000884606460025EEE1252877D10024274663
:10591000F94A0121039400E0044316F8013F203BBB
:1059200001FA03F01042F7D130782A2811D06FF035
:105930002F033078A0F13002092A16D8039A44F0D8
:10594000020402EB820203EB42021044761C039035
:10595000EFE758F8042B0392002A03DA504244F48C
:105960000054039044F00204761C30782E2816D19F
:1059700016F8010F44F004042A280DD06FF02F020E
:105980003078A0F13003092B09D807EB870302EB2D
:105990004303C718761CF3E758F8047B761C30786D
:1059A0006C280FD006DC4C2817D068280DD06A2848
:1059B00014D104E0742810D07A280FD10DE044F4FB
:1059C00000140AE044F4801401E044F440147278B6
:1059D000824202D104F58014761C761C3078662849
:1059E0000BD013DC582877D009DC002875D0452867
:1059F000F6D04628F4D047281AD193E118E063285E
:105A000035D0642879D0652812D18BE1702873D005
:105A100008DC6728F1D069286FD06E280DD06F2878
:105A200006D1ACE073282CD0752874D0782853D0D8
:105A30005246179990476D1C54E1C4F30250022856
:105A400009D003280DD0D8F8001004280DD00D601F
:105A500008F1040846E1D8F80010EA17C1E900523D
:105A6000F6E7D8F800100D80F2E70D70F0E718F8AF
:105A7000041B8DF8001000208DF80100EB4601207A
:105A800003E058F804BB4FF0FF3061074FF000010E
:105A900002D40DE009F101018946B9420FDA8145CE
:105AA000F8DB1BF809100029F4D108E009F1010125
:105AB00089468142FADB1BF809100029F6D10398C8
:105AC0005346A0EB090721463846179A00F080FAA2
:105AD000284400EB090507E044E008E10DE01BF86D
