:020000040800F2
:10000000281E002005010008F9400008592F0008AB
:100010008D3C0008F11F00088F68000800000000F8
:100020000000000000000000000000005D54000817
:10003000412800080000000035500008535B00080C
:100040001F0100081F0100081F0100081F01000810
:100050001F0100081F0100081F0100081F01000800
:100060001F0100081F0100081F0100081F010008F0
:100070001F0100081F0100081F0100081F010008E0
:100080001F0100081F0100081F0100081F010008D0
:100090001F0100081F0100081F0100081F010008C0
:1000A0001F010008255E00081F010008FD5D000813
:1000B0001F010008715E00081F0100081F010008F1
:1000C0001F0100081F0100081F0100081F01000890
:1000D0001F0100081F0100081F010008AD6500088E
:1000E0001F0100081F0100081F010008DFF810D0E1
:1000F00000F07EFD004800476D710008AFF30080FE
:10010000281E00200648804706480047FEE7FEE715
:10011000FEE7FEE7FEE7FEE7FEE7FEE7FEE7FEE7B7
:10012000555B0008ED0000080649074A086850437F
:1001300043F23902104408604008704701490860E2
:1001400070470000CC0000206D4EC64138B5D0E9A4
:100150000221491E01EB410102EBC1014268C1EBE2
:10016000011102EB81010268C1EB011102EB810276
:10017000D0E9043101EB410103EB81013023A1F50A
:10018000527191FBF3F4174D6C4302EBC41291FBD7
:10019000F3F403FB141100921A2902DB124B1A44E8
:1001A00000920C2291FBF2F3104C6343009C04EB91
:1001B000C313009391FBF2F302FB13110C4A08E006
:1001C000491E40F2A324535C6343009C04EBC31319
:1001D00000930029F4DC0146684600F0D3FB009848
:1001E00038BD00003F0C0F008051010067C20300C2
:1001F0002F8B000840EA01039B0703D009E008C9E0
:10020000121F08C0042AFAD203E011F8013B00F8DB
:10021000013B521EF9D27047D2B201E000F8012B27
:10022000491EFBD270470022F6E710B513460A4676
:1002300004461946FFF7F0FF204610BD10B50446EE
:1002400004E00B7800F8013B03B1491C521EF8D2C0
:10025000204610BD10B5002200E0521C835C8C5C6F
:10026000A34201D1002BF8D1D8B2E1B2401A10BD9F
:10027000F0B480EA0102D40F4200B2EB410F02D287
:100280000246084611464A0042D0C30DDDB2C1F312
:10029000C752AD1A202D35DAC1F3160141F4000220
:1002A00004B15242C5F1200602FA06F12A41104477
:1002B000B3EBD05F23D0C4B1012DA0EBC35009DC58
:1002C000F0BC4FF0004202EAC352DBB200F500007E
:1002D00000F0A7BB400000F1807000EBC350A0F11C
:1002E000807040EAD170490009E0490841EAC071D4
:1002F000A0EBC35000F50000400800EBC350F0BC79
:1003000000F086BB6142012202EB4101001BF6E7CF
:10031000F0BC704781F00041AAE780F00040A7E7F9
:1003200080EA010210B502F00043400022D04A00EA
:100330001FD0010E01EB1261C0F35600C2F356024A
:1003400040F4000042F40002A0FB022000047F39C8
:10035000140400D0401C50EA124001D44000491E51
:10036000C2B20C0604EBD010401C4008802A02D018
:1003700003E0002010BD20F00100002900DA002079
:10038000184310BD30B480EA010202F0004530F09D
:10039000004221F0004013D090B1C30DD40DC2F340
:1003A0001601C0F31600E41A41F4000140F4000203
:1003B0007D34914201D3641C00E04900002C02DA34
:1003C00030BC002070474FF400000023914201D35D
:1003D000891A034340084FEA4101F7D151B19142D4
:1003E00002D14FF0004105E002D24FF0010101E0DF
:1003F0006FF0010103EBC450284430BC00F008BB8F
:100400002DE9FE4F804681EA0300C00F0C460090A4
:1004100021F0004123F00045B8EB0200A94105D2CC
:100420004046214690461C460B46024623F00040BB
:10043000104347D0270DC7F30A00C3F30A510290B7
:10044000401A019040286BDAC3F3130040F4801B7C
:100450000098924620B10023D2EB030A63EB0B0B0A
:1004600001985946C0F14002504600F054FA064641
:100470000D4650465946019A00F06CFA10EB080000
:100480006141002487EA115284EAE7731A4340D09D
:10049000009A62B3019A012A4FEA075215DC001B49
:1004A00061EB02014FF0004202EA0752CDE900423F
:1004B000001C41F5801132462B4600F0EFFA03B0E4
:1004C000BDE8F08F40462146F9E7001B61EB0201D1
:1004D000001C41F5801300185B412018A2F500179D
:1004E00047EB030140EAD570B6196D4111E06D0884
:1004F0004FEA360645EAC0754FEA0752001B61EB2A
:100500000201001C41F5801149084FEA3000001932
:10051000514132462B4603B0BDE8F04F00F0AFBA70
:100520000098012240000023D0EB020263EBE0734D
:10053000009821464FEAE074B8EB000061EB04013B
:10054000E9E783F000435BE781F0004158E72DE9DC
:10055000FE4F81EA030404F0004421F000410094BE
:100560004FF0000B23F0004350EA01045ED052EA42
:1005700003045BD0C3F30A54C1F30A552C44A4F21C
:10058000F3340194A0FB0254C1F3130141F4801130
:10059000C3F3130343F4801301FB024400FB034E37
:1005A000840A970A44EA815447EA8357A4FB076800
:1005B00002958D0A05FB07854FEA932C04FB0C542A
:1005C0002705029D4FEA065847EA1637B5EB08059E
:1005D0006EEB070C870E920E47EA811742EA8312F0
:1005E000A7FB0201B6EB0B0164EB00042B0D43EA01
:1005F0000C335E1844EB1C50DA465146E7FB02010F
:10060000C5F313044FEA0B3343EA14534FEA0432A1
:10061000019C43EA0603A4F10C040294009CCDE97A
:1006200000B400F03BFA03B0BDE8F08F00200146B3
:10063000F9E72DE9F04D81EA030404F0004B21F0C5
:10064000004514464FF0000A23F0004150EA05022D
:1006500020D054EA01021DD0C5F30A570246C5F363
:100660001303C1F31300C1F30A5640F4801543F499
:100670008013A7EB0608101BD64608F2FD3873EB73
:10068000050002D308F1010801E092185B41B8F1BE
:10069000000F03DA00200146BDE8F08D00204FF482
:1006A0008011064684460EE0171B73EB050705D341
:1006B000121B63EB050306434CEA010C49084FEAA1
:1006C000300092185B4150EA0107EDD152EA030075
:1006D00012D082EA040083EA0501084305D0101B0A
:1006E000AB4106D20122002306E000224FF0004376
:1006F00002E06FF0010253101AEB06004CEB0851B8
:1007000010EB0A0041EB0B01BDE8F04D00F0B7B96A
:10071000C10F80EAE0700844CA079623002100F068
:1007200080B996230022114600F07BB90EB540F245
:10073000334102910021CDE900110A460B4600F039
:10074000ADF903B000BD20F00040C10DC0F31600AC
:1007500040F400007F2901DA00207047962903DC6D
:10076000C1F19601C8407047963988407047C1F37F
:100770000A5210B5C1F3130140F2FF3341F4801166
:100780009A4201DA002010BD40F233439A42A2F2AD
:10079000334203DC524200F0CDF810BD904010BD52
:1007A00000F0004230F000400AD0C10D01F5607148
:1007B000C0F3160042EA0151C208400711437047D6
:1007C000002001467047000030B5041E71F100049E
:1007D00004DB4FF00044404264EB0101141E73F14E
:1007E000000405DB1C464FF00043524263EB040358
:1007F0008B4208BF824230BD30B5041E71F1000447
:1008000004DB4FF00044404264EB0101141E73F11D
:10081000000405DB1C464FF00043524263EB040327
:10082000994208BF904230BD01F0004330B421F03E
:10083000004150EA010206D00A0DA2F56072C1F330
:100840001301002A02DC30BC00207047440F44EA48
:10085000C104C100E01830BC00EBC25000F0D8B8B1
:10086000002801DBC0F10040002901DBC1F100419B
:1008700081427047002801DBC0F10040002901DB04
:10088000C1F100418842704730B50B460146002057
:100890002022012409E021FA02F59D4205D303FA42
:1008A00002F5491B04FA02F52844151EA2F10102C3
:1008B000F1DC30BD2DE9F05F0546002092469B46F5
:1008C00088460646814640241BE028464146474666
:1008D000224600F02FF853465A46C01A914110D3D1
:1008E00011461846224600F016F82D1A67EB01084B
:1008F0004F4622460120002100F00DF817EB0009B9
:100900004E41201EA4F10104DFDC484631462A4650
:100910004346BDE8F09F202A04DB203A00FA02F1AA
:10092000002070479140C2F1200320FA03F31943DD
:1009300090407047202A04DB203A21FA02F000217F
:10094000704721FA02F3D040C2F1200291400843DF
:1009500019467047202A06DBCB17203A41FA02F0ED
:1009600043EAE07306E041FA02F3D040C2F120020C
:100970009140084319467047014900F003B8000050
:10098000F80D002010B500683C22B0FBF2F302FB2A
:100990001303B0FBF2F00B60B0FBF2F302FB1303A6
:1009A000B0FBF2F018224B60B0FBF2F302FB130332
:1009B000B0FBF2F0021D8B600723B2FBF3F403FBE4
:1009C0001422800040F2B55300F66C308A61B0FB0F
:1009D000F3F2B0FBF3F403FB1400443280084A61E5
:1009E000C8613B2802D3920700D0401C0022074C6C
:1009F00013460A61E25C824203D8801A5B1C0B61D9
:100A0000F8E7401CC860084610BD00003B8B00089A
:100A10000029A8BF7047401C490008BF20F0010012
:100A2000704710B4B0FA80FC00FA0CF050EA0104F0
:100A300004BF10BC704749B1CCF1200421FA04F482
:100A400011FA0CF118BF012121430843A3EB0C015B
:100A5000CB1D4FEA00614FEA102042BF002010BCBE
:100A6000704700EBC35010440029A4BF10BC70476E
:100A7000401C490008BF20F0010010BC704710B5B1
:100A8000141E73F1000408DA401C41F100019218B1
:100A90005B411A4301D120F0010010BD2DE9F04D5A
:100AA00092469B4611B1B1FA81F202E0B0FA80F2AF
:100AB00020329046FFF72FFF04460F4640EA0A0017
:100AC00041EA0B0153465A46084313D0114653EAF4
:100AD000010019D0C8F140025046FFF72BFF054630
:100AE0000E46504659464246FFF715FF084305D0CB
:100AF000012004E020463946BDE8F08D0020054382
:100B000046EAE0762C4337430A986305E40AA0EBF3
:100B100008000022FD0A44EA47540A3002D50020AA
:100B20000146E9E7010510196941DDE908450019A9
:100B30006941BDE8F04DA2E72DE9F041054621F0FD
:100B400000400C46284309D0C4F30A5040F2334118
:100B5000884205DD28462146BDE8F0812846FBE7AE
:100B600040F2FE31884210DC0CDB4FEA043040EAF0
:100B7000155050EA053105D0104804F000410143FA
:100B80000020E9E700200146E6E7A0F233404642B4
:100B9000C6F1400228462146FFF7BDFE07468846BB
:100BA000284621463246FFF7C5FE43463A46FFF740
:100BB00066FF3246BDE8F041FFF7ADBE0000F03FF2
:100BC000C1F30A52C1F3130140F2FF3341F4801123
:100BD0009A4202DA00200146704740F233439A42BB
:100BE000A2F2334202DC5242FFF7A4BEFFF793BEEB
:100BF000064C074D06E0E06840F0010394E807006A
:100C000098471034AC42F6D3FFF774FAE88B00082B
:100C1000088C000821B1826842F00102826003E082
:100C2000826822F001028260704721B1826842F43A
:100C30008072826003E0826822F480728260704772
:100C4000014600208A6802F004020AB1012000E097
:100C500000207047014600208A6802F008020AB1AD
:100C6000012000E00020704730B50246002000233C
:100C700050680F4C20400D790C6844EA052420434D
:100C8000506090680B4C2040D1E902542C434D79C0
:100C900044EA450420439060D06A20F470000C7C44
:100CA000641EE4B2234340EA0350D06230BD00002A
:100CB000FFFEF0FFFDF7F1FF2DE9F05F05460C4662
:100CC000A54224DD2046FFF72CFD82462049FFF790
:100CD00024FB80462046FFF71BFD82462846FFF78F
:100CE00020FD83465146FFF715FB81464146FFF73D
:100CF00049FB07461749FFF713FB064616493046DE
:100D0000FFF7B8FD00D8134E3046BDE8F09F2046EF
:100D1000FFF7FEFC81462046FFF703FD824628468A
:100D2000FFF7FFFC83465146FFF7F4FA8046494639
:100D3000FFF728FB07460749FFF7F2FA064607497F
:100D40003046FFF78DFD00D8054E3046DDE7000048
:100D500000F07F450000B4420000AE420000AEC289
:100D60000000B4C22DE9F05F05460C46A54224DD23
:100D70002046FFF7D6FC82462049FFF7CEFA804690
:100D80002046FFF7C5FC82462846FFF7CAFC83468B
:100D90005146FFF7BFFA81464146FFF7F3FA07468F
:100DA0001749FFF7BDFA064616493046FFF762FDC0
:100DB00000D8134E3046BDE8F09F2046FFF7A8FC50
:100DC00081462046FFF7ADFC82462846FFF7A9FC86
:100DD00083465146FFF79EFA80464946FFF7D2FA0E
:100DE00007460749FFF79CFA064607493046FFF7D2
:100DF00037FD00D8054E3046DDE7000000F07F45A6
:100E00000000C8420000C2420000C2C20000C8C2C6
:100E1000F0B504460D4600200021092D11DDE068E3
:100E2000A5F10A0606EB4607072606FA07F18843EE
:100E3000A5F10A0606EB460603FA06F10843E06050
:100E40000CE0206905EB4507072606FA07F1884301
:100E500005EB450603FA06F108432061072A0FDA7D
:100E6000606B561E06EB86071F2606FA07F18843BD
:100E7000561E06EB860605FA06F10843606322E07B
:100E80000D2A0FDA206BD61F06EB86071F2606FAFF
:100E900007F18843D61F06EB860605FA06F10843DC
:100EA000206310E0E06AA2F10D0606EB86071F261C
:100EB00006FA07F18843A2F10D0606EB860605FA4D
:100EC00006F10843E062F0BD816841F008018160ED
:100ED000704721B1826842F4A002826003E0826818
:100EE00022F4A00282607047816841F004018160B1
:100EF000704700002DE9F0472648007E00EB4000D7
:100F0000254901EB80040220224988700846858A21
:100F100005EB8501606850F8216005EB850160688C
:100F200000EB8100476805EB8501606800EB8100FC
:100F3000D0F8088005EB8501606800EB8100D0F8EF
:100F40000C9005EB8501606800EB8100B0F810A003
:100F50004B4642463946304600F046FE0D48808AF0
:100F6000401C0C498882504606F0F0FA2089A842BD
:100F70000ED14B4642463946304600F035FE002041
:100F800004498882054806F0F9FA00200149887072
:100F9000BDE8F0879C090020BC780008F50E000829
:100FA0000348807810B9012001498870704700001B
:100FB0009C09002010B50648807800B910BD0020BB
:100FC000034988828870034806F0D8FA00BFF5E725
:100FD0009C090020F50E000838B5684602F054F868
:100FE000012815D19DF800000C2811D11848C0889F
:100FF00002280DD100231A461946164801F070F850
:10100000AFF22B0006F0BAFA00201149C88038BDB3
:101010000F4C04F047F91048C0782188884215D158
:101020000D4800796188884210D10B484079A18829
:1010300088420BD1E088012808D10220E0804FF4DB
:10104000FA731A460221034801F04AF800BFDEE7AE
:101050005003002030030020AC00002008B500F051
:101060006FF9684602F010F8401C00B908BD9DF801
:1010700000000B2821D00D2804D00E280FD01128F5
:101080002CD126E01748007D18B9022015490875B3
:1010900004E01448007D401E124908751EE0114806
:1010A000007D022803D100200E49087504E00D4898
:1010B000007D401C0B49087510E0AFF25F0006F0A0
:1010C0005DFA4FF47A7305223221074804F0C8F91B
:1010D00004E00449087D06F0B3F800BF00BF00BF7C
:1010E000C4E7000050030020593D000810B504F08B
:1010F00079F91948194908604FF480408880002028
:101100008871084600F076FF04F0CCF814481549C1
:101110000A680260496841604FF47A7306223C21F4
:10112000114804F09DF90E480088104908810C48C8
:1011300081780E4841810A48C1780C48818108486D
:1011400001790A48C181064841790848018204486A
:1011500081790648418210BD000C01403003002017
:101160004E000020AC000020512000085003002059
:101170001CB5614C03F0A2F8208860A3082200216E
:101180000090084603F0E1FA60885EA3082210216F
:101190000090002003F0D9FAA0885CA30822202147
:1011A0000090002003F0D1FAE08828B959A3082262
:1011B0003021002003F0C9FAE088012802D0E0883D
:1011C000022805D156A308223021002003F0BDFAE1
:1011D00056480078010110238022002003F0CEFA47
:1011E00001A801F051FF401C00B91CBD9DF804008E
:1011F0000B38072864D2DFE800F01F2A041163636C
:1012000030004A48007818B903204849087004E0C3
:1012100046480078401E4549087069E04348007818
:10122000032803D100204149087004E03F480078BA
:10123000401C3E4908705BE03D4806F09FF94FF4C2
:101240007A73052232213B4804F00AF950E000206D
:101250003649097824F811004AE034480078032818
:1012600000D045E03148007834F8100060B9012022
:101270002E49097824F811004FF4FA730622FA2156
:101280002D4804F0EDF81AE02848007834F81000F2
:10129000012805D02548007834F8100002280ED126
:1012A0004FF4FA731A460021244800F019FF22482F
:1012B00006F064F900201D49097824F8110017E0B0
:1012C0009DF80400092804DD18480078032800D0A0
:1012D0000EE01648007834F8100000EB80009DF80E
:1012E000041001EB40001149097824F8110000BFF7
:1012F00000BF00BF79E70000500300206461793A25
:1013000025640000686F75723A2564006D696E3A55
:1013100025640000416C61726D204F46460000005C
:10132000416C61726D204F4E00000000570000209C
:10133000711100085D100008D90F0008300300206B
:1013400000B587B002F0BAFF03F0ACFF1A4880790D
:1013500019494979184A1279174BDB78CDE90232DD
:10136000CDE90410144880781349098813A3062294
:10137000CDE900100021084603F0E7F914A3082284
:101380001021002003F0E1F914A3082220210020FD
:1013900003F0DBF914A308223021002003F0D5F973
:1013A0001348007D000100F110011023802200206D
:1013B00003F0E4F907B000BDAC00002025642D2542
:1013C000642D25642D25642D25642D2564000000E1
:1013D0005365742054696D650000000053657420E6
:1013E000416C61726D00000042757A7A696E670027
:1013F000500300202DE9F047064606F1200406F1CF
:101400001005304603F0D0FFF0894FF40061FFF77C
:1014100053FC07464FF07E51FEF782FF2060708933
:1014200040F2BC71FFF748FC07464FF07E51FEF7D3
:1014300077FF6060B0894FF40061FFF73DFC07461D
:101440004FF07E51FEF76CFFA06030894FF40061D1
:10145000FFF788FC07464FF07E51FEF761FFE06022
:1014600029682068FEF756FF8146FFF799F921F0B9
:101470000041074600224FF08043FFF7BDF901D23B
:101480002068286069686068FEF744FF8146FFF7BE
:1014900087F921F00041074600224FF08043FFF713
:1014A000ABF901D260686860A968A068FEF732FFF6
:1014B0008146FFF775F921F00041074600224FF001
:1014C0008043FFF799F901D2A068A860E968E06855
:1014D000FEF720FF8146FFF763F921F00041074640
:1014E00000224FF08043FFF787F901D2E068E860FF
:1014F000BDE8F0872DE9F05F06460C461546294603
:101500002046FEF707FF82460D493046FEF7B0FE43
:1015100083465146FEF704FF81460A49FEF732FF33
:1015200080462146FEF7F9FE07464FF07C513846CB
:10153000FEF79EFE8046FFF706F980B2BDE8F09FF9
:101540000000B4420000344301490868496870470C
:10155000700000201FB50121022003F099FD002139
:10156000022003F095FD0121022003F081FD0121FD
:10157000164804F0A1FC4720ADF8040040F2E73023
:10158000ADF808000020ADF8060001A90F4804F0EE
:1015900089FE01210D4804F0BCFC012211460B48D4
:1015A00004F030FD1D208DF8000000208DF80100B2
:1015B00001208DF802008DF80300684602F09EFDC0
:1015C0000121024804F099FC1FBD00000004004006
:1015D000F8B505460E4602F071FE002415E004EB56
:1015E000440056F82000210109A3082200900020A1
:1015F00003F0ABF8287EA04205D121011023802200
:10160000002003F0BBF8601CC4B2032CE7DBF8BD7C
:101610002573000038B50446684601F035FD401CCE
:1016200000B938BD9DF800000B2802D100202070C1
:1016300000BF00BF00BFF4E72DE9FE43804600F085
:10164000B9FA044600F0BAFA074602F037FE2DA3B5
:1016500008220021084603F078F82068FFF7A0F878
:1016600005460B46082003210222CDE90021029005
:101670002A460021282003F005F924A3082210217E
:10168000002003F062F86068FFF78AF805460B4611
:10169000082003210222CDE9002102902A461021D0
:1016A000282003F0EFF81BA308222021002003F0DC
:1016B0004CF8A068FFF774F805460B460820032194
:1016C0000222CDE9002102902A462021282003F0A1
:1016D000D9F812A308223021002003F036F8E06880
:1016E000FFF75EF805460B46082003210222CDE9EC
:1016F000002102902A463021282003F0C3F8BDE8DB
:10170000FE8300004261736520000000526F6C6C24
:1017100020000000506974636800000046616E207C
:101720002000000038B50446684601F0ADFC401CBE
:1017300000B938BD9DF800000B2848D00D2804D012
:101740000E2815D011284DD125E02848807D00288D
:1017500009DD2648807D401E24498875084640786A
:10176000401E487003E0032020498875487039E026
:101770001E48807D032809DA1C48807D401C1B49D7
:10178000887508464078401C487003E000201749DF
:101790008875487026E01548407830B1012808D097
:1017A00002280AD0032810D10BE001200F4908704D
:1017B0000BE002200D49087007E003200B49087078
:1017C00003E004200949087000BF00BF0AE04FF49D
:1017D0007A7305223221064803F042FE054805F0DF
:1017E000CDFE00BF00BF00BFA3E700009C090020A2
:1017F000593D00082D18000810B500F0F0F901F06F
:1018000067FD4FF47A7304220A21064803F028FE8C
:10181000002005494870087088708875C87508767A
:1018200010BD0000F91800089C09002010B50248FE
:1018300000F026F810BD00009C09002038B50546D0
:1018400002F03CFD002414E00B4850F82400210174
:101850000AA308220090002002F077FFA87DA04292
:1018600005D1210110238022002002F087FF601C97
:10187000C4B2042CE8DB38BD5C00002025730000F6
:1018800010B504462078052831D2DFE800F0030ABD
:1018900011181F002046FFF745FF2046FFF7CEFF37
:1018A00025E0204600F048F8204600F0F3F91EE05D
:1018B0002046FFF7C1FE2046FFF7ACFE17E02046AA
:1018C000FFF7BAFE2046FFF7A5FE10E0A07838B972
:1018D00008492046FFF77CFE204600F029F905E084
:1018E000204600F055F92046FFF7A6FE00BF00BFD6
:1018F00010BD0000BC78000810B50E48407830B12B
:10190000012807D002280AD0032810D10AE000F0ED
:10191000B5FA0CE000F0B2FA03F056FB07E000F075
:10192000ADFA04E000F004FD00F0A8FA00BF00BF2B
:1019300010BD00009C0900202DE9FE43044600F084
:1019400039F9054600F03AF9064602F0B7FC70A3F3
:1019500008220021084602F0F8FE2868FEF720FF62
:1019600007460B46062003210222CDE90021029002
:101970003A460021282002F085FF3068FEF710FF6C
:1019800007460B46062003210222CDE900210290E2
:101990003A460821282002F075FF6068FEF700FF34
:1019A00007460B46082001210222CDE900210290C2
:1019B0003A460021552002F065FF57A30822102166
:1019C000002002F0C2FE6868FEF7EAFE07460B46FA
:1019D000062003210222CDE9002102903A4610217F
:1019E000282002F04FFF7068FEF7DAFE07460B462C
:1019F000062003210222CDE9002102903A46182157
:101A0000282002F03FFFA068FEF7CAFE07460B46FB
:101A1000082001210222CDE9002102903A4610213E
:101A2000552002F02FFF3EA308222021002002F0C3
:101A30008CFEA868FEF7B4FE07460B46062003217D
:101A40000222CDE9002102903A462021282002F00E
:101A500019FFB068FEF7A4FE07460B4606200321D7
:101A60000222CDE9002102903A462821084602F0E0
:101A700009FFE068FEF794FE07460B4608200121A7
:101A80000222CDE9002102903A462021552002F0A1
:101A9000F9FE25A308223021002002F056FEE86856
:101AA000FEF77EFE07460B46062003210222CDE903
:101AB000002102903A463021282002F0E3FEF0682F
:101AC000FEF76EFE07460B46062003210222CDE9F3
:101AD000002102903A463821282002F0D3FE2069E6
:101AE000FEF75EFE07460B46082001210222CDE9E3
:101AF000002102903A463021552002F0C3FEE07DDD
:101B0000010110238022552002F038FEBDE8FE833B
:101B10004261736520000000526F6C6C2000000071
:101B2000506974636800000046616E202000000068
:101B300038B50446684601F0A7FA401C00B938BD24
:101B40009DF800000B281DD00D2804D00E280CD0C5
:101B500011281AD113E0207E002803DD207E401ECC
:101B6000207601E0032020760FE0207E032803DAB0
:101B7000207E401C207601E00020207605E0FFF763
:101B80000FFA02E00020207000BF00BF00BFD6E7C0
:101B900038B50446684601F077FA401C00B938BDF4
:101BA0009DF800000B2802D1FFF704FA00BF00BF28
:101BB00000BFF4E700487047E0020020004870478B
:101BC000F002002070B505460C4600212846FEF7BD
:101BD00051FE01D8204670BD84F00040FBE710B5EF
:101BE00005F05CFB10BD00002DE9F04107460C46F6
:101BF00015461E4622493846FEF732FE01D22048DD
:101C000007E020493846FEF735FE01D21D4800E0C6
:101C100038461D4908601A492046FEF721FE01D2C8
:101C2000174807E017492046FEF724FE01D2154861
:101C300000E020461449486011492846FEF710FE8E
:101C400001D20F4807E00F492846FEF713FE01D2E4
:101C50000C4800E028460C4988600C493046FEF7E5
:101C6000FFFD01D2094807E009493046FEF702FEB0
:101C700001D2074800E030460349C860BDE8F08162
:101C80000000B4C20000B442F00200200000C8C24C
:101C90000000C842F8B50446684601F0F5F9401C5A
:101CA00000B9F8BD9DF800000B3807287FD2DFE8A7
:101CB00000F06366040E183B5E00E07D002803DD43
:101CC000E07D401EE07501E00320E075CFE0E07D9F
:101CD000032803DAE07D401CE07501E00020E07598
:101CE000C5E0E07D30B101280AD002280ED00328DB
:101CF00018D111E05F496068FEF70CFB606011E0ED
:101D00005C49A068FEF706FBA0600BE05949E0685B
:101D1000FEF700FBE06005E056492069FEF7FAFA9D
:101D2000206100BF00BFA2E0E07D30B101280AD0F1
:101D300002280ED0032818D111E04E496068FEF742
:101D400097FA606011E04B49A068FEF791FAA06035
:101D50000BE04849E068FEF78BFAE06005E0454992
:101D60002069FEF785FA206100BF00BF7FE0201DDB
:101D70000FC8FFF739FF7AE00020207077E0E07DA0
:101D800038B1012808D0022809D003280DD109E074
:101D90000DE00020606008E00021A16005E0002166
:101DA000E16002E00021216100BF00BF5FE09DF81B
:101DB0000000092800DD5AE0E07D30B1012818D08C
:101DC00002282AD0032850D13BE09DF80000FEF7FE
:101DD000A8FC074639466068FFF7F4FE054626482A
:101DE0006168FEF79DFA06462946FEF741FA6060F3
:101DF0003BE09DF80000FEF794FC07463946A068DA
:101E0000FFF7E0FE05461C48A168FEF789FA064682
:101E10002946FEF72DFAA06027E09DF80000FEF7A6
:101E200080FC07463946E068FFF7CCFE05461248BD
:101E3000E168FEF775FA06462946FEF719FAE060F2
:101E400013E09DF80000FEF76CFC07463946206958
:101E5000FFF7B8FE054608482169FEF761FA064615
:101E60002946FEF705FA206100BF00BF00BF00BF92
:101E700000BF16E7CDCCCC3D000020412DE9F05F3E
:101E800042490868FEF78CFC0646414A414BFEF782
:101E90005EFB04460D4640490868FEF781FC064695
:101EA0003E4A3F4BFEF753FB804622462B46FEF749
:101EB000A7FA8246FEF7B8FC3749086033494868FC
:101EC000FEF76EFC0646374A374BFEF740FB0446EA
:101ED0000D4631494868FEF763FC06464FF066320E
:101EE000324BFEF734FB824622462B46FEF788FA39
:101EF0008046FEF799FC2849486024498868FEF727
:101F00004FFC0646274A284BFEF721FB04460D46A8
:101F100021498868FEF744FC06464FF06632234BA1
:101F2000FEF715FB804622462B46FEF769FA8246ED
:101F3000FEF77AFC184988601449C868FEF730FC3F
:101F40000646184A1A4BFEF702FB04460D46124994
:101F5000C868FEF725FC0646124A164BFEF7F7FA4C
:101F6000804622462B46FEF74BFA8246FEF75CFC83
:101F70000949C86001F088FF074CE368A2686168FE
:101F8000206803F03DFBBDE8F09F0000F002002058
:101F9000B81E85EB51B89E3FE00200200AD7A3701F
:101FA0003D0AEF3F9A9999999999A93F6666EE3F44
:101FB0009999C93F9999E93F08B5014600200090D9
:101FC000034800900098084400900098008808BDDD
:101FD000006C004008B500220092044A0092009A6A
:101FE00002440092009A116008BD0000006C00409D
:101FF00000BFFEE738B504460121082003F058F879
:1020000010208DF80300A088ADF8000002208DF8A4
:1020100002006946206800F041FC0020A060E060FA
:10202000002121616161204600F056F9002009E09D
:10203000064951F8201019B9044941F8204003E03D
:10204000411CC8B20428F3DB00BF38BDB80900202A
:1020500070B500253CE0204850F8254004B935E033
:10206000207E022800D031E0607EB8B101282BD15B
:10207000D4E90431A0681A1841F100011748036837
:102080004068D21A814108D2144801684068C4E906
:1020900004100021204600F01FF915E0D4E90431B6
:1020A000E0681B1841F100010C4A10685268181AC8
:1020B000914108D2094801684068C4E9041001212F
:1020C000204600F009F900BF00BF00BF681CC5B280
:1020D000042DC0DB70BD0000B8090020780000208E
:1020E0002DE9F04105460E46174698462C460CB998
:1020F000BDE8F0815EB1012E02D0022E14D10DE0B8
:10210000012020760121204600F0E6F80CE00020B6
:1021100020760021204600F0DFF805E0022020763E
:10212000A760C4F80C8000BF00BF00BFE0E700005C
:102130001CB5584C02F0C2F857A3082200210846EB
:1021400002F003FBE08A58A308221021009000202F
:1021500002F0FBFA208B58A30822202100900020D7
:1021600002F0F3FA58480078000100F11001102342
:102170008022002002F002FB01A800F085FF401C35
:1021800000B91CBD9DF804000B281FD00C2828D0D6
:102190000D2802D00E2830D10BE04B48007810B942
:1021A00001204949087048480078401E4649087097
:1021B00040E045480078012802D1002042490870DB
:1021C00041480078401C4049087033E03F4805F022
:1021D000D5F94FF47A73052232213D4803F040F9D6
:1021E00028E03948007808B90020E08236480078B5
:1021F000012801D1002020831CE09DF8040009285B
:1022000000DD17E03048007838B9E08A00EB800044
:102210009DF8041001EB4000E0822B480078012873
:1022200007D1208B00EB80009DF8041001EB4000EB
:10223000208300BF00BFE08AC82809DB208BC828A4
:1022400006DB238BE28A02212248FFF749FF1FE0C9
:10225000E08AC82809DA208BC82806DB238BE28AAB
:1022600000211C48FFF73CFF12E0E08AC82809DB88
:10227000208BC82806DA238BE28A01211548FFF754
:102280002FFF05E000231A4619461248FFF728FFE2
:1022900000BF76E75003002042757A7A65722D43BD
:1022A0006F6E66696700000042757A7A65725F4FEB
:1022B0004E3A25640000000042757A7A65725F4FDD
:1022C00046463A25640000005800002031210008ED
:1022D0005D1000083003002070B504460D46A0795B
:1022E00098B1012822D1012D07D1A18801222068AF
:1022F00000F068FB0120607606E0A18800222068DB
:1023000000F060FB0020607610E0012D07D1A1886D
:102310000022206800F056FB0120607606E0A188CC
:102320000122206800F04EFB0020607600BF70BDE7
:1023300010B50D48807890B1012804D002280DD046
:1023400003280ED10CE04FF47A730222C82107480B
:1023500003F086F802200449887002E001E000E002
:1023600000BF00BF10BD00009C090020F50E000852
:102370002DE9F0410446A179A1F15A00FEF7C8F910
:1023800005466179A1F15A00FEF7C2F906462179A6
:10239000A1F15A00FEF7BCF90746E178A1F15A0015
:1023A000FEF7B6F980462B4632463946FFF71CFC4D
:1023B000BDE8F08170B504462079E17840EA012556
:1023C000A079617940EA012633462A460221024873
:1023D000FFF786FE70BD00003003002010B50446F4
:1023E0002379E27800210248FFF77AFE10BD000051
:1023F0003003002010B5254890F8DB0000B910BD6F
:1024000000F0E2F92148817890F8DB00401E81421B
:1024100012D11E49897801EBC1021C49C91C01EB8C
:1024200082002421FDF7FFFE184890F8DB00401ED3
:10243000164981F8DB0026E01448817890F8DB002B
:10244000401E81421FDA114884780FE0621C02EBC3
:10245000C2030E4AD21C02EB830104EBC40302EB5D
:1024600083002422FDF7C6FE601CC4B2074890F822
:10247000DB00401EA042E9DC044890F8DB00401E6F
:10248000024981F8DB0000BFB9E700006A030020C1
:1024900070B501F013FF002429E016480078801D74
:1024A0002044062190FBF1F201FB1200C5B2114855
:1024B00090F8DB00A84218DD05EBC5020D48C01CF2
:1024C00000EB820304EB840081000822002002F06C
:1024D0003CF908484078A04207D104EB8400810011
:1024E00014234622002002F049F9601CC4B2032CD8
:1024F000D3DB70BD6A03002000B589B0EE215648D9
:10250000FDF791FE0B2255A16846FDF797FE0B22C1
:1025100054A103A8FDF792FE0B2255A106A8FDF7D2
:102520008DFE242269464C48C01CFDF763FE4A48D4
:1025300090F8DB00401C484981F8DB000B224EA1DB
:102540006846FDF77BFE0B224DA103A8FDF776FE42
:102550000B224EA106A8FDF771FE242269463E48D3
:102560002730FDF747FE3C4890F8DB00401C3A4915
:1025700081F8DB000B2247A16846FDF75FFE0B22C6
:1025800046A103A8FDF75AFE0B2247A106A8FDF7B6
:1025900055FE2422694630484B30FDF72BFE2E486D
:1025A00090F8DB00401C2C4981F8DB000B2240A195
:1025B0006846FDF743FE0B223FA103A8FDF73EFE50
:1025C0000B2240A106A8FDF739FE242269462248C5
:1025D0006F30FDF70FFE204890F8DB00401C1E49CD
:1025E00081F8DB000B2239A16846FDF727FE0B229C
:1025F00031A103A8FDF722FE0B2232A106A8FDF7A8
:102600001DFE2422694614489330FDF7F3FD12485D
:1026100090F8DB00401C104981F8DB000B222DA153
:102620006846FDF70BFE0B2223A103A8FDF706FE6B
:102630000B2224A106A8FDF701FE242269460648C4
:10264000B730FDF7D7FD044890F8DB00401C024985
:1026500081F8DB0009B000BD6A0300204D722E39FD
:1026600031373500343938363434393935000000E3
:1026700077717734323330004D722E4141000000C3
:102680003531363632313138000000006864667307
:10269000696800004D722E42422E000031343631FE
:1026A0003531363135360000464453464D3500004D
:1026B0004D722E4444000000343631343536353105
:1026C0000000000057454646343232004D722E4518
:1026D000450000004D722E464600000008B5FFF789
:1026E000D7FE684600F0D0FC401C00B908BD9DF83C
:1026F00000000B3807282ED2DFE800F02110040775
:102700000A0D130002F0B6FB25E002F083FB22E085
:1027100000F064FC1FE003F017FE1CE0FFF76AFE08
:1027200019E000F051F84FF47A73052232210B487A
:1027300002F096FEAFF25B0004F020FF0BE04FF4D6
:102740007A7305223221064802F08AFEAFF2730046
:1027500004F014FF00BF00BF00BFC7E781410008BD
:10276000593D000808B50120022380220021009075
:10277000084601F0E3FE0120022380223E21009062
:10278000002001F0DBFE01204023024600210090E2
:10279000084601F0D3FE01204023024600210090AC
:1027A0007F2001F0CBFE08BD064840780549097836
:1027B00008440721B0FBF1F201FB120001498870C7
:1027C0007047000008000020074800780649497853
:1027D0000844054991F8DB1090FBF1F201FB12006F
:1027E00001498870704700006A03002021B1026827
:1027F00042F00102026004E002684FF6FE731A40E4
:102800000260704710B50022026847F6F0739A43E1
:102810000C6A8B6823430C6923434C6923438C69FE
:102820002343CC6923434C6A23438C6A23431A43D2
:102830000260CB6843600B6883604B68C36010BD67
:10284000704700002DE9F05F06460C4615463046FD
:10285000FDF7A6FF21F000410746FDF7E5FF8146A1
:1028600029462046FDF756FD83464946FDF758FDAB
:1028700080460949FDF786FD07462946FDF7F8FC25
:1028800082464FF07C515046FDF7F2FC0746FDF7BB
:102890005AFF80B2BDE8F09F0000C8422DE9F04128
:1028A000024600250026002000230024002791F87E
:1028B00003C00CF00F0591F803C00CF0100CBCF134
:1028C000000F03D091F802C04CEA050591F800C052
:1028D000BCF1000F31D0146800202BE04FF0010C48
:1028E0000CFA00F3B1F800C00CEA03069E4220D1B6
:1028F00083004FF00F0C0CFA03F7BC4305FA03FCFE
:102900004CEA040491F803C0BCF1280F06D14FF043
:10291000010C0CFA00FCC2F814C00AE091F803C0E4
:10292000BCF1480F05D14FF0010C0CFA00FCC2F8C5
:1029300010C0401C0828D1D31460B1F800C0BCF10D
:10294000FF0F34DD546800202EE000F1080C4FF03A
:10295000010808FA0CF3B1F800C00CEA03069E4225
:1029600021D183004FF00F0C0CFA03F7BC4305FA9A
:1029700003FC4CEA040491F803C0BCF1280F05D114
:1029800000F1080C08FA0CF8C2F8148091F803C0A2
:10299000BCF1480F07D100F1080C4FF0010808FA0C
:1029A0000CF8C2F81080401C0828CED35460BDE853
:1029B000F0810246002093680B400BB1012000E03B
:1029C000002070470AB1016100E0416170470000DA
:1029D00070B50446064803F0A1FA0546FDF7AEFBC4
:1029E000FDF7A2FBB0FBF4F104FB110070BD000089
:1029F000000400400A4890F8CC01062190FBF1F059
:102A0000401C074981F8CE0191F8CD01C11700EBB8
:102A10005171C910491C024A82F8CF117047000059
:102A2000B807002000B5ADF5557D4FF4967004F061
:102A30008DFD2E48007830B9FFF794FE02F004FFB8
:102A400001202A490870D4A800F01EFB012825D1D6
:102A50009DF850030B3806281FD2DFE800F00C1E4B
:102A60000304050600BF00BF00BF9DF850032049C6
:102A700081F85D0311E01E4802F0DEFE00201B49D4
:102A80000870AFF25F0004F079FD4FF47A7305220D
:102A90003221184802F0E4FC00BF00BF144890F84F
:102AA0005C0306281ED2DFE800F00313121B171C7C
:102AB0000F4802F0EDFF4FF454720D491031684693
:102AC000FDF798FB0A480FC802F0DDFE0AE000BFE0
:102AD000074802F03BFF05E0054802F053FF01E024
:102AE00000BF00BF00BF0DF5557D00BD590000209F
:102AF00058040020593D000810B50848007A60B914
:102B000001F0DCFB0120054908724FF47A70FFF7F1
:102B10005FFF0249086000F0F7F910BD900900203E
:102B20001CB5CF48007880B901F0C8FB3F230022D4
:102B30001146104601F01EFC3F237F220021104663
:102B400001F018FC0120C649087001A800F09CFAA9
:102B5000401C00B91CBD9DF804000B38072825D285
:102B6000DFE800F0FCFB042546678800BD4890F8CC
:102B7000CD0100281ADDBB4A92F8CD1192F8CC01A4
:102B80000823062201F0FAFDB64890F8CD01083876
:102B9000B44981F8CD01FFF72DFFB24A92F8CD116B
:102BA00092F8CC010823062201F0E8FD54E1AD487B
:102BB00090F8CD0138281ADAAA4A92F8CD1192F885
:102BC000CC010823062201F0D9FDA64890F8CD01DA
:102BD0000830A44981F8CD01FFF70CFFA14A92F813
:102BE000CD1192F8CC010823062201F0C7FD33E194
:102BF0009C4890F8CC0101281ADD9A4A92F8CD1130
:102C000092F8CC010823062201F0B8FD954890F80F
:102C1000CC01801F934981F8CC01FFF7EBFE914A6C
:102C200092F8CD1192F8CC010823062201F0A6FDFE
:102C300012E18C4890F8CC0179281ADA894A92F886
:102C4000CD1192F8CC010823062201F097FD8548AA
:102C500090F8CC01801D834981F8CC01FFF7CAFEB2
:102C6000804A92F8CD1192F8CC010823062201F097
:102C700085FDF1E0FFF7BEFE7A4890F8CE0100EB4B
:102C800080017848E63000EB4100764991F8CF1199
:102C9000405C012800D1DFE0724890F8CE0100EBE3
:102CA0008000704901EB400091F8CF11405C012891
:102CB00008D101F003FB6CA308220021084601F0B3
:102CC00044FDC9E0674890F8CE0100EB80006549FB
:102CD00001EB400091F8CF11405CE8BB0121614855
:102CE00090F8CE0100EB80025E48E63000EB420037
:102CF0005C4A92F8CF2181545A4A92F8CD1192F849
:102D0000CC010823062201F0EDFA564890F8CF21B5
:102D100090F8CE1100F022F90446524A009492F83D
:102D2000CD1192F8CC0154A3062201F00EFD4D4ABC
:102D300092F8CD1192F8CC010823062201F01EFD75
:102D40004848B0F8D001401C4649A1F8D0010846D7
:102D5000B0F8D0019E2802E005E005E05CE001D17A
:102D600001F03AF800BF77E03E4890F8CE0100EB62
:102D700080013C48E63000EB41003A4991F8CF1120
:102D8000405C012803D03748B0F8D40100B963E0B3
:102D90000221344890F8CE0100EB80023148E63041
:102DA00000EB42002F4A92F8CF2181542D48B0F811
:102DB000D401401E2B49A1F8D401084690F8CE0159
:102DC00000EB800001EB400091F8CF11405C01283E
:102DD00006D12448B0F8D201401C2249A1F8D20102
:102DE0002048B0F8D2010A2801D100F0F5FF1D4AB1
:102DF00092F8CD1192F8CC010823062201F072FA64
:102E00000020184A009092F8CD1192F8CC010823C6
:102E1000062201F093FB1FE0AFF2FB2004F0AEFBB3
:102E2000002305223221154802F01AFBE6210D4845
:102E3000E630FDF7F8F90020094908700949A1F8C2
:102E4000D001A1F8D2010A20A1F8D401072081F80D
:102E5000CC01082081F8CD0100BF00BF7AE6000058
:102E60005A000020B8070020E681ADE5969CE4BD3D
:102E7000A0E8BE93E4BA860025640000593D00082E
:102E800008B5FFF739FE684600F0FEF8401C00B9AF
:102E900008BD9DF800000B2808D00C2816D011287A
:102EA00018D11749486802F091FC23E0AFF22F00D7
:102EB00004F064FB4FF47A7305226421114802F098
:102EC000CFFA00200E490872486013E000200C4938
:102ED00048600FE09DF80000092800DD0AE008487E
:102EE000406800EB80009DF8001001EB40000449B1
:102EF000486000BF00BF00F007F800BFC8E700004F
:102F000090090020593D000808B510238022202197
:102F1000002001F0E7F94FF47A7008A3082200219D
:102F20000090084601F011FC0948406809A30822F6
:102F300020210090002001F008FC08BDE8AFB7E7B1
:102F40008C9CE695B0E5AD97302D2564000000001F
:102F5000900900202564000000BFFEE730B503465D
:102F6000481E00EB800003EB4004501E245C01EB84
:102F7000810003EB4005501E285C0444481C00EB14
:102F8000800003EB4005501E285C0444481E00EB03
:102F9000800003EB4000805C0444481C00EB800090
:102FA00003EB4000805C0444481E00EB800003EB10
:102FB0004005501C285C044401EB810003EB4005F4
:102FC000501C285C0444481C00EB800003EB4005C7
:102FD000501C285C2044C0B230BD000010B5194818
:102FE00090F8DB00062800D110BD164890F8DB40B1
:102FF0000FE0621E02EBC203124AD21C02EB8301F5
:1030000004EBC40302EB83002422FDF7F3F8601EF7
:10301000C4B20C488078A042EBDB0A4890F8DB0091
:10302000401C084981F8DB00897801EBC1020549A1
:10303000C91C01EB82002421FDF7F5F801F03EF9EF
:1030400000BFD1E76A03002010B504460020A07439
:103050000C4802F060FFA081A089E189884204DD6C
:10306000A089E189401A608106E0A089E1894FF6D4
:10307000FF72511A08446081A089E081207A401CC7
:10308000207210BD002C0140024612B94FF0FF30F3
:1030900070470F488079012816D100200C498871AB
:1030A00000210FE00A4840790A4B13F8113098428A
:1030B00006D1084800EB4100407810700120E7E796
:1030C000481C81B21229EDD34FF0FF30E0E7000039
:1030D000D8090020880000201CB501F0EFF874A387
:1030E00008220021084601F030FB734873A3082230
:1030F00014210090002001F028FB6F48DE3890F882
:10310000EA10DE30405C6EA30822282100903720B0
:1031100001F01BFB01A8FFF7B7FF401C00B91CBD65
:103120009DF804000B2868D00C2810D011287DD100
:103130006148DE3890F8EA00401C5F49DE3981F8CA
:10314000EA00002081F8EC0081F8EB00ACE05A487E
:10315000DE3890F8DD0068B95749DE39897801EB2F
:10316000C1025549DB3901EB82000B22DB31FDF74F
:1031700065F82AE05048DE3890F8DD0001280FD1CC
:103180004D49DE39897801EBC1024B49DB3901EB4E
:10319000820101F10C000B224749FDF74FF814E0C2
:1031A0004548DE3890F8DD0002280ED14249DE396C
:1031B000897801EBC1024049DB3901EB820101F161
:1031C00018000B223C49FDF739F83B48DE3890F8EF
:1031D000EA00401C3849DE3981F8EA0001F1660056
:1031E00000218167C167C0F8801000203249DE39B4
:1031F00081F8EC0081F8EB0056E0324804F0BEF9AB
:103200004FF47A73052232212F4802F029F9002069
:103210002949DE3981F8EA0001F166000021816761
:10322000C167C0F880100020234900E005E0DE39C6
:1032300081F8EC0081F8EB0036E09DF804000928E5
:1032400000DD31E01C48DE3890F8EB009DF80410FA
:10325000884209D11848DE3890F8EC00401C164925
:10326000DE3981F8EC0008E09DF804001249DE39EF
:1032700081F8EB00002081F8EC000F49DE3991F86D
:10328000EC00C11700EB91718910A0EB81010F4A8E
:103290009DF8043002EB8302545C0748DE3890F856
:1032A000EA10DE30445400BF00BF00BF37E7000023
:1032B000496E7075743A00004804002025730000C0
:1032C00025630000D9300008814100081476000809
:1032D00010B501F0E7FD00200EE00D4931F81010A7
:1032E0000C4A22F810100A4931F810200949083117
:1032F00021F81020411C88B20428EEDB002005498B
:1033000008610021034841618161C16110BD000075
:1033100080000020B002002038B5044601211020B2
:1033200001F0C6FE14208DF80300A088ADF800005F
:1033300002208DF8020069462068FFF7AFFA0020EE
:10334000A060E060002121616161204600F081F809
:10335000002009E0064951F8201019B9044941F844
:10336000204003E0411CC8B20428F3DB00BF38BD95
:10337000C809002070B500253DE0204850F82540E0
:1033800004B936E0207E022800D032E0607E10B121
:1033900001282CD115E0D4E9031360695A1840F1D3
:1033A000000017490B6849689A1A814108D31449EB
:1033B00008684968C4E904010121204600F049F881
:1033C00015E0D4E90431A0681A1841F100010C4855
:1033D000036840689A1A884108D309480168406820
:1033E000C4E904100021204600F033F800BF00BFFC
:1033F00000BF681CC5B2042DBFDB70BDC80900202A
:10340000780000202DE9F04105460E461746984603
:103410002C460CB9BDE8F08126B1012E09D0022E50
:1034200014D10DE0002020760021204600F011F894
:103430000CE0012020760121204600F00AF805E08A
:1034400002202076A760C4F80C8000BF00BF00BF38
:10345000E0E770B504460D46A07998B1012822D165
:10346000012D07D1A18801222068FFF7ABFA0120C6
:10347000607606E0A18800222068FFF7A3FA00200A
:10348000607610E0012D07D1A18800222068FFF7A7
:1034900099FA0120607606E0A18801222068FFF7F2
:1034A00091FA0020607600BF70BD000008B5494861
:1034B0000078002826D000F001FF47A30822002151
:1034C000084601F042F946A308221021002001F02D
:1034D0003CF947A308222021002001F036F948A337
:1034E00008223021002001F030F94848007800011E
:1034F00000F1100110238022002001F03FF900208C
:10350000344908706846FFF7BFFD401C00B908BD8C
:103510009DF800000B2806D00D281BD00E2826D0C1
:1035200011282FD10EE001202A490870AFF2830044
:1035300004F024F84FF47A7305223221344801F064
:103540008FFF1FE00120234908703048007803F006
:1035500041FE17E02D48007818B902202B49087069
:1035600004E02A480078401E284908700AE02748ED
:103570000078401C032190FBF1F201FB120023496B
:10358000087000BF00BF00F099FE13A308220021BD
:10359000084601F0DAF812A308221021002001F0F9
:1035A000D4F813A308222021002001F0CEF814A3A0
:1035B00008223021002001F0C8F8144800780001EA
:1035C00000F1100110238022002001F0D7F800BF85
:1035D0009DE700004C0000204C45445F53455400DB
:1035E0005365742D53544D33322D4C454400000027
:1035F0005365742D45535033322D4C454400000023
:103600005365742D43414D2D4C4544004B00002023
:10361000593D00081CB587480078002844D000F0C8
:103620004DFE85A308220021084601F08EF885484A
:10363000408985A3082210210090002001F085F820
:103640008048808984A3082220210090002001F076
:103650007CF88548007820B1012809D0022815D1CE
:103660000DE082A308223021002001F06EF80DE069
:1036700082A308223021002001F067F806E082A32F
:1036800008223021002001F060F800BF00BF81480F
:103690000078000100F1100110238022002001F0C9
:1036A0006DF800206349087001A8FFF7EDFC401C8D
:1036B00000B91CBD9DF804000B38072854D2DFE880
:1036C00000F00414222353532E0000F0F7FD0120D4
:1036D00058490870704803F051FF4FF47A7305227F
:1036E00064216E4801F0BCFEE3E76A48007810B937
:1036F00000205449488167480078012802D1002001
:103700005049888151E000BF62480078401C032185
:1037100090FBF1F201FB12005E49087045E05D4844
:103720000078022800D040E04F480078401C032178
:1037300090FBF1F201FB12004B490870084600783B
:1037400020B1012806D002280CD107E000203D4915
:10375000887307E001203B49887303E00220394960
:10376000887300BF00BF20E09DF804000A2800DB3A
:103770001BE04848007848B93248408900EB800097
:103780009DF8041001EB40002E4948814148007823
:10379000012809D12B48808900EB80009DF8041096
:1037A00001EB40002749888100BF00BF00F086FD83
:1037B00021A308220021084600F0C7FF21484089C4
:1037C00021A3082210210090002000F0BEFF1D4818
:1037D000808921A3082220210090002000F0B5FF5D
:1037E0002148007820B1012809D0022815D10DE028
:1037F0001EA308223021002000F0A7FF0DE01FA328
:1038000008223021002000F0A0FF06E01EA30822BD
:103810003021002000F099FF00BF00BF1D48007854
:10382000000100F1100110238022002000F0A6FF0B
:1038300000BF3EE74900002043414D4C45445F53E3
:10384000455400000003002042726967685F746994
:103850006D653A25640000004461726B5F74696DA8
:10386000653A2564000000004A000020436F6C6F39
:1038700075723A576869746500000000436F6C6F99
:1038800075723A426C756500436F6C6F75723A528F
:10389000656400004800002015360008AD340008BB
:1038A0001CB557480078002826D000F007FD55A326
:1038B00008220021084600F048FF5648008956A318
:1038C000082210210090002000F03FFF5148C088DE
:1038D00055A3082220210090002000F036FF564812
:1038E0000078000100F1100110238022002000F078
:1038F00045FF00204249087001A8FFF7C5FB401CA6
:1039000000B91CBD9DF804000B2806D00C2814D06B
:103910000D2820D00E282AD11EE000F0CFFC012077
:1039200037490870454803F029FE4FF47A730522A1
:103930006421434801F094FDE3E73F48007810B963
:103940000020344908813C480078012802D1002039
:103950003049C8802CE000BF37490978481C00EB8B
:10396000D0714910A0EB4101334A117020E09DF85D
:1039700004000A2800DB1BE02F48007848B92548DE
:10398000008900EB80009DF8041001EB4000214904
:10399000088129480078012809D11E48C08800EB19
:1039A00080009DF8041001EB40001A49C88000BF58
:1039B00000BF00F083FC13A308220021084600F09A
:1039C000C4FE1448008914A308221021009000208E
:1039D00000F0BBFE0F48C08813A3082220210090EE
:1039E000002000F0B2FE14480078000100F1100140
:1039F00010238022002000F0C1FE00BF81E70000FC
:103A00004700002045535033324C45445F534554E2
:103A1000000000000003002042726967685F74695B
:103A20006D653A25640000004461726B5F74696DD6
:103A3000653A25640000000046000020A138000817
:103A4000AD3400081CB56F480078002826D000F07F
:103A500035FC6DA308220021084600F076FE6E4872
:103A600080886EA3082210210090002000F06DFED7
:103A7000694840886DA3082220210090002000F0B2
:103A800064FE6E480078000100F1100110238022CE
:103A9000002000F073FE00205A49087001A8FFF7CB
:103AA000F3FA401C00B91CBD9DF804000B2806D099
:103AB0000C2814D00D2820D00E282AD11EE000F0AA
:103AC000FDFB01204F4908705D4803F057FD4FF49E
:103AD0007A73052264215B4801F0C2FCE3E7574892
:103AE000007810B900204C4988805448007801289B
:103AF00002D10020484948802CE000BF4F49097896
:103B0000481C00EBD0714910A0EB41014B4A1170E9
:103B100020E09DF804000A2800DB1BE047480078FD
:103B200048B93D48808800EB80009DF8041001EB07
:103B300040003949888041480078012809D1364839
:103B4000408800EB80009DF8041001EB40003249F2
:103B5000488000BF00BF30484388828802213A482D
:103B6000FFF750FC2C488088322809DC2A4840881E
:103B7000322805DD00231A4619463348FFF742FC78
:103B800025488088322809DB23484088322805DA16
:103B900000231A4601212C48FFF734FC1E48808878
:103BA000322809DC1C484088322805DC00231A46EC
:103BB00001212548FFF726FC00F080FB12A3082214
:103BC0000021084600F0C1FD1348808813A3082295
:103BD00010210090002000F0B8FD0F48408813A38A
:103BE000082220210090002000F0AFFD134800784B
:103BF000000100F1100110238022002000F0BEFD22
:103C000000BF50E74500002053544D33324C45442B
:103C10005F534554000000000003002042726967B2
:103C2000685F74696D653A25640000004461726BD9
:103C30005F74696D653A256400000000440000204F
:103C4000453A0008AD3400081003002010B50C48B8
:103C50000C49086040148880002088710846FFF7EE
:103C60005BFB4FF4FA735A0002210648FFF7CAFBC8
:103C70004FF47A7305226421034801F0F1FB10BD73
:103C800000100140100300207533000800BFFEE75C
:103C90003EB500F013FB00241FE0244800782044C8
:103CA0000721B0FBF1F201FB1205214850F8353035
:103CB00004EB840081000822002000F046FD1B4830
:103CC0004078A04207D104EB8400810014233F22F6
:103CD000002000F053FD601CC4B2032CDDDB01F0BA
:103CE000E1FA1448008814A30822002100903F2024
:103CF00000F02BFD0F48C0780E49897810A30822E8
:103D0000CDE9001010213F2000F01FFD0948817906
:103D10004079084A12790DA3CDE9002002910822CA
:103D200020213F2000F011FD3EBD000008000020D2
:103D30000C000020AC0000202564E5B9B4000000B0
:103D40002564E69C882564E697A5000025643A254D
:103D5000643A25640000000008B5FFF799FF684643
:103D6000FFF792F9401C00B908BD9DF800000D282E
:103D700004D00E2805D0112809D105E001F062F821
:103D800005E001F02FF802E002F036FB00BF00BFB3
:103D900000BFE9E770B50A2418E01520FEF718FE09
:103DA000451C0820FEF714FE461C05EB850009495A
:103DB00001EB4000805D40B9012005EB8501054A1B
:103DC00002EB41018855601E84B200BF002CE4D193
:103DD00070BD0000B807002010B500F06FFA06A310
:103DE00008221421002000F0B0FC082360221421D6
:103DF000002000F04BFF10BDE5BE88E98197E68604
:103E0000BEE4BDA0E8B5A2E4BA86000010B5044641
:103E100034B1012C11D0022C1BD0032C30D124E062
:103E200000224FF480511748FEF7CCFD00224FF4DA
:103E300000511448FEF7C6FD22E00122110311488B
:103E4000FEF7C0FD00224FF400510E48FEF7BAFD08
:103E500016E000224FF480510A48FEF7B3FD01221C
:103E600051030848FEF7AEFD0AE0012211030548A0
:103E7000FEF7A8FD012251030248FEF7A3FD00BF93
:103E800000BF10BD000C014010B50C48C4680C49BF
:103E90002046FCF7EFFC03D20120FFF7B7FF0BE051
:103EA00008492046FCF7DCFC03D20220FFF7AEFFF6
:103EB00002E00020FFF7AAFF10BD0000E002002092
:103EC0000000A0400000A0C010B504462046FFF747
:103ED000BBF8E07920B1012806D002280CD107E018
:103EE000204600F0B9F807E0204600F0C9F803E0EA
:103EF000204600F0ECF800BF00BF10BD70B50446CE
:103F00002068000E20712068C0F307452088000A51
:103F10006071267820796840FF280AD16079704066
:103F2000FF2806D1207920B90120A0710220E0717C
:103F300002E0204600F001F870BD0021016001722E
:103F4000C17101827047000000B589B001210520D0
:103F500001F0AEF848208DF823004FF48070ADF8E2
:103F6000200008A93A48FEF799FC0121C80201F097
:103F7000AFF800214FF4006001F0AAF80121C80257
:103F800001F096F80121334801F096FF8F20ADF83B
:103F900014004FF6FF70ADF818000020ADF81600C1
:103FA0008DF81C00ADF81A0005A92A4802F07AF92C
:103FB0000121284801F0ADFF0021264802F02AF92E
:103FC0000021244802F032F90020ADF80800092051
:103FD000ADF810000220ADF80A000020ADF80E0088
:103FE0000120ADF80C0002A91A4801F0B5FF01212B
:103FF000184801F082FF01220021164801F068FFF5
:1040000001220321134801F0FDFF0321114801F0B3
:104010006EFF1B208DF8040000208DF805000120A4
:104020008DF806008DF8070001A800F067F8192048
:104030008DF8040000208DF8050001208DF80600A1
:104040008DF8070001A800F059F809B000BD000084
:1040500000080140002C014070B50446267A6589AD
:10406000022E0CD141F27070854205DDB5F5FA5F84
:1040700002DA0120E07102E02046FFF75EFF70BD2A
:1040800070B50446267A6589022E1FDD206840003F
:104090002060B5F5E17F05DDB5F52F7F02DA2068F8
:1040A00020600EE0B5F5487F08DD40F214508542EF
:1040B00004DA206840F00100206002E02046FFF7AB
:1040C0003CFF222E02D12046FFF718FF70BD017A77
:1040D000282910D14189012282712222027241F2E3
:1040E0009412914206DD41F27072914202DA028A24
:1040F000521C028200BF70477047000070B500215B
:1041000000230F22C47804B3154C246804F4E0643F
:10411000C4F5E064210AC1F10403CA40447804FAFA
:1041200003F184781440214309010E4C0678A1550F
:10413000047804F01F050124AC4005786D11AD0032
:1041400005F1E025C5F8004109E0047804F01F05F9
:104150000124AC40044D0678761145F8264070BD28
:104160000CED00E000E400E080E100E002490143E2
:10417000024A1160704700000000FA050CED00E0F3
:104180001CB500F09BF84348807800EBC001414823
:10419000C01C00EB810040A30822002100900846CB
:1041A00000F0D3FA3B48807800EBC0013948C01CCE
:1041B00000EB81000C303AA308221421009000206B
:1041C00000F0C3FA3348807800EBC0013148C01CCE
:1041D00000EB8100183034A3082228210090002031
:1041E00000F0B3FA2B4890F8DC0000EB800081006F
:1041F00014238022002000F0C1FA01A8FEF744FF3A
:10420000401C00B91CBD9DF804000B2834D00D28BB
:1042100004D00E2813D0112839D122E01D4890F87F
:10422000DC0020B902201B4981F8DC0006E01948B7
:1042300090F8DC00401E174981F8DC0027E01548A3
:1042400090F8DC00022804D10020124981F8DC003B
:1042500006E0104890F8DC00401C0E4981F8DC00B4
:1042600015E0134803F08AF94FF47A7305223221DE
:10427000104801F0F5F80AE00D4803F07FF94FF41B
:104280007A73052232210C4801F0EAF800BF00BF22
:1042900000BFB7E76A0300204E616D653A257300E1
:1042A000515120203A257300575820203A25730099
:1042B00081410008D9300008DD26000800200CE00C
:1042C000002106E00022064B03EBC0135A544A1C9F
:1042D000D1B28029F6DB421CD0B20828F0DB70474F
:1042E000F80900202DE9F04304460D4616461F4606
:1042F000284638E0224631E0002A2DDB7F2A2BDCDD
:10430000002829DB3F2827DC4FEAE07C00EB5C7CBF
:104310004FEAEC0CDFF8588008EBCC1C1CF802C00C
:1043200003464FEAE07800EB58784FEAE808A0EB44
:10433000C8094FF0010808FA09F82CEA080C0146F0
:104340004FEAE07800EB58784FEAE808DFF8209071
:1043500009EBC81808F802C0511C0AB2A119914211
:10436000CADC411C08B2E9198142C3DCBDE8F08314
:10437000F80900202DE9FF4F86B0069E079CDDF866
:104380002080DDF824900020019000904C450FD152
:10439000464502DDB2464646D046354605E0214652
:1043A000284600F0A3F8681C05B24545F7DD99E002
:1043B00046450FD14C4502DDA2464C46D146274624
:1043C00005E03946304600F091F8781C07B24F45B9
:1043D000F7DD87E0464505DDB2464646D046A246B3
:1043E0004C46D1464C4507DD604204B2C9F100009D
:1043F0000FFA80F901200190A9EB0400A8EB060157
:10440000884207DDB24626465446C246C846D146D3
:1044100001200090A8EB060000B20590A9EB040073
:104420000FFA80FB4FEA4B0000B203900598ABEB0C
:104430000000400000B202900598C0EB4B0000B2B3
:10444000049035462746019838B1009828B1684253
:1044500001B2384600F04AF812E0019828B17842DB
:1044600001B2284600F042F80AE0009820B129463F
:10447000384600F03BF803E03946284600F036F8AD
:104480002EE0681C05B20498002805DADDE9031067
:10449000084400B2049006E0781C07B20299049820
:1044A000084400B20490019838B1009828B16842DD
:1044B00001B2384600F01AF812E0019828B17842AB
:1044C00001B2284600F012F80AE0009820B129460F
:1044D000384600F00BF803E03946284600F006F8AD
:1044E0004545CEDB0AB0BDE8F08F000070B503464D
:1044F000002B20DB7F2B1EDC00291CDB3F291ADC74
:10450000CC1701EB5474E4100B4D05EBC414E45CC0
:104510000A46CD1701EB5575ED10A1EBC506012537
:10452000B5402C430846CD1701EB5575ED10024EF2
:1045300006EBC515EC5470BDF80900202DE9F047D5
:1045400005460E4617469846DDF820A0BAF1000F42
:1045500024D12C460CE031462046FFF7C7FF06EB7E
:104560000800401E01B22046FFF7C0FF601C04B2E5
:10457000E819A042EFDC34460BE021462846FFF75D
:10458000B5FFE919491E08B22146FFF7AFFF601CCD
:1045900004B206EB0800A042EFDC14E02C460FE06A
:1045A000B14607E049462046FFF7A0FF09F10100A8
:1045B0000FFA80F906EB08004845F3DC601C04B2F2
:1045C000E819A042ECDCBDE8F087000038B5002413
:1045D00006E0002500E06D1CB5F57A7FFBD3641C76
:1045E000B4F57A7FF5D30121082000F061FD142095
:1045F0008DF8030003208DF802004FF48070ADF8B1
:10460000000069460848FEF749F94FF40070ADF81C
:10461000000069460448FEF741F9012000F0A2FBC2
:10462000012000F0ABFB38BD000C014070B5054621
:10463000002411E080212141294009B1012100E03D
:104640000021084600F09AFB012000F08BFB0020BF
:1046500000F088FB601CC4B2082CEBDB012000F0EA
:1046600081FB002000F07EFB70BD10B5012000F042
:1046700085FB012000F076FB002000F07FFB00208E
:1046800000F070FB10BD10B5002000F077FB01209A
:1046900000F068FB012000F071FB10BD10B5FFF7C2
:1046A00095FFAE2000F076FBD52000F073FB802054
:1046B00000F070FBA82000F06DFB3F2000F06AFBCB
:1046C000D32000F067FB002000F064FB402000F0E6
:1046D00061FBA12000F05EFBC82000F05BFBDA204C
:1046E00000F058FB122000F055FB812000F052FB37
:1046F000CF2000F04FFBD92000F04CFBF12000F060
:1047000049FBDB2000F046FB302000F043FBA420F7
:1047100000F040FBA62000F03DFB8D2000F03AFBAE
:10472000142000F037FBAF2000F034FBFFF7C6FD8C
:1047300000F098FA10BD10B50246012000E0504389
:104740000B1EA1F10101FAD110BD0FB470B5C2B0BA
:1047500005460E4614464AA8019002A8019A4999B6
:1047600002F098F800200190234602AA314628461C
:1047700000F096F942B070BC5DF814FB2DE9F043EF
:1047800004460D4616461F46284638E0224631E0CC
:10479000002A2DDB7F2A2BDC002829DB3F2827DCA1
:1047A0004FEAE07C00EB5C7C4FEAEC0CDFF85880D1
:1047B00008EBCC1C1CF802C003464FEAE07800EB83
:1047C00058784FEAE808A0EBC8094FF0010808FA4A
:1047D00009F88CEA080C01464FEAE07800EB5878BB
:1047E0004FEAE808DFF8209009EBC81808F802C083
:1047F000511C0AB2A1199142CADC411C08B2E91944
:104800008142C3DCBDE8F083F809002070B505469D
:104810000C4645F0B00000F0BDFA102141EA14103A
:1048200000F0B8FA04F00F0000F0B4FA70BD000018
:10483000F8B506460F4614461D46082D0CD1A4F1C6
:1048400020000E4901EB0010102308223946009089
:10485000304600F081F80FE0062D0DD1A4F12000C4
:1048600000EB4000064901EB4000082306223946D0
:104870000090304600F070F8F8BD0000EC780008B9
:10488000DC7E00082DE9FF5F86B0074614461D4612
:10489000DDF85080169E0022134620462946FBF77D
:1048A000ABFF06D833462B2238460799FFF7C0FFE7
:1048B00007E033462D2238460799FFF7B9FF85F008
:1048C000004520462946FBF752FF82465046FBF73B
:1048D0002DFF22462B46CDE90401FBF735FE0446A9
:1048E0000D460A201599FFF726FF81464846FBF73B
:1048F0001DFF22462B46CDE90001FBF728FECDE93E
:10490000020102F085FDCDE90401FBF730FF83468B
:10491000BBFBF9F08244B91908B2434652460096EF
:10492000079900F097F808F1010101FB067108B240
:1049300033462E220799FFF77BFF08F1020101FBA6
:10494000067108B200965A46159B079900F082F846
:104950000AB0BDE8F09F00002DE9FF4F80460E46EB
:104960009146DDF834B0002500244A4631464046E1
:10497000039BFFF7B7FC00BF5EE0002558E008EBA3
:104980000500002852DB08EB05007F284EDC30468E
:10499000F11706EB5171C9100FB2F11706EB517107
:1049A000C910A6EBC10A002E05DA781E07B20AF17B
:1049B00008000FFA80FA3819002817DB3819072881
:1049C00014DC3819224901EBC01008EB0501405CEA
:1049D00004FB09511BF8011001FA0AF108433919C7
:1049E0001B4A02EBC11108EB050288543819401C20
:1049F00000281BDB3819401C072817DC3819401C1D
:104A0000134901EBC01008EB0501405C04FB0951A0
:104A10001BF80110CAF10802114108433919491C59
:104A20000B4A02EBC11108EB05028854681CC5B2A1
:104A30004D45A4DB601CC4B20399481EC11700EBAE
:104A40005171012202EBE101A14296DCBDE8FF8F2A
:104A5000F80900202DE9F0470646894617461D460D
:104A6000DDF82080002417E0281B411E0A20FFF7F4
:104A700062FEB7FBF0F00A21B0FBF1F201FB12007D
:104A800000F1300A04FB086108B243465246494629
:104A9000FFF7CEFE601CC4B2AC42E5DBBDE8F08798
:104AA0002DE9FE4F07468A46144698460025AB4638
:104AB0000026CBE0605D00F0800058B94FF0010B9C
:104AC0002846691C8DB2205C8DF8040000208DF80A
:104AD00005006BE0605D00F0E000C02814D14FF0ED
:104AE000020B2846691C8DB2205C8DF80400605DC5
:104AF00000B9AFE02846691C8DB2205C8DF8050036
:104B000000208DF8060051E0605D00F0F000E02824
:104B10001DD14FF0030B2846691C8DB2205C8DF827
:104B20000400605D00B995E02846691C8DB2205CE8
:104B30008DF80500605D00B98CE02846691C8DB2D7
:104B4000205C8DF8060000208DF807002EE0605DE7
:104B500000F0F800F02826D14FF0040B2846691C1D
:104B60008DB2205C8DF80400605D00B972E02846CB
:104B7000691C8DB2205C8DF80500605D00B969E0AC
:104B80002846691C8DB2205C8DF80600605D00B976
:104B900060E02846691C8DB2205C8DF8070000207B
:104BA0008DF8080002E0681C85B24FE0BBF1010FF0
:104BB0000BD19DF80420B91908B243465146FFF7BE
:104BC00037FE06EB080086B23FE04FF000090EE02A
:104BD00009EB890101EB4911204A881801A9FBF76B
:104BE00039FB00B90EE009F101001FFA80F909EB69
:104BF000890101EB4911194A881819A1FBF72AFB11
:104C00000028E5D100BFB8F1080F12D109EB8900E7
:104C100000EB491011490844401DB919009008B231
:104C200010231A465146FFF797FE06F1100086B290
:104C30000BE0B8F1060F08D1B91908B206233F22DC
:104C40005146FFF7F5FDB01D86B200BF605D00283C
:104C50007FF430AF00BFBDE8FE8F00001681000872
:104C60000000000010B500240BE000212046FFF7F3
:104C7000CDFD054901EBC410802100F09BF8601CBC
:104C8000C4B2082CF1DB10BDF80900202DE9F04773
:104C900006460D46174698462846E91705EB51711A
:104CA000C9100FFA81F905EB0801481EC11700EB86
:104CB0005171C910491C0FFA81FA002D07DAA9F1C8
:104CC00001000FFA80F9AAF101000FFA80FA4C46B0
:104CD00014E0002E10DB7F2E0EDC002C0CDB072CEA
:104CE0000ADCF1B2E0B2FFF791FD064901EBC41115
:104CF0008819394600F05EF8601C04B25445E8DBC0
:104D0000BDE8F087F809002070B514480578002147
:104D10002846FFF77BFDFFF7A8FC7820FFF786FC0D
:104D20004020FFF783FC002407E00D4901EBC5118B
:104D3000085DFFF77BFC601CC4B2802CF5DBFFF73D
:104D4000A2FC06480078401C044908700846007818
:104D5000082801DB0020087070BD0000B4000020AE
:104D6000F809002010B5044622464FF4807102482D
:104D7000FDF728FE10BD0000000C014010B50446F0
:104D800022464FF400710248FDF71CFE10BD0000E2
:104D9000000C014010B50446FFF767FC7820FFF7D0
:104DA00045FC0020FFF742FC2046FFF73FFCFFF7E1
:104DB0006AFC10BD70B505460E46FFF756FC78201C
:104DC000FFF734FC4020FFF731FC002404E0285DAD
:104DD000FFF72CFC601CC4B2B442F8DBFFF753FCB5
:104DE00070BD00000A484078022805DA084840787B
:104DF000401C0749487009E0054800780830072141
:104E0000B0FBF1F201FB120001490870704700008D
:104E1000080000200A484078022805DA084840784F
:104E2000401C0749487009E005480078C01D06216C
:104E300090FBF1F201FB120001490870704700007D
:104E40006A0300200A484078002805DD08484078B9
:104E5000401E0749487009E005480078801D072179
:104E6000B0FBF1F201FB120001490870704700002D
:104E7000080000200A484078002805DD08484078EE
:104E8000401E0749487009E005480078401D06218A
:104E900090FBF1F201FB120001490870704700001D
:104EA0006A03002000B591B00121042000F000F950
:104EB0000121480200F0FCF80121084600F0C8F882
:104EC0004FF4004000F0B8F800208DF8430078203F
:104ED000ADF8400003208DF8420010A93648FDF7D8
:104EE000DDFC0523012203213448FBF791FF052354
:104EF000022204213148FBF78BFF052303221946C8
:104F00002E48FBF785FF0523042206212B48FBF7DB
:104F10007FFF00200B900E904FF460200D90012039
:104F20008DF831008DF8300004208DF83C000BA97D
:104F30002248FBF799FE21484C30009080150690DE
:104F4000002004901E4801904FF48060079080205C
:104F5000059000200290042003902020089000205B
:104F60000A904FF48050099069461648FDF74AFCB4
:104F700001211448FDF73AFC01211048FBF755FECA
:104F800001210E48FBF746FE0C48FBF79DFF00BFD2
:104F90000A48FBF75FFE0128FAD00848FBF7A4FF98
:104FA00000BF0648FBF74CFE0128FAD00121034858
:104FB000FBF78FFF11B000BD000801400024014045
:104FC000800000200800024010B50548FCF712FAE6
:104FD000034CE369A26961692069FCF705FE10BD15
:104FE000B002002010B5044621464FF0804001F089
:104FF00026F910BD10B5044621464FF0804001F05F
:1050000020F910BD10B5044621464FF0804001F054
:105010001AF910BD10B504462146024801F013F9F3
:1050200010BD000000040040014908627047000004
:1050300000000E427047000001460020034A5068FD
:1050400020F44040084350607047000000100240C8
:1050500029B1064A52690243044B5A6104E0034AEB
:1050600052698243014B5A617047000000100240B0
:1050700029B1064AD2690243044BDA6104E0034ACB
:10508000D2698243014BDA61704700000010024090
:1050900029B1064A12690243044B1A6104E0034A2B
:1050A00012698243014B1A617047000000100240F0
:1050B00029B1064A92690243044B9A6104E0034A0B
:1050C00092698243014B9A617047000000100240D0
:1050D00029B1064AD2680243044BDA6004E0034A6D
:1050E000D2688243014BDA60704700000010024032
:1050F00030B500210022002400232D4D6D6805F0FD
:105100000C0121B1042905D0082923D105E0294D3E
:10511000056022E0274D05601FE0254D6D6805F410
:105120007012234D6D6805F48034022505EB924220
:105130001CB9214D554305600BE01D4D6D6805F40C
:1051400000351DB11C4D5543056002E0194D554316
:10515000056002E0174D056000BF00BF144D6D688B
:1051600005F0F0010909154D6B5C0568DD404560EF
:105170000F4D6D6805F4E061090A104D6B5C4568E0
:10518000DD4085600A4D6D6805F46051C90A0B4D1C
:105190006B5C4568DD40C560054D6D6805F44041B8
:1051A000890B074D6B5CC568B5FBF3F5056130BD38
:1051B0000010024000127A0000093D00B6000020F5
:1051C000C600002010B501460022002300204A112D
:1051D000012A02D1094C236806E0022A02D1074CB9
:1051E000236A01E0054C636A01F01F020124944028
:1051F0001C400CB1012000E0002010BD0010024056
:1052000000210B4A11700A4A203A82F82010012826
:1052100002D0042808D103E00121054A117004E0FE
:105220000521034A117000E000BF00BF7047000075
:105230002010024001490860704700003C044242CF
:105240000249096A0143014A116270470010024095
:105250000348008840F010000149088070470000B2
:1052600004280040034800884FF6EF7108400149C8
:1052700008807047042800400021002200230848CD
:105280000188001D0388001F0288914204D0001D80
:10529000008840EA0240704743EA0140FBE7000013
:1052A0001828004010B58CB0FFF7E6FF00F5E1408C
:1052B0000B900BA8FBF760FB04462C2221466846A6
:1052C000FAF798FF059800F26C7007490880049877
:1052D000401C88700398C870029808710198487142
:1052E000009888710CB010BDAC00002000B50246DB
:1052F000FFF7AEFF100C03490880091D0A80FFF775
:10530000B1FF00BD1828004000B50246FFF7A0FF1E
:10531000C2F3034003490880091D0A80FFF7A2FF7A
:1053200000BD00000828004013B58CB0BDF8300067
:10533000A0F26C7006909DF83200401E05909DF81A
:105340003400083803909DF8330004909DF8350030
:1053500002909DF83600019001A8FAF7F7FE044686
:105360002046FFF7C3FF00F003F80EB010BD0000A9
:1053700000BF0348008800F020000028F9D07047E3
:1053800004280040074800884FF6F7710840054997
:10539000088000BF0348008800F008000028F9D00A
:1053A000704700000428004030B50146002014E09A
:1053B0000B4C34F8102001F1080424F8102031F8C7
:1053C0001040A31A1C1E01DB254600E065421E2D7D
:1053D00001DD21F81020421C90B20428E8DB30BD2A
:1053E0008000002010B501210807FFF741FE0121D0
:1053F000C806FFF73DFE0120FFF716FE0420FCF76C
:10540000DBFD012822D00120FFF7FAFE00BF41207A
:10541000FFF7D8FE0128FAD10002FFF711FF0120A3
:10542000FFF708FFFFF7AEFFFFF7A2FF47F6FF7099
:10543000FFF76AFFFFF79CFF0748FFF757FFFFF7EB
:1054400097FF01210420FCF7C5FD03E0FFF79AFF59
:10545000FFF78EFF10BD0000358FF7687047000022
:105460002DE9F04105460E4617469846214800882A
:105470000A2803DB4FF0FF30BDE8F081002435E05F
:1054800004EB44001C4901EB0010006860BB04EB16
:10549000440001EB0010056004EB440001EB001038
:1054A000866004EB440001EB0010C0F81880FCF7A4
:1054B0004BF804EB4402104B03EB0212C2E9040167
:1054C00004EB4400194601EB00100784002004EBB4
:1054D00044011A4602EB0111087106480088401C7D
:1054E000044908800120C7E7601C84B20A2CC7DB8E
:1054F0000020C1E700000020D000002010B5FCF71C
:1055000029F8002014E0002100EB40020A4B03EBD5
:1055100002121160022100EB400203EB0212117132
:10552000002100EB400203EB0212D161411C88B262
:105530000A28E8DB10BD0000D000002039E000F0B0
:1055400015FF00F03BF88146B9F1000F00DA30E0BA
:1055500009EB4900174901EB0014FBF7F5FF05467D
:105560000E46A1694F1946F1000813480460012056
:1055700020712068804700200F490860FBF7E4FF96
:1055800005460E46781B78EB060006D203202071F4
:10559000FBF7DAFFC4E904010AE002202071C4E944
:1055A0000456D4E90A20521C40F10000C4E90A2044
:1055B00000BFC4E7D00000200400002010B54FF069
:1055C000FF32110C002015E000EB40030B4C04EB04
:1055D00003131B7963B900EB400304EB03131B8C2B
:1055E0008B4205DA00EB400304EB0313198C0246EF
:1055F000431C98B20A28E7DB104610BDD0000020FB
:105600002DE9F05F07460C4615461E4629493846E7
:10561000FBF726F900D203E027493846FBF72AF9C1
:1056200024492046FBF71CF900D203E0224920461A
:10563000FBF720F91F492846FBF712F900D203E0D7
:105640001D492846FBF716F91C493046FBF708F9B7
:1056500000D203E01A493046FBF70CF9194A1A49FF
:105660003846FBF747FF8046184A19492046FBF7A2
:1056700041FF8146154A17492846FBF73BFF824602
:10568000154A16493046FDF7DDF883464046FFF7D8
:10569000A9FC4846FFF7AEFC5046FFF7B3FC58465E
:1056A000FFF7B8FC0E48076044608560C660BDE83F
:1056B000F09F00000000B4C20000B4420000C8C265
:1056C0000000C8420000164400401C450020194557
:1056D000008004440000C8430000964300007A4460
:1056E000E002002010B500F001F810BD0CB500205C
:1056F000019000903348006840F4803031490860E0
:1057000000BF3048006800F4003000900198401C51
:105710000190009818B90198B0F5A06FF1D129480F
:10572000006800F4003010B10120009001E000207A
:1057300000900098012843D12348006840F01000F1
:10574000214908600846006820F007000860084604
:10575000006840F0020008601A4840681949486033
:105760000846406848600846406840F480604860E9
:105770000846406820F47C1048600846406840F4C1
:10578000E81048600846006840F08070086000BF7C
:105790000C48006800F000700028F9D00948406803
:1057A00020F00300074948600846406840F00200C6
:1057B000486000BF0348406800F00C000828F9D199
:1057C0000CBD0000001002400020024010B504464D
:1057D0001023802219460020FEF784FD0F48006840
:1057E000A04205D20EA3082210210020FEF7ADFF33
:1057F0000A480068A04205D90BA308221021002006
:10580000FEF7A3FF05480068A04205D108A30822BF
:1058100010210020FEF799FF10BD00009009002024
:10582000E5A4A7E4BA860000E5B08FE4BA860000DC
:10583000E5AFB9E4BA86000010B504464FF45871DC
:105840002046FAF7F0FC10BD10B54FF4FA70074986
:10585000C1F85803002081F85C0303221146034875
:1058600000F006F8014800F0A9F810BD5804002027
:105870000023A0F84C33A0F84E330123A0F8503396
:105880000180428070470FB42DE9F8433C237E220B
:1058900002210120FEF726FDBDF86E431FE008A897
:1058A00030F8247000EB8400B0F80280012008EB8F
:1058B0004802022303EB420211B207EB470200EB5E
:1058C0004202009010B206231A46FEF737FE601C13
:1058D000D22190FBF1F201FB1200401C84B2BDF812
:1058E0006C03401CD22190FBF1F201FB1200401C22
:1058F000A042D4D1BDF87253BDF87463002006EB0A
:105900004602022303EB420211B205EB45020123DA
:1059100003EB4202009010B206231A46FEF70EFE79
:10592000BDE8F8035DF814FBB0F84E13491CD22211
:1059300091FBF2F302FB1311491CA0F84E13B0F8CF
:105940005013491EA0F850137047000010B50446CC
:105950003C237E2202210120FEF7C4FC04A308227E
:105960001E210220FEF7F1FE052084F85C0310BD25
:10597000E681ADE5969CE4BDA0E4BDA0E8BE93E45D
:10598000BA86000010B504463C237E220221012085
:10599000FEF7A8FC04A308221E210220FEF7D5FE74
:1059A000052084F85C0310BDE5BE88E98197E68692
:1059B000BEE4BDA0E8B5A2E4BA8600002DE9F0413E
:1059C000044601270025002623E01520FDF700F8F6
:1059D00085B20A20FCF7FCFF86B2B4F84E030CE057
:1059E00034F82010A94206D104EB80014988B14265
:1059F00001D101270CE000270AE0B4F84C13491C40
:105A0000D22291FBF2F302FB1311491C8142E7D130
:105A100000BF002FD9D1A4F852534FF4557006534C
:105A2000BDE8F08170B50146B1F84C0331F8203083
:105A3000B1F84C0301EB80004488152B01DA0A2CE5
:105A400003DB012081F85C0370BDB1F84E2315E043
:105A500031F82200984209D101EB82004088A0422F
:105A600004D1022081F85C030120EDE7501CD2250F
:105A700090FBF5F605FB1600401C82B2B1F84C0312
:105A80009042E5D1002081F85C0300BFDCE7000014
:105A900070B50446B4F84C0334F82050B4F84C0305
:105AA00004EB800046881C4890F85D030D2806D062
:105AB0000E2807D00F2808D010280CD108E0701E3F
:105AC00086B208E0701C86B205E0681E85B202E06E
:105AD000681C85B200BF00BF32462946204600F050
