:020000040800F2
:10000000F016002005010008850B000869060008AD
:10001000D108000899030008BB1C0008000000007C
:10002000000000000000000000000000491000086F
:1000300035050008000000008D0F0008F1120008CF
:100040001F0100081F0100081F0100081F01000810
:100050001F0100081F0100081F0100081F01000800
:100060001F0100081F0100081F0100081F010008F0
:100070001F0100081F0100081F0100081F010008E0
:100080001F0100081F0100081F0100081F010008D0
:100090001F0100081F0100081F0100081F010008C0
:1000A0001F010008C51500081F0100089D15000864
:1000B0001F010008111600081F0100081F01000899
:1000C0001F0100081F0100081F0100081F01000890
:1000D0001F0100081F0100081F010008611B000824
:1000E0001F0100081F0100081F010008DFF810D0E1
:1000F00000F01AF800480047DD1C0008AFF300804C
:10010000F01600200648804706480047FEE7FEE755
:10011000FEE7FEE7FEE7FEE7FEE7FEE7FEE7FEE7B7
:10012000F5120008ED000008064C074D06E0E068F7
:1001300040F0010394E8070098471034AC42F6D32E
:10014000FFF7D8FF741E0008941E000821B18268D2
:1001500042F00102826003E0826822F001028260C4
:10016000704721B1826842F48072826003E0826845
:1001700022F4807282607047014600208A6802F093
:1001800004020AB1012000E000207047014600206F
:100190008A6802F008020AB1012000E000207047DE
:1001A00030B502460020002350680F4C20400D79E6
:1001B0000C6844EA05242043506090680B4C2040B2
:1001C000D1E902542C434D7944EA45042043906020
:1001D000D06A20F470000C7C641EE4B2234340EA31
:1001E0000350D06230BD0000FFFEF0FFFDF7F1FFCD
:1001F000F0B504460D4600200021092D11DDE06810
:10020000A5F10A0606EB4607072606FA07F188431A
:10021000A5F10A0606EB460603FA06F10843E0607C
:100220000CE0206905EB4507072606FA07F188432D
:1002300005EB450603FA06F108432061072A0FDAA9
:10024000606B561E06EB86071F2606FA07F18843E9
:10025000561E06EB860605FA06F10843606322E0A7
:100260000D2A0FDA206BD61F06EB86071F2606FA2B
:1002700007F18843D61F06EB860605FA06F1084308
:10028000206310E0E06AA2F10D0606EB86071F2648
:1002900006FA07F18843A2F10D0606EB860605FA79
:1002A00006F10843E062F0BD816841F00801816019
:1002B000704721B1826842F4A002826003E0826844
:1002C00022F4A00282607047816841F004018160DD
:1002D0007047000010B50948094908604FF4804094
:1002E000888000208871084600F058F84FF47A732F
:1002F00001220A21034800F0A9FE10BD000C0140B4
:1003000078020020F903000801490868496870472D
:10031000080000201FB50121022000F065FE002129
:10032000022000F061FE0121022000F04DFE0121BB
:10033000164801F091F94720ADF8040040F2E7308B
:10034000ADF808000020ADF8060001A90F4801F043
:100350006FFB01210D4801F0ACF9012211460B4859
:1003600001F01CFA1D208DF8000000208DF801001E
:1003700001208DF802008DF80300684600F004FCAF
:100380000121024801F089F91FBD0000000400406E
:1003900010B501F0B7FC10BD00BFFEE738B504464C
:1003A0000121082000F030FE10208DF80300A08805
:1003B000ADF8000002208DF802006946206800F0C8
:1003C000BAF80020A060E060002121616161204650
:1003D00000F05AF8002009E0064951F8201019B938
:1003E000044941F8204003E0411CC8B20428F3DB73
:1003F00000BF38BDB002002070B500253CE02048A9
:1004000050F8254004B935E0207E022800D031E0C4
:10041000607EB8B101282BD1D4E90431A0681A1844
:1004200041F10001174803684068D21A814108D29F
:10043000144801684068C4E904100021204600F017
:1004400023F815E0D4E90431E0681B1841F10001FC
:100450000C4A10685268181A914108D2094801687C
:100460004068C4E904100121204600F00DF800BFE7
:1004700000BF00BF681CC5B2042DC0DB70BD00000A
:10048000B00200201000002070B504460D46A0798F
:1004900098B1012822D1012D07D1A188012220681D
:1004A00000F0DDF80120607606E0A18800222068D7
:1004B00000F0D5F80020607610E0012D07D1A1886A
:1004C0000022206800F0CBF80120607606E0A188C9
:1004D0000122206800F0C3F80020607600BF70BDE4
:1004E00021B1026842F00102026004E002684FF6A6
:1004F000FE731A400260704710B50022026847F68A
:10050000F0739A430C6A8B6823430C6923434C694C
:1005100023438C692343CC6923434C6A23438C6A6D
:1005200023431A430260CB6843600B6883604B68C7
:10053000C36010BD70472DE9F0410246002500263A
:10054000002000230024002791F803C00CF00F05C1
:1005500091F803C00CF0100CBCF1000F03D091F81F
:1005600002C04CEA050591F800C0BCF1000F31D083
:10057000146800202BE04FF0010C0CFA00F3B1F8E6
:1005800000C00CEA03069E4220D183004FF00F0CFE
:100590000CFA03F7BC4305FA03FC4CEA040491F897
:1005A00003C0BCF1280F06D14FF0010C0CFA00FC7F
:1005B000C2F814C00AE091F803C0BCF1480F05D19D
:1005C0004FF0010C0CFA00FCC2F810C0401C0828C7
:1005D000D1D31460B1F800C0BCF1FF0F34DD546812
:1005E00000202EE000F1080C4FF0010808FA0CF38F
:1005F000B1F800C00CEA03069E4221D183004FF0FF
:100600000F0C0CFA03F7BC4305FA03FC4CEA040494
:1006100091F803C0BCF1280F05D100F1080C08FACD
:100620000CF8C2F8148091F803C0BCF1480F07D150
:1006300000F1080C4FF0010808FA0CF8C2F810801D
:10064000401C0828CED35460BDE8F081024600204B
:1006500093680B400BB1012000E0002070470AB105
:10066000016100E04161704700BFFEE710B504463C
:100670000020A0740C4801F01EF8A081A089E18937
:10068000884204DDA089E189401A608106E0A089E2
:10069000E1894FF6FF72511A08446081A089E08118
:1006A000207A401C207210BD002C014010B500F0D3
:1006B000DBFB00200EE00D4931F810100C4A22F847
:1006C00010100A4931F810200949083121F810208A
:1006D000411C88B20428EEDB002005490861002196
:1006E000034841618161C16110BD00001800002014
:1006F0002802002038B504460121102000F084FCB7
:1007000014208DF80300A088ADF8000002208DF8B9
:10071000020069462068FFF70EFF0020A060E0603D
:10072000002121616161204600F085F8002009E088
:10073000064951F8201019B9044941F8204003E056
:10074000411CC8B20428F3DB00BF38BDC002002042
:1007500070B500253DE0204850F8254004B936E04A
:10076000207E022800D032E0607E10B101282CD11A
:1007700015E0D4E9031360695A1840F100001749E5
:100780000B6849689A1A814108D314490868496876
:10079000C4E904010121204600F04DF815E0D4E938
:1007A0000431A0681A1841F100010C480368406840
:1007B0009A1A884108D3094801684068C4E90410BE
:1007C0000021204600F037F800BF00BF00BF681CC2
:1007D000C5B2042DBFDB70BDC00200201000002098
:1007E00010B5FFF7B5FF10BD2DE9F04105460E46E7
:1007F000174698462C460CB9BDE8F08126B1012E6B
:1008000009D0022E14D10DE00020207600212046D0
:1008100000F011F80CE0012020760121204600F0C4
:100820000AF805E002202076A760C4F80C8000BF1B
:1008300000BF00BFE0E770B504460D46A07998B14F
:10084000012822D1012D07D1A18801222068FFF7BC
:1008500006FF0120607606E0A18800222068FFF7ED
:10086000FEFE0020607610E0012D07D1A188002255
:100870002068FFF7F4FE0120607606E0A1880122DF
:100880002068FFF7ECFE0020607600BF70BD00001E
:1008900010B50C480C49086040148880002088710D
:1008A0000846FFF727FF4FF4FA735A000221064863
:1008B000FFF79AFF4FF47A7300226421034800F097
:1008C000C5FB10BD0010014058020020E1070008E0
:1008D00000BFFEE710B5044634B1012C11D0022C44
:1008E0001BD0032C30D124E000224FF48051174854
:1008F000FFF7B5FE00224FF400511448FFF7AFFE9A
:1009000022E0012211031148FFF7A9FE00224FF453
:1009100000510E48FFF7A3FE16E000224FF480516D
:100920000A48FFF79CFE012251030848FFF797FE93
:100930000AE0012211030548FFF791FE012251034D
:100940000248FFF78CFE00BF00BF10BD000C014045
:1009500010B504462046FFF789FEE07920B1012852
:1009600006D002280CD107E0204600F0BDF807E0D1
:10097000204600F0CDF803E0204600F0F0F800BF7C
:1009800000BF10BD70B504462068000E20712068BD
:10099000C0F307452088000A6071267820796840F6
:1009A000FF280CD160797040FF2808D1207930B938
:1009B0000120A071044908700220E07102E0204685
:1009C00000F004F870BD000020000020002101604C
:1009D0000172C1710182704700B589B00121052003
:1009E00000F012FB48208DF823004FF48070ADF822
:1009F000200008A93A48FFF79EFD0121C80200F037
:100A000013FB00214FF4006000F00EFB0121C8022F
:100A100000F0FAFA0121334800F01EFE8F20ADF8F5
:100A200014004FF6FF70ADF818000020ADF8160066
:100A30008DF81C00ADF81A0005A92A4800F0F8FF4F
:100A40000121284800F035FE0021264800F0AEFFC5
:100A50000021244800F0B6FF0020ADF8080009206E
:100A6000ADF810000220ADF80A000020ADF80E002D
:100A70000120ADF80C0002A91A4800F039FE01214E
:100A8000184800F00AFE01220021164800F0F0FD8F
:100A900001220321134800F081FE0321114800F0D8
:100AA000F6FD1B208DF8040000208DF805000120C4
:100AB0008DF806008DF8070001A800F065F81920F0
:100AC0008DF8040000208DF8050001208DF8060047
:100AD0008DF8070001A800F057F809B000BD00002C
:100AE00000080140002C014070B50446267A658953
:100AF000022E0CD141F27070854205DDB5F5FA5F2A
:100B000002DA0120E07102E02046FFF75FFF70BDCE
:100B100070B50446267A6589022E1FDD20684000E4
:100B20002060B5F5E17F05DDB5F52F7F02DA20689D
:100B300020600EE0B5F5487F08DD40F21450854294
:100B400004DA206840F00100206002E02046FFF750
:100B50003DFF222E02D12046FFF714FF70BD017A1F
:100B600028290ED141892222027241F29412914227
:100B700006DD41F27072914202DA028A521C028250
:100B800000BF70477047000070B5002100230F229E
:100B9000C47804B3154C246804F4E064C4F5E0643C
:100BA000210AC1F10403CA40447804FA03F18478AD
:100BB0001440214309010E4C0678A155047804F035
:100BC0001F050124AC4005786D11AD0005F1E0254D
:100BD000C5F8004109E0047804F01F050124AC4089
:100BE000044D0678761145F8264070BD0CED00E006
:100BF00000E400E080E100E002490143024A1160A4
:100C0000704700000000FA050CED00E000200CE049
:100C1000002106E00022064B03EBC0135A544A1C85
:100C2000D1B28029F6DB421CD0B20828F0DB704735
:100C3000EE02002038B5002406E0002500E06D1C1F
:100C4000B5F57A7FFBD3641CB4F57A7FF5D3012127
:100C5000082000F0D9F914208DF8030003208DF846
:100C600002004FF48070ADF8000069460848FFF7B5
:100C700062FC4FF40070ADF8000069460448FFF7CD
:100C80005AFC012000F0B0F8012000F0B9F838BD9E
:100C9000000C014070B50546002411E0802121417F
:100CA000294009B1012100E00021084600F0A8F820
:100CB000012000F099F8002000F096F8601CC4B202
:100CC000082CEBDB012000F08FF8002000F08CF8FE
:100CD00070BD10B5012000F093F8012000F084F8F9
:100CE000002000F08DF8002000F07EF810BD10B557
:100CF000002000F085F8012000F076F8012000F0D7
:100D00007FF810BD10B5FFF795FFAE2000F084F816
:100D1000D52000F081F8802000F07EF8A82000F0B7
:100D20007BF83F2000F078F8D32000F075F8002021
:100D300000F072F8402000F06FF8A12000F06CF88D
:100D4000C82000F069F8DA2000F066F8122000F000
:100D500063F8812000F060F8CF2000F05DF8D92022
:100D600000F05AF8F12000F057F8DB2000F054F8BA
:100D7000302000F051F8A42000F04EF8A62000F03A
:100D80004BF88D2000F048F8142000F045F8AF2013
:100D900000F042F8FFF73AFF00F012F810BD70B50E
:100DA00005460C4645F0B00000F036F8102141EA47
:100DB000141000F031F804F00F0000F02DF870BDB1
:100DC00010B500240BE000212046FFF7E8FF05499D
:100DD00001EBC410802100F02FF8601CC4B2082C75
:100DE000F1DB10BDEE02002010B5044622464FF4A0
:100DF00080710248FFF733FC10BD0000000C014079
:100E000010B5044622464FF400710248FFF727FC54
:100E100010BD0000000C014010B50446FFF759FF5B
:100E20007820FFF737FF0020FFF734FF2046FFF759
:100E300031FFFFF75CFF10BD70B505460E46FFF7AA
:100E400048FF7820FFF726FF4020FFF723FF00240C
:100E500004E0285DFFF71EFF601CC4B2B442F8DB5B
:100E6000FFF745FF70BD000000B591B001210420DF
:100E700000F0CAF80121480200F0C6F80121084636
:100E800000F092F84FF4004000F082F800208DF856
:100E900043007820ADF8400003208DF8420010A9EF
:100EA0003648FFF748FB0523012203213448FFF7AA
:100EB0009FF90523022204213148FFF799F9052300
:100EC000032219462E48FFF793F905230422062131
:100ED0002B48FFF78DF900200B900E904FF4602007
:100EE0000D9001208DF831008DF8300004208DF830
:100EF0003C000BA92248FFF753F921484C300090E1
:100F000080150690002004901E4801904FF48060E8
:100F1000079080200590002002900420039020205C
:100F2000089000200A904FF48050099069461648B6
:100F3000FFF7E2FA01211448FFF7D2FA0121104825
:100F4000FFF70FF901210E48FFF700F90C48FFF7F2
:100F5000ABF900BF0A48FFF719F90128FAD0084891
:100F6000FFF7B2F900BF0648FFF706F90128FAD0EB
:100F700001210348FFF79DF911B000BD00080140B1
:100F800000240140180000200800024070470000C3
:100F900001460020034A506820F440400843506056
:100FA000704700000010024029B1064A526902430E
:100FB000044B5A6104E0034A52698243014B5A616F
:100FC000704700000010024029B1064AD26902436E
:100FD000044BDA6104E0034AD2698243014BDA61CF
:100FE000704700000010024029B1064A126902430E
:100FF000044B1A6104E0034A12698243014B1A61EF
:10100000704700000010024029B1064A926902436D
:10101000044B9A6104E0034A92698243014B9A614E
:10102000704700000010024029B1064AD26802430E
:10103000044BDA6004E0034AD2688243014BDA6071
:101040007047000000100240704700002DE9F04199
:1010500005460E4617469846284800880A2803DBAE
:101060004FF0FF30BDE8F081002442E004EB440083
:10107000234901EB00100068C0BB2048008800EB4A
:10108000400001EB001005601C48008800EB4000A8
:1010900001EB001086601948008800EB400001EB6E
:1010A0000010C0F81880FFF72FF9144A128802EBDD
:1010B0004202134B03EB0212C2E904010F480088FD
:1010C00000EB4000194601EB0010078400200B499B
:1010D000098801EB41011A4602EB0111087107482A
:1010E0000088401C054908800120BBE7FFE7601C21
:1010F00084B20A2CBADB0020B4E700000000002014
:101100004800002010B5FFF705F9002014E0002189
:1011100000EB40020A4B03EB02121160022100EBCC
:10112000400203EB02121171002100EB400203EBBD
:101130000212D161411C88B20A28E8DB10BD000010
:101140004800002039E000F0C5FC00F03BF8814683
:10115000B9F1000F00DA30E009EB4900174901EB63
:101160000014FFF7D1F805460E46A1694F1946F164
:101170000008134804600120207120688047002087
:101180000F490860FFF7C0F805460E46781B78EB5C
:10119000060006D203202071FFF7B6F8C4E9040167
:1011A0000AE002202071C4E90456D4E90A20521C46
:1011B00040F10000C4E90A2000BFC4E74800002055
:1011C0000400002010B54FF0FF32110C002015E094
:1011D00000EB40030B4C04EB03131B7963B900EBEA
:1011E000400304EB03131B8C8B4205DA00EB400336
:1011F00004EB0313198C0246431C98B20A28E7DB60
:10120000104610BD4800002010B500F001F810BDD8
:101210000CB50020019000903348006840F4803005
:101220003149086000BF3048006800F40030009089
:101230000198401C0190009818B90198B0F5A06F72
:10124000F1D12948006800F4003010B1012000906D
:1012500001E0002000900098012843D12348006855
:1012600040F01000214908600846006820F007009F
:1012700008600846006840F0020008601A484068AC
:10128000194948600846406848600846406840F48C
:10129000806048600846406820F47C10486008463A
:1012A000406840F4E81048600846006840F08070EC
:1012B000086000BF0C48006800F000700028F9D0FA
:1012C0000948406820F00300074948600846406824
:1012D00040F00200486000BF0348406800F00C0086
:1012E0000828F9D10CBD0000001002400020024087
:1012F0007047000010B51548006840F00100134920
:10130000086008464068124908401049486008468D
:101310000068104908400D4908600846006820F43C
:10132000802008600846406820F4FE0048604FF4C2
:101330001F008860FFF768FF4FF0006006490860F3
:101340004FF4A060FFF758FC10BD000000100240F1
:101350000000FFF8FFFFF6FE08ED00E0F0B50C46D8
:10136000154600220021068C4FF6FE773E4006848B
:10137000028B018C4FF60C7632407E1C06EA031677
:101380002E433243104EB0420ED0104EB0420BD01E
:10139000B0F1804F08D00E4EB04205D00D4EB04295
:1013A00002D00D4EB04206D14FF6FD76314044F0EA
:1013B0000106314305E04FF6F576314044F0010671
:1013C000314302830184F0BD002C01400034014010
:1013D0000004004000080040000C0040F0B50C463E
:1013E0001546002200210026078C4FF6EF7C07EA05
:1013F0000C070784028B018C4FF6FF7707EA04166F
:1014000040F6FF473A404FF6FF7707EA03373A4383
:101410004FF6FF7707EA05273A43114FB8420ED03F
:10142000104FB8420BD0B0F1804F08D00E4FB842E9
:1014300005D00E4FB84202D00D4FB84206D14FF63C
:10144000DF77394046F01007394305E04FF65F7704
:10145000394044F01007394302830184F0BD000095
:10146000002C01400034014000040040000800400E
:10147000000C0040F0B50C46154600220021002665
:10148000078C4FF6FF6C07EA0C070784828B018CF0
:101490004FF6FF7707EA04264FF60C773A404FF6EF
:1014A000FF7707EA03172F433A43114FB8420ED094
:1014B000104FB8420BD0B0F1804F08D00E4FB84259
:1014C00005D00E4FB84202D00D4FB84206D14FF6AC
:1014D000FF57394046F48077394305E04FF2FF5714
:1014E000394044F48077394382830184F0BD0000A1
:1014F000002C01400034014000040040000800407E
:10150000000C0040F0B50C461546002200210026D4
:10151000078C4EF6FF7C07EA0C070784828B018C50
:101520004FF6FF7707EA043640F6FF473A404FF69A
:10153000FF7707EA05273A434FF6FF7707EA0337B5
:101540003A43114FB8420ED0104FB8420BD0B0F111
:10155000804F08D00E4FB84205D00E4FB84202D08F
:101560000D4FB84206D14DF6FF77394046F480570B
:10157000394305E047F6FF57394044F48057394373
:1015800082830184F0BD0000002C01400034014042
:101590000004004000080040000C004010B502218B
:1015A000064800F094F8012806D10221034800F013
:1015B00071F80348FFF7CCF910BD0000002C014082
:1015C000D002002010B501210E4800F080F801285B
:1015D00016D101210B4800F05DF84FF480710A48E4
:1015E000FFF734F801280BD10848807C401C0749DC
:1015F00088740846807C022802DB0846FFF7E6F97B
:1016000010BD0000002C014000080140D002002065
:1016100010B501210D4800F051F8A8B101210B4887
:1016200000F035F80A48036840685A1C40F1000091
:1016300007490A604860074803684068591C40F140
:101640000000044A1160506010BD0000000400401A
:10165000080000201000002021B1028842F0800222
:10166000028004E002884FF67F731A4002807047C0
:1016700030B5002301248C40A3B2048C9C43048425
:10168000048C02FA01F5ADB22C43048430BDCA4388
:1016900002827047CA430282704721B1028842F039
:1016A0000102028004E002884FF6FE731A400280B5
:1016B0007047818270470146888E7047024600203D
:1016C000138A0B400BB1012000E00020704730B5B9
:1016D0000246002000230024158A05EA01039589AB
:1016E00005EA010413B10CB1012000E0002030BD77
:1016F00070B505460C46244885420ED023488542E5
:101700000BD0B5F1804F08D02148854205D0214843
:10171000854202D02048854200D100E000BF2088E9
:1017200050B92389A28861882846FFF717FEE1880F
:10173000284600F050F925E0208804280AD12389A2
:10174000A28861882846FFF749FEE188284600F014
:101750004BF917E0208808280AD12389A2886188DC
:101760002846FFF787FEE188284600F04AF909E09D
:101770002389A28861882846FFF7C4FEE1882846AD
:1017800000F048F970BD0000002C01400034014019
:101790000004004000080040000C00401AB183899A
:1017A0000B43838102E083898B43838170470189E6
:1017B0004FF6F872114001817047000070B50024A7
:1017C00000220023058C4FF6FE7635400584028CFE
:1017D0008388048B4FF68F752C40B51E2C400D88E6
:1017E0002C43751E2A400D892A434D882A43144DE7
:1017F000A8420BD0134DA84208D0134DA84205D0E3
:10180000124DA84202D0124DA84213D14FF6F775DF
:101810002A404D892A434FF6FB752A408D882A437A
:101820004FF6FF652B404FF6FF552B408D892B431C
:10183000CD892B4383800483CD888586028470BD47
:10184000002C0140003401400040014000440140B0
:101850000048014070B5002400220023058C4FF69B
:10186000EF7635400584028C8388048B48F6FF753B
:101870002C404FF6FF452C400D884FF6FF7606EAC8
:1018800005252C434FF6DF752A400D8906EA05151C
:101890002A434D8806EA05152A43154DA84202D071
:1018A000144DA8421DD14FF67F752A404D894FF641
:1018B000FF7606EA05152A434FF6BF752A408D8844
:1018C00006EA05152A434FF6FF352B404FF2FF7508
:1018D0002B408D8906EA85052B43CD8906EA8505CF
:1018E0002B4383800483CD880587028470BD00006C
:1018F000002C01400034014070B500240022002378
:10190000058C4FF6FF6635400584028C8388848BF6
:101910004FF68F752C404FF6FC752C400D882C43EC
:101920004FF6FF552A400D894FF6FF7606EA05254A
:101930002A434D8806EA05252A43154DA84202D0C0
:10194000144DA8421DD14FF2FF752A404D894FF624
:10195000FF7606EA05252A434FF6FF352A408D8893
:1019600006EA05252A434EF6FF752B404DF6FF7516
:101970002B408D8906EA05152B43CD8906EA05150E
:101980002B4383808483CD888587028470BD0000CB
:10199000002C014000340140002101804180818001
:1019A000C180018141818181C181704721B18288DB
:1019B00042F08002828004E082884FF67F731A40F2
:1019C0008280704702884FF6FF431A4002800288E7
:1019D0000A4302807047028B4FF6F3731A4002836A
:1019E000028B0A4302837047028B4FF2FF331A4087
:1019F0000283028B4FF6FF7303EA01231A4302832B
:101A00007047828B4FF6F3731A408283828B0A43AE
:101A100082837047828B4FF2FF331A408283828B1E
:101A20004FF6FF7303EA01231A43828370470000D5
:101A3000002202881D4B98420ED01D4B98420BD0BD
:101A4000B0F1804F08D01B4B984205D01A4B9842FA
:101A500002D01A4B984204D14FF68F731A404B882C
:101A60001A43174B984207D0164B984204D04FF6B2
:101A7000FF431A40CB881A4302808B8883850B88EA
:101A800003850A4B98420BD0094B984208D00E4B65
:101A9000984205D00D4B984202D00D4B984201D18F
:101AA0000B7A03860123838270470000002C0140DB
:101AB000003401400004004000080040000C0040D9
:101AC000001000400014004000400140004401406C
:101AD000004801402DE9F047FEF716FC04460D468C
:101AE000002037E000EB4007DFF870C00CEB071771
:101AF0003F6807B92CE000EB4007DFF860C00CEB53
:101B00000717D7E9041200EB40070CEB0717FB6936
:101B100000EB40070CEB0717BE68B4EB010865EB60
:101B2000020703EB060CB8EB0C0C77F100070ED3A1
:101B3000002700EB400CDFF8248008EB0C1C8CF82D
:101B4000047000EB400C08EB0C1CCCF81C7000BFC0
:101B5000411C88B20A28C5DBBDE8F0874800002098
:101B600010B540F22551074800F00EF8012807D1C2
:101B7000044800F09DF8C4B2204600F02FF800BFE2
:101B800010BD00000048004070B50246002400234C
:101B90000025002040F66A16B14200D100BFC1F313
:101BA000421501F01F03012606FA03F3012D02D1AD
:101BB0009689334006E0022D02D1168A334001E0B7
:101BC000968A33400C12012606FA04F41688344033
:101BD00013B10CB1012000E0002070BD324909783A
:101BE00011B101295DD114E088280ED100212E4ABF
:101BF000517211464A7A491C8854491E497A491C37
:101C0000294A51720121117002E00021264A5172C5
:101C100047E025494A7A491C8854491E497A491C9B
:101C2000214A51721146497A052902D0082936D134
:101C30001AE01D49C97805290AD11B494979662945
:101C400006D10121194A11700021174A11700AE0CA
:101C50001549C978052906D11349497A052902D1C0
:101C60000021114A11701AE00F49C97808290AD1D8
:101C70000D49097A662906D101210C4A117000210B
:101C8000094A11700AE00849C978082906D10649AD
:101C9000497A082902D10021034A117000BF00BF10
:101CA00000BF00BF70470000E40200204500002094
:101CB00001468888C0F30800704700BFFEE702E0D5
:101CC00008C8121F08C1002AFAD1704770470020C7
:101CD00001E001C1121F002AFBD1704710B5FFF7C8
:101CE00011FAFFF70FF8FEF753FBFEF7DFFCFEF7E4
:101CF000CFFDFEF7EFFAFEF76FFEFFF723FA0020A5
:101D000010BD000000B58BB001210420FFF77CF965
:101D100018208DF82B000720ADF8280003208DF83F
:101D20002A000AA95048FEF706FC01210820FFF707
:101D30006BF918208DF827000120ADF8240003204E
:101D40008DF8260009A94948FEF7F5FB0121082076
:101D5000FFF75AF910208DF823004FF44050ADF8EA
:101D6000200003208DF8220008A94048FEF7E3FB7D
:101D70000120FEF7AFFD01210846FFF725F90121FB
:101D80000220FFF721F901213948FFF765FC4FF0E8
:101D90008040FFF70CFD3648FFF709FD0020ADF845
:101DA0001A00ADF8160044F61F60ADF81800472081
:101DB000ADF8140000208DF81C0005A94FF08040FC
:101DC000FFF736FE4720ADF8140040F2E730ADF8DB
:101DD00018000020ADF8160005A92548FFF728FED9
:101DE00001218807FFF765FC01212148FFF761FC0D
:101DF00001A8FFF7D1FD6020ADF804000020ADF888
:101E00000C000120ADF806000020ADF80A0001A981
:101E10004FF08040FFF7D2FC01A94FF08040FFF760
:101E200019FD01A94FF08040FFF766FD01A8FFF7FB
:101E3000B3FD6020ADF804000020ADF80C000120D7
:101E4000ADF806000020ADF80A0001A90848FFF728
:101E500053FD01218807FFF720FC01210448FFF70B
:101E60001CFC0BB000BD000000080140000C01404C
:101E700000040040941E00080000002048000000FC
:101E8000BE1C0008DC1E000848000020A816000048
:101E9000CE1C000800000000000000000000000050
:101EA0000000000000000000000000000000000032
:101EB00000000000009800A2016202E20322040276
:101EC00005C206E007A8089009000A680BB00C18C4
:0C1ED0000D4A0E100F5A103811000000CF
:04000005080000ED02
:00000001FF
