:020000040800F2
:1000000020170020050100085D17000807120008EE
:10001000691400086D0F0008FB2D000800000000A7
:10002000000000000000000000000000B5200008F3
:100030007910000800000000BD1F000825240008FA
:100040001F0100081F0100081F0100081F01000810
:100050001F0100081F0100081F0100081F01000800
:100060001F0100081F0100081F0100081F010008F0
:100070001F0100081F0100081F0100081F010008E0
:100080001F0100081F0100081F0100081F010008D0
:100090001F0100081F0100081F0100081F010008C0
:1000A0001F010008F92600081F010008D1260008DA
:1000B0001F010008452700081F0100081F01000854
:1000C0001F0100081F0100081F0100081F01000890
:1000D0001F0100081F0100081F010008A12C0008D3
:1000E0001F0100081F0100081F010008DFF810D0E1
:1000F00000F0C0FB004800471D2E0008AFF3008051
:10010000201700200648804706480047FEE7FEE724
:10011000FEE7FEE7FEE7FEE7FEE7FEE7FEE7FEE7B7
:1001200029240008ED000008F0B480EA0102D40F91
:100130004200B2EB410F02D20246084611464A0085
:1001400042D0C30DDDB2C1F3C752AD1A202D35DA4E
:10015000C1F3160141F4000204B15242C5F1200678
:1001600002FA06F12A411044B3EBD05F23D0C4B1A8
:10017000012DA0EBC35009DCF0BC4FF0004202EAB5
:10018000C352DBB200F5000000F0A4BA400000F159
:10019000807000EBC350A0F1807040EAD17049003C
:1001A00009E0490841EAC071A0EBC35000F5000026
:1001B000400800EBC350F0BC00F083BA614201225A
:1001C00002EB4101001BF6E7F0BC704781F00041F3
:1001D000AAE780F00040A7E780EA010210B502F02C
:1001E0000043400022D04A001FD0010E01EB1261F3
:1001F000C0F35600C2F3560240F4000042F400027D
:10020000A0FB022000047F39140400D0401C50EAF7
:10021000124001D44000491EC2B20C0604EBD010BB
:10022000401C4008802A02D003E0002010BD20F0CE
:100230000100002900DA0020184310BD30B480EA24
:10024000010202F0004530F0004221F0004013D0DE
:1002500090B1C30DD40DC2F31601C0F31600E41A19
:1002600041F4000140F400027D34914201D3641C4A
:1002700000E04900002C02DA30BC002070474FF447
:1002800000000023914201D3891A034340084FEA3A
:100290004101F7D151B1914202D14FF0004105E047
:1002A00002D24FF0010101E06FF0010103EBC450F5
:1002B000284430BC00F005BA2DE9FE4F804681EAA3
:1002C0000300C00F0C46009021F0004123F00045D0
:1002D000B8EB0200A94105D24046214690461C4693
:1002E0000B46024623F00040104347D0270DC7F3CA
:1002F0000A00C3F30A510290401A019040286BDAB9
:10030000C3F3130040F4801B0098924620B10023F1
:10031000D2EB030A63EB0B0B01985946C0F1400284
:10032000504600F09DF906460D4650465946019A42
:1003300000F0B5F910EB08006141002487EA115282
:1003400084EAE7731A4340D0009A62B3019A012A03
:100350004FEA075215DC001B61EB02014FF000422F
:1003600002EA0752CDE90042001C41F580113246F5
:100370002B4600F0ECF903B0BDE8F08F4046214673
:10038000F9E7001B61EB0201001C41F58013001826
:100390005B412018A2F5001747EB030140EAD57036
:1003A000B6196D4111E06D084FEA360645EAC07591
:1003B0004FEA0752001B61EB0201001C41F580115E
:1003C00049084FEA30000019514132462B4603B02C
:1003D000BDE8F04F00F0ACB90098012240000023C6
:1003E000D0EB020263EBE073009821464FEAE07421
:1003F000B8EB000061EB0401E9E783F000435BE741
:1004000081F0004158E72DE9FE4F81EA030404F032
:10041000004421F0004100944FF0000B23F0004312
:1004200050EA01045ED052EA03045BD0C3F30A54DD
:10043000C1F30A552C44A4F2F3340194A0FB0254F6
:10044000C1F3130141F48011C3F3130343F4801388
:1004500001FB024400FB034E840A970A44EA8154DC
:1004600047EA8357A4FB076802958D0A05FB0785B9
:100470004FEA932C04FB0C542705029D4FEA0658C3
:1004800047EA1637B5EB08056EEB070C870E920EA0
:1004900047EA811742EA8312A7FB0201B6EB0B0180
:1004A00064EB00042B0D43EA0C335E1844EB1C5044
:1004B000DA465146E7FB0201C5F313044FEA0B335A
:1004C00043EA14534FEA0432019C43EA0603A4F1C1
:1004D0000C040294009CCDE900B400F038F903B09C
:1004E000BDE8F08F00200146F9E7C10F80EAE07017
:1004F0000844CA079623002100F0ECB89623002296
:10050000114600F0E7B80EB540F2334102910021E8
:10051000CDE900110A460B4600F019F903B000BD01
:1005200020F00040C10DC0F3160040F400007F2908
:1005300001DA00207047962903DCC1F19601C8401A
:100540007047963988407047C1F30A5210B5C1F31D
:10055000130140F2FF3341F480119A4201DA002086
:1005600010BD40F233439A42A2F2334203DC5242BE
:1005700000F085F810BD904010BD00F0004230F052
:1005800000400AD0C10D01F56071C0F3160042EAC7
:100590000151C208400711437047002001467047CF
:1005A00030B5041E71F1000404DB4FF000444042FA
:1005B00064EB0101141E73F1000405DB1C464FF0CF
:1005C0000043524263EB04038B4208BF824230BDBA
:1005D00030B5041E71F1000404DB4FF000444042CA
:1005E00064EB0101141E73F1000405DB1C464FF09F
:1005F0000043524263EB0403994208BF904230BD6E
:1006000001F0004330B421F0004150EA010206D06D
:100610000A0DA2F56072C1F31301002A02DC30BC9E
:1006200000207047440F44EAC104C100E01830BC08
:1006300000EBC25000F045B8002801DBC0F10040DB
:10064000002901DBC1F1004181427047002801DB34
:10065000C0F10040002901DBC1F100418842704730
:10066000202A04DB203A00FA02F100207047914072
:10067000C2F1200320FA03F3194390407047202A67
:1006800004DB203A21FA02F00021704721FA02F33C
:10069000D040C2F120029140084319467047202AF9
:1006A00006DBCB17203A41FA02F043EAE07306E09A
:1006B00041FA02F3D040C2F12002914008431946AA
:1006C00070470029A8BF7047401C490008BF20F0B0
:1006D0000100704710B4B0FA80FC00FA0CF050EA48
:1006E000010404BF10BC704749B1CCF1200421FAC9
:1006F00004F411FA0CF118BF012121430843A3EBC4
:100700000C01CB1D4FEA00614FEA102042BF0020D0
:1007100010BC704700EBC35010440029A4BF10BCAC
:100720007047401C490008BF20F0010010BC704712
:1007300010B5141E73F1000408DA401C41F10001E9
:1007400092185B411A4301D120F0010010BD2DE940
:10075000F04D92469B4611B1B1FA81F202E0B0FA37
:1007600080F220329046FFF77BFF04460F4640EAB6
:100770000A0041EA0B0153465A46084313D011467A
:1007800053EA010019D0C8F140025046FFF777FF45
:1007900005460E46504659464246FFF761FF08435C
:1007A00005D0012004E020463946BDE8F08D002048
:1007B000054346EAE0762C4337430A986305E40A8A
:1007C000A0EB08000022FD0A44EA47540A3002D593
:1007D00000200146E9E7010510196941DDE90845F6
:1007E00000196941BDE8F04DA2E700002DE9F04194
:1007F000054621F000400C46284309D0C4F30A50B6
:1008000040F23341884205DD28462146BDE8F081AB
:100810002846FBE740F2FE31884210DC0CDB4FEA51
:10082000043040EA155050EA053105D0104804F074
:10083000004101430020E9E700200146E6E7A0F27D
:1008400033404642C6F1400228462146FFF708FFE2
:1008500007468846284621463246FFF710FF4346A2
:100860003A46FFF765FF3246BDE8F041FFF7F8BEB4
:100870000000F03F064C074D06E0E06840F0010341
:1008800094E8070098471034AC42F6D3FFF732FCE7
:10089000703F0008903F000821B1826842F00102D9
:1008A000826003E0826822F001028260704721B119
:1008B000826842F48072826003E0826822F480726F
:1008C00082607047014600208A6802F004020AB183
:1008D000012000E000207047014600208A6802F0F5
:1008E00008020AB1012000E00020704730B502463E
:1008F0000020002350680F4C20400D790C6844EA1A
:1009000005242043506090680B4C2040D1E90254EC
:100910002C434D7944EA450420439060D06A20F48A
:1009200070000C7C641EE4B2234340EA0350D062A2
:1009300030BD0000FFFEF0FFFDF7F1FF2DE9F05F95
:1009400005460C46A54224DD2046FFF7D7FD82462A
:100950002049FFF73EFC80462046FFF7C6FD824651
:100960002846FFF7CBFD83465146FFF72FFC814613
:100970004146FFF763FC07461749FFF72DFC064683
:1009800016493046FFF762FE00D8134E3046BDE8E8
:10099000F09F2046FFF7A9FD81462046FFF7AEFDF8
:1009A00082462846FFF7AAFD83465146FFF70EFC14
:1009B00080464946FFF742FC07460749FFF70CFC13
:1009C000064607493046FFF737FE00D8054E304649
:1009D000DDE7000000F07F450000B4420000AE42B9
:1009E0000000AEC20000B4C22DE9F05F05460C461F
:1009F000A54224DD2046FFF781FD82462049FFF70E
:100A0000E8FB80462046FFF770FD82462846FFF748
:100A100075FD83465146FFF7D9FB81464146FFF7F6
:100A20000DFC07461749FFF7D7FB06461649304627
:100A3000FFF70CFE00D8134E3046BDE8F09F20466D
:100A4000FFF753FD81462046FFF758FD82462846B2
:100A5000FFF754FD83465146FFF7B8FB80464946F1
:100A6000FFF7ECFB07460749FFF7B6FB06460749C9
:100A70003046FFF7E1FD00D8054E3046DDE70000C7
:100A800000F07F450000C8420000C2420000C2C220
:100A90000000C8C2F0B504460D4600200021092D13
:100AA00011DDE068A5F10A0606EB4607072606FAFF
:100AB00007F18843A5F10A0606EB460603FA06F19C
:100AC0000843E0600CE0206905EB4507072606FABD
:100AD00007F1884305EB450603FA06F10843206158
:100AE000072A0FDA606B561E06EB86071F2606FAEA
:100AF00007F18843561E06EB860605FA06F1084301
:100B0000606322E00D2A0FDA206BD61F06EB860702
:100B10001F2606FA07F18843D61F06EB860605FA5C
:100B200006F10843206310E0E06AA2F10D0606EB2F
:100B300086071F2606FA07F18843A2F10D0606EB89
:100B4000860605FA06F10843E062F0BD816841F0CF
:100B500008018160704721B1826842F4A00282607E
:100B600003E0826822F4A00282607047816841F04D
:100B7000040181607047000010B50648064908600E
:100B80004FF48040888000208871084600F0F0F91A
:100B900010BD0000000C0140A80200202DE9F04724
:100BA000064606F1200406F11005304601F064FA0D
:100BB000F0894FF40061FFF7C1FE07463749FFF7A0
:100BC0000BFB2060708940F2BC71FFF7B7FE07464F
:100BD0004FF07E51FFF700FB6060B0894FF4006179
:100BE000FFF7ACFE07464FF07E51FFF7F5FAA06025
:100BF00030894FF40061FFF7F7FE07464FF07E5152
:100C0000FFF7EAFAE06029682068FFF7DFFA81461B
:100C1000FFF7B3FC21F00041074600224FF080436C
:100C2000FFF7D6FC01D22068286069686068FFF78A
:100C3000CDFA8146FFF7A1FC21F0004107460022D2
:100C40004FF08043FFF7C4FC01D260686860A96878
:100C5000A068FFF7BBFA8146FFF78FFC21F0004147
:100C6000074600224FF08043FFF7B2FC01D2A06894
:100C7000A860E968E068FFF7A9FA8146FFF77DFC04
:100C800021F00041074600224FF08043FFF7A0FC0F
:100C900001D2E068E860BDE8F0870000000080BF96
:100CA0002DE9F05F06460C46154629462046FFF71B
:100CB0008DFA82460D493046FFF736FA8346514693
:100CC000FFF78AFA81460A49FFF7B8FA80462146BB
:100CD000FFF77FFA07464FF07C513846FFF724FABA
:100CE0008046FFF71DFC80B2BDE8F09F0000B442D3
:100CF0000000344301490868496870470800002033
:100D00001FB50121022001F087F90021022001F026
:100D100083F90121022001F06FF90121164801F049
:100D200035FD4720ADF8040040F2E730ADF808008B
:100D30000020ADF8060001A90F4801F019FF0121BC
:100D40000D4801F050FD012211460B4801F0C0FD95
:100D50001D208DF8000000208DF8010001208DF885
:100D600002008DF80300684600F0FAFC01210248F9
:100D700001F02DFD1FBD00000004004010B502F081
:100D80007BF810BD2DE9F04107460C4615461E467E
:100D900022493846FFF750FC01D2204807E020499D
:100DA0003846FFF753FC01D21D4800E038461D4984
:100DB00008601A492046FFF73FFC01D2174807E0B8
:100DC00017492046FFF742FC01D2154800E02046B3
:100DD0001449486011492846FFF72EFC01D20F48FC
:100DE00007E00F492846FFF731FC01D20C4800E02C
:100DF00028460C4988600C493046FFF71DFC01D29B
:100E0000094807E009493046FFF720FC01D20748AE
:100E100000E030460349C860BDE8F0810000B4C27C
:100E20000000B442680200200000C8C20000C842AE
:100E30002DE9F05F42490868FFF79FFB0646414AEB
:100E4000414BFFF7E0FA04460D4640490868FFF7BA
:100E500094FB06463E4A3F4BFFF7D5FA80462246B2
:100E60002B46FFF729FA8246FFF7CAFB374908608D
:100E700033494868FFF781FB0646374A374BFFF78F
:100E8000C2FA04460D4631494868FFF776FB06462C
:100E90004FF06632324BFFF7B6FA824622462B46B7
:100EA000FFF70AFA8046FFF7ABFB28494860244960
:100EB0008868FFF762FB0646274A284BFFF7A3FA2C
:100EC00004460D4621498868FFF757FB06464FF058
:100ED0006632234BFFF797FA804622462B46FFF7F0
:100EE000EBF98246FFF78CFB184988601449C86803
:100EF000FFF743FB0646184A1A4BFFF784FA0446ED
:100F00000D461249C868FFF738FB0646124A164BD1
:100F1000FFF779FA804622462B46FFF7CDF9824645
:100F2000FFF76EFB0949C86000F0DEFA074CE36882
:100F3000A2686168206801F08FF9BDE8F09F0000A9
:100F400068020020B81E85EB51B89E3F5802002071
:100F50000AD7A3703D0AEF3F9A9999999999A93FA9
:100F60006666EE3F9999C93F9999E93F00BFFEE750
:100F700038B504460121082001F05EF810208DF8F4
:100F80000300A088ADF8000002208DF80200694639
:100F9000206800F09FF80020A060E060002121613F
:100FA0006161204600F012F8002009E0064951F87E
:100FB000201019B9044941F8204003E0411CC8B28F
:100FC0000428F3DB00BF38BDE002002070B5044602
:100FD0000D46A07998B1012822D1012D07D1A18811
:100FE0000122206800F00AF90120607606E0A1885D
:100FF0000022206800F002F90020607610E0012D48
:1010000007D1A1880022206800F0F8F8012060765E
:1010100006E0A1880122206800F0F0F80020607648
:1010200000BF70BD21B1026842F00102026004E01D
:1010300002684FF6FE731A400260704710B5002236
:10104000026847F6F0739A430C6A8B6823430C6975
:1010500023434C6923438C692343CC6923434C6A63
:1010600023438C6A23431A430260CB6843600B68B6
:1010700083604B68C36010BD704700002DE9F05FCE
:1010800006460C4615463046FFF777FA21F0004138
:101090000746FFF7B5FA814629462046FFF796F83E
:1010A00083464946FFF798F880460949FFF7C6F896
:1010B00007462946FFF738F882464FF07C515046E4
:1010C000FFF732F80746FFF72BFA80B2BDE8F09F32
:1010D0000000C8422DE9F04102460025002600200C
:1010E00000230024002791F803C00CF00F0591F8AD
:1010F00003C00CF0100CBCF1000F03D091F802C03B
:101100004CEA050591F800C0BCF1000F31D014681D
:1011100000202BE04FF0010C0CFA00F3B1F800C0F6
:101120000CEA03069E4220D183004FF00F0C0CFA0C
:1011300003F7BC4305FA03FC4CEA040491F803C02E
:10114000BCF1280F06D14FF0010C0CFA00FCC2F8DC
:1011500014C00AE091F803C0BCF1480F05D14FF06C
:10116000010C0CFA00FCC2F810C0401C0828D1D3B6
:101170001460B1F800C0BCF1FF0F34DD54680020EA
:101180002EE000F1080C4FF0010808FA0CF3B1F85A
:1011900000C00CEA03069E4221D183004FF00F0CE1
:1011A0000CFA03F7BC4305FA03FC4CEA040491F87B
:1011B00003C0BCF1280F05D100F1080C08FA0CF8A7
:1011C000C2F8148091F803C0BCF1480F07D100F1B8
:1011D000080C4FF0010808FA0CF8C2F81080401C07
:1011E0000828CED35460BDE8F08102460020936801
:1011F0000B400BB1012000E0002070470AB10161F3
:1012000000E04161704700BFFEE7000010B50446F2
:101210000020A0740C4801F0E8FAA081A089E189BF
:10122000884204DDA089E189401A608106E0A08936
:10123000E1894FF6FF72511A08446081A089E0816C
:10124000207A401C207210BD002C014010B500F027
:10125000AFFD00200EE00D4931F810100C4A22F8C5
:1012600010100A4931F810200949083121F81020DE
:10127000411C88B20428EEDB0020054908610021EA
:10128000034841618161C16110BD00001800002068
:101290002802002038B504460121102000F0CCFEC1
:1012A00014208DF80300A088ADF8000002208DF80E
:1012B000020069462068FFF70DFF0020A060E06093
:1012C000002121616161204600F081F8002009E0E1
:1012D000064951F8201019B9044941F8204003E0AB
:1012E000411CC8B20428F3DB00BF38BDF002002067
:1012F00070B500253DE0204850F8254004B936E09F
:10130000207E022800D032E0607E10B101282CD16E
:1013100015E0D4E9031360695A1840F10000174939
:101320000B6849689A1A814108D3144908684968CA
:10133000C4E904010121204600F049F815E0D4E990
:101340000431A0681A1841F100010C480368406894
:101350009A1A884108D3094801684068C4E9041012
:101360000021204600F033F800BF00BF00BF681C1A
:10137000C5B2042DBFDB70BDF002002010000020BC
:101380002DE9F04105460E46174698462C460CB905
:10139000BDE8F08126B1012E09D0022E14D10DE056
:1013A000002020760021204600F011F80CE00120FA
:1013B00020760121204600F00AF805E00220207680
:1013C000A760C4F80C8000BF00BF00BFE0E770B5A5
:1013D00004460D46A07998B1012822D1012D07D1EC
:1013E000A18801222068FFF709FF0120607606E04E
:1013F000A18800222068FFF701FF0020607610E03E
:10140000012D07D1A18800222068FFF7F7FE0120F7
:10141000607606E0A18801222068FFF7EFFE002039
:10142000607600BF70BD000010B50C480C49086024
:1014300040148880002088710846FFF72BFF4FF486
:10144000FA735A0002210648FFF79AFF4FF47A73A5
:1014500005226421034800F02FFE10BD001001405A
:1014600088020020F112000800BFFEE710B5044614
:1014700034B1012C11D0022C1BD0032C30D124E02C
:1014800000224FF480511748FFF7B8FE00224FF4B6
:1014900000511448FFF7B2FE22E001221103114867
:1014A000FFF7ACFE00224FF400510E48FFF7A6FEF6
:1014B00016E000224FF480510A48FFF79FFE0122F8
:1014C00051030848FFF79AFE0AE00122110305487C
:1014D000FFF794FE012251030248FFF78FFE00BF81
:1014E00000BF10BD000C014010B50C48C4680C4989
:1014F0002046FFF7ABF803D20120FFF7B7FF0BE060
:1015000008492046FFF798F803D20220FFF7AEFF04
:1015100002E00020FFF7AAFF10BD000058020020E3
:101520000000A0400000A0C010B504462046FFF710
:101530006DFEE07920B1012806D002280CD107E029
:10154000204600F0BDF807E0204600F0CDF803E0AB
:10155000204600F0F0F800BF00BF10BD70B5044693
:101560002068000E20712068C0F307452088000A1B
:101570006071267820796840FF280CD1607970402E
:10158000FF2808D1207930B90120A07104490870E2
:101590000220E07102E0204600F004F870BD000077
:1015A00020000020002101600172C171018270479A
:1015B00000B589B00121052000F03EFD48208DF8DE
:1015C00023004FF48070ADF8200008A93A48FFF7D7
:1015D00081FD0121C80200F03FFD00214FF40060B1
:1015E00000F03AFD0121C80200F026FD0121334838
:1015F00001F0CCF88F20ADF814004FF6FF70ADF875
:1016000018000020ADF816008DF81C00ADF81A0087
:1016100005A92A4801F0ACFA0121284801F0E3F8B5
:101620000021264801F05CFA0021244801F064FA08
:101630000020ADF808000920ADF810000220ADF838
:101640000A000020ADF80E000120ADF80C0002A940
:101650001A4801F0E7F80121184801F0B8F8012212
:101660000021164801F09EF801220321134801F0E1
:101670002FF90321114801F0A4F81B208DF8040074
:1016800000208DF8050001208DF806008DF8070078
:1016900001A800F065F819208DF8040000208DF8ED
:1016A000050001208DF806008DF8070001A800F064
:1016B00057F809B000BD000000080140002C0140AF
:1016C00070B50446267A6589022E0CD141F27070FD
:1016D000854205DDB5F5FA5F02DA0120E07102E02E
:1016E0002046FFF75FFF70BD70B50446267A658916
:1016F000022E1FDD206840002060B5F5E17F05DD8A
:10170000B5F52F7F02DA206820600EE0B5F5487F3E
:1017100008DD40F21450854204DA206840F00100F0
:10172000206002E02046FFF73DFF222E02D1204636
:10173000FFF714FF70BD017A28290ED141892222BA
:10174000027241F29412914206DD41F270729142AE
:1017500002DA028A521C028200BF70477047000002
:1017600070B5002100230F22C47804B3154C2468FF
:1017700004F4E064C4F5E064210AC1F10403CA4042
:10178000447804FA03F184781440214309010E4C93
:101790000678A155047804F01F050124AC400578B3
:1017A0006D11AD0005F1E025C5F8004109E00478B0
:1017B00004F01F050124AC40044D0678761145F86D
:1017C000264070BD0CED00E000E400E080E100E0A8
:1017D00002490143024A1160704700000000FA0507
:1017E0000CED00E000200CE0002106E00022064B9A
:1017F00003EBC0135A544A1CD1B28029F6DB421CB9
:10180000D0B20828F0DB70471E0300202DE9F0431A
:1018100004460D4616461F46284638E0224631E06B
:10182000002A2DDB7F2A2BDC002829DB3F2827DC40
:101830004FEAE07C00EB5C7C4FEAEC0CDFF8588070
:1018400008EBCC1C1CF802C003464FEAE07800EB22
:1018500058784FEAE808A0EBC8094FF0010808FAE9
:1018600009F82CEA080C01464FEAE07800EB5878BA
:101870004FEAE808DFF8209009EBC81808F802C022
:10188000511C0AB2A1199142CADC411C08B2E919E3
:101890008142C3DCBDE8F0831E03002038B500247C
:1018A00006E0002500E06D1CB5F57A7FFBD3641CD3
:1018B000B4F57A7FF5D30121082000F0BDFB142098
:1018C0008DF8030003208DF802004FF48070ADF80E
:1018D000000069460848FFF7FDFB4FF40070ADF8C3
:1018E000000069460448FFF7F5FB012000F020FAEC
:1018F000012000F029FA38BD000C014070B5054602
:10190000002411E080212141294009B1012100E09A
:101910000021084600F018FA012000F009FA002022
:1019200000F006FA601CC4B2082CEBDB012000F0CA
:10193000FFF9002000F0FCF970BD10B5012000F0A7
:1019400003FA012000F0F4F9002000F0FDF9002076
:1019500000F0EEF910BD10B5002000F0F5F90120FF
:1019600000F0E6F9012000F0EFF910BD10B5FFF727
:1019700095FFAE2000F0F4F9D52000F0F1F98020B9
:1019800000F0EEF9A82000F0EBF93F2000F0E8F9B4
:10199000D32000F0E5F9002000F0E2F9402000F04B
:1019A000DFF9A12000F0DCF9C82000F0D9F9DA2035
:1019B00000F0D6F9122000F0D3F9812000F0D0F920
:1019C000CF2000F0CDF9D92000F0CAF9F12000F0C5
:1019D000C7F9DB2000F0C4F9302000F0C1F9A420E1
:1019E00000F0BEF9A62000F0BBF98D2000F0B8F998
:1019F000142000F0B5F9AF2000F0B2F9FFF7F2FEC5
:101A000000F054F910BD10B50246012000E050432B
:101A10000B1EA1F10101FAD110BD70B505460C46AF
:101A200045F0B00000F09CF9102141EA141000F0DC
:101A300097F904F00F0000F093F970BDF8B5064671
:101A40000F4614461D46082D0CD1A4F120000E4966
:101A500001EB00101023082239460090304600F0B8
:101A600081F80FE0062D0DD1A4F1200000EB40001D
:101A7000064901EB40000823062239460090304613
:101A800000F070F8F8BD00008030000870360008E3
:101A90002DE9FF5F86B0074614461D46DDF85080ED
:101AA000169E0022134620462946FEF791FD06D8D1
:101AB00033462B2238460799FFF7C0FF07E033462D
:101AC0002D2238460799FFF7B9FF85F000452046DB
:101AD0002946FEF739FD82465046FEF714FD2246A0
:101AE0002B46CDE90401FEF78BFC04460D460A2087
:101AF0001599FFF788FF81464846FEF704FD224608
:101B00002B46CDE90001FEF77EFCCDE9020101F094
:101B10006DFACDE90401FEF717FD8346BBFBF9F032
:101B20008244B91908B2434652460096079900F01C
:101B300097F808F1010101FB067108B233462E2225
:101B40000799FFF77BFF08F1020101FB067108B25C
:101B500000965A46159B079900F082F80AB0BDE836
:101B6000F09F00002DE9FF4F80460E469146DDF8BC
:101B700034B0002500244A4631464046039BFFF717
:101B800045FE00BF5EE0002558E008EB0500002898
:101B900052DB08EB05007F284EDC3046F11706EBE0
:101BA0005171C9100FB2F11706EB5171C910A6EBB4
:101BB000C10A002E05DA781E07B20AF108000FFAF2
:101BC00080FA3819002817DB3819072814DC38196F
:101BD000224901EBC01008EB0501405C04FB0951F0
:101BE0001BF8011001FA0AF1084339191B4A02EBEC
:101BF000C11108EB050288543819401C00281BDB72
:101C00003819401C072817DC3819401C134901EB10
:101C1000C01008EB0501405C04FB09511BF80110E2
:101C2000CAF10802114108433919491C0B4A02EB59
:101C3000C11108EB05028854681CC5B24D45A4DBF0
:101C4000601CC4B20399481EC11700EB51710122F8
:101C500002EBE101A14296DCBDE8FF8F1E030020EC
:101C60002DE9F0470646894617461D46DDF82080D7
:101C7000002417E0281B411E0A20FFF7C4FEB7FB13
:101C8000F0F00A21B0FBF1F201FB120000F1300A82
:101C900004FB086108B2434652464946FFF7CEFEB0
:101CA000601CC4B2AC42E5DBBDE8F08710B500248F
:101CB0000BE000212046FFF7B0FE054901EBC41000
:101CC000802100F05DF8601CC4B2082CF1DB10BD6F
:101CD0001E03002070B51448057800212846FFF740
:101CE0009CFEFFF72AFE7820FFF708FE4020FFF752
:101CF00005FE002407E00D4901EBC511085DFFF763
:101D0000FDFD601CC4B2802CF5DBFFF724FE064805
:101D10000078401C0449087008460078082801DB58
:101D20000020087070BD0000460000201E03002047
:101D300010B5044622464FF480710248FFF75EFA60
:101D400010BD0000000C014010B5044622464FF4BF
:101D500000710248FFF752FA10BD0000000C01406C
:101D600010B50446FFF7E9FD7820FFF7C7FD002016
:101D7000FFF7C4FD2046FFF7C1FDFFF7ECFD10BDE6
:101D800070B505460E46FFF7D8FD7820FFF7B6FD83
:101D90004020FFF7B3FD002404E0285DFFF7AEFD0F
:101DA000601CC4B2B442F8DBFFF7D5FD70BD000083
:101DB00000B591B00121042000F03EF90121480254
:101DC00000F03AF90121084600F006F94FF400400E
:101DD00000F0F6F800208DF843007820ADF84000C0
:101DE00003208DF8420010A93648FFF773F9052348
:101DF000012203213448FEF74DFE0523022204216F
:101E00003148FEF747FE0523032219462E48FEF708
:101E100041FE0523042206212B48FEF73BFE00204D
:101E20000B900E904FF460200D9001208DF8310042
:101E30008DF8300004208DF83C000BA92248FEF7F5
:101E400055FD21484C3000908015069000200490EC
:101E50001E4801904FF4806007908020059000207C
:101E60000290042003902020089000200A904FF454
:101E70008050099069461648FFF7E0F801211448A0
:101E8000FFF7D0F801211048FEF711FD01210E489F
:101E9000FEF702FD0C48FEF759FE00BF0A48FEF7A8
:101EA0001BFD0128FAD00848FEF760FE00BF064877
:101EB000FEF708FD0128FAD001210348FEF74BFE8A
:101EC00011B000BD000801400024014018000020AE
:101ED000080002403EB52748FEF760FE2549086924
:101EE000FEF74BFB04460B46062004210322CDE9F6
:101EF00000210290224618210020FFF7C9FD1D494C
:101F00004869FEF73AFB04460B46062004210322EB
:101F1000CDE900210290224620210020FFF7B8FDE4
:101F200014498869FEF729FB04460B460620042164
:101F30000322CDE900210290224628210020FFF74C
:101F4000A7FD0C49C869FEF718FB04460B4606209E
:101F500004210322CDE900210290224630210020F5
:101F6000FFF796FD034CE369A26961692069FEF7FA
:101F700009FF3EBD2802002010B5044621464FF05F
:101F8000804000F0C2FD10BD10B5044621464FF060
:101F9000804000F0BCFD10BD10B5044621464FF056
:101FA000804000F0B6FD10BD10B504462146024841
:101FB00000F0AFFD10BD00000004004070470000BD
:101FC00001460020034A506820F440400843506016
:101FD000704700000010024029B1064A52690243CE
:101FE000044B5A6104E0034A52698243014B5A612F
:101FF000704700000010024029B1064AD26902432E
:10200000044BDA6104E0034AD2698243014BDA618E
:10201000704700000010024029B1064A12690243CD
:10202000044B1A6104E0034A12698243014B1A61AE
:10203000704700000010024029B1064A926902432D
:10204000044B9A6104E0034A92698243014B9A610E
:10205000704700000010024029B1064AD2680243CE
:10206000044BDA6004E0034AD2688243014BDA6031
:10207000704700000010024030B50146002014E017
:102080000B4C34F8102001F1080424F8102031F82A
:102090001040A31A1C1E01DB254600E065421E2DE0
:1020A00001DD21F81020421C90B20428E8DB30BD8D
:1020B00018000020704700002DE9F04105460E464B
:1020C00017469846214800880A2803DB4FF0FF3066
:1020D000BDE8F081002435E004EB44001C4901EB2D
:1020E0000010006860BB04EB440001EB00100560C9
:1020F00004EB440001EB0010866004EB440001EBAC
:102100000010C0F81880FEF7F5FD04EB4402104BF8
:1021100003EB0212C2E9040104EB4400194601EB8F
:1021200000100784002004EB44011A4602EB011161
:10213000087106480088401C044908800120C7E750
:10214000601C84B20A2CC7DB0020C1E7000000201D
:102150004800002010B5FEF7D3FD002014E0002158
:1021600000EB40020A4B03EB02121160022100EB6C
:10217000400203EB02121171002100EB400203EB5D
:102180000212D161411C88B20A28E8DB10BD0000B0
:102190004800002039E000F03DFD00F03BF88146AA
:1021A000B9F1000F00DA30E009EB4900174901EB03
:1021B0000014FEF79FFD05460E46A1694F1946F132
:1021C0000008134804600120207120688047002027
:1021D0000F490860FEF78EFD05460E46781B78EB2A
:1021E000060006D203202071FEF784FDC4E9040135
:1021F0000AE002202071C4E90456D4E90A20521CE6
:1022000040F10000C4E90A2000BFC4E748000020F4
:102210000400002010B54FF0FF32110C002015E033
:1022200000EB40030B4C04EB03131B7963B900EB89
:10223000400304EB03131B8C8B4205DA00EB4003D5
:1022400004EB0313198C0246431C98B20A28E7DBFF
:10225000104610BD480000202DE9F05F07460C46EF
:1022600015461E4629493846FEF7E6F900D203E036
:1022700027493846FEF7EAF924492046FEF7DCF9FB
:1022800000D203E022492046FEF7E0F91F49284624
:10229000FEF7D2F900D203E01D492846FEF7D6F931
:1022A0001C493046FEF7C8F900D203E01A4930460F
:1022B000FEF7CCF9194A1A493846FEF7F1FC804678
:1022C000184A19492046FEF7EBFC8146154A174982
:1022D0002846FEF7E5FC8246154A16493046FEF7C9
:1022E000CDFE83464046FFF747FE4846FFF74CFECB
:1022F0005046FFF751FE5846FFF756FE0E4807605E
:1023000044608560C660BDE8F09F00000000B4C274
:102310000000B4420000C8C20000C84200401C4592
:1023200000001644002019450000FA430000C8438D
:102330000000964300007A445802002010B500F0D7
:1023400001F810BD0CB500200190009033480068E2
:1023500040F480303149086000BF3048006800F424
:10236000003000900198401C0190009818B9019825
:10237000B0F5A06FF1D12948006800F4003010B129
:102380000120009001E0002000900098012843D136
:102390002348006840F010002149086008460068A2
:1023A00020F0070008600846006840F0020008605E
:1023B0001A4840681949486008464068486008461D
:1023C000406840F4806048600846406820F47C1013
:1023D00048600846406840F4E810486008460068D5
:1023E00040F08070086000BF0C48006800F000708A
:1023F0000028F9D00948406820F0030007494860E8
:102400000846406840F00200486000BF034840684A
:1024100000F00C000828F9D10CBD000000100240AB
:10242000002002407047000010B51548006840F0D9
:1024300001001349086008464068124908401049E5
:10244000486008460068104908400D490860084681
:10245000006820F4802008600846406820F4FE00F0
:1024600048604FF41F008860FFF768FF4FF000607E
:10247000064908604FF4A060FFF7AAF910BD0000FC
:10248000001002400000FFF8FFFFF6FE08ED00E03C
:10249000F0B50C46154600220021068C4FF6FE775B
:1024A0003E400684028B018C4FF60C7632407E1C37
:1024B00006EA03162E433243104EB0420ED0104EA1
:1024C000B0420BD0B0F1804F08D00E4EB04205D0D4
:1024D0000D4EB04202D00D4EB04206D14FF6FD7601
:1024E000314044F00106314305E04FF6F5763140C6
:1024F00044F00106314302830184F0BD002C014009
:10250000003401400004004000080040000C00407E
:10251000F0B50C461546002200210026078C4FF628
:10252000EF7C07EA0C070784028B018C4FF6FF77DC
:1025300007EA041640F6FF473A404FF6FF7707EAEE
:1025400003373A434FF6FF7707EA05273A43114F1F
:10255000B8420ED0104FB8420BD0B0F1804F08D027
:102560000E4FB84205D00E4FB84202D00D4FB842C0
:1025700006D14FF6DF77394046F01007394305E0C2
:102580004FF65F77394044F01007394302830184E6
:10259000F0BD0000002C0140003401400004004068
:1025A00000080040000C0040F0B50C461546002223
:1025B00000210026078C4FF6FF6C07EA0C07078402
:1025C000828B018C4FF6FF7707EA04264FF60C77D3
:1025D0003A404FF6FF7707EA03172F433A43114F6C
:1025E000B8420ED0104FB8420BD0B0F1804F08D097
:1025F0000E4FB84205D00E4FB84202D00D4FB84230
:1026000006D14FF6FF57394046F48077394305E04D
:102610004FF2FF57394044F4807739438283018475
:10262000F0BD0000002C01400034014000040040D7
:1026300000080040000C0040F0B50C461546002292
:1026400000210026078C4EF6FF7C07EA0C07078462
:10265000828B018C4FF6FF7707EA043640F6FF477E
:102660003A404FF6FF7707EA05273A434FF6FF77E0
:1026700007EA03373A43114FB8420ED0104FB84221
:102680000BD0B0F1804F08D00E4FB84205D00E4F9E
:10269000B84202D00D4FB84206D14DF6FF7739400F
:1026A00046F48057394305E047F6FF57394044F474
:1026B0008057394382830184F0BD0000002C014023
:1026C000003401400004004000080040000C0040BD
:1026D00010B50221064800F094F8012806D1022125
:1026E000034800F071F80348FEF71EFF10BD00001C
:1026F000002C01400003002010B501210E4800F01D
:1027000080F8012816D101210B4800F05DF84FF444
:1027100080710A48FEF769FD01280BD10848807CCA
:10272000401C074988740846807C022802DB084662
:10273000FEF738FF10BD0000002C014000080140EA
:102740000003002010B501210D4800F051F8A8B198
:1027500001210B4800F035F80A48036840685A1C0C
:1027600040F1000007490A60486007480368406874
:10277000591C40F10000044A1160506010BD000077
:1027800000040040080000201000002021B1028851
:1027900042F08002028004E002884FF67F731A4004
:1027A0000280704730B5002301248C40A3B2048C12
:1027B0009C430484048C02FA01F5ADB22C430484DA
:1027C00030BDCA4302827047CA430282704721B1BA
:1027D000028842F00102028004E002884FF6FE7394
:1027E0001A4002807047818270470146888E704788
:1027F00002460020138A0B400BB1012000E00020AC
:10280000704730B50246002000230024158A05EAEF
:102810000103958905EA010413B10CB1012000E020
:10282000002030BD70B505460C46244885420ED0C8
:10283000234885420BD0B5F1804F08D0214885420E
:1028400005D02148854202D02048854200D100E0D1
:1028500000BF208850B92389A28861882846FFF7E5
:1028600017FEE188284600F056F925E02088042864
:102870000AD12389A28861882846FFF749FEE188AA
:10288000284600F051F917E0208808280AD123894A
:10289000A28861882846FFF787FEE188284600F075
:1028A00050F909E02389A28861882846FFF7C4FE11
:1028B000E188284600F04EF970BD0000002C014070
:1028C000003401400004004000080040000C0040BB
:1028D0001AB183890B43838102E083898B4383810F
:1028E000704701894FF6F87211400181704700006E
:1028F00070B5002400220023058C4FF6FE7635408B
:102900000584028C8388048B4FF68F752C40B51E8E
:102910002C400D882C43751E2A400D892A434D8872
:102920002A43144DA8420BD0134DA84208D0134D92
:10293000A84205D0124DA84202D0124DA84213D190
:102940004FF6F7752A404D892A434FF6FB752A400A
:102950008D882A434FF6FF652B404FF6FF552B40DD
:102960008D892B43CD892B4383800483CD88858635
:10297000028470BD002C0140003401400040014041
:10298000004401400048014070B5002400220023AB
:10299000058C4FF6EF7635400584028C8388048BD6
:1029A00048F6FF752C404FF6FF452C400D884FF63A
:1029B000FF7606EA05252C434FF6DF752A400D8980
:1029C00006EA05152A434D8806EA05152A43154DE2
:1029D000A84202D0144DA8421DD14FF67F752A405F
:1029E0004D894FF6FF7606EA05152A434FF6BF7567
:1029F0002A408D8806EA05152A434FF6FF352B40FD
:102A00004FF2FF752B408D8906EA85052B43CD8952
:102A100006EA85052B4383800483CD8805870284DD
:102A200070BD0000002C01400034014070B500244E
:102A300000220023058C4FF6FF6635400584028C8A
:102A40008388848B4FF68F752C404FF6FC752C4095
:102A50000D882C434FF6FF552A400D894FF6FF761F
:102A600006EA05252A434D8806EA05252A43154D21
:102A7000A84202D0144DA8421DD14FF2FF752A4042
:102A80004D894FF6FF7606EA05252A434FF6FF35B6
:102A90002A408D8806EA05252A434EF6FF752B400D
:102AA0004DF6FF752B408D8906EA05152B43CD8920
:102AB00006EA05152B4383808483CD8885870284AD
:102AC00070BD0000002C0140003401400021018055
:102AD00041808180C180018141818181C1817047B4
:102AE00021B1828842F08002828004E082884FF621
:102AF0007F731A408280704702884FF6FF431A4066
:102B0000028002880A4302807047818670470187ED
:102B1000704781877047028B4FF6F3731A40028328
:102B2000028B0A4302837047028B4FF2FF331A4035
:102B30000283028B4FF6FF7303EA01231A430283D9
:102B40007047828B4FF6F3731A408283828B0A435D
:102B500082837047828B4FF2FF331A408283828BCD
:102B60004FF6FF7303EA01231A4382837047000084
:102B7000002202881D4B98420ED01D4B98420BD06C
:102B8000B0F1804F08D01B4B984205D01A4B9842A9
:102B900002D01A4B984204D14FF68F731A404B88DB
:102BA0001A43174B984207D0164B984204D04FF661
:102BB000FF431A40CB881A4302808B8883850B8899
:102BC00003850A4B98420BD0094B984208D00E4B14
:102BD000984205D00D4B984202D00D4B984201D13E
:102BE0000B7A03860123838270470000002C01408A
:102BF000003401400004004000080040000C004088
:102C0000001000400014004000400140004401401A
:102C1000004801402DE9F047FEF76CF804460D46E8
:102C2000002037E000EB4007DFF870C00CEB07171F
:102C30003F6807B92CE000EB4007DFF860C00CEB01
:102C40000717D7E9041200EB40070CEB0717FB69E5
:102C500000EB40070CEB0717BE68B4EB010865EB0F
:102C6000020703EB060CB8EB0C0C77F100070ED350
:102C7000002700EB400CDFF8248008EB0C1C8CF8DC
:102C8000047000EB400C08EB0C1CCCF81C7000BF6F
:102C9000411C88B20A28C5DBBDE8F0874800002047
:102CA00010B540F22551074800F00EF8012807D171
:102CB000044800F09DF8C4B2204600F02FF800BF91
:102CC00010BD00000048004070B5024600240023FB
:102CD0000025002040F66A16B14200D100BFC1F3C2
:102CE000421501F01F03012606FA03F3012D02D15C
:102CF0009689334006E0022D02D1168A334001E066
:102D0000968A33400C12012606FA04F416883440E1
:102D100013B10CB1012000E0002070BD32490978E8
:102D200011B101295DD114E088280ED100212E4A6D
:102D3000517211464A7A491C8854491E497A491CE5
:102D4000294A51720121117002E00021264A517274
:102D500047E025494A7A491C8854491E497A491C4A
:102D6000214A51721146497A052902D0082936D1E3
:102D70001AE01D49C97805290AD11B4949796629F4
:102D800006D10121194A11700021174A11700AE079
:102D90001549C978052906D11349497A052902D16F
:102DA0000021114A11701AE00F49C97808290AD187
:102DB0000D49097A662906D101210C4A11700021BA
:102DC000094A11700AE00849C978082906D106495C
:102DD000497A082902D10021034A117000BF00BFBF
:102DE00000BF00BF70470000140300204500002012
:102DF00001468888C0F30800704700BFFEE702E084
:102E000008C8121F08C1002AFAD170477047002075
:102E100001E001C1121F002AFBD1704710B5FFF776
:102E200099F9FEF7A3FDFDF7A9FFFEF70FFAFEF7EC
:102E3000FBFAFDF7A1FEFEF7BBFB4FF47A73042209
:102E400032210A48FFF738F94FF47A73032232210E
:102E50000748FFF731F94FF47A7305223C21054802
:102E6000FFF72AF9FFF796F9002010BDD51E0008DC
:102E7000310E0008D51C000800B58BB001210420DC
:102E8000FFF7DAF818208DF82B000720ADF828009E
:102E900003208DF82A000AA95148FEF71BF90121E9
:102EA0000820FFF7C9F818208DF827000120ADF899
:102EB000240003208DF8260009A94A48FEF70AF9E4
:102EC00001210820FFF7B8F810208DF823004FF4F7
:102ED0004050ADF8200003208DF8220008A9414899
:102EE000FEF7F8F80120FEF7C1FA01210846FFF7C6
:102EF00083F801210220FFF77FF801213A48FFF70C
:102F000045FC4FF08040FFF7ECFC3748FFF7E9FC49
:102F10000020ADF81A00ADF8160044F61F60ADF8B9
:102F200018004720ADF8140000208DF81C0005A9FA
:102F30004FF08040FFF71CFE4720ADF8140040F230
:102F4000E730ADF818000020ADF8160005A92648B6
:102F5000FFF70EFE01218807FFF745FC01212248FB
:102F6000FFF741FC01A8FFF7B1FD6020ADF80400B8
:102F70000020ADF80C000120ADF806000020ADF8EF
:102F80000A0001A94FF08040FFF7B2FC01A94FF001
:102F90008040FFF7F9FC01A94FF08040FFF746FDA4
:102FA00001A8FFF793FD6020ADF804000020ADF804
:102FB0000C000120ADF806000020ADF80A0001A9C0
:102FC0000948FFF733FD0020FEF750FA012188077A
:102FD000FFF7FDFB01210448FFF7F9FB0BB000BD33
:102FE00000080140000C0140000400402DE9F04DB4
:102FF00007460E46FDF7FAFB04460D463A463346B1
:10300000FDF7FEF9DFF86CA0DFF86CB01B4B07464C
:10301000884616F0004F4FF000020AD0FDF7C0FAC4
:103020000AD900225B4638464146FDF7D1FA1BD249
:1030300012E0FDF7B5FA08D2002253462046294691
:10304000FDF7DBF904460D460EE000225B463846EC
:103050004146FDF7BDFA07D80022534620462946CF
:10306000FDF72AF904460D463146204665F31E0158
:10307000BDE8F08D0000F03F0000E03F0000E0BF41
:103080000000000000000000000000000000000040
:10309000000000F8000000000000003330000000D5
:1030A00000160E00160E00000000000000000000D8
:1030B00040C07840C0784000043F04043F0404004E
:1030C000007088FC08300000001820FF211E00005E
:1030D000F008F000E018000000211C031E211E0073
:1030E00000F00888700000001E21232419272110F9
:1030F000000000160E0000000000000000000000AC
:10310000000000E018040200000000071820400042
:1031100000020418E0000000004020180700000032
:10312000404080F0804040000202010F0102020096
:10313000000000F0000000000101011F010101007A
:10314000000000000000000000B07000000000005F
:103150000000000000000000000101010101010168
:1031600000000000000000000030300000000000FF
:1031700000000000806018040060180601000000D4
:1031800000E010080810E000000F102020100F00D1
:10319000001010F8000000000020203F2020000058
:1031A00000700808088870000030282422213000B0
:1031B00000300888884830000018202020110E00B8
:1031C0000000C02010F8000000070424243F240061
:1031D00000F80888880808000019212020110E0036
:1031E00000E0108888180000000F112020110E0048
:1031F00000380808C83808000000003F0000000040
:103200000070880808887000001C222121221C0000
:1032100000E010080810E0000000312222110F0029
:10322000000000C0C00000000000003030000000BE
:10323000000000C0C0000000000080B0700000006E
:103240000000804020100800000102040810200047
:103250004040404040404000040404040404040092
:103260000008102040800000002010080402010027
:10327000007048080808F000000000303601000027
:10328000C030C828E810E0000718272423140B00DA
:103290000000C038E0000000203C23020227382054
:1032A00008F8888888700000203F202020110E0038
:1032B000C03008080808380007182020201008002F
:1032C00008F808080810E000203F202020100F0018
:1032D00008F88888E8081000203F202023201800E4
:1032E00008F88888E8081000203F2000030000004C
:1032F000C03008080838000007182020221E0200ED
:1033000008F808000008F808203F210101213F20AB
:10331000000808F8080800000020203F20200000D6
:1033200000000808F8080800C08080807F000000C6
:1033300008F888C028180800203F200126382000FF
:1033400008F8080000000000203F20202020300066
:1033500008F8F800F8F80800203F003F003F200080
:1033600008F830C00008F808203F200007183F0088
:10337000E01008080810E0000F10202020100F00B7
:1033800008F808080808F000203F210101010000AA
:10339000E01008080810E0000F18242438504F00EF
:1033A00008F8888888887000203F2000030C3020AF
:1033B00000708808080838000038202121221C00ED
:1033C000180808F8080818000000203F2000000036
:1033D00008F808000008F808001F202020201F001F
:1033E0000878880000C83808000007380E0100007F
:1033F000F80800F80008F800033C0700073C030049
:10340000081868808068180820302C03032C3020AE
:103410000838C800C83808000000203F200000001D
:1034200010080808C8380800203826212020180075
:10343000000000FE020202000000007F4040400049
:10344000000C30C000000000000000010638C00081
:1034500000020202FE000000004040407F00000029
:1034600000201008040810200000000000000000E8
:10347000000000000000000080808080808080804C
:10348000000204080000000000000000000000002E
:1034900000008080808000000019242222223F202A
:1034A00008F8008080000000003F112020110E006D
:1034B0000000008080800000000E112020201100FC
:1034C000000000808088F800000E112020103F20AE
:1034D0000000808080800000001F22222222130032
:1034E000008080F0888888180020203F202000007D
:1034F0000000808080808000006B94949493600032
:1035000008F8008080800000203F210000203F203C
:1035100000809898000000000020203F202000003C
:10352000000000809898000000C08080807F00002C
:1035300008F8000080808000203F24022D30200009
:10354000000808F8000000000020203F20200000B4
:103550008080808080808000203F20003F20003FCE
:10356000008080008080000000203F2100203F205C
:103570000000808080800000001F202020201F008D
:10358000808000808000000080FFA12020110E00BC
:103590000000008080808000000E112020A0FF80AD
:1035A000808080008080800020203F21200001005A
:1035B00000008080808080000033242424241900AF
:1035C000008080E0808000000000001F20200000BC
:1035D0008080000000808000001F202020103F20FD
:1035E000808080000080808000010E30080601008D
:1035F00080800080008080800F300C030C300F0032
:1036000000808000808080000020312E0E3120005C
:10361000808080000080808080818E70180601008C
:1036200000808080808080000021302C22213000AA
:1036300000000000807C020200000000003F4040CB
:1036400000000000FF00000000000000FF0000007C
:103650000002027C800000000040403F00000000AB
:103660000080404080000080000000000001010058
:103670000000000000000000002F00000000070014
:10368000070000147F147F1400242A7F2A120023CD
:1036900013086462003649552250000000070000FC
:1036A00000001C224100000041221C000014083EC2
:1036B00008140008083E0808000000A06000000888
:1036C00008080808000060600000002010080402DC
:1036D000003E5149453E0000427F4000004261519A
:1036E0004946002141454B31001814127F10002734
:1036F00045454539003C4A494930000171090503F7
:1037000000364949493600064949291E0000363627
:10371000000000005636000000081422410000148A
:103720001414141400004122140800020151090667
:10373000003E4955592E007C1211127C007F4949E8
:103740004936003E41414122007F4141221C007F19
:1037500049494941007F09090901003E4149497A27
:10376000007F0808087F0000417F410000204041A1
:103770003F01007F08142241007F40404040007F0D
:10378000020C027F007F0408107F003E4141413E51
:10379000007F09090906003E4151215E007F091999
:1037A00029460046494949310001017F0101003F96
:1037B0004040403F001F2040201F003F4038403F16
:1037C000006314081463000708700807006151497A
:1037D000454300007F414100000204081020000022
:1037E00041417F000004020102040040404040408B
:1037F000000001020400002054545478007F484423
:10380000443800384444442000384444487F003859
:103810005454541800087E0901020018A4A4A47C82
:10382000007F080404780000447D4000004080844C
:103830007D00007F102844000000417F4000007C94
:1038400004180478007C08040478003844444438A0
:1038500000FC242424180018242418FC007C0804EC
:10386000040800485454542000043F444020003CC5
:103870004040207C001C2040201C003C4030403C4C
:10388000004428102844001CA0A0A07C00446454DC
:103890004C440000087F41000000007F0000000051
:1038A000417F0800000804081008EFBC8C000000ED
:1038B0000000000000000000000000000000000008
:1038C000005838000000000000000000000000E385
:1038D00080820000000000000000000000000000E6
:1038E0000000000000001824241800000000000060
:1038F00000000000E9809A00004042CC0000E22273
:103900002A2AF22A2622E0000080403F4080FF89D8
:103910008989BF89A9C9BF8000E8AEAF00004040D7
:1039200042CC008282FE828202FE00000000000083
:10393000007F201000FF0000000F3040F800E5BDC0
:103940009500008080829292929292929292FE8052
:10395000808000404022241048807F0408182422E0
:10396000404000E8B4AA000020201010282422299A
:10397000B2642810102020000080809F4141211D4A
:103980000121215F40800000E59083000000FC04DD
:1039900004FC20104C4B484848C8080800000F049D
:1039A000040F0030484442424140407000E89B8789
:1039B000000000F808FF08F82018C808090E882839
:1039C00018002063211F111930003F44424140403C
:1039D0007800E689AB0000101010FF10900484847A
:1039E00084848484FC00000444827F010020202021
:1039F000202020207F0000E99BB7000020180AAAA1
:103A0000AAAA0AFE0AAAAAAA0A2818000000FE9278
:103A1000929292FE92929292FE000000E78C9C009D
:103A20000040221408F402445454547F5454544423
:103A300000084482413F0000FF15151555957F0091
:103A400000E695B0000090523410FF1034528070A0
:103A50008F0808F80800829A566322528E00804030
:103A6000330C33408000E5AD970000100C04242493
:103A7000242526A464240404140C00020202020279
:103A800042827F0202020202020200E9A38E0000CB
:103A90000000FE021222C202C23202FE000000003A
:103AA00080601F0020100C030C30000F3040F80025
:103AB000E6898700000000FC2424242526242424F1
:103AC00024243C000040300F211549817F0021153E
:103AD00049817F0000E8B08300004042CC0000FE36
:103AE000829292FE929282FE000000003F10887F38
:103AF000001E1212125E807F0000E9809F000040CD
:103B00004042CC0004F49494FF9494F40400000028
:103B100040201F20484442415F414244484000E861
:103B2000AFB700004042CC0000445454547F54547A
:103B30005444400000007F201000FF1515155595D6
:103B40007F000000E9949900004030EF2464484869
:103B50007F4848487F4848400001017F211100FF0D
:103B60004949494949FF000000E4BA8600000002C3
:103B70000202020202E222120A0602000000000013
:103B800000000040807F0000000000000000E8AF5F
:103B9000B700004042CC0000445454547F54545465
:103BA00044400000007F201000FF15151555957F3B
:103BB000000000E9878D0000101014D4545454FC08
:103BC000525252D312101000404050575555557F55
:103BD0005555555750404000E696B00000404454BB
:103BE00065C664544400FC4444C442400020124A68
:103BF000827F020A92601F0000FF000000E8BE936F
:103C0000000088681FC80810C85452D1129408D008
:103C10001000091909FF0500FF1292FF005F807F65
:103C20000000E585A50000000000000001E21CE0A6
:103C300000000000000000804020100C0300000085
:103C4000030C3040808000E5AFB9000000084888D0
:103C500008C83800901010FF101010000020100C41
:103C6000030418000043807F00000000E6ADA300BD
:103C700000000202C2020202FE82828282820200EE
:103C8000004040407F4040407F40404040404040F6
:103C900000E7A1AE00000484E45C44C42010E827DF
:103CA00024E4342CE00002017F10103F80601F09E3
:103CB000093F49897F00E698AF00000000007F4976
:103CC0004949494949497F000000008141211D219E
:103CD0004181FF8989898989818100E5A4A7000044
:103CE00020202020202020FF202020202020200015
:103CF00080804020100C0300030C102040808000C6
:103D0000E5B08F0000000000E0000000FF000000B0
:103D10002040800000080403000040807F00000075
:103D20000000010E00E5BE880000001088C43300CA
:103D3000FE9292929292FE000000020100FF0000AB
:103D4000FF4020030C1422414000E981970000400D
:103D50004042CC2020AEAAAABFAAAAAE20200000D2
:103D600040201F204067504846485067404000E6CA
:103D700086BE0000E000FF1020FC04D454D404FFF1
:103D8000846506000100FF000847300131455842B4
:103D9000610A3700E681AD000020202424A47F249E
:103DA00024247FA424242020000404221940807F9E
:103DB000000830040932040400E5969C000000026B
:103DC000EAAAAAAAAAAFAAAAAAAAEA02000002021A
:103DD000FA4A4B4A4A4A4A4A4B4AFA020200E4BDAE
:103DE000A00000008060F8074020180F08C80808ED
:103DF000281800010000FF00100C0340807F000124
:103E0000061800E8BE93000088681FC80810C85450
:103E100052D1129408D01000091909FF0500FF12B1
:103E200092FF005F807F0000E8B5A200000202EE72
:103E3000AAAAAAAAABAAAAAAAAEA020200807EAAF1
:103E4000FE00BE423A42BE807E127EE000E5AE9A9F
:103E50000000100C4444444445C6444444444414C3
:103E60000C008040201E2040407F44444444444095
:103E70004000E697B6000000FC848484FC0010102B
:103E8000101010FF101000003F1010103F00000134
:103E90000640807F000000E599A8000080809E9287
:103EA00092929EE0809EB2D2929E80000808F49486
:103EB0009292F10001F2929494F80800E69CBA0004
:103EC000001010D0FF901000FE020202FE00000061
:103ED00000040300FF0083601F0000003F404078A3
:103EE00000E6A2B000001010D0FF900010D010D05B
:103EF00010FF10921400040300FF0041310F01BFB6
:103F000041273847F000E8878200002010FF555510
:103F100055F70052565AF35A561200000000FE2A76
:103F20002A2A2A2A2AAAFE00000000000000000017
:103F3000FF0101013109090909897101010101FF2D
:103F4000FF8080808080809681808080808080FF5C
:103F5000FF01818181FD8991A1C1FD81818101FFE5
:103F6000FF808080809F888482819F80808080FF06
:103F7000903F00080000002048000000FE2D0008CF
:103F8000D83F000848000020D81600000E2E000878
:103F90000000000000000000000000000000000021
:103FA0000000000000000000000000000000000011
:103FB000009800A2016202E20322040205C206E0A8
:103FC00007A8089009000A680BB00C180D4A0E10DB
:083FD0000F5A10381100000027
:04000005080000ED02
:00000001FF
