:020000040800F2
:100000000817002005010008AD130008A10B000827
:10001000F9100008D10800088B2900080000000032
:10002000000000000000000000000000351D000876
:100030006D0A000800000000791C0008C11F0008BC
:100040001F0100081F0100081F0100081F01000810
:100050001F0100081F0100081F0100081F01000800
:100060001F0100081F0100081F0100081F010008F0
:100070001F0100081F0100081F0100081F010008E0
:100080001F0100081F0100081F0100081F010008D0
:100090001F0100081F0100081F0100081F010008C0
:1000A0001F010008952200081F0100086D220008AA
:1000B0001F010008E12200081F0100081F010008BD
:1000C0001F0100081F0100081F0100081F01000890
:1000D0001F0100081F0100081F0100083128000847
:1000E0001F0100081F0100081F010008DFF810D0E1
:1000F00000F0B6FA0048004769320008AFF300800C
:10010000081700200648804706480047FEE7FEE73C
:10011000FEE7FEE7FEE7FEE7FEE7FEE7FEE7FEE7B7
:10012000C51F0008ED00000810B5002200E0521CB9
:10013000835C8C5CA34201D1002BF8D1D8B2E1B230
:10014000401A10BD2DE9FE4F804681EA0300C00F22
:100150000C46009021F0004123F00045B8EB02006E
:10016000A94105D24046214690461C460B46024610
:1001700023F00040104347D0270DC7F30A00C3F314
:100180000A510290401A019040286BDAC3F3130021
:1001900040F4801B0098924620B10023D2EB030A62
:1001A00063EB0B0B01985946C0F14002504600F03A
:1001B000B0F906460D4650465946019A00F0C8F976
:1001C00010EB08006141002487EA115284EAE773CA
:1001D0001A4340D0009A62B3019A012A4FEA0752AB
:1001E00015DC001B61EB02014FF0004202EA0752EE
:1001F000CDE90042001C41F5801132462B4600F04B
:10020000C8F903B0BDE8F08F40462146F9E7001B6E
:1002100061EB0201001C41F5801300185B412018BE
:10022000A2F5001747EB030140EAD570B6196D41FE
:1002300011E06D084FEA360645EAC0754FEA0752ED
:10024000001B61EB0201001C41F5801149084FEAD7
:1002500030000019514132462B4603B0BDE8F04F43
:1002600000F088B90098012240000023D0EB020280
:1002700063EBE073009821464FEAE074B8EB0000AE
:1002800061EB0401E9E783F000435BE781F00041A3
:1002900058E72DE9FE4F81EA030404F0004421F001
:1002A000004100944FF0000B23F0004350EA01049A
:1002B0005ED052EA03045BD0C3F30A54C1F30A557B
:1002C0002C44A4F2F3340194A0FB0254C1F31301B3
:1002D00041F48011C3F3130343F4801301FB024480
:1002E00000FB034E840A970A44EA815447EA835785
:1002F000A4FB076802958D0A05FB07854FEA932C3E
:1003000004FB0C542705029D4FEA065847EA1637AE
:10031000B5EB08056EEB070C870E920E47EA8117C6
:1003200042EA8312A7FB0201B6EB0B0164EB000467
:100330002B0D43EA0C335E1844EB1C50DA46514651
:10034000E7FB0201C5F313044FEA0B3343EA1453EE
:100350004FEA0432019C43EA0603A4F10C04029420
:10036000009CCDE900B400F014F903B0BDE8F08FB3
:1003700000200146F9E72DE9F04D81EA030404F07D
:10038000004B21F0004514464FF0000A23F00041D5
:1003900050EA050220D054EA01021DD0C5F30A57E5
:1003A0000246C5F31303C1F31300C1F30A5640F428
:1003B000801543F48013A7EB0608101BD64608F2FD
:1003C000FD3873EB050002D308F1010801E0921833
:1003D0005B41B8F1000F03DA00200146BDE8F08D63
:1003E00000204FF48011064684460EE0171B73EB85
:1003F000050705D3121B63EB050306434CEA010C0A
:1004000049084FEA300092185B4150EA0107EDD1EC
:1004100052EA030012D082EA040083EA050108438D
:1004200005D0101BAB4106D20122002306E00022BA
:100430004FF0004302E06FF0010253101AEB060088
:100440004CEB085110EB0A0041EB0B01BDE8F04DFD
:1004500000F090B830B5041E71F1000404DB4FF0D9
:100460000044404264EB0101141E73F1000405DBFB
:100470001C464FF00043524263EB0403994208BF0D
:10048000904230BD30B50B460146002020220124A9
:1004900009E021FA02F59D4205D303FA02F5491B52
:1004A00004FA02F52844151EA2F10102F1DC30BD68
:1004B0002DE9F05F0546002092469B468846064699
:1004C000814640241BE0284641464746224600F02C
:1004D0002FF853465A46C01A914110D31146184678
:1004E000224600F016F82D1A67EB01084F46224607
:1004F0000120002100F00DF817EB00094E41201EED
:10050000A4F10104DFDC484631462A464346BDE8F3
:10051000F09F202A04DB203A00FA02F10020704705
:100520009140C2F1200320FA03F319439040704731
:10053000202A04DB203A21FA02F00021704721FA38
:1005400002F3D040C2F1200291400843194670479F
:10055000202A06DBCB17203A41FA02F043EAE07387
:1005600006E041FA02F3D040C2F120029140084374
:100570001946704710B5141E73F1000408DA401CC8
:1005800041F1000192185B411A4301D120F00100B2
:1005900010BD2DE9F04D92469B4611B1B1FA81F2A2
:1005A00002E0B0FA80F220329046FFF7B2FF044634
:1005B0000F4640EA0A0041EA0B0153465A460843F7
:1005C00013D0114653EA010019D0C8F14002504639
:1005D000FFF7AEFF05460E46504659464246FFF726
:1005E00098FF084305D0012004E020463946BDE8C5
:1005F000F08D0020054346EAE0762C4337430A9805
:100600006305E40AA0EB08000022FD0A44EA47540F
:100610000A3002D500200146E9E7010510196941B9
:10062000DDE9084500196941BDE8F04DA2E7C1F3D5
:100630000A52C1F3130140F2FF3341F480119A4290
:1006400002DA00200146704740F233439A42A2F298
:10065000334202DC5242FFF76BBFFFF75ABF000084
:10066000064C074D06E0E06840F0010394E80700FF
:1006700098471034AC42F6D3FFF73CFDCC4300085A
:10068000EC43000821B1826842F00102826003E07D
:10069000826822F001028260704721B1826842F4D0
:1006A0008072826003E0826822F480728260704708
:1006B000014600208A6802F004020AB1012000E02D
:1006C00000207047014600208A6802F008020AB143
:1006D000012000E00020704730B5024600200023D2
:1006E00050680F4C20400D790C6844EA05242043E3
:1006F000506090680B4C2040D1E902542C434D7956
:1007000044EA450420439060D06A20F470000C7CD9
:10071000641EE4B2234340EA0350D06230BD0000BF
:10072000FFFEF0FFFDF7F1FFF0B504460D46002097
:100730000021092D11DDE068A5F10A0606EB460748
:10074000072606FA07F18843A5F10A0606EB4606D6
:1007500003FA06F10843E0600CE0206905EB450769
:10076000072606FA07F1884305EB450603FA06F16A
:1007700008432061072A0FDA606B561E06EB8607D6
:100780001F2606FA07F18843561E06EB860605FA71
:1007900006F10843606322E00D2A0FDA206BD61FB2
:1007A00006EB86071F2606FA07F18843D61F06EBDD
:1007B000860605FA06F10843206310E0E06AA2F11C
:1007C0000D0606EB86071F2606FA07F18843A2F1FD
:1007D0000D0606EB860605FA06F10843E062F0BD59
:1007E000816841F008018160704721B1826842F45C
:1007F000A002826003E0826822F4A0028260704757
:10080000816841F0040181607047000010B509481B
:10081000094908604FF480408880002088710846AC
:1008200000F058F84FF47A7301220A21034801F0CE
:1008300083FA10BD000C014090020020310900082D
:100840000149086849687047100000201FB5012160
:10085000022001F03FFA0021022001F03BFA0121C1
:10086000022001F027FA0121164801F05DFD472022
:10087000ADF8040040F2E730ADF808000020ADF814
:10088000060001A90F4801F03BFF01210D4801F0CE
:1008900078FD012211460B4801F0E8FD1D208DF87E
:1008A000000000208DF8010001208DF802008DF875
:1008B0000300684600F07CFD0121024801F055FD6F
:1008C0001FBD00000004004010B502F0FFFC10BD89
:1008D00000BFFEE738B504460121082001F00AFAFE
:1008E00010208DF80300A088ADF8000002208DF8DC
:1008F00002006946206800F0BAF80020A060E060BD
:10090000002121616161204600F05AF8002009E0D1
:10091000064951F8201019B9044941F8204003E074
:10092000411CC8B20428F3DB00BF38BDC802002058
:1009300070B500253CE0204850F8254004B935E06A
:10094000207E022800D031E0607EB8B101282BD192
:10095000D4E90431A0681A1841F10001174803686E
:100960004068D21A814108D2144801684068C4E93D
:1009700004100021204600F023F815E0D4E90431EA
:10098000E0681B1841F100010C4A10685268181AFF
:10099000914108D2094801684068C4E90410012166
:1009A000204600F00DF800BF00BF00BF681CC5B2B4
:1009B000042DC0DB70BD0000C8020020180000201C
:1009C00070B504460D46A07998B1012822D1012DB9
:1009D00007D1A1880122206800F0DDF801206076AF
:1009E00006E0A1880022206800F0D5F8002060769B
:1009F00010E0012D07D1A1880022206800F0CBF87B
:100A00000120607606E0A1880122206800F0C3F88A
:100A10000020607600BF70BD21B1026842F0010283
:100A2000026004E002684FF6FE731A4002607047ED
:100A300010B50022026847F6F0739A430C6A8B687F
:100A400023430C6923434C6923438C692343CC69BA
:100A500023434C6A23438C6A23431A430260CB68C6
:100A600043600B6883604B68C36010BD70472DE91D
:100A7000F041024600250026002000230024002724
:100A800091F803C00CF00F0591F803C00CF0100CA6
:100A9000BCF1000F03D091F802C04CEA050591F8B3
:100AA00000C0BCF1000F31D0146800202BE04FF0E3
:100AB000010C0CFA00F3B1F800C00CEA03069E42E8
:100AC00020D183004FF00F0C0CFA03F7BC4305FA5A
:100AD00003FC4CEA040491F803C0BCF1280F06D1D2
:100AE0004FF0010C0CFA00FCC2F814C00AE091F8B7
:100AF00003C0BCF1480F05D14FF0010C0CFA00FC0B
:100B0000C2F810C0401C0828D1D31460B1F800C04E
:100B1000BCF1FF0F34DD546800202EE000F1080C1A
:100B20004FF0010808FA0CF3B1F800C00CEA030614
:100B30009E4221D183004FF00F0C0CFA03F7BC4307
:100B400005FA03FC4CEA040491F803C0BCF1280F39
:100B500005D100F1080C08FA0CF8C2F8148091F8DD
:100B600003C0BCF1480F07D100F1080C4FF0010899
:100B700008FA0CF8C2F81080401C0828CED3546044
:100B8000BDE8F0810246002093680B400BB10120C4
:100B900000E0002070470AB1016100E04161704748
:100BA00000BFFEE710B504460020A0740C4801F019
:100BB000EAFBA081A089E189884204DDA089E1895E
:100BC000401A608106E0A089E1894FF6FF72511A50
:100BD00008446081A089E081207A401C207210BD09
:100BE000002C01400E488079012816D100200C49C4
:100BF00088710C49087000210DE0094840790A4AC3
:100C000012F81120904204D1074800EB41004078CF
:100C10007047481C81B21229EFD30A20F8E7000080
:100C2000E8020020280000202900002010B500F074
:100C300091FF00200EE00D4931F810100C4A22F807
:100C400010100A4931F810200949083121F8102004
:100C5000411C88B20428EEDB002005490861002110
:100C6000034841618161C16110BD00002000002086
:100C70003002002038B504460121102001F03AF876
:100C800014208DF80300A088ADF8000002208DF834
:100C9000020069462068FFF7EAFE0020A060E060DD
:100CA000002121616161204600F085F8002009E003
:100CB000064951F8201019B9044941F8204003E0D1
:100CC000411CC8B20428F3DB00BF38BDD8020020A5
:100CD00070B500253DE0204850F8254004B936E0C5
:100CE000207E022800D032E0607E10B101282CD195
:100CF00015E0D4E9031360695A1840F10000174960
:100D00000B6849689A1A814108D3144908684968F0
:100D1000C4E904010121204600F04DF815E0D4E9B2
:100D20000431A0681A1841F100010C4803684068BA
:100D30009A1A884108D3094801684068C4E9041038
:100D40000021204600F037F800BF00BF00BF681C3C
:100D5000C5B2042DBFDB70BDD802002018000020F2
:100D600010B5FFF7B5FF10BD2DE9F04105460E4661
:100D7000174698462C460CB9BDE8F08126B1012EE5
:100D800009D0022E14D10DE000202076002120464B
:100D900000F011F80CE0012020760121204600F03F
:100DA0000AF805E002202076A760C4F80C8000BF96
:100DB00000BF00BFE0E770B504460D46A07998B1CA
:100DC000012822D1012D07D1A18801222068FFF737
:100DD000E2FE0120607606E0A18800222068FFF78D
:100DE000DAFE0020607610E0012D07D1A1880022F4
:100DF0002068FFF7D0FE0120607606E0A18801227E
:100E00002068FFF7C8FE0020607600BF70BD0000BC
:100E100010B52A48007800B910BDFFF7E3FE04467C
:100E20000B2C06D00D2C0AD00E2C15D0112C1ED157
:100E300000E01CE02248007802F02AFA17E020487F
:100E4000007818B902201E49087004E01C48007898
:100E5000401E1B4908700AE019480078401C032115
:100E600090FBF1F201FB12001549087000BF00BFB2
:100E700000F0E0FA13A308220021084600F0EBFB83
:100E800012A308221021002000F0E5FB13A3082282
:100E90002021002000F0DFFB14A3082230210020D5
:100EA00000F0D9FB06480078000100F11001102382
:100EB0008022002000F0E8FB00BFADE72800002002
:100EC000090000204C45445F534554005365742D80
:100ED00053544D33322D4C45440000005365742D5E
:100EE00045535033322D4C45440000005365742D5A
:100EF00043414D2D4C45440038B55548007800B964
:100F000038BDFFF76FFE04460B2C06D00C2C12D018
:100F10000D2C1ED00E2C28D11CE000F08BFAAFF265
:100F2000270002F08BFA4FF47A73052264214948B6
:100F300000F002FFE4E74848007810B90020474974
:100F4000888045480078012802D100204349488024
:100F500026E000BF40490978481C00EBD0714910D9
:100F6000A0EB41013C4A11701AE00A2C00DB17E0AB
:100F70003948007838B93948808800EB800004EBA4
:100F800040003649888034480078012807D133482A
:100F9000408800EB800004EB40003049488000BFEF
:100FA00000BF2E484388828802212D48FFF7DCFECF
:100FB0002A488088322809DC28484088322805DD04
:100FC00000231A4619462648FFF7CEFE234880889C
:100FD000322809DB21484088322805DA00231A46E6
:100FE00001211F48FFF7C0FE1C488088322809DC19
:100FF0001A484088322805DC00231A460121184887
:10100000FFF7B2FE00F016FA16A3082200210846E8
:1010100000F021FB1148808816A3082210210090BF
:10102000002000F018FB0D48408816A3082220215C
:101030000090002000F00FFB07480078000100F14D
:10104000100110238022002000F01EFB00BF57E794
:1010500028000020110E0008080000206002002077
:101060007002002053544D33324C45445F53455475
:101070000000000042726967685F74696D653A2517
:10108000640000004461726B5F74696D653A2564A9
:101090000000000010B51348134908604014888010
:1010A000002088710846FFF7E5FD4FF4FA735A00F7
:1010B00002210D48FFF758FE4FF47A730522642190
:1010C0000A4800F039FE4FF47A730222642108487E
:1010D00000F032FE4FF47A7305226421054800F0D7
:1010E0002BFE10BD0010014070020020610D0008B1
:1010F000110E0008791A000800BFFEE710B504467B
:1011000034B1012C11D0022C1BD0032C30D124E09F
:1011100000224FF480511748FFF73DFD00224FF4A5
:1011200000511448FFF737FD22E001221103114856
:10113000FFF731FD00224FF400510E48FFF72BFD61
:1011400016E000224FF480510A48FFF724FD0122E7
:1011500051030848FFF71FFD0AE00122110305486B
:10116000FFF719FD012251030248FFF714FD00BFEC
:1011700000BF10BD000C014010B504462046FFF72B
:1011800011FDE07920B1012806D002280CD107E03A
:10119000204600F0BDF807E0204600F0CDF803E05F
:1011A000204600F0F0F800BF00BF10BD70B5044647
:1011B0002068000E20712068C0F307452088000ACF
:1011C0006071267820796840FF280CD160797040E2
:1011D000FF2808D1207930B90120A0710449087096
:1011E0000220E07102E0204600F004F870BD00002B
:1011F00028000020002101600172C1710182704746
:1012000000B589B00121052000F074FD48208DF85B
:1012100023004FF48070ADF8200008A93A48FFF78A
:1012200026FC0121C80200F075FD00214FF400608A
:1012300000F070FD0121C80200F05CFD012133487F
:1012400001F072F88F20ADF814004FF6FF70ADF882
:1012500018000020ADF816008DF81C00ADF81A003B
:1012600005A92A4801F04CFA0121284801F089F823
:101270000021264801F002FA0021244801F00AFA70
:101280000020ADF808000920ADF810000220ADF8EC
:101290000A000020ADF80E000120ADF80C0002A9F4
:1012A0001A4801F08DF80121184801F05EF801227A
:1012B0000021164801F044F801220321134801F0EF
:1012C000D5F80321114801F04AF81B208DF80400DD
:1012D00000208DF8050001208DF806008DF807002C
:1012E00001A800F065F819208DF8040000208DF8A1
:1012F000050001208DF806008DF8070001A800F018
:1013000057F809B000BD000000080140002C014062
:1013100070B50446267A6589022E0CD141F27070B0
:10132000854205DDB5F5FA5F02DA0120E07102E0E1
:101330002046FFF75FFF70BD70B50446267A6589C9
:10134000022E1FDD206840002060B5F5E17F05DD3D
:10135000B5F52F7F02DA206820600EE0B5F5487FF2
:1013600008DD40F21450854204DA206840F00100A4
:10137000206002E02046FFF73DFF222E02D12046EA
:10138000FFF714FF70BD017A28290ED1418922226E
:10139000027241F29412914206DD41F27072914262
:1013A00002DA028A521C028200BF704770470000B6
:1013B00070B5002100230F22C47804B3154C2468B3
:1013C00004F4E064C4F5E064210AC1F10403CA40F6
:1013D000447804FA03F184781440214309010E4C47
:1013E0000678A155047804F01F050124AC40057867
:1013F0006D11AD0005F1E025C5F8004109E0047864
:1014000004F01F050124AC40044D0678761145F820
:10141000264070BD0CED00E000E400E080E100E05B
:1014200002490143024A1160704700000000FA05BA
:101430000CED00E000200CE0002106E00022064B4D
:1014400003EBC0135A544A1CD1B28029F6DB421C6C
:10145000D0B20828F0DB7047060300202DE9F043E6
:1014600004460D4616461F46284638E0224631E01F
:10147000002A2DDB7F2A2BDC002829DB3F2827DCF4
:101480004FEAE07C00EB5C7C4FEAEC0CDFF8588024
:1014900008EBCC1C1CF802C003464FEAE07800EBD6
:1014A00058784FEAE808A0EBC8094FF0010808FA9D
:1014B00009F82CEA080C01464FEAE07800EB58786E
:1014C0004FEAE808DFF8209009EBC81808F802C0D6
:1014D000511C0AB2A1199142CADC411C08B2E91997
:1014E0008142C3DCBDE8F0830603002038B5002448
:1014F00006E0002500E06D1CB5F57A7FFBD3641C87
:10150000B4F57A7FF5D30121082000F0F3FB142015
:101510008DF8030003208DF802004FF48070ADF8C1
:10152000000069460848FFF7A2FA4FF40070ADF8D2
:10153000000069460448FFF79AFA012000F0CAFA51
:10154000012000F0D3FA38BD000C014070B505460B
:10155000002411E080212141294009B1012100E04E
:101560000021084600F0C2FA012000F0B3FA002082
:1015700000F0B0FA601CC4B2082CEBDB012000F0D4
:10158000A9FA002000F0A6FA70BD10B5012000F005
:10159000ADFA012000F09EFA002000F0A7FA00202A
:1015A00000F098FA10BD10B5002000F09FFA01205D
:1015B00000F090FA012000F099FA10BD10B5FFF785
:1015C00095FFAE2000F09EFAD52000F09BFA802017
:1015D00000F098FAA82000F095FA3F2000F092FA67
:1015E000D32000F08FFA002000F08CFA402000F0A9
:1015F00089FAA12000F086FAC82000F083FADA20E8
:1016000000F080FA122000F07DFA812000F07AFAD2
:10161000CF2000F077FAD92000F074FAF12000F022
:1016200071FADB2000F06EFA302000F06BFAA42093
:1016300000F068FAA62000F065FA8D2000F062FA4A
:10164000142000F05FFAAF2000F05CFAFFF7F2FE22
:1016500000F0FEF910BD0FB470B5C2B005460E46DD
:1016600014464AA8019002A8019A499901F090F9FC
:1016700000200190234602AA3146284600F006F9D0
:1016800042B070BC5DF814FB2DE9F04304460D46F2
:1016900016461F46284638E0224631E0002A2DDB58
:1016A0007F2A2BDC002829DB3F2827DC4FEAE07C5F
:1016B00000EB5C7C4FEAEC0CDFF8588008EBCC1CAC
:1016C0001CF802C003464FEAE07800EB58784FEA76
:1016D000E808A0EBC8094FF0010808FA09F88CEAFD
:1016E000080C01464FEAE07800EB58784FEAE8082A
:1016F000DFF8209009EBC81808F802C0511C0AB2A4
:10170000A1199142CADC411C08B2E9198142C3DC2B
:10171000BDE8F0830603002070B505460C4645F091
:10172000B00000F0EFF9102141EA141000F0EAF9DE
:1017300004F00F0000F0E6F970BD0000F8B50646B1
:101740000F4614461D46082D0CD1A4F120000E4969
:1017500001EB00101023082239460090304600F0BB
:1017600017F80FE0062D0DD1A4F1200000EB40008A
:10177000064901EB40000823062239460090304616
:1017800000F006F8F8BD0000DC340008CC3A000890
:101790002DE9FF4F80460E469146DDF834B0002516
:1017A00000244A4631464046039BFFF757FE00BFE0
:1017B0005EE0002558E008EB0500002852DB08EB4E
:1017C00005007F284EDC3046F11706EB5171C91039
:1017D0000FB2F11706EB5171C910A6EBC10A002E2A
:1017E00005DA781E07B20AF108000FFA80FA3819F4
:1017F000002817DB3819072814DC3819224901EBB7
:10180000C01008EB0501405C04FB09511BF80110F6
:1018100001FA0AF1084339191B4A02EBC11108EB1E
:10182000050288543819401C00281BDB3819401C5D
:10183000072817DC3819401C134901EBC01008EBCE
:101840000501405C04FB09511BF80110CAF10802B4
:10185000114108433919491C0B4A02EBC11108EB2D
:1018600005028854681CC5B24D45A4DB601CC4B297
:101870000399481EC11700EB5171012202EBE101EF
:10188000A14296DCBDE8FF8F060300202DE9FE4F44
:1018900007468A46144698460025AB460026CBE00C
:1018A000605D00F0800058B94FF0010B2846691CBC
:1018B0008DB2205C8DF8040000208DF805006BE0EF
:1018C000605D00F0E000C02814D14FF0020B284604
:1018D000691C8DB2205C8DF80400605D00B9AFE03A
:1018E0002846691C8DB2205C8DF8050000208DF81B
:1018F000060051E0605D00F0F000E0281DD14FF0DF
:10190000030B2846691C8DB2205C8DF80400605DD5
:1019100000B995E02846691C8DB2205C8DF8050061
:10192000605D00B98CE02846691C8DB2205C8DF8A2
:10193000060000208DF807002EE0605D00F0F80042
:10194000F02826D14FF0040B2846691C8DB2205C8C
:101950008DF80400605D00B972E02846691C8DB204
:10196000205C8DF80500605D00B969E02846691CBF
:101970008DB2205C8DF80600605D00B960E02846FD
:10198000691C8DB2205C8DF8070000208DF80800DE
:1019900002E0681C85B24FE0BBF1010F0BD19DF84E
:1019A0000420B91908B243465146FFF7C7FE06EBBB
:1019B000080086B23FE04FF000090EE009EB890114
:1019C00001EB4911204A881801A9FEF7ADFB00B9C7
:1019D0000EE009F101001FFA80F909EB890101EB22
:1019E0004911194A881819A1FEF79EFB0028E5D174
:1019F00000BFB8F1080F12D109EB890000EB4910C4
:101A000011490844401DB919009008B210231A4624
:101A10005146FFF7BDFE06F1100086B20BE0B8F1AB
:101A2000060F08D1B91908B206233F225146FFF725
:101A300085FEB01D86B200BF605D00287FF430AF28
:101A400000BFBDE8FE8F0000063D0008000000005A
:101A500010B500240BE000212046FFF75DFE05498C
:101A600001EBC410802100F05DF8601CC4B2082CAA
:101A7000F1DB10BD0603002070B514480578002185
:101A80002846FFF749FEFFF780FD7820FFF75EFD4F
:101A90004020FFF75BFD002407E00D4901EBC51175
:101AA000085DFFF753FD601CC4B2802CF5DBFFF727
:101AB0007AFD06480078401C044908700846007802
:101AC000082801DB0020087070BD00004E000020D7
:101AD0000603002010B5044622464FF480710248E8
:101AE000FFF759F810BD0000000C014010B5044686
:101AF00022464FF400710248FFF74DF810BD000078
:101B0000000C014010B50446FFF73FFD7820FFF7B9
:101B10001DFD0020FFF71AFD2046FFF717FDFFF718
:101B200042FD10BD70B505460E46FFF72EFD78202C
:101B3000FFF70CFD4020FFF709FD002404E0285DBD
:101B4000FFF704FD601CC4B2B442F8DBFFF72BFDC5
:101B500070BD000000B591B00121042000F0CAF86A
:101B60000121480200F0C6F80121084600F092F871
:101B70004FF4004000F082F800208DF843007820F8
:101B8000ADF8400003208DF8420010A93648FEF75A
:101B90006EFF0523012203213448FEF7C5FD05230E
:101BA000022204213148FEF7BFFD05230322194616
:101BB0002E48FEF7B9FD0523042206212B48FEF727
:101BC000B3FD00200B900E904FF460200D9001208B
:101BD0008DF831008DF8300004208DF83C000BA901
:101BE0002248FEF779FD21484C3000908015069080
:101BF000002004901E4801904FF4806007908020E0
:101C000005900020029004200390202008900020DE
:101C10000A904FF48050099069461648FEF708FF75
:101C200001211448FEF7F8FE01211048FEF735FDAA
:101C300001210E48FEF726FD0C48FEF7D1FD00BF3E
:101C40000A48FEF73FFD0128FAD00848FEF7D8FD04
:101C500000BF0648FEF72CFD0128FAD001210348F9
:101C6000FEF7C3FD11B000BD000801400024014093
:101C700020000020080002407047000001460020BC
:101C8000034A506820F44040084350607047000009
:101C90000010024029B1064A52690243044B5A61BE
:101CA00004E0034A52698243014B5A6170470000C5
:101CB0000010024029B1064AD2690243044BDA619E
:101CC00004E0034AD2698243014BDA6170470000A5
:101CD0000010024029B1064A12690243044B1A61FE
:101CE00004E0034A12698243014B1A617047000005
:101CF0000010024029B1064A92690243044B9A61DE
:101D000004E0034A92698243014B9A6170470000E4
:101D10000010024029B1064AD2680243044BDA603F
:101D200004E0034AD2688243014BDA607047000046
:101D300000100240704700002DE9F04105460E46B4
:101D400017469846214800880A2803DB4FF0FF30E9
:101D5000BDE8F081002435E004EB44001C4901EBB0
:101D60000010006860BB04EB440001EB001005604C
:101D700004EB440001EB0010866004EB440001EB2F
:101D80000010C0F81880FEF75BFD04EB4402104B16
:101D900003EB0212C2E9040104EB4400194601EB13
:101DA00000100784002004EB44011A4602EB0111E5
:101DB000087106480088401C044908800120C7E7D4
:101DC000601C84B20A2CC7DB0020C1E700000020A1
:101DD0005000002010B5FEF739FD002014E000216E
:101DE00000EB40020A4B03EB02121160022100EBF0
:101DF000400203EB02121171002100EB400203EBE1
:101E00000212D161411C88B20A28E8DB10BD000033
:101E10005000002039E000F0C5FC00F03BF881469E
:101E2000B9F1000F00DA30E009EB4900174901EB86
:101E30000014FEF705FD05460E46A1694F1946F14F
:101E400000081348046001202071206880470020AA
:101E50000F490860FEF7F4FC05460E46781B78EB48
:101E6000060006D203202071FEF7EAFCC4E9040153
:101E70000AE002202071C4E90456D4E90A20521C69
:101E800040F10000C4E90A2000BFC4E75000002070
:101E90000400002010B54FF0FF32110C002015E0B7
:101EA00000EB40030B4C04EB03131B7963B900EB0D
:101EB000400304EB03131B8C8B4205DA00EB400359
:101EC00004EB0313198C0246431C98B20A28E7DB83
:101ED000104610BD5000002010B500F001F810BDF4
:101EE0000CB50020019000903348006840F4803029
:101EF0003149086000BF3048006800F400300090AD
:101F00000198401C0190009818B90198B0F5A06F95
:101F1000F1D12948006800F4003010B10120009090
:101F200001E0002000900098012843D12348006878
:101F300040F01000214908600846006820F00700C2
:101F400008600846006840F0020008601A484068CF
:101F5000194948600846406848600846406840F4AF
:101F6000806048600846406820F47C10486008465D
:101F7000406840F4E81048600846006840F080700F
:101F8000086000BF0C48006800F000700028F9D01D
:101F90000948406820F00300074948600846406847
:101FA00040F00200486000BF0348406800F00C00A9
:101FB0000828F9D10CBD00000010024000200240AA
:101FC0007047000010B51548006840F00100134943
:101FD00008600846406812490840104948600846B1
:101FE0000068104908400D4908600846006820F460
:101FF000802008600846406820F4FE0048604FF4E6
:102000001F008860FFF768FF4FF000600649086016
:102010004FF4A060FFF704FA10BD0000001002406A
:102020000000FFF8FFFFF6FE08ED00E0F0B50C46FB
:10203000154600220021068C4FF6FE773E400684AE
:10204000028B018C4FF60C7632407E1C06EA03169A
:102050002E433243104EB0420ED0104EB0420BD041
:10206000B0F1804F08D00E4EB04205D00D4EB042B8
:1020700002D00D4EB04206D14FF6FD76314044F00D
:102080000106314305E04FF6F576314044F0010694
:10209000314302830184F0BD002C01400034014033
:1020A0000004004000080040000C0040F0B50C4661
:1020B0001546002200210026078C4FF6EF7C07EA28
:1020C0000C070784028B018C4FF6FF7707EA041692
:1020D00040F6FF473A404FF6FF7707EA03373A43A7
:1020E0004FF6FF7707EA05273A43114FB8420ED063
:1020F000104FB8420BD0B0F1804F08D00E4FB8420D
:1021000005D00E4FB84202D00D4FB84206D14FF65F
:10211000DF77394046F01007394305E04FF65F7727
:10212000394044F01007394302830184F0BD0000B8
:10213000002C014000340140000400400008004031
:10214000000C0040F0B50C46154600220021002688
:10215000078C4FF6FF6C07EA0C070784828B018C13
:102160004FF6FF7707EA04264FF60C773A404FF612
:10217000FF7707EA03172F433A43114FB8420ED0B7
:10218000104FB8420BD0B0F1804F08D00E4FB8427C
:1021900005D00E4FB84202D00D4FB84206D14FF6CF
:1021A000FF57394046F48077394305E04FF2FF5737
:1021B000394044F48077394382830184F0BD0000C4
:1021C000002C0140003401400004004000080040A1
:1021D000000C0040F0B50C461546002200210026F8
:1021E000078C4EF6FF7C07EA0C070784828B018C74
:1021F0004FF6FF7707EA043640F6FF473A404FF6BE
:10220000FF7707EA05273A434FF6FF7707EA0337D8
:102210003A43114FB8420ED0104FB8420BD0B0F134
:10222000804F08D00E4FB84205D00E4FB84202D0B2
:102230000D4FB84206D14DF6FF77394046F480572E
:10224000394305E047F6FF57394044F48057394396
:1022500082830184F0BD0000002C01400034014065
:102260000004004000080040000C004010B50221AE
:10227000064800F094F8012806D10221034800F036
:1022800071F80348FEF778FF10BD0000002C0140F4
:10229000E802002010B501210E4800F080F8012866
:1022A00016D101210B4800F05DF84FF480710A4807
:1022B000FEF768FC01280BD10848807C401C0749C8
:1022C00088740846807C022802DB0846FEF792FFED
:1022D00010BD0000002C014000080140E802002071
:1022E00010B501210D4800F051F8A8B101210B48AB
:1022F00000F035F80A48036840685A1C40F10000B5
:1023000007490A604860074803684068591C40F163
:102310000000044A1160506010BD0000000400403D
:10232000100000201800002021B1028842F0800235
:10233000028004E002884FF67F731A4002807047E3
:1023400030B5002301248C40A3B2048C9C43048448
:10235000048C02FA01F5ADB22C43048430BDCA43AB
:1023600002827047CA430282704721B1028842F05C
:102370000102028004E002884FF6FE731A400280D8
:102380007047818270470146888E70470246002060
:10239000138A0B400BB1012000E00020704730B5DC
:1023A0000246002000230024158A05EA01039589CE
:1023B00005EA010413B10CB1012000E0002030BD9A
:1023C00070B505460C46244885420ED02348854208
:1023D0000BD0B5F1804F08D02148854205D0214867
:1023E000854202D02048854200D100E000BF20880D
:1023F00050B92389A28861882846FFF717FEE18833
:10240000284600F050F925E0208804280AD12389C5
:10241000A28861882846FFF749FEE188284600F037
:102420004BF917E0208808280AD12389A2886188FF
:102430002846FFF787FEE188284600F04AF909E0C0
:102440002389A28861882846FFF7C4FEE1882846D0
:1024500000F048F970BD0000002C0140003401403C
:102460000004004000080040000C00401AB18389BD
:102470000B43838102E083898B4383817047018909
:102480004FF6F872114001817047000070B50024CA
:1024900000220023058C4FF6FE7635400584028C21
:1024A0008388048B4FF68F752C40B51E2C400D8809
:1024B0002C43751E2A400D892A434D882A43144D0A
:1024C000A8420BD0134DA84208D0134DA84205D006
:1024D000124DA84202D0124DA84213D14FF6F77503
:1024E0002A404D892A434FF6FB752A408D882A439E
:1024F0004FF6FF652B404FF6FF552B408D892B4340
:10250000CD892B4383800483CD888586028470BD6A
:10251000002C0140003401400040014000440140D3
:102520000048014070B5002400220023058C4FF6BE
:10253000EF7635400584028C8388048B48F6FF755E
:102540002C404FF6FF452C400D884FF6FF7606EAEB
:1025500005252C434FF6DF752A400D8906EA05153F
:102560002A434D8806EA05152A43154DA84202D094
:10257000144DA8421DD14FF67F752A404D894FF664
:10258000FF7606EA05152A434FF6BF752A408D8867
:1025900006EA05152A434FF6FF352B404FF2FF752B
:1025A0002B408D8906EA85052B43CD8906EA8505F2
:1025B0002B4383800483CD880587028470BD00008F
:1025C000002C01400034014070B50024002200239B
:1025D000058C4FF6FF6635400584028C8388848B1A
:1025E0004FF68F752C404FF6FC752C400D882C4310
:1025F0004FF6FF552A400D894FF6FF7606EA05256E
:102600002A434D8806EA05252A43154DA84202D0E3
:10261000144DA8421DD14FF2FF752A404D894FF647
:10262000FF7606EA05252A434FF6FF352A408D88B6
:1026300006EA05252A434EF6FF752B404DF6FF7539
:102640002B408D8906EA05152B43CD8906EA051531
:102650002B4383808483CD888587028470BD0000EE
:10266000002C014000340140002101804180818024
:10267000C180018141818181C181704721B18288FE
:1026800042F08002828004E082884FF67F731A4015
:102690008280704702884FF6FF431A40028002880A
:1026A0000A4302807047028B4FF6F3731A4002838D
:1026B000028B0A4302837047028B4FF2FF331A40AA
:1026C0000283028B4FF6FF7303EA01231A4302834E
:1026D0007047828B4FF6F3731A408283828B0A43D2
:1026E00082837047828B4FF2FF331A408283828B42
:1026F0004FF6FF7303EA01231A43828370470000F9
:10270000002202881D4B98420ED01D4B98420BD0E0
:10271000B0F1804F08D01B4B984205D01A4B98421D
:1027200002D01A4B984204D14FF68F731A404B884F
:102730001A43174B984207D0164B984204D04FF6D5
:10274000FF431A40CB881A4302808B8883850B880D
:1027500003850A4B98420BD0094B984208D00E4B88
:10276000984205D00D4B984202D00D4B984201D1B2
:102770000B7A03860123838270470000002C0140FE
:10278000003401400004004000080040000C0040FC
:10279000001000400014004000400140004401408F
:1027A000004801402DE9F047FEF74AF804460D467F
:1027B000002037E000EB4007DFF870C00CEB071794
:1027C0003F6807B92CE000EB4007DFF860C00CEB76
:1027D0000717D7E9041200EB40070CEB0717FB695A
:1027E00000EB40070CEB0717BE68B4EB010865EB84
:1027F000020703EB060CB8EB0C0C77F100070ED3C5
:10280000002700EB400CDFF8248008EB0C1C8CF850
:10281000047000EB400C08EB0C1CCCF81C7000BFE3
:10282000411C88B20A28C5DBBDE8F08750000020B3
:1028300010B540F22551074800F00EF8012807D1E5
:10284000044800F09DF8C4B2204600F02FF800BF05
:1028500010BD00000048004070B50246002400236F
:102860000025002040F66A16B14200D100BFC1F336
:10287000421501F01F03012606FA03F3012D02D1D0
:102880009689334006E0022D02D1168A334001E0DA
:10289000968A33400C12012606FA04F41688344056
:1028A00013B10CB1012000E0002070BD324909785D
:1028B00011B101295DD114E088280ED100212E4AE2
:1028C000517211464A7A491C8854491E497A491C5A
:1028D000294A51720121117002E00021264A5172E9
:1028E00047E025494A7A491C8854491E497A491CBF
:1028F000214A51721146497A052902D0082936D158
:102900001AE01D49C97805290AD11B494979662968
:1029100006D10121194A11700021174A11700AE0ED
:102920001549C978052906D11349497A052902D1E3
:102930000021114A11701AE00F49C97808290AD1FB
:102940000D49097A662906D101210C4A117000212E
:10295000094A11700AE00849C978082906D10649D0
:10296000497A082902D10021034A117000BF00BF33
:1029700000BF00BF70470000FC0200204D00002097
:1029800001468888C0F30800704700BFFEE70000DA
:1029900037B514460846064B6A46214600F0DCF877
:1029A00004466946002000F05AFC20463EBD000067
:1029B0005F32000802E008C8121F08C1002AFAD1DD
:1029C00070477047002001E001C1121F002AFBD1AF
:1029D000704700002DE9FF5F82B00021DDE904307F
:1029E000020DDDF840B0034318D044F61050A2F2B7
:1029F000FF3242431514119801281FD0A5EB0B009C
:102A0000401C5FEA000A4FF000064E4FDFF8389195
:102A1000B046504615D5CAF1000413E011980124C0
:102A20004AA3012801D16FEA0B010298119AC0E96B
:102A30000031C0E9024206B0BDE8F09FCBF10000D2
:102A4000DFE704460021404A491842EB0450CDE933
:102A5000001012E0E00707D032463B4640464946A8
:102A6000FDF717FC8046894632463B46104619461C
:102A7000FDF70FFC06460F466410002CEAD1DDE995
:102A80000401DDE90023BAF1000F06DAFDF701FCCD
:102A900042464B46FDF7FDFB05E0FDF76CFC424668
:102AA0004B46FDF768FC04460E460022284BFDF716
:102AB000D1FC03D84FF0FF30014607E00022254B40
:102AC00020463146FDF73EFBFDF7B1FD102409E03D
:102AD000002C0ADB0A220023FDF7EAFC039B3032BC
:102AE0001A55641E50EA0102F2D1641C039AC4F123
:102AF00011031444119A012A03D0012208430DD175
:102B00000AE0084304D000204FF0110B119072E747
:102B1000A3EB0B056D1E0DE05B4504DD4FF00002DD
:102B200005F1010504E003DA4FF00002A5F101050B
:102B3000002AECD002981199C0E90231C0E90045A1
:102B400079E70000000014400000F03F3000000072
:102B50000000F0430000E03F2DE9FF4F95B09A469A
:102B6000884606460025EEE1252877D10024274631
:102B7000F94A0121039400E0044316F8013F203B89
:102B800001FA03F01042F7D130782A2811D06FF003
:102B90002F033078A0F13002092A16D8039A44F0A6
:102BA000020402EB820203EB42021044761C039003
:102BB000EFE758F8042B0392002A03DA504244F45A
:102BC0000054039044F00204761C30782E2816D16D
:102BD00016F8010F44F004042A280DD06FF02F02DC
:102BE0003078A0F13003092B09D807EB870302EBFB
:102BF0004303C718761CF3E758F8047B761C30783B
:102C00006C280FD006DC4C2817D068280DD06A2815
:102C100014D104E0742810D07A280FD10DE044F4C8
:102C200000140AE044F4801401E044F44014727883
:102C3000824202D104F58014761C761C3078662816
:102C40000BD013DC582877D009DC002875D0452834
:102C5000F6D04628F4D047281AD193E118E063282B
:102C600035D0642879D0652812D18BE1702873D0D3
:102C700008DC6728F1D069286FD06E280DD06F2846
:102C800006D1ACE073282CD0752874D0782853D0A6
:102C90005246179990476D1C54E1C4F30250022824
:102CA00009D003280DD0D8F8001004280DD00D60ED
:102CB00008F1040846E1D8F80010EA17C1E900520B
:102CC000F6E7D8F800100D80F2E70D70F0E718F87D
:102CD000041B8DF8001000208DF80100EB46012048
:102CE00003E058F804BB4FF0FF3061074FF00001DC
:102CF00002D40DE009F101018946B9420FDA81459C
:102D0000F8DB1BF809100029F4D108E009F10101F2
:102D100089468142FADB1BF809100029F6D1039895
:102D20005346A0EB090721463846179A00F080FA6F
:102D3000284400EB090507E044E008E10DE01BF83A
:102D4000010B524617999047B9F10109F7D2534642
:102D500021463846179AF2E039E00A21C4F30252BC
:102D60004FF0000B0091022A06D058F8040BC1174F
:102D7000032A09D00AE023E008F1070020F0070247
:102D8000F2E80201904605E000B2C117042A01D121
:102D900040B2C117002906DA0A460021404261EB21
:102DA00002012D2202E0220504D52B228DF80420F9
:102DB000012203E0E20701D02022F7E7914657E025
:102DC0000A2100E010214FF0000B00910BE01021D0
:102DD0004FF0000B44F004040827009103E00820A2
:102DE0004FF0000B0090C4F30252022A05D058F8AD
:102DF000040B0021032A08D008E008F1070020F0A6
:102E00000702F2E80201904603E080B2042A00D1F2
:102E1000C0B24FF0000922072AD53278702A07D0B5
:102E2000DDF800C08CF0100C5CEA0B0C05D00EE055
:102E300040228DF80420012208E050EA010306D068
:102E400030238DF804308DF8052002229146009B36
:102E500083F0080353EA0B030AD150EA010201D1BF
:102E6000620705D530228DF804204FF001097F1E3E
:102E70003278582A04D039A20C920CAA02920BE0A4
:102E80003BA2F9E75B46009AFDF712FB0C9B9B5CAB
:102E9000029A521E0292137050EA0102F2D1029875
:102EA00004A9081A00F1200B600702D524F480342D
:102EB00000E001275F4502DDA7EB0B0000E00020EA
:102EC00000EB0B01009003984944401A0390E00383
:102ED00006D453462146179A039800F0A9F90544F1
:102EE000002706E001A85246C05D179990476D1C67
:102EF0007F1C4F45F6DBE0030CD553462146179A5D
:102F0000039800F095F9054404E0302052461799E3
:102F100090476D1C0099481E00900029F5DC08E0E0
:102F20000298029952460078491C029117999047DD
:102F30006D1CBBF10001ABF1010BF1DC5BE100F0BA
:102F400065F90544761C307800287FF40DAE19B081
:102F50002846BDE8F08F00000928010030313233E7
:102F600034353637383961626364656600000000C5
:102F700030313233343536373839414243444546AF
:102F800000000000600700D4062708F1070020F0C9
:102F90000700F0E80223804603F0004C5FEA0C00D3
:102FA00001D097A009E0200501D596A005E0E00733
:102FB00001D095A001E0AFF24C001390307823F0DF
:102FC000004365280CD006DC452809D046281DD0D2
:102FD00047287FD13BE0662818D067287AD136E0B1
:102FE0000021112F01DB112000E0781CCDE9000148
:102FF00004A90CA8FFF7EEFCDDE90D010C9A4FF0D7
:10300000000B07F10109109200914EE04FF00040D3
:103010000097CDE9011004A90CA8FFF7DBFCDDE95E
:103020000D020C9B0F994FF0000B914610930092EC
:1030300011B9791C00EB0109B7EB090003D4C0F109
:10304000FF3B07F10109A9EB0700019042E0012FC6
:1030500000DA01270021112F01DD112000E03846A0
:10306000CDE9000104A90CA8FFF7B4FCDDE90D01CE
:103070000C9A00914FF0000BB946109221070FD423
:10308000009A4A4503DA914601E0A9F10109B9F134
:10309000010F05DD109AA9F10101515C3029F4D02E
:1030A000B84202DA10F1040F03DA0121CDE9011070
:1030B00010E0002803DC8344A9EB000102E0411C7E
:1030C000494500DD8946A0EB0B00401C01904FF004
:1030D00000400290200705D40198484502DB4FF0DC
:1030E000FF30019000208DF84B0002980DF14B0746
:1030F000B0F1004F25D002200C902B200D900298AB
:1031000000280CDA404202902D200D9007E00A21A1
:103110000298FDF7B7F93031029007F8011D0C99BC
:10312000481E0C900029F2DC02980028EFD1791E8D
:103130000D980870307800F0200040F0450007F846
:10314000020D11A8C01BC01D02901398007800B199
:10315000012000EB0901019801EBE07102980144A4
:103160000398401A401E0390E00306D453462146BC
:10317000179A039800F05CF805441398007818B18A
:103180005246179990476D1CE00323D553462146BC
:10319000179A039800F04CF805441BE0BBF1000FB0
:1031A00007DB0098584504DD1098179910F80B00BC
:1031B00001E0179930205246904701980BF1010B1E
:1031C000401E05F10105019004D12E2052461799A9
:1031D00090476D1CB9F10001A9F10109DEDC05E0A1
:1031E00017F8010B5246179990476D1C0299481E1B
:1031F00002900029F4DC53462146179A03989EE674
:103200002D0000002B000000200000002DE9F041FF
:10321000044600251E461746880404D405E03946B6
:103220002020B0476D1C641EF9D52846BDE8F0810A
:103230002DE9F041044600251E469046C80301D5FD
:10324000302700E02027880404D505E041463846B1
:10325000B0476D1C641EF9D52846BDE8F0810A68A8
:10326000531C0B601070704710B5FEF7B3FDFEF7EE
:10327000A5F9FDF729FBFDF7D9FCFDF70BFFFDF7DD
:10328000C5FAFDF7BDFFFEF7C5FD002010BD00002B
:1032900010B5044624B1012C0DD0022C0DD10BE049
:1032A000084800F0CBF84FF47A7305223221064823
:1032B000FEF742FD01E000E000BF00BFFEF7BAF8F4
:1032C00010BD0000110E0008F90E000800B58BB00B
:1032D00001210420FEF70EFD18208DF82B00072099
:1032E000ADF8280003208DF82A000AA95048FDF700
:1032F000BEFB01210820FEF7FDFC18208DF82700F9
:103300000120ADF8240003208DF8260009A94948C2
:10331000FDF7ADFB01210820FEF7ECFC10208DF835
:1033200023004FF44050ADF8200003208DF8220018
:1033300008A94048FDF79BFB0120FDF7DFFE0121B6
:103340000846FEF7B7FC01210220FEF7B3FC01217D
:103350003948FEF7E9FF4FF08040FFF790F8364814
:10336000FFF78DF80020ADF81A00ADF8160044F60E
:103370001F60ADF818004720ADF8140000208DF84C
:103380001C0005A94FF08040FFF7BAF94720ADF8BF
:10339000140040F2E730ADF818000020ADF8160038
:1033A00005A92548FFF7ACF901218807FEF7E9FFD9
:1033B00001212148FEF7E5FF01A8FFF755F960203C
:1033C000ADF804000020ADF80C000120ADF80600B7
:1033D0000020ADF80A0001A94FF08040FFF756F831
:1033E00001A94FF08040FFF79DF801A94FF0804000
:1033F000FFF7EAF801A8FFF737F96020ADF80400FD
:103400000020ADF80C000120ADF806000020ADF85A
:103410000A0001A90848FFF7D7F801218807FEF73D
:10342000A4FF01210448FEF7A0FF0BB000BD00007F
:1034300000080140000C01400004004030B5014686
:10344000002041E000EB4002224B03EB0212126825
:103450008A4237D1002200EB40031E4C04EB0313D9
:103460001A6000EB400304EB0313DA61002300EB66
:103470004004184D05EB04142361636100EB400325
:103480002C4604EB03131A84022200EB400304EBE6
:1034900003131A71002200EB400304EB03139A603C
:1034A000002300EB400405EB0414A362E36200EB8D
:1034B00040032C4604EB03139A61074A1288521EFC
:1034C000054B1A80421C90B2034A12889042B9DB25
:1034D00030BD00005000002000000020000000006F
:1034E000000000000000000000000000000000F8E4
:1034F00000000000000000333000000000160E0045
:10350000160E0000000000000000000040C07840DF
:10351000C0784000043F04043F040400007088FCAD
:1035200008300000001820FF211E0000F008F00005
:10353000E018000000211C031E211E0000F0088876
:10354000700000001E2123241927211000000016FE
:103550000E0000000000000000000000000000E07D
:1035600018040200000000071820400000020418A0
:10357000E00000000040201807000000404080F0FC
:10358000804040000202010F01020200000000F032
:10359000000000000101011F010101000000000006
:1035A0000000000000B070000000000000000000FB
:1035B0000000000000010101010101010000000004
:1035C000000000000030300000000000000000009B
:1035D00080601804006018060100000000E0100878
:1035E0000810E000000F102020100F00001010F84D
:1035F000000000000020203F20200000007008088C
:10360000088870000030282422213000003008880B
:10361000884830000018202020110E000000C02033
:1036200010F8000000070424243F240000F8088854
:10363000880808000019212020110E0000E01088E1
:1036400088180000000F112020110E000038080813
:10365000C83808000000003F000000000070880823
:1036600008887000001C222121221C0000E01008A4
:103670000810E0000000312222110F00000000C0FD
:10368000C00000000000003030000000000000C05A
:10369000C0000000000080B070000000000080400A
:1036A00020100800000102040810200040404040A3
:1036B00040404000040404040404040000081020F6
:1036C000408000000020100804020100007048083B
:1036D0000808F0000000003036010000C030C828A3
:1036E000E810E0000718272423140B000000C0385E
:1036F000E0000000203C23020227382008F88888D8
:1037000088700000203F202020110E00C0300808E3
:1037100008083800071820202010080008F80808BA
:103720000810E000203F202020100F0008F88888B3
:10373000E8081000203F20202320180008F888887F
:10374000E8081000203F200003000000C0300808F7
:103750000838000007182020221E020008F8080080
:103760000008F808203F210101213F20000808F847
:10377000080800000020203F20200000000008086A
:10378000F8080800C08080807F00000008F888C02A
:1037900028180800203F20012638200008F80800DB
:1037A00000000000203F20202020300008F8F80012
:1037B000F8F80800203F003F003F200008F830C024
:1037C0000008F808203F200007183F00E010080814
:1037D0000810E0000F10202020100F0008F8080843
:1037E0000808F000203F210101010000E010080856
:1037F0000810E0000F18242438504F0008F888887B
:1038000088887000203F2000030C3020007088085A
:10381000080838000038202121221C00180808F868
:10382000080818000000203F2000000008F80800E9
:103830000008F808001F202020201F0008788800BA
:1038400000C83808000007380E010000F80800F82A
:103850000008F800033C0700073C030008186880D4
:103860008068180820302C03032C30200838C8004A
:10387000C83808000000203F200000001008080899
:10388000C83808002038262120201800000000FE3B
:10389000020202000000007F40404000000C30C0E7
:1038A00000000000000000010638C0000002020213
:1038B000FE000000004040407F0000000020100893
:1038C00004081020000000000000000000000000BC
:1038D00000000000808080808080808000020408DA
:1038E00000000000000000000000000000008080D8
:1038F000808000000019242222223F2008F8008046
:1039000080000000003F112020110E000000008008
:1039100080800000000E1120202011000000008097
:103920008088F800000E112020103F2000008080C9
:1039300080800000001F222222221300008080F0DD
:10394000888888180020203F202000000000808008
:1039500080808000006B94949493600008F800804D
:1039600080800000203F210000203F2000809898A8
:10397000000000000020203F202000000000008008
:103980009898000000C08080807F000008F8000048
:1039900080808000203F24022D302000000808F89D
:1039A000000000000020203F202000008080808058
:1039B00080808000203F20003F20003F008080006A
:1039C0008080000000203F2100203F2000008080F8
:1039D00080800000001F202020201F0080800080A9
:1039E0008000000080FFA12020110E000000008058
:1039F00080808000000E112020A0FF808080800049
:103A00008080800020203F21200001000000808075
:103A1000808080000033242424241900008080E06A
:103A2000808000000000001F202000008080000037
:103A300000808000001F202020103F208080800018
:103A40000080808000010E30080601008080008028
:103A5000008080800F300C030C300F00008080004D
:103A6000808080000020312E0E3120008080800078
:103A70000080808080818E70180601000080808028
:103A8000808080000021302C2221300000000000C6
:103A9000807C020200000000003F40400000000067
:103AA000FF00000000000000FF0000000002027C98
:103AB000800000000040403F0000000000804040C7
:103AC00080000080000000000001010000000000F4
:103AD00000000000002F0000000007000700001495
:103AE0007F147F1400242A7F2A12002313086462A3
:103AF00000364955225000000007000000001C223B
:103B00004100000041221C000014083E0814000877
:103B1000083E0808000000A0600000080808080827
:103B2000000060600000002010080402003E5149BF
:103B3000453E0000427F400000426151494600215D
:103B400041454B31001814127F1000274545453977
:103B5000003C4A49493000017109050300364949D2
:103B6000493600064949291E00003636000000008B
:103B700056360000000814224100001414141414D6
:103B8000000041221408000201510906003E495577
:103B9000592E007C1211127C007F49494936003EA3
:103BA00041414122007F4141221C007F4949494156
:103BB000007F09090901003E4149497A007F080850
:103BC000087F0000417F4100002040413F01007F0D
:103BD00008142241007F40404040007F020C027FD9
:103BE000007F0408107F003E4141413E007F0909EB
:103BF0000906003E4151215E007F09192946004611
:103C0000494949310001017F0101003F4040403FE7
:103C1000001F2040201F003F4038403F0063140831
:103C2000146300070870080700615149454300000C
:103C30007F414100000204081020000041417F0044
:103C40000004020102040040404040400000010224
:103C50000400002054545478007F4844443800380D
:103C60004444442000384444487F00385454541895
:103C700000087E0901020018A4A4A47C007F0804A7
:103C800004780000447D4000004080847D00007F77
:103C9000102844000000417F4000007C0418047894
:103CA000007C0804047800384444443800FC242490
:103CB00024180018242418FC007C08040408004878
:103CC0005454542000043F444020003C4040207C99
:103CD000001C2040201C003C4030403C0044281088
:103CE0002844001CA0A0A07C004464544C44000064
:103CF000087F41000000007F00000000417F0800B5
:103D0000000804081008EFBC8C0000000000000050
:103D10000000000000000000000000000058380013
:103D20000000000000000000000000E380820000AE
:103D30000000000000000000000000000000000083
:103D400000001824241800000000000000000000FB
:103D5000E9809A00004042CC0000E2222A2AF22A9E
:103D60002622E0000080403F4080FF898989BF898A
:103D7000A9C9BF8000E8AEAF0000404042CC00823D
:103D800082FE828202FE000000000000007F201000
:103D900000FF0000000F3040F800E5BD95000080F6
:103DA00080829292929292929292FE8080800040C3
:103DB0004022241048807F0408182422404000E854
:103DC000B4AA00002020101028242229B264281050
:103DD000102020000080809F4141211D0121215F92
:103DE00040800000E59083000000FC0404FC2010EB
:103DF0004C4B484848C8080800000F04040F003026
:103E0000484442424140407000E89B87000000F86F
:103E100008FF08F82018C808090E88281800206331
:103E2000211F111930003F44424140407800E6898B
:103E3000AB0000101010FF109004848484848484EC
:103E4000FC00000444827F0100202020202020204C
:103E50007F0000E99BB7000020180AAAAAAA0AFE60
:103E60000AAAAAAA0A2818000000FE92929292FEBC
:103E700092929292FE000000E78C9C000040221477
:103E800008F402445454547F545454440008448267
:103E9000413F0000FF15151555957F0000E695B0D0
:103EA000000090523410FF10345280708F0808F8D0
:103EB0000800829A566322528E008040330C3340B1
:103EC0008000E5AD970000100C042424242526A4CE
:103ED00064240404140C00020202020242827F02E3
:103EE00002020202020200E9A38E00000000FE02AC
:103EF0001222C202C23202FE0000000080601F00D7
:103F000020100C030C30000F3040F800E6898700C9
:103F1000000000FC242424252624242424243C00FE
:103F20000040300F211549817F00211549817F0014
:103F300000E8B08300004042CC0000FE829292FE76
:103F4000929282FE000000003F10887F001E121235
:103F5000125E807F0000E9809F0000404042CC005C
:103F600004F49494FF9494F40400000040201F2073
:103F7000484442415F414244484000E8AFB7000036
:103F80004042CC0000445454547F545454444000A4
:103F900000007F201000FF15151555957F000000CB
:103FA000E9949900004030EF246448487F4848482D
:103FB0007F4848400001017F211100FF49494949DC
:103FC00049FF000000E4BA8600000002020202027B
:103FD00002E222120A060200000000000000004077
:103FE000807F0000000000000000E8AFB700004044
:103FF00042CC0000445454547F5454544440000074
:10400000007F201000FF15151555957F000000E971
:10401000878D0000101014D4545454FC525252D3C3
:1040200012101000404050575555557F5555555763
:1040300050404000E696B0000040445465C66454C9
:104040004400FC4444C442400020124A827F020AD9
:1040500092601F0000FF000000E8BE930000886827
:104060001FC80810C85452D1129408D01000091962
:1040700009FF0500FF1292FF005F807F0000E585C9
:10408000A50000000000000001E21CE000000000AC
:10409000000000804020100C03000000030C3040A2
:1040A000808000E5AFB900000008488808C83800E3
:1040B000901010FF101010000020100C03041800C6
:1040C0000043807F00000000E6ADA3000000020274
:1040D000C2020202FE8282828282020000404040CE
:1040E0007F4040407F4040404040404000E7A1AE1C
:1040F00000000484E45C44C42010E82724E4342C49
:10410000E00002017F10103F80601F09093F4989CC
:104110007F00E698AF00000000007F494949494907
:1041200049497F000000008141211D214181FF8913
:1041300089898989818100E5A4A7000020202020A9
:10414000202020FF202020202020200080804020D0
:10415000100C0300030C102040808000E5B08F009D
:1041600000000000E0000000FF0000002040800090
:1041700000080403000040807F0000000000010EE2
:1041800000E5BE880000001088C43300FE929292C1
:104190009292FE000000020100FF0000FF40200399
:1041A0000C1422414000E981970000404042CC209D
:1041B00020AEAAAABFAAAAAE2020000040201F203D
:1041C0004067504846485067404000E686BE0000C1
:1041D000E000FF1020FC04D454D404FF84650600E2
:1041E0000100FF000847300131455842610A37009D
:1041F000E681AD000020202424A47F2424247FA471
:1042000024242020000404221940807F0008300468
:104210000932040400E5969C00000002EAAAAAAA5A
:10422000AAAFAAAAAAAAEA0200000202FA4A4B4AC4
:104230004A4A4A4A4B4AFA020200E4BDA000000082
:104240008060F8074020180F08C8080828180001E7
:104250000000FF00100C0340807F0001061800E8FA
:10426000BE93000088681FC80810C85452D1129429
:1042700008D01000091909FF0500FF1292FF005F26
:10428000807F0000E8B5A200000202EEAAAAAAAA56
:10429000ABAAAAAAAAEA020200807EAAFE00BE4237
:1042A0003A42BE807E127EE000E5AE9A0000100C1D
:1042B0004444444445C64444444444140C008040AF
:1042C000201E2040407F4444444444404000E69740
:1042D000B6000000FC848484FC001010101010FF55
:1042E000101000003F1010103F0000010640807FBA
:1042F000000000E599A8000080809E9292929EE0C6
:10430000809EB2D2929E80000808F4949292F100AE
:1043100001F2929494F80800E69CBA00001010D0C4
:10432000FF901000FE020202FE00000000040300E5
:10433000FF0083601F0000003F40407800E6A2B00D
:1043400000001010D0FF900010D010D010FF10927D
:104350001400040300FF0041310F01BF412738471B
:10436000F000E8878200002010FF555555F70052F5
:10437000565AF35A561200000000FE2A2A2A2A2A08
:104380002AAAFE000000000000000000FF01010159
:104390003109090909897101010101FFFF8080804C
:1043A0008080809681808080808080FFFF01818175
:1043B00081FD8991A1C1FD81818101FFFF80808004
:1043C000809F888482819F80808080FFEC430008EA
:1043D0000000002050000000B42900083C44000800
:1043E00050000020B8160000C4290008000000009A
:1043F00000000000000000000000000000000000BD
:1044000000000000000000000000000000000000AC
:1044100000000000009800A2016202E203220402F0
:1044200005C206E007A8089009000A680BB00C183E
:0C4430000D4A0E100F5A10381100000049
:04000005080000ED02
:00000001FF
