:020000040800F2
:100000008014002005010008710D0008D5090008C2
:10001000C50A000849080008CD1F000800000000BC
:10002000000000000000000000000000991500081A
:10003000A108000800000000091400082D1700089E
:100040001F0100081F0100081F0100081F01000810
:100050001F0100081F0100081F0100081F01000800
:100060001F0100081F0100081F0100081F010008F0
:100070001F0100081F0100081F0100081F010008E0
:100080001F0100081F0100081F0100081F010008D0
:100090001F0100081F0100081F0100081F010008C0
:1000A0001F010008C91A00081F010008A11A000852
:1000B0001F010008151B00081F0100081F01000890
:1000C0001F0100081F0100081F0100081F01000890
:1000D0001F0100081F0100081F0100081F01000880
:1000E0001F0100081F0100081F010008DFF810D0E1
:1000F00000F068FA00480047F11F0008AFF30080E5
:10010000801400200648804706480047FEE7FEE7C7
:10011000FEE7FEE7FEE7FEE7FEE7FEE7FEE7FEE7B7
:1001200035170008ED000008D2B201E000F8012BFD
:10013000491EFBD270470022F6E710B513460A4667
:1001400004461946FFF7F0FF204610BDF0B480EAE0
:100150000102D40F4200B2EB410F02D20246084620
:1001600011464A0042D0C30DDDB2C1F3C752AD1AE9
:10017000202D35DAC1F3160141F4000204B15242D8
:10018000C5F1200602FA06F12A411044B3EBD05F14
:1001900023D0C4B1012DA0EBC35009DCF0BC4FF05B
:1001A000004202EAC352DBB200F5000000F07EB963
:1001B000400000F1807000EBC350A0F1807040EA75
:1001C000D170490009E0490841EAC071A0EBC35071
:1001D00000F50000400800EBC350F0BC00F05DB932
:1001E0006142012202EB4101001BF6E7F0BC7047BF
:1001F00081F00041AAE780F00040A7E780EA010211
:1002000010B502F00043400022D04A001FD0010E7A
:1002100001EB1261C0F35600C2F3560240F4000035
:1002200042F40002A0FB022000047F39140400D035
:10023000401C50EA124001D44000491EC2B20C06D4
:1002400004EBD010401C4008802A02D003E00020BC
:1002500010BD20F00100002900DA0020184310BD75
:1002600030B480EA010202F0004530F0004221F093
:10027000004013D090B1C30DD40DC2F31601C0F3EA
:100280001600E41A41F4000140F400027D3491426A
:1002900001D3641C00E04900002C02DA30BC0020CD
:1002A00070474FF400000023914201D3891A0343A1
:1002B00040084FEA4101F7D151B1914202D14FF0CC
:1002C000004105E002D24FF0010101E06FF00101B1
:1002D00003EBC450284430BC00F0DFB82DE9F04DEA
:1002E00081EA030404F0004B21F0004514464FF06E
:1002F000000A23F0004150EA050220D054EA01022E
:100300001DD0C5F30A570246C5F31303C1F313000A
:10031000C1F30A5640F4801543F48013A7EB060896
:10032000101BD64608F2FD3873EB050002D308F126
:10033000010801E092185B41B8F1000F03DA0020D8
:100340000146BDE8F08D00204FF48011064684463A
:100350000EE0171B73EB050705D3121B63EB0503B8
:1003600006434CEA010C49084FEA300092185B4101
:1003700050EA0107EDD152EA030012D082EA0400EC
:1003800083EA0501084305D0101BAB4106D20122C8
:10039000002306E000224FF0004302E06FF001026C
:1003A00053101AEB06004CEB085110EB0A0041EB1E
:1003B0000B01BDE8F04D00F0A7B80EB540F2334197
:1003C00002910021CDE900110A460B4600F0ABF87E
:1003D00003B000BD20F00040C10DC0F3160040F492
:1003E00000007F2901DA00207047962903DCC1F163
:1003F0009601C840704796398840704701F0004325
:1004000030B421F0004150EA010206D00A0DA2F5F5
:100410006072C1F31301002A02DC30BC0020704777
:10042000440F44EAC104C100E01830BC00EBC250E4
:1004300000F033B8002801DBC0F10040002901DBE7
:10044000C1F1004181427047002801DBC0F100404A
:10045000002901DBC1F1004188427047202A04DBFA
:10046000203A00FA02F1002070479140C2F12003C7
:1004700020FA03F3194390407047202A04DB203A06
:1004800021FA02F00021704721FA02F3D040C2F1B4
:10049000200291400843194670470029A8BF7047C1
:1004A000401C490008BF20F00100704710B4B0FAAA
:1004B00080FC00FA0CF050EA010404BF10BC704745
:1004C00049B1CCF1200421FA04F411FA0CF118BF5F
:1004D000012121430843A3EB0C01CB1D4FEA00612E
:1004E0004FEA102042BF002010BC704700EBC35001
:1004F00010440029A4BF10BC7047401C490008BF2D
:1005000020F0010010BC704710B5141E73F10004F8
:1005100008DA401C41F1000192185B411A4301D1F5
:1005200020F0010010BD2DE9F04D92469B4611B11F
:10053000B1FA81F202E0B0FA80F220329046FFF781
:100540008DFF04460F4640EA0A0041EA0B0153467C
:100550005A46084313D0114653EA010019D0C8F196
:1005600040025046FFF789FF05460E465046594661
:100570004246FFF773FF084305D0012004E0204600
:100580003946BDE8F08D0020054346EAE0762C436D
:1005900037430A986305E40AA0EB08000022FD0A2D
:1005A00044EA47540A3002D500200146E9E7010534
:1005B00010196941DDE9084500196941BDE8F04DB0
:1005C000A2E70000064C074D06E0E06840F001039A
:1005D00094E8070098471034AC42F6D3FFF78AFD41
:1005E000FC3000081C31000821B1826842F0010291
:1005F000826003E0826822F001028260704721B1CC
:10060000826842F48072826003E0826822F4807221
:1006100082607047014600208A6802F004020AB135
:10062000012000E000207047014600208A6802F0A7
:1006300008020AB1012000E00020704730B50246F0
:100640000020002350680F4C20400D790C6844EACC
:1006500005242043506090680B4C2040D1E902549F
:100660002C434D7944EA450420439060D06A20F43D
:1006700070000C7C641EE4B2234340EA0350D06255
:1006800030BD0000FFFEF0FFFDF7F1FFF0B50446BE
:100690000D4600200021092D11DDE068A5F10A06B4
:1006A00006EB4607072606FA07F18843A5F10A0676
:1006B00006EB460603FA06F10843E0600CE0206909
:1006C00005EB4507072606FA07F1884305EB4506C3
:1006D00003FA06F108432061072A0FDA606B561E01
:1006E00006EB86071F2606FA07F18843561E06EB1F
:1006F000860605FA06F10843606322E00D2A0FDA48
:10070000206BD61F06EB86071F2606FA07F18843E3
:10071000D61F06EB860605FA06F10843206310E0B3
:10072000E06AA2F10D0606EB86071F2606FA07F11E
:100730008843A2F10D0606EB860605FA06F108438A
:10074000E062F0BD816841F008018160704721B12D
:10075000826842F4A002826003E0826822F4A00270
:1007600082607047816841F0040181607047000039
:100770002DE9F05F06460C46154629462046FFF750
:1007800037FD82460D493046FFF7E0FC834651466F
:10079000FFF734FD81460A49FFF762FD8046214696
:1007A000FFF729FD07464FF07C513846FFF7CEFC96
:1007B0008046FFF70FFE80B2BDE8F09F0000B44214
:1007C000000034431FB50121022000F04BFE002140
:1007D000022000F047FE0121022000F033FE01213B
:1007E000164801F0AFF94720ADF8040040F2E730B9
:1007F000ADF808000020ADF8060001A90F4801F08F
:1008000093FB01210D4801F0CAF9012211460B4862
:1008100001F03AFA1D208DF8000000208DF801004B
:1008200001208DF802008DF80300684600F0A2FA5E
:100830000121024801F0A7F91FBD0000000400409B
:1008400010B501F02BFC10BD00BFFEE721B102681E
:1008500042F00102026004E002684FF6FE731A40A3
:100860000260704710B50022026847F6F0739A43A1
:100870000C6A8B6823430C6923434C6923438C69BE
:100880002343CC6923434C6A23438C6A23431A4392
:100890000260CB6843600B6883604B68C36010BD27
:1008A00070472DE9F0410246002500260020002374
:1008B0000024002791F803C00CF00F0591F803C045
:1008C0000CF0100CBCF1000F03D091F802C04CEA00
:1008D000050591F800C0BCF1000F31D0146800206C
:1008E0002BE04FF0010C0CFA00F3B1F800C00CEA59
:1008F00003069E4220D183004FF00F0C0CFA03F741
:10090000BC4305FA03FC4CEA040491F803C0BCF1B3
:10091000280F06D14FF0010C0CFA00FCC2F814C0ED
:100920000AE091F803C0BCF1480F05D14FF0010C6B
:100930000CFA00FCC2F810C0401C0828D1D3146087
:10094000B1F800C0BCF1FF0F34DD546800202EE088
:1009500000F1080C4FF0010808FA0CF3B1F800C0E0
:100960000CEA03069E4221D183004FF00F0C0CFAD3
:1009700003F7BC4305FA03FC4CEA040491F803C0F6
:10098000BCF1280F05D100F1080C08FA0CF8C2F8E8
:10099000148091F803C0BCF1480F07D100F1080C96
:1009A0004FF0010808FA0CF8C2F81080401C082823
:1009B000CED35460BDE8F0810246002093680B401E
:1009C0000BB1012000E0002070470AB1016100E096
:1009D0004161704700BFFEE710B504460020A074D7
:1009E0000C4801F0DEF8A081A089E189884204DD8D
:1009F000A089E189401A608106E0A089E1894FF66B
:100A0000FF72511A08446081A089E081207A401C5D
:100A1000207210BD002C014038B504460121102081
:100A200000F030FD14208DF80300A088ADF8000020
:100A300002208DF8020069462068FFF732FF00228D
:100A40004FF400512068FFF7C0FF0021204600F05E
:100A500015F800200DE0084951F8301039B9064961
:100A600041F830400021044A02EBC0029180411C51
:100A7000C8B20428EFDB38BD3000002070B5044652
:100A80000D46A07978B101281AD1012D05D1A18890
:100A900001222068FFF799FF04E0A1880022206866
:100AA000FFF793FF0CE0012D05D1A18800222068FB
:100AB000FFF78BFF04E0A18801222068FFF785FF84
:100AC00000BF70BD00BFFEE710B5044634B1012C75
:100AD00011D0022C1BD0032C30D124E000224FF483
:100AE00080511748FFF771FF00224FF4005114485E
:100AF000FFF76BFF22E0012211031148FFF765FFAA
:100B000000224FF400510E48FFF75FFF16E000226D
:100B10004FF480510A48FFF758FF0122510308485B
:100B2000FFF753FF0AE0012211030548FFF74DFFCD
:100B3000012251030248FFF748FF00BF00BF10BD6C
:100B4000000C014010B504462046FFF745FFE07950
:100B500020B1012806D002280CD107E0204600F081
:100B6000B9F807E0204600F0C9F803E0204600F09D
:100B7000ECF800BF00BF10BD10B502461068000EB3
:100B800010711068C0F307431088000A5071147880
:100B900010795840FF280AD150796040FF2806D1CB
:100BA000107920B9012090710220D07102E0104626
:100BB00000F001F810BD002101600172C1710182D5
:100BC0007047000000B589B00121052000F05AFCF3
:100BD00048208DF823004FF48070ADF8200008A95C
:100BE0003A48FFF75EFE0121C80200F05BFC0021DD
:100BF0004FF4006000F056FC0121C80200F042FCF6
:100C00000121334800F09EFF8F20ADF814004FF60D
:100C1000FF70ADF818000020ADF816008DF81C002C
:100C2000ADF81A0005A92A4801F07EF901212848EB
:100C300000F0B5FF0021264801F02EF900212448DC
:100C400001F036F90020ADF808000920ADF81000D9
:100C50000220ADF80A000020ADF80E000120ADF82A
:100C60000C0002A91A4800F0B9FF0121184800F051
:100C70008AFF01220021164800F070FF01220321A3
:100C8000134801F001F80321114800F076FF1B2002
:100C90008DF8040000208DF8050001208DF8060075
:100CA0008DF8070001A800F065F819208DF8040000
:100CB00000208DF8050001208DF806008DF8070052
:100CC00001A800F057F809B000BD0000000801407D
:100CD000002C014010B50246147A5389022C0CD125
:100CE00041F27070834205DDB3F5FA5F02DA01204C
:100CF000D07102E01046FFF75EFF10BD70B50446EC
:100D0000267A6589022E1FDD206840002060B5F537
:100D1000E17F05DDB5F52F7F02DA206820600EE067
:100D2000B5F5487F08DD40F21450854204DA2068AA
:100D300040F00100206002E02046FFF73CFF222E39
:100D400002D12046FFF718FF70BD017A28290ED185
:100D500041892222027241F29412914206DD41F24F
:100D60007072914202DA028A521C028200BF7047FE
:100D70007047000070B5002100230F22C47804B32F
:100D8000154C246804F4E064C4F5E064210AC1F160
:100D90000403CA40447804FA03F1847814402143E0
:100DA00009010E4C0678A155047804F01F050124B2
:100DB000AC4005786D11AD0005F1E025C5F80041A6
:100DC00009E0047804F01F050124AC40044D0678C6
:100DD000761145F8264070BD0CED00E000E400E01F
:100DE00080E100E002490143024A116070470000BF
:100DF0000000FA050CED00E000200CE0002106E008
:100E00000022064B03EBC0135A544A1CD1B280296E
:100E1000F6DB421CD0B20828F0DB70477C000020D3
:100E20002DE9F04304460D4616461F46284638E095
:100E3000224631E0002A2DDB7F2A2BDC002829DB2B
:100E40003F2827DC4FEAE07C00EB5C7C4FEAEC0CAF
:100E5000DFF8588008EBCC1C1CF802C003464FEAB0
:100E6000E07800EB58784FEAE808A0EBC8094FF0AB
:100E7000010808FA09F82CEA080C01464FEAE07864
:100E800000EB58784FEAE808DFF8209009EBC81823
:100E900008F802C0511C0AB2A1199142CADC411CD7
:100EA00008B2E9198142C3DCBDE8F0837C00002070
:100EB00038B5002406E0002500E06D1CB5F57A7F0A
:100EC000FBD3641CB4F57A7FF5D30121082000F030
:100ED000D9FA14208DF8030003208DF802004FF496
:100EE0008070ADF8000069460848FFF7DAFC4FF45F
:100EF0000070ADF8000069460448FFF7D2FC0120FD
:100F000000F088F9012000F091F938BD000C014093
:100F100070B50546002411E080212141294009B126
:100F2000012100E00021084600F080F9012000F0D6
:100F300071F9002000F06EF9601CC4B2082CEBDBE4
:100F4000012000F067F9002000F064F970BD10B5D1
:100F5000012000F06BF9012000F05CF9002000F0A6
:100F600065F9002000F056F910BD10B5002000F022
:100F70005DF9012000F04EF9012000F057F910BD95
:100F800010B5FFF795FFAE2000F05CF9D52000F01A
:100F900059F9802000F056F9A82000F053F93F20BD
:100FA00000F050F9D32000F04DF9002000F04AF98C
:100FB000402000F047F9A12000F044F9C82000F0DB
:100FC00041F9DA2000F03EF9122000F03BF98120CF
:100FD00000F038F9CF2000F035F9D92000F032F9CF
:100FE000F12000F02FF9DB2000F02CF9302000F088
:100FF00029F9A42000F026F9A62000F023F98D207D
:1010000000F020F9142000F01DF9AF2000F01AF9CB
:10101000FFF7F2FE00F0EAF810BD10B5024601201D
:1010200000E050430B1EA1F10101FAD110BD70B5D3
:1010300005460C4645F0B00000F004F9102141EAE5
:10104000141000F0FFF804F00F0000F0FBF870BD82
:10105000F8B506460F4614461D46082D0CD1A4F1DE
:1010600020000E4901EB00101023082239460090A1
:10107000304600F017F80FE0062D0DD1A4F1200046
:1010800000EB4000064901EB4000082306223946E8
:101090000090304600F006F8F8BD00000C22000871
:1010A000FC2700082DE9FF4F80460E469146DDF8EB
:1010B00034B0002500244A4631464046039BFFF7E2
:1010C000AFFE00BF5EE0002558E008EB05000028F9
:1010D00052DB08EB05007F284EDC3046F11706EBAB
:1010E0005171C9100FB2F11706EB5171C910A6EB7F
:1010F000C10A002E05DA781E07B20AF108000FFABD
:1011000080FA3819002817DB3819072814DC381939
:10111000224901EBC01008EB0501405C04FB0951BA
:101120001BF8011001FA0AF1084339191B4A02EBB6
:10113000C11108EB050288543819401C00281BDB3C
:101140003819401C072817DC3819401C134901EBDB
:10115000C01008EB0501405C04FB09511BF80110AD
:10116000CAF10802114108433919491C0B4A02EB24
:10117000C11108EB05028854681CC5B24D45A4DBBB
:10118000601CC4B20399481EC11700EB51710122C3
:1011900002EBE101A14296DCBDE8FF8F7C0000205C
:1011A0002DE9F0470646894617461D46DDF82080A2
:1011B000002417E0281B411E0A20FFF72EFFB7FB73
:1011C000F0F00A21B0FBF1F201FB120000F1300A4D
:1011D00004FB086108B2434652464946FFF738FF10
:1011E000601CC4B2AC42E5DBBDE8F08710B500245A
:1011F0000BE000212046FFF71AFF054901EBC41060
:10120000802100F02FF8601CC4B2082CF1DB10BD67
:101210007C00002010B5044622464FF4807102483D
:10122000FFF7D3FB10BD0000000C014010B50446D1
:1012300022464FF400710248FFF7C7FB10BD0000C3
:10124000000C014010B50446FFF781FE7820FFF73F
:101250005FFE0020FFF75CFE2046FFF759FEFFF718
:1012600084FE10BD70B505460E46FFF770FE78206F
:10127000FFF74EFE4020FFF74BFE002404E0285D00
:10128000FFF746FE601CC4B2B442F8DBFFF76DFE08
:1012900070BD10B500F082FA10BD0000044803686C
:1012A00040685A1C40F1000001490A6048607047DC
:1012B0000000002000B591B00121042000F0E2F808
:1012C0000121480200F0DEF80121084600F0AAF8EA
:1012D0004FF4004000F09AF800208DF84300782089
:1012E000ADF8400003208DF8420010A93648FFF702
:1012F000D8FA0523012203213448FFF7C7F9052353
:10130000022204213148FFF7C1F9052303221946BF
:101310002E48FFF7BBF90523042206212B48FFF7CF
:10132000B5F900200B900E904FF460200D90012035
:101330008DF831008DF8300004208DF83C000BA9A9
:101340002248FFF77BF921484C3000908015069029
:10135000002004901E4801904FF480600790802088
:101360000590002002900420039020200890002087
:101370000A904FF48050099069461648FFF772FAB8
:1013800001211448FFF762FA01211048FFF737F9ED
:1013900001210E48FFF728F90C48FFF7D3F900BFE9
:1013A0000A48FFF741F90128FAD00848FFF7DAF9AF
:1013B00000BF0648FFF72EF90128FAD001210348A3
:1013C000FFF7C5F911B000BD00080140002401403D
:1013D000280000200800024010B5044621464FF0C6
:1013E000804000F06EFD10BD10B5044621464FF060
:1013F000804000F068FD10BD10B5044621464FF056
:10140000804000F062FD10BD7047000001460020E2
:10141000034A506820F44040084350607047000081
:101420000010024029B1064A52690243044B5A6136
:1014300004E0034A52698243014B5A61704700003D
:101440000010024029B1064AD2690243044BDA6116
:1014500004E0034AD2698243014BDA61704700001D
:101460000010024029B1064A12690243044B1A6176
:1014700004E0034A12698243014B1A61704700007D
:101480000010024029B1064A92690243044B9A6156
:1014900004E0034A92698243014B9A61704700005D
:1014A0000010024029B1064AD2680243044BDA60B8
:1014B00004E0034AD2688243014BDA6070470000BF
:1014C0000010024030B500210022002400232D4DE1
:1014D0006D6805F00C0121B1042905D0082923D13C
:1014E00005E0294D056022E0274D05601FE0254DF0
:1014F0006D6805F47012234D6D6805F48034022583
:1015000005EB92421CB9214D554305600BE01D4D82
:101510006D6805F400351DB11C4D5543056002E0B2
:10152000194D5543056002E0174D056000BF00BF2F
:10153000144D6D6805F0F0010909154D6B5C0568E7
:10154000DD4045600F4D6D6805F4E061090A104DFE
:101550006B5C4568DD4085600A4D6D6805F460513F
:10156000C90A0B4D6B5C4568DD40C560054D6D6873
:1015700005F44041890B074D6B5CC568B5FBF3F57D
:10158000056130BD0010024000127A0000093D00E4
:101590000C0000201C000020704700002DE9F047DF
:1015A00006460C4615461F493046FEF743FF00D25B
:1015B00003E01D493046FEF747FF1A492046FEF773
:1015C00039FF00D203E018492046FEF73DFF1549D8
:1015D0002846FEF72FFF00D203E013492846FEF706
:1015E00033FF124A12493046FFF7C2F88146114ACA
:1015F00011492046FFF7BCF880460E4A0F4928469D
:10160000FFF7B6F807464846FFF7E6FE4046FFF705
:10161000EBFE3846FFF7F0FE09480660846045603F
:10162000BDE8F0870000B4C20000B44200401C4591
:1016300000001644002019450000FA430000C8438A
:101640006400002010B500F001F810BD0CB50020BA
:10165000019000903348006840F4803031490860C0
:1016600000BF3048006800F4003000900198401C32
:101670000190009818B90198B0F5A06FF1D12948F0
:10168000006800F4003010B10120009001E000205B
:1016900000900098012843D12348006840F01000D2
:1016A000214908600846006820F0070008600846E5
:1016B000006840F0020008601A4840681949486014
:1016C0000846406848600846406840F480604860CA
:1016D0000846406820F47C1048600846406840F4A2
:1016E000E81048600846006840F08070086000BF5D
:1016F0000C48006800F000700028F9D009484068E4
:1017000020F00300074948600846406840F00200A6
:10171000486000BF0348406800F00C000828F9D179
:101720000CBD0000001002400020024010B5FFF781
:10173000B5FD10BD10B51548006840F00100134913
:101740000860084640681249084010494860084649
:101750000068104908400D4908600846006820F4F8
:10176000802008600846406820F4FE0048604FF47E
:101770001F008860FFF766FF4FF0006006490860B1
:101780004FF4A060FFF72EFB10BD000000100240D8
:101790000000FFF8FFFFF6FE08ED00E02DE9F04144
:1017A00086B0142101A8FEF7C6FC4FF0E0200069C6
:1017B00020F001004FF0E02108610021244A11606F
:1017C000516001A8FFF77EFE4FF0E020006940F075
:1017D00002004FF0E021086100211E48C1774FF45C
:1017E0007A710298B0FBF1F4B4F1807F09D3E40878
:1017F0004FF0E020006920F004004FF0E021086184
:1018000007E04FF0E020006940F004004FF0E021D5
:101810000861601E4FF0E02148610846006940F011
:1018200001000861496921F07F41481CFEF7C5FDB0
:1018300007463A460B4600200749FEF74FFD05468E
:10184000FEF7DCFD0549086006B0BDE8F081000048
:101850000000002000ED00E000408F400800002064
:10186000F0B50C46154600220021068C4FF6FE7797
:101870003E400684028B018C4FF60C7632407E1C73
:1018800006EA03162E433243104EB0420ED0104EDD
:10189000B0420BD0B0F1804F08D00E4EB04205D010
:1018A0000D4EB04202D00D4EB04206D14FF6FD763D
:1018B000314044F00106314305E04FF6F576314002
:1018C00044F00106314302830184F0BD002C014045
:1018D000003401400004004000080040000C0040BB
:1018E000F0B50C461546002200210026078C4FF665
:1018F000EF7C07EA0C070784028B018C4FF6FF7719
:1019000007EA041640F6FF473A404FF6FF7707EA2A
:1019100003373A434FF6FF7707EA05273A43114F5B
:10192000B8420ED0104FB8420BD0B0F1804F08D063
:101930000E4FB84205D00E4FB84202D00D4FB842FC
:1019400006D14FF6DF77394046F01007394305E0FE
:101950004FF65F77394044F0100739430283018422
:10196000F0BD0000002C01400034014000040040A4
:1019700000080040000C0040F0B50C46154600225F
:1019800000210026078C4FF6FF6C07EA0C0707843E
:10199000828B018C4FF6FF7707EA04264FF60C770F
:1019A0003A404FF6FF7707EA03172F433A43114FA8
:1019B000B8420ED0104FB8420BD0B0F1804F08D0D3
:1019C0000E4FB84205D00E4FB84202D00D4FB8426C
:1019D00006D14FF6FF57394046F48077394305E08A
:1019E0004FF2FF57394044F48077394382830184B2
:1019F000F0BD0000002C0140003401400004004014
:101A000000080040000C0040F0B50C4615460022CE
:101A100000210026078C4EF6FF7C07EA0C0707849E
:101A2000828B018C4FF6FF7707EA043640F6FF47BA
:101A30003A404FF6FF7707EA05273A434FF6FF771C
:101A400007EA03373A43114FB8420ED0104FB8425D
:101A50000BD0B0F1804F08D00E4FB84205D00E4FDA
:101A6000B84202D00D4FB84206D14DF6FF7739404B
:101A700046F48057394305E047F6FF57394044F4B0
:101A80008057394382830184F0BD0000002C01405F
:101A9000003401400004004000080040000C0040F9
:101AA00010B50221064800F088F8012806D102216D
:101AB000034800F065F80348FFF744F810BD000044
:101AC000002C01405000002010B501210E4800F00C
:101AD00074F8012816D101210B4800F051F84FF499
:101AE00080710A48FEF768FF01280BD10848807C06
:101AF000401C074988740846807C022802DB08469F
:101B0000FFF759F810BD0000002C0140000801400B
:101B10005000002010B50121084800F045F860B1E0
:101B20000121064800F029F8054802684068521C67
:101B300040F1000002490A60486010BD0004004006
:101B40002000002021B1028842F08002028004E0DF
:101B500002884FF67F731A400280704730B5002329
:101B600001248C40A3B2048C9C430484048C02FAAC
:101B700001F5ADB22C43048430BDCA4302827047E4
:101B8000CA430282704721B1028842F001020280FA
:101B900004E002884FF6FE731A400280704781828B
:101BA00070470146888E704702460020138A0B401A
:101BB0000BB1012000E00020704730B50246002044
:101BC00000230024158A05EA0103958905EA01042A
:101BD00013B10CB1012000E0002030BD70B5054606
:101BE0000C46244885420ED0234885420BD0B5F1DF
:101BF000804F08D02148854205D02148854202D037
:101C00002048854200D100E000BF208850B92389D8
:101C1000A28861882846FFF723FEE188284600F065
:101C200056F925E0208804280AD12389A2886188F2
:101C30002846FFF755FEE188284600F051F917E0E5
:101C4000208808280AD12389A28861882846FFF7BE
:101C500093FEE188284600F050F909E02389A28824
:101C600061882846FFF7D0FEE188284600F04EF94B
:101C700070BD0000002C0140003401400004004011
:101C800000080040000C00401AB183890B43838197
:101C900002E083898B438381704701894FF6F87294
:101CA000114001817047000070B50024002200231C
:101CB000058C4FF6FE7635400584028C8388048BB4
:101CC0004FF68F752C40B51E2C400D882C43751E89
:101CD0002A400D892A434D882A43144DA8420BD02F
:101CE000134DA84208D0134DA84205D0124DA8426A
:101CF00002D0124DA84213D14FF6F7752A404D89F4
:101D00002A434FF6FB752A408D882A434FF6FF651C
:101D10002B404FF6FF552B408D892B43CD892B430C
:101D200083800483CD888586028470BD002C0140A9
:101D3000003401400040014000440140004801409F
:101D400070B5002400220023058C4FF6EF76354055
:101D50000584028C8388048B48F6FF752C404FF66F
:101D6000FF452C400D884FF6FF7606EA05252C43EB
:101D70004FF6DF752A400D8906EA05152A434D887E
:101D800006EA05152A43154DA84202D0144DA84273
:101D90001DD14FF67F752A404D894FF6FF7606EA32
:101DA00005152A434FF6BF752A408D8806EA0515AA
:101DB0002A434FF6FF352B404FF2FF752B408D899C
:101DC00006EA85052B43CD8906EA85052B438380EA
:101DD0000483CD880587028470BD0000002C01407B
:101DE0000034014070B5002400220023058C4FF61A
:101DF000FF6635400584028C8388848B4FF68F758F
:101E00002C404FF6FC752C400D882C434FF6FF55A7
:101E10002A400D894FF6FF7606EA05252A434D88AC
:101E200006EA05252A43154DA84202D0144DA842C2
:101E30001DD14FF2FF752A404D894FF6FF7606EA15
:101E400005252A434FF6FF352A408D8806EA0525E9
:101E50002A434EF6FF752B404DF6FF752B408D89BA
:101E600006EA05152B43CD8906EA05152B43838029
:101E70008483CD888587028470BD0000002C0140DA
:101E8000003401400021018041808180C1800181B6
:101E900041818181C181704721B1828842F08002F5
:101EA000828004E082884FF67F731A4082807047F8
:101EB00002884FF6FF431A40028002880A430280DC
:101EC0007047818670470187704781877047028B12
:101ED0004FF6F3731A400283028B0A430283704762
:101EE000028B4FF2FF331A400283028B4FF6FF73CF
:101EF00003EA01231A4302837047828B4FF6F37380
:101F00001A408283828B0A4382837047828B4FF20E
:101F1000FF331A408283828B4FF6FF7303EA01235B
:101F20001A43828370470000002202881D4B9842AA
:101F30000ED01D4B98420BD0B0F1804F08D01B4BF8
:101F4000984205D01A4B984202D01A4B984204D1BD
:101F50004FF68F731A404B881A43174B984207D09D
:101F6000164B984204D04FF6FF431A40CB881A43D1
:101F700002808B8883850B8803850A4B98420BD09F
:101F8000094B984208D00E4B984205D00D4B984211
:101F900002D00D4B984201D10B7A03860123838234
:101FA00070470000002C0140003401400004004054
:101FB00000080040000C00400010004000140040E9
:101FC00000400140004401400048014000BFFEE7DE
:101FD00002E008C8121F08C1002AFAD170477047F2
:101FE000002001E001C1121F002AFBD17047000050
:101FF0000EB5FFF74EF9FEF7C3FFFEF7E3FBFEF762
:10200000E1FDFEF71DFCFFF755F921480190401452
:10201000ADF8080000208DF80A0001A8FEF7FCFCCE
:10202000012101A8FEF72AFD002101A8FEF726FDE7
:10203000184A11461046FFF7B1FA27E0FEF7DCFE1A
:102040000820009014480288052300210846FFF765
:10205000A7F808200090104842880523102100208E
:10206000FFF79EF8082000900B4882880523202166
:102070000020FFF795F8082000900748C288052344
:1020800030210020FFF78CF8FFF7B0F8D6E700000A
:10209000001001400000B4C22800002000B58BB041
:1020A00001210420FFF7EEF918208DF82B000720FE
:1020B000ADF8280003208DF82A000AA95048FEF741
:1020C000F0FB01210820FFF7DDF918208DF827002B
:1020D0000120ADF8240003208DF8260009A9494805
:1020E000FEF7DFFB01210820FFF7CCF910208DF867
:1020F00023004FF44050ADF8200003208DF822005B
:1021000008A94048FEF7CDFB0120FEF7DDFC0121C8
:102110000846FFF797F901210220FFF793F9012103
:102120003948FFF70FFD4FF08040FFF7B6FD364806
:10213000FFF7B3FD0020ADF81A00ADF8160044F625
:102140001F60ADF818004720ADF8140000208DF88E
:102150001C0005A94FF08040FFF7E6FE4720ADF8D0
:10216000140040F2E730ADF818000020ADF816007A
:1021700005A92548FFF7D8FE01218807FFF70FFDC5
:1021800001212148FFF70BFD01A8FFF77BFE60202E
:10219000ADF804000020ADF80C000120ADF80600F9
:1021A0000020ADF80A0001A94FF08040FFF77CFD48
:1021B00001A94FF08040FFF7C3FD01A94FF0804017
:1021C000FFF710FE01A8FFF75DFE6020ADF80400E8
:1021D0000020ADF80C000120ADF806000020ADF89D
:1021E0000A0001A90848FFF7FDFD01218807FFF754
:1021F000CAFC01210448FFF7C6FC0BB000BD00007B
:1022000000080140000C01400004004000000000F4
:10221000000000000000000000000000000000F8C6
:1022200000000000000000333000000000160E0027
:10223000160E0000000000000000000040C07840C2
:10224000C0784000043F04043F040400007088FC90
:1022500008300000001820FF211E0000F008F000E8
:10226000E018000000211C031E211E0000F0088859
:10227000700000001E2123241927211000000016E1
:102280000E0000000000000000000000000000E060
:102290001804020000000007182040000002041883
:1022A000E00000000040201807000000404080F0DF
:1022B000804040000202010F01020200000000F015
:1022C000000000000101011F0101010000000000E9
:1022D0000000000000B070000000000000000000DE
:1022E00000000000000101010101010100000000E7
:1022F000000000000030300000000000000000007E
:1023000080601804006018060100000000E010085A
:102310000810E000000F102020100F00001010F82F
:10232000000000000020203F20200000007008086E
:1023300008887000003028242221300000300888EE
:10234000884830000018202020110E000000C02016
:1023500010F8000000070424243F240000F8088837
:10236000880808000019212020110E0000E01088C4
:1023700088180000000F112020110E0000380808F6
:10238000C83808000000003F000000000070880806
:1023900008887000001C222121221C0000E0100887
:1023A0000810E0000000312222110F00000000C0E0
:1023B000C00000000000003030000000000000C03D
:1023C000C0000000000080B07000000000008040ED
:1023D0002010080000010204081020004040404086
:1023E00040404000040404040404040000081020D9
:1023F000408000000020100804020100007048081E
:102400000808F0000000003036010000C030C82885
:10241000E810E0000718272423140B000000C03840
:10242000E0000000203C23020227382008F88888BA
:1024300088700000203F202020110E00C0300808C6
:1024400008083800071820202010080008F808089D
:102450000810E000203F202020100F0008F8888896
:10246000E8081000203F20202320180008F8888862
:10247000E8081000203F200003000000C0300808DA
:102480000838000007182020221E020008F8080063
:102490000008F808203F210101213F20000808F82A
:1024A000080800000020203F20200000000008084D
:1024B000F8080800C08080807F00000008F888C00D
:1024C00028180800203F20012638200008F80800BE
:1024D00000000000203F20202020300008F8F800F5
:1024E000F8F80800203F003F003F200008F830C007
:1024F0000008F808203F200007183F00E0100808F7
:102500000810E0000F10202020100F0008F8080825
:102510000808F000203F210101010000E010080838
:102520000810E0000F18242438504F0008F888885D
:1025300088887000203F2000030C3020007088083D
:10254000080838000038202121221C00180808F84B
:10255000080818000000203F2000000008F80800CC
:102560000008F808001F202020201F00087888009D
:1025700000C83808000007380E010000F80800F80D
:102580000008F800033C0700073C030008186880B7
:102590008068180820302C03032C30200838C8002D
:1025A000C83808000000203F20000000100808087C
:1025B000C83808002038262120201800000000FE1E
:1025C000020202000000007F40404000000C30C0CA
:1025D00000000000000000010638C00000020202F6
:1025E000FE000000004040407F0000000020100876
:1025F000040810200000000000000000000000009F
:1026000000000000808080808080808000020408BC
:1026100000000000000000000000000000008080BA
:10262000808000000019242222223F2008F8008028
:1026300080000000003F112020110E0000000080EB
:1026400080800000000E112020201100000000807A
:102650008088F800000E112020103F2000008080AC
:1026600080800000001F222222221300008080F0C0
:10267000888888180020203F2020000000008080EB
:1026800080808000006B94949493600008F8008030
:1026900080800000203F210000203F20008098988B
:1026A000000000000020203F2020000000000080EB
:1026B0009898000000C08080807F000008F800002B
:1026C00080808000203F24022D302000000808F880
:1026D000000000000020203F20200000808080803B
:1026E00080808000203F20003F20003F008080004D
:1026F0008080000000203F2100203F2000008080DB
:1027000080800000001F202020201F00808000808B
:102710008000000080FFA12020110E00000000803A
:1027200080808000000E112020A0FF80808080002B
:102730008080800020203F21200001000000808058
:10274000808080000033242424241900008080E04D
:10275000808000000000001F20200000808000001A
:1027600000808000001F202020103F2080808000FB
:102770000080808000010E3008060100808000800B
:10278000008080800F300C030C300F000080800030
:10279000808080000020312E0E312000808080005B
:1027A0000080808080818E7018060100008080800B
:1027B000808080000021302C2221300000000000A9
:1027C000807C020200000000003F4040000000004A
:1027D000FF00000000000000FF0000000002027C7B
:1027E000800000000040403F0000000000804040AA
:1027F00080000080000000000001010000000000D7
:1028000000000000002F0000000007000700001477
:102810007F147F1400242A7F2A1200231308646285
:1028200000364955225000000007000000001C221D
:102830004100000041221C000014083E081400085A
:10284000083E0808000000A060000008080808080A
:10285000000060600000002010080402003E5149A2
:10286000453E0000427F4000004261514946002140
:1028700041454B31001814127F100027454545395A
:10288000003C4A49493000017109050300364949B5
:10289000493600064949291E00003636000000006E
:1028A00056360000000814224100001414141414B9
:1028B000000041221408000201510906003E49555A
:1028C000592E007C1211127C007F49494936003E86
:1028D00041414122007F4141221C007F4949494139
:1028E000007F09090901003E4149497A007F080833
:1028F000087F0000417F4100002040413F01007FF0
:1029000008142241007F40404040007F020C027FBB
:10291000007F0408107F003E4141413E007F0909CD
:102920000906003E4151215E007F091929460046F3
:10293000494949310001017F0101003F4040403FCA
:10294000001F2040201F003F4038403F0063140814
:1029500014630007087008070061514945430000EF
:102960007F414100000204081020000041417F0027
:102970000004020102040040404040400000010207
:102980000400002054545478007F484444380038F0
:102990004444442000384444487F00385454541878
:1029A00000087E0901020018A4A4A47C007F08048A
:1029B00004780000447D4000004080847D00007F5A
:1029C000102844000000417F4000007C0418047877
:1029D000007C0804047800384444443800FC242473
:1029E00024180018242418FC007C0804040800485B
:1029F0005454542000043F444020003C4040207C7C
:102A0000001C2040201C003C4030403C004428106A
:102A10002844001CA0A0A07C004464544C44000046
:102A2000087F41000000007F00000000417F080097
:102A3000000804081008EFBC8C0000000000000033
:102A400000000000000000000000000000583800F6
:102A50000000000000000000000000E38082000091
:102A60000000000000000000000000000000000066
:102A700000001824241800000000000000000000DE
:102A8000E9809A00004042CC0000E2222A2AF22A81
:102A90002622E0000080403F4080FF898989BF896D
:102AA000A9C9BF8000E8AEAF0000404042CC008220
:102AB00082FE828202FE000000000000007F2010E3
:102AC00000FF0000000F3040F800E5BD95000080D9
:102AD00080829292929292929292FE8080800040A6
:102AE0004022241048807F0408182422404000E837
:102AF000B4AA00002020101028242229B264281033
:102B0000102020000080809F4141211D0121215F74
:102B100040800000E59083000000FC0404FC2010CD
:102B20004C4B484848C8080800000F04040F003008
:102B3000484442424140407000E89B87000000F852
:102B400008FF08F82018C808090E88281800206314
:102B5000211F111930003F44424140407800E6896E
:102B6000AB0000101010FF109004848484848484CF
:102B7000FC00000444827F0100202020202020202F
:102B80007F0000E99BB7000020180AAAAAAA0AFE43
:102B90000AAAAAAA0A2818000000FE92929292FE9F
:102BA00092929292FE000000E78C9C00004022145A
:102BB00008F402445454547F54545444000844824A
:102BC000413F0000FF15151555957F0000E695B0B3
:102BD000000090523410FF10345280708F0808F8B3
:102BE0000800829A566322528E008040330C334094
:102BF0008000E5AD970000100C042424242526A4B1
:102C000064240404140C00020202020242827F02C5
:102C100002020202020200E9A38E00000000FE028E
:102C20001222C202C23202FE0000000080601F00B9
:102C300020100C030C30000F3040F800E6898700AC
:102C4000000000FC242424252624242424243C00E1
:102C50000040300F211549817F00211549817F00F7
:102C600000E8B08300004042CC0000FE829292FE59
:102C7000929282FE000000003F10887F001E121218
:102C8000125E807F0000E9809F0000404042CC003F
:102C900004F49494FF9494F40400000040201F2056
:102CA000484442415F414244484000E8AFB7000019
:102CB0004042CC0000445454547F54545444400087
:102CC00000007F201000FF15151555957F000000AE
:102CD000E9949900004030EF246448487F48484810
:102CE0007F4848400001017F211100FF49494949BF
:102CF00049FF000000E4BA8600000002020202025E
:102D000002E222120A060200000000000000004059
:102D1000807F0000000000000000E8AFB700004026
:102D200042CC0000445454547F5454544440000056
:102D3000007F201000FF15151555957F000000E954
:102D4000878D0000101014D4545454FC525252D3A6
:102D500012101000404050575555557F5555555746
:102D600050404000E696B0000040445465C66454AC
:102D70004400FC4444C442400020124A827F020ABC
:102D800092601F0000FF000000E8BE93000088680A
:102D90001FC80810C85452D1129408D01000091945
:102DA00009FF0500FF1292FF005F807F0000E585AC
:102DB000A50000000000000001E21CE0000000008F
:102DC000000000804020100C03000000030C304085
:102DD000808000E5AFB900000008488808C83800C6
:102DE000901010FF101010000020100C03041800A9
:102DF0000043807F00000000E6ADA3000000020257
:102E0000C2020202FE8282828282020000404040B0
:102E10007F4040407F4040404040404000E7A1AEFE
:102E200000000484E45C44C42010E82724E4342C2B
:102E3000E00002017F10103F80601F09093F4989AF
:102E40007F00E698AF00000000007F4949494949EA
:102E500049497F000000008141211D214181FF89F6
:102E600089898989818100E5A4A70000202020208C
:102E7000202020FF202020202020200080804020B3
:102E8000100C0300030C102040808000E5B08F0080
:102E900000000000E0000000FF0000002040800073
:102EA00000080403000040807F0000000000010EC5
:102EB00000E5BE880000001088C43300FE929292A4
:102EC0009292FE000000020100FF0000FF4020037C
:102ED0000C1422414000E981970000404042CC2080
:102EE00020AEAAAABFAAAAAE2020000040201F2020
:102EF0004067504846485067404000E686BE0000A4
:102F0000E000FF1020FC04D454D404FF84650600C4
:102F10000100FF000847300131455842610A37007F
:102F2000E681AD000020202424A47F2424247FA453
:102F300024242020000404221940807F000830044B
:102F40000932040400E5969C00000002EAAAAAAA3D
:102F5000AAAFAAAAAAAAEA0200000202FA4A4B4AA7
:102F60004A4A4A4A4B4AFA020200E4BDA000000065
:102F70008060F8074020180F08C8080828180001CA
:102F80000000FF00100C0340807F0001061800E8DD
:102F9000BE93000088681FC80810C85452D112940C
:102FA00008D01000091909FF0500FF1292FF005F09
:102FB000807F0000E8B5A200000202EEAAAAAAAA39
:102FC000ABAAAAAAAAEA020200807EAAFE00BE421A
:102FD0003A42BE807E127EE000E5AE9A0000100C00
:102FE0004444444445C64444444444140C00804092
:102FF000201E2040407F4444444444404000E69723
:10300000B6000000FC848484FC001010101010FF37
:10301000101000003F1010103F0000010640807F9C
:10302000000000E599A8000080809E9292929EE0A8
:10303000809EB2D2929E80000808F4949292F10091
:1030400001F2929494F80800E69CBA00001010D0A7
:10305000FF901000FE020202FE00000000040300C8
:10306000FF0083601F0000003F40407800E6A2B0F0
:1030700000001010D0FF900010D010D010FF109260
:103080001400040300FF0041310F01BF41273847FE
:10309000F000E8878200002010FF555555F70052D8
:1030A000565AF35A561200000000FE2A2A2A2A2AEB
:1030B0002AAAFE000000000000000000FF0101013C
:1030C0003109090909897101010101FFFF8080802F
:1030D0008080809681808080808080FFFF01818158
:1030E00081FD8991A1C1FD81818101FFFF808080E7
:1030F000809F888482819F80808080FF1C310008AF
:103100000000002030000000D01F00084C310008F3
:103110003000002050140000E01F000800000000F4
:103120000000000000000000000000000102030495
:103130000102030406070809020406080000000053
:0C31400000000000000000000000000083
:04000005080000ED02
:00000001FF
