:020000040800F2
:100000006010002005010008290A0008E505000825
:100010007D070008AD040008F91500080000000085
:100020000000000000000000000000006D0C00084F
:10003000B104000800000000150B0008590D00086D
:100040001F0100081F0100081F0100081F01000810
:100050001F0100081F0100081F0100081F01000800
:100060001F0100081F0100081F0100081F010008F0
:100070001F0100081F0100081F0100081F010008E0
:100080001F0100081F0100081F0100081F010008D0
:100090001F0100081F0100081F0100081F010008C0
:1000A0001F010008F51000081F010008CD1000080E
:1000B0001F010008411100081F0100081F0100086E
:1000C0001F0100081F0100081F0100081F01000890
:1000D0001F0100081F0100081F0100081F01000880
:1000E0001F0100081F0100081F010008DFF810D0E1
:1000F00000F078F9004800471D160008AFF30080B3
:10010000601000200648804706480047FEE7FEE7EB
:10011000FEE7FEE7FEE7FEE7FEE7FEE7FEE7FEE7B7
:10012000610D0008ED000008D2B201E000F8012BDB
:10013000491EFBD270470022F6E710B513460A4667
:1001400004461946FFF7F0FF204610BD2DE9F04D9B
:1001500081EA030404F0004B21F0004514464FF0FF
:10016000000A23F0004150EA050220D054EA0102BF
:100170001DD0C5F30A570246C5F31303C1F313009C
:10018000C1F30A5640F4801543F48013A7EB060828
:10019000101BD64608F2FD3873EB050002D308F1B8
:1001A000010801E092185B41B8F1000F03DA00206A
:1001B0000146BDE8F08D00204FF4801106468446CC
:1001C0000EE0171B73EB050705D3121B63EB05034A
:1001D00006434CEA010C49084FEA300092185B4193
:1001E00050EA0107EDD152EA030012D082EA04007E
:1001F00083EA0501084305D0101BAB4106D201225A
:10020000002306E000224FF0004302E06FF00102FD
:1002100053101AEB06004CEB085110EB0A0041EBAF
:100220000B01BDE8F04D00F07FB80EB540F2334150
:1002300002910021CDE900110A460B4600F083F837
:1002400003B000BD01F0004330B421F0004150EA9A
:10025000010206D00A0DA2F56072C1F31301002A53
:1002600002DC30BC00207047440F44EAC104C100E6
:10027000E01830BC00EBC25000F01FB8202A04DBAD
:10028000203A00FA02F1002070479140C2F12003A9
:1002900020FA03F3194390407047202A04DB203AE8
:1002A00021FA02F00021704721FA02F3D040C2F196
:1002B000200291400843194670470029A8BF7047A3
:1002C000401C490008BF20F00100704710B4B0FA8C
:1002D00080FC00FA0CF050EA010404BF10BC704727
:1002E00049B1CCF1200421FA04F411FA0CF118BF41
:1002F000012121430843A3EB0C01CB1D4FEA006110
:100300004FEA102042BF002010BC704700EBC350E2
:1003100010440029A4BF10BC7047401C490008BF0E
:1003200020F0010010BC704710B5141E73F10004DA
:1003300008DA401C41F1000192185B411A4301D1D7
:1003400020F0010010BD2DE9F04D92469B4611B101
:10035000B1FA81F202E0B0FA80F220329046FFF763
:100360008DFF04460F4640EA0A0041EA0B0153465E
:100370005A46084313D0114653EA010019D0C8F178
:1003800040025046FFF789FF05460E465046594643
:100390004246FFF773FF084305D0012004E02046E2
:1003A0003946BDE8F08D0020054346EAE0762C434F
:1003B00037430A986305E40AA0EB08000022FD0A0F
:1003C00044EA47540A3002D500200146E9E7010516
:1003D00010196941DDE9084500196941BDE8F04D92
:1003E000A2E70000064C074D06E0E06840F001037C
:1003F00094E8070098471034AC42F6D3FFF77AFE32
:10040000101800083018000830B5024600F00AF84D
:10041000831841F1000400BF00F004F8C01AA141A4
:10042000FAD330BD014908684968704720000020B0
:100430001FB50121022000F07FFB0021022000F007
:100440007BFB0121022000F067FB0121164800F030
:100450008FFE4720ADF8040040F2E730ADF8080009
:100460000020ADF8060001A90F4801F073F8012142
:100470000D4800F0AAFE012211460B4800F01AFFB9
:100480001D208DF8000000208DF8010001208DF85E
:1004900002008DF80300684600F0C8FA0121024806
:1004A00000F087FE1FBD00000004004000BFFEE713
:1004B00070472DE9F0410246002500260020002368
:1004C0000024002791F803C00CF00F0591F803C039
:1004D0000CF0100CBCF1000F03D091F802C04CEAF4
:1004E000050591F800C0BCF1000F31D01468002060
:1004F0002BE04FF0010C0CFA00F3B1F800C00CEA4D
:1005000003069E4220D183004FF00F0C0CFA03F734
:10051000BC4305FA03FC4CEA040491F803C0BCF1A7
:10052000280F06D14FF0010C0CFA00FCC2F814C0E1
:100530000AE091F803C0BCF1480F05D14FF0010C5F
:100540000CFA00FCC2F810C0401C0828D1D314607B
:10055000B1F800C0BCF1FF0F34DD546800202EE07C
:1005600000F1080C4FF0010808FA0CF3B1F800C0D4
:100570000CEA03069E4221D183004FF00F0C0CFAC7
:1005800003F7BC4305FA03FC4CEA040491F803C0EA
:10059000BCF1280F05D100F1080C08FA0CF8C2F8DC
:1005A000148091F803C0BCF1480F07D100F1080C8A
:1005B0004FF0010808FA0CF8C2F81080401C082817
:1005C000CED35460BDE8F0810246002093680B4012
:1005D0000BB1012000E0002070470AB1016100E08A
:1005E0004161704700BFFEE710B504460020A074CB
:1005F0000C4800F0ECFDA081A089E189884204DD6F
:10060000A089E189401A608106E0A089E1894FF65E
:10061000FF72511A08446081A089E081207A401C51
:10062000207210BD002C01402DE9F041074615460F
:100630001E46002413E00C4850F8340068B10A4804
:1006400000EBC40080884019074901EBC401888091
:100650004FF00101384600F06DF8601CC4B2042C64
:10066000E9DBBDE8F08100002800002038B5044631
:100670000121102000F070FA14208DF80300A088EA
:10068000ADF8000002208DF8020069462068FFF7EF
:1006900010FF00224FF400512068FFF79EFF002159
:1006A000204600F047F800200DE0084951F83010CE
:1006B00039B9064941F830400021044A02EBC00232
:1006C0009180411CC8B20428EFDB38BD280000200F
:1006D00010B5002428E0164850F8340010B3144830
:1006E00000EBC400808800281CDD114800EBC4002A
:1006F0008088B0F57A7F0BDC0D4951F83400002179
:1007000000F018F800200A4901EBC401888009E0D4
:10071000074800EBC4008088A0F57A70044901EB1B
:10072000C4018880601CC4B2042CD4DB10BD00005E
:100730002800002070B504460D46A07978B1012844
:100740001AD1012D05D1A18801222068FFF745FFAC
:1007500004E0A18800222068FFF73FFF0CE0012D94
:1007600005D1A18800222068FFF737FF04E0A188A7
:1007700001222068FFF731FF00BF70BD00BFFEE718
:1007800010B5044634B1012C11D0022C1BD0032C1F
:1007900030D124E000224FF480511748FFF71DFFAD
:1007A00000224FF400511448FFF717FF22E0012206
:1007B00011031148FFF711FF00224FF400510E48BA
:1007C000FFF70BFF16E000224FF480510A48FFF7B5
:1007D00004FF012251030848FFF7FFFE0AE001224F
:1007E00011030548FFF7F9FE012251030248FFF704
:1007F000F4FE00BF00BF10BD000C014010B5044660
:100800002046FFF7F1FEE07920B1012806D002284A
:100810000CD107E0204600F0B9F807E0204600F0D0
:10082000C9F803E0204600F0ECF800BF00BF10BD9F
:1008300010B502461068000E10711068C0F307432F
:100840001088000A5071147810795840FF280AD196
:1008500050796040FF2806D1107920B901209071AD
:100860000220D07102E0104600F001F810BD002116
:1008700001600172C17101827047000000B589B04A
:100880000121052000F068F948208DF823004FF47D
:100890008070ADF8200008A93A48FFF70AFE012150
:1008A000C80200F069F900214FF4006000F064F91B
:1008B0000121C80200F050F90121334800F058FC32
:1008C0008F20ADF814004FF6FF70ADF8180000202F
:1008D000ADF816008DF81C00ADF81A0005A92A48DD
:1008E00000F038FE0121284800F06FFC0021264866
:1008F00000F0E8FD0021244800F0F0FD0020ADF8F4
:1009000008000920ADF810000220ADF80A00002010
:10091000ADF80E000120ADF80C0002A91A4800F055
:1009200073FC0121184800F044FC01220021164804
:1009300000F02AFC01220321134800F0BBFC032134
:10094000114800F030FC1B208DF8040000208DF8C9
:10095000050001208DF806008DF8070001A800F0C1
:1009600065F819208DF8040000208DF8050001209D
:100970008DF806008DF8070001A800F057F809B0BF
:1009800000BD000000080140002C014010B50246E7
:10099000147A5389022C0CD141F27070834205DD28
:1009A000B3F5FA5F02DA0120D07102E01046FFF7DA
:1009B0005EFF10BD70B50446267A6589022E1FDDE4
:1009C000206840002060B5F5E17F05DDB5F52F7F9B
:1009D00002DA206820600EE0B5F5487F08DD40F2BD
:1009E0001450854204DA206840F00100206002E0E3
:1009F0002046FFF73CFF222E02D12046FFF718FFCA
:100A000070BD017A28290ED141892222027241F259
:100A10009412914206DD41F27072914202DA028A2A
:100A2000521C028200BF70477047000070B5002161
:100A300000230F22C47804B3154C246804F4E06446
:100A4000C4F5E064210AC1F10403CA40447804FA01
:100A500003F184781440214309010E4C0678A15516
:100A6000047804F01F050124AC4005786D11AD0039
:100A700005F1E025C5F8004109E0047804F01F0500
:100A80000124AC40044D0678761145F8264070BD2F
:100A90000CED00E000E400E080E100E002490143E9
:100AA000024A1160704700000000FA050CED00E0FA
:100AB00010B500F089F910BD0448036840685A1C5D
:100AC00040F1000001490A604860704700000020C2
:100AD00010B5044621464FF0804000F008FD10BDDF
:100AE00010B5044621464FF0804000F002FD10BDD5
:100AF00010B5044621464FF0804000F0FCFC10BDCC
:100B000010B504462146024800F0F5FC10BD000077
:100B1000000400407047000029B1064AD269024330
:100B2000044BDA6104E0034AD2698243014BDA6183
:100B3000704700000010024029B1064A12690243C2
:100B4000044B1A6104E0034A12698243014B1A61A3
:100B5000704700000010024029B1064A9269024322
:100B6000044B9A6104E0034A92698243014B9A6103
:100B7000704700000010024029B1064AD2680243C3
:100B8000044BDA6004E0034AD2688243014BDA6026
:100B9000704700000010024030B500210022002400
:100BA00000232D4D6D6805F00C0121B1042905D0FD
:100BB000082923D105E0294D056022E0274D056075
:100BC0001FE0254D6D6805F47012234D6D6805F426
:100BD0008034022505EB92421CB9214D5543056036
:100BE0000BE01D4D6D6805F400351DB11C4D5543DE
:100BF000056002E0194D5543056002E0174D0560A0
:100C000000BF00BF144D6D6805F0F0010909154DD6
:100C10006B5C0568DD4045600F4D6D6805F4E06173
:100C2000090A104D6B5C4568DD4085600A4D6D68B2
:100C300005F46051C90A0B4D6B5C4568DD40C56029
:100C4000054D6D6805F44041890B074D6B5CC56827
:100C5000B5FBF3F5056130BD0010024000127A00CB
:100C600000093D000C0000201C000020704710B55A
:100C700000F002F810BD00000CB5002001900090BB
:100C80003348006840F480303149086000BF304884
:100C9000006800F4003000900198401C019000981A
:100CA00018B90198B0F5A06FF1D12948006800F497
:100CB000003010B10120009001E000200090009869
:100CC000012843D12348006840F010002149086002
:100CD0000846006820F0070008600846006840F0F9
:100CE000020008601A484068194948600846406890
:100CF00048600846406840F48060486008464068A4
:100D000020F47C1048600846406840F4E8104860D1
:100D10000846006840F08070086000BF0C4800681A
:100D200000F000700028F9D00948406820F0030066
:100D3000074948600846406840F00200486000BF2C
:100D40000348406800F00C000828F9D10CBD0000F1
:100D5000001002400020024010B5FFF7ADFE10BDAC
:100D600010B51548006840F00100134908600846B6
:100D70004068124908401049486008460068104918
:100D800008400D4908600846006820F4802008608B
:100D90000846406820F4FE0048604FF41F00886059
:100DA000FFF765FF4FF00060064908604FF4A06050
:100DB000FFF774FE10BD0000001002400000FFF8B5
:100DC000FFFFF6FE08ED00E02DE9F04186B01421AA
:100DD00001A8FFF7B0F94FF0E020006920F0010012
:100DE0004FF0E02108610021244A1160516001A800
:100DF000FFF7D2FE4FF0E020006940F002004FF014
:100E0000E021086100211E48C1774FF47A710298F1
:100E1000B0FBF1F4B4F1807F09D3E4084FF0E02097
:100E2000006920F004004FF0E021086107E04FF076
:100E3000E020006940F004004FF0E0210861601EEE
:100E40004FF0E02148610846006940F00100086168
:100E5000496921F07F41481CFFF7E7F907463A4608
:100E60000B4600200749FFF771F90546FFF7EAF93D
:100E70000549086006B0BDE8F081000000000020D0
:100E800000ED00E000408F4008000020F0B50C4667
:100E9000154600220021068C4FF6FE773E40068460
:100EA000028B018C4FF60C7632407E1C06EA03164C
:100EB0002E433243104EB0420ED0104EB0420BD0F3
:100EC000B0F1804F08D00E4EB04205D00D4EB0426A
:100ED00002D00D4EB04206D14FF6FD76314044F0BF
:100EE0000106314305E04FF6F576314044F0010646
:100EF000314302830184F0BD002C014000340140E5
:100F00000004004000080040000C0040F0B50C4612
:100F10001546002200210026078C4FF6EF7C07EAD9
:100F20000C070784028B018C4FF6FF7707EA041643
:100F300040F6FF473A404FF6FF7707EA03373A4358
:100F40004FF6FF7707EA05273A43114FB8420ED014
:100F5000104FB8420BD0B0F1804F08D00E4FB842BE
:100F600005D00E4FB84202D00D4FB84206D14FF611
:100F7000DF77394046F01007394305E04FF65F77D9
:100F8000394044F01007394302830184F0BD00006A
:100F9000002C0140003401400004004000080040E3
:100FA000000C0040F0B50C4615460022002100263A
:100FB000078C4FF6FF6C07EA0C070784828B018CC5
:100FC0004FF6FF7707EA04264FF60C773A404FF6C4
:100FD000FF7707EA03172F433A43114FB8420ED069
:100FE000104FB8420BD0B0F1804F08D00E4FB8422E
:100FF00005D00E4FB84202D00D4FB84206D14FF681
:10100000FF57394046F48077394305E04FF2FF57E8
:10101000394044F48077394382830184F0BD000075
:10102000002C014000340140000400400008004052
:10103000000C0040F0B50C461546002200210026A9
:10104000078C4EF6FF7C07EA0C070784828B018C25
:101050004FF6FF7707EA043640F6FF473A404FF66F
:10106000FF7707EA05273A434FF6FF7707EA03378A
:101070003A43114FB8420ED0104FB8420BD0B0F1E6
:10108000804F08D00E4FB84205D00E4FB84202D064
:101090000D4FB84206D14DF6FF77394046F48057E0
:1010A000394305E047F6FF57394044F48057394348
:1010B00082830184F0BD0000002C01400034014017
:1010C0000004004000080040000C004010B5022160
:1010D000064800F088F8012806D10221034800F0F4
:1010E00065F80348FFF78AFB10BD0000002C0140A3
:1010F0004800002010B501210E4800F074F80128C6
:1011000016D101210B4800F051F84FF480710A48C4
:10111000FFF75AFA01280BD10848807C401C074988
:1011200088740846807C022802DB0846FFF79FFB94
:1011300010BD0000002C01400008014048000020C4
:1011400010B50121084800F045F860B101210648BA
:1011500000F029F8054802684068521C40F1000080
:1011600002490A60486010BD0004004020000020D1
:1011700021B1028842F08002028004E002884FF62A
:101180007F731A400280704730B5002301248C40E1
:10119000A3B2048C9C430484048C02FA01F5ADB222
:1011A0002C43048430BDCA4302827047CA43028282
:1011B000704721B1028842F00102028004E00288F7
:1011C0004FF6FE731A4002807047818270470146D5
:1011D000888E704702460020138A0B400BB1012015
:1011E00000E00020704730B50246002000230024B4
:1011F000158A05EA0103958905EA010413B10CB1CA
:10120000012000E0002030BD70B505460C462448A2
:1012100085420ED0234885420BD0B5F1804F08D0CF
:101220002148854205D02148854202D02048854288
:1012300000D100E000BF208850B92389A2886188CE
:101240002846FFF723FEE188284600F056F925E0FE
:10125000208804280AD12389A28861882846FFF7BC
:1012600055FEE188284600F051F917E0208808284B
:101270000AD12389A28861882846FFF793FEE18876
:10128000284600F050F909E02389A28861882846A1
:10129000FFF7D0FEE188284600F04EF970BD00004F
:1012A000002C0140003401400004004000080040D0
:1012B000000C00401AB183890B43838102E08389CB
:1012C0008B438381704701894FF6F8721140018189
:1012D0007047000070B5002400220023058C4FF6F3
:1012E000FE7635400584028C8388048B4FF68F751B
:1012F0002C40B51E2C400D882C43751E2A400D89AC
:101300002A434D882A43144DA8420BD0134DA842BE
:1013100008D0134DA84205D0124DA84202D0124D5C
:10132000A84213D14FF6F7752A404D892A434FF64C
:10133000FB752A408D882A434FF6FF652B404FF6F8
:10134000FF552B408D892B43CD892B43838004830C
:10135000CD888586028470BD002C01400034014098
:1013600000400140004401400048014070B50024A5
:1013700000220023058C4FF6EF7635400584028C61
:101380008388048B48F6FF752C404FF6FF452C40B0
:101390000D884FF6FF7606EA05252C434FF6DF75DC
:1013A0002A400D8906EA05152A434D8806EA0515E7
:1013B0002A43154DA84202D0144DA8421DD14FF624
:1013C0007F752A404D894FF6FF7606EA05152A43B8
:1013D0004FF6BF752A408D8806EA05152A434FF659
:1013E000FF352B404FF2FF752B408D8906EA8505AE
:1013F0002B43CD8906EA85052B4383800483CD8862
:101400000587028470BD0000002C014000340140BB
:1014100070B5002400220023058C4FF6FF6635408E
:101420000584028C8388848B4FF68F752C404FF691
:10143000FC752C400D882C434FF6FF552A400D8932
:101440004FF6FF7606EA05252A434D8806EA05256C
:101450002A43154DA84202D0144DA8421DD14FF287
:10146000FF752A404D894FF6FF7606EA05252A4387
:101470004FF6FF352A408D8806EA05252A434EF6A9
:10148000FF752B404DF6FF752B408D8906EA05153B
:101490002B43CD8906EA05152B4383808483CD88B1
:1014A0008587028470BD0000002C0140003401409B
:1014B0000021018041808180C18001814181818141
:1014C000C181704721B1828842F08002828004E0AD
:1014D00082884FF67F731A408280704702884FF6E9
:1014E000FF431A40028002880A43028070478186C7
:1014F00070470187704781877047028B4FF6F373FF
:101500001A400283028B0A4302837047028B4FF218
:10151000FF331A400283028B4FF6FF7303EA012365
:101520001A4302837047828B4FF6F3731A4082830B
:10153000828B0A4382837047828B4FF2FF331A40BB
:101540008283828B4FF6FF7303EA01231A4382835F
:1015500070470000002202881D4B98420ED01D4BA0
:1015600098420BD0B0F1804F08D01B4B984205D069
:101570001A4B984202D01A4B984204D14FF68F73FF
:101580001A404B881A43174B984207D0164B984283
:1015900004D04FF6FF431A40CB881A4302808B8851
:1015A00083850B8803850A4B98420BD0094B9842E0
:1015B00008D00E4B984205D00D4B984202D00D4BEF
:1015C000984201D10B7A0386012383827047000081
:1015D000002C01400034014000040040000800409D
:1015E000000C00400010004000140040004001408A
:1015F000004401400048014000BFFEE702E008C887
:10160000121F08C1002AFAD170477047002001E07C
:1016100001C1121F002AFBD1704700001CB5FFF763
:1016200047FAFEF705FF00F03BF8FFF727F91B48E4
:1016300000904014ADF8040000208DF806006846C4
:10164000FFF714F801216846FFF774F80021684697
:10165000FFF770F84FF4C870FFF73AFA4FF4FA60EA
:10166000FFF73EFA4FF4FA60FFF742FA0020FFF767
:1016700047FA0120FFF784F80FE04FF47A72002355
:101680006846FEF7D1FF4FF47A70FEF7BDFEFFF714
:101690001FF84FF47A70FEF7B7FEEEE70010014036
:1016A00000B58BB001210420FFF756FA18208DF801
:1016B0002B000720ADF8280003208DF82A000AA986
:1016C0005048FEF7F6FE01210820FFF745FA1820E2
:1016D0008DF827000120ADF8240003208DF82600A6
:1016E00009A94948FEF7E5FE01210820FFF734FA71
:1016F00010208DF823004FF44050ADF82000032057
:101700008DF8220008A94048FEF7D3FE0120FFF71C
:1017100037F801210846FFF7FFF901210220FFF702
:10172000FBF901213948FFF723FD4FF08040FFF717
:10173000CAFD3648FFF7C7FD0020ADF81A00ADF826
:10174000160044F61F60ADF818004720ADF81400ED
:1017500000208DF81C0005A94FF08040FFF7FAFE2D
:101760004720ADF8140040F2E730ADF81800002033
:10177000ADF8160005A92548FFF7ECFE0121880702
:10178000FFF723FD01212148FFF71FFD01A8FFF707
:101790008FFE6020ADF804000020ADF80C000120A1
:1017A000ADF806000020ADF80A0001A94FF0804016
:1017B000FFF790FD01A94FF08040FFF7D7FD01A989
:1017C0004FF08040FFF724FE01A8FFF771FE602074
:1017D000ADF804000020ADF80C000120ADF80600C3
:1017E0000020ADF80A0001A90848FFF711FE012109
:1017F0008807FFF7DEFC01210448FFF7DAFC0BB095
:1018000000BD000000080140000C01400004004041
:10181000301800080000002028000000FC15000817
:101820005818000828000020381000000C16000886
:1018300000000000000000000000000000000000A8
:101840000102030401020304060708090204060852
:08185000000000000000000090
:04000005080000ED02
:00000001FF
